{
  "contractName": "Boomflow",
  "abi": [
    {
      "inputs": [],
      "payable": false,
      "stateMutability": "nonpayable",
      "type": "constructor"
    },
    {
      "anonymous": false,
      "inputs": [
        {
          "indexed": false,
          "internalType": "bytes32",
          "name": "orderHash",
          "type": "bytes32"
        },
        {
          "indexed": false,
          "internalType": "uint256",
          "name": "fee",
          "type": "uint256"
        },
        {
          "indexed": false,
          "internalType": "uint256",
          "name": "contractFee",
          "type": "uint256"
        },
        {
          "indexed": false,
          "internalType": "address",
          "name": "contractFeeAddress",
          "type": "address"
        },
        {
          "indexed": false,
          "internalType": "address",
          "name": "matcherAddress",
          "type": "address"
        },
        {
          "indexed": false,
          "internalType": "uint256",
          "name": "tradeAmount",
          "type": "uint256"
        }
      ],
      "name": "Fill",
      "type": "event"
    },
    {
      "anonymous": false,
      "inputs": [
        {
          "indexed": false,
          "internalType": "address",
          "name": "account",
          "type": "address"
        }
      ],
      "name": "Paused",
      "type": "event"
    },
    {
      "anonymous": false,
      "inputs": [
        {
          "indexed": true,
          "internalType": "address",
          "name": "account",
          "type": "address"
        }
      ],
      "name": "PauserAdded",
      "type": "event"
    },
    {
      "anonymous": false,
      "inputs": [
        {
          "indexed": true,
          "internalType": "address",
          "name": "account",
          "type": "address"
        }
      ],
      "name": "PauserRemoved",
      "type": "event"
    },
    {
      "anonymous": false,
      "inputs": [
        {
          "indexed": false,
          "internalType": "address",
          "name": "account",
          "type": "address"
        }
      ],
      "name": "Unpaused",
      "type": "event"
    },
    {
      "anonymous": false,
      "inputs": [
        {
          "indexed": true,
          "internalType": "address",
          "name": "account",
          "type": "address"
        }
      ],
      "name": "WhitelistAdminAdded",
      "type": "event"
    },
    {
      "anonymous": false,
      "inputs": [
        {
          "indexed": true,
          "internalType": "address",
          "name": "account",
          "type": "address"
        }
      ],
      "name": "WhitelistAdminRemoved",
      "type": "event"
    },
    {
      "anonymous": false,
      "inputs": [
        {
          "indexed": true,
          "internalType": "address",
          "name": "account",
          "type": "address"
        }
      ],
      "name": "WhitelistedAdded",
      "type": "event"
    },
    {
      "anonymous": false,
      "inputs": [
        {
          "indexed": true,
          "internalType": "address",
          "name": "account",
          "type": "address"
        }
      ],
      "name": "WhitelistedRemoved",
      "type": "event"
    },
    {
      "constant": true,
      "inputs": [],
      "name": "EIP712_DOMAIN_HASH",
      "outputs": [
        {
          "internalType": "bytes32",
          "name": "",
          "type": "bytes32"
        }
      ],
      "payable": false,
      "stateMutability": "view",
      "type": "function"
    },
    {
      "constant": true,
      "inputs": [],
      "name": "MAX_CONTRACT_FEE",
      "outputs": [
        {
          "internalType": "uint256",
          "name": "",
          "type": "uint256"
        }
      ],
      "payable": false,
      "stateMutability": "view",
      "type": "function"
    },
    {
      "constant": false,
      "inputs": [
        {
          "internalType": "address",
          "name": "account",
          "type": "address"
        }
      ],
      "name": "addPauser",
      "outputs": [],
      "payable": false,
      "stateMutability": "nonpayable",
      "type": "function"
    },
    {
      "constant": false,
      "inputs": [
        {
          "internalType": "address",
          "name": "account",
          "type": "address"
        }
      ],
      "name": "addWhitelistAdmin",
      "outputs": [],
      "payable": false,
      "stateMutability": "nonpayable",
      "type": "function"
    },
    {
      "constant": false,
      "inputs": [
        {
          "internalType": "address",
          "name": "account",
          "type": "address"
        }
      ],
      "name": "addWhitelisted",
      "outputs": [],
      "payable": false,
      "stateMutability": "nonpayable",
      "type": "function"
    },
    {
      "constant": true,
      "inputs": [
        {
          "internalType": "bytes32",
          "name": "",
          "type": "bytes32"
        }
      ],
      "name": "cancelled",
      "outputs": [
        {
          "internalType": "bool",
          "name": "",
          "type": "bool"
        }
      ],
      "payable": false,
      "stateMutability": "view",
      "type": "function"
    },
    {
      "constant": true,
      "inputs": [],
      "name": "chainId",
      "outputs": [
        {
          "internalType": "uint256",
          "name": "",
          "type": "uint256"
        }
      ],
      "payable": false,
      "stateMutability": "view",
      "type": "function"
    },
    {
      "constant": true,
      "inputs": [
        {
          "internalType": "bytes32",
          "name": "",
          "type": "bytes32"
        }
      ],
      "name": "filled",
      "outputs": [
        {
          "internalType": "uint256",
          "name": "",
          "type": "uint256"
        }
      ],
      "payable": false,
      "stateMutability": "view",
      "type": "function"
    },
    {
      "constant": true,
      "inputs": [
        {
          "components": [
            {
              "components": [
                {
                  "internalType": "address",
                  "name": "userAddress",
                  "type": "address"
                },
                {
                  "internalType": "uint256",
                  "name": "amount",
                  "type": "uint256"
                },
                {
                  "internalType": "uint256",
                  "name": "price",
                  "type": "uint256"
                },
                {
                  "internalType": "uint256",
                  "name": "orderType",
                  "type": "uint256"
                },
                {
                  "internalType": "bool",
                  "name": "side",
                  "type": "bool"
                },
                {
                  "internalType": "uint256",
                  "name": "salt",
                  "type": "uint256"
                },
                {
                  "internalType": "address",
                  "name": "baseAssetAddress",
                  "type": "address"
                },
                {
                  "internalType": "address",
                  "name": "quoteAssetAddress",
                  "type": "address"
                },
                {
                  "internalType": "address",
                  "name": "feeAddress",
                  "type": "address"
                },
                {
                  "internalType": "uint256",
                  "name": "makerFeePercentage",
                  "type": "uint256"
                },
                {
                  "internalType": "uint256",
                  "name": "takerFeePercentage",
                  "type": "uint256"
                }
              ],
              "internalType": "struct LibOrder.Order",
              "name": "order",
              "type": "tuple"
            },
            {
              "internalType": "uint256",
              "name": "nonce",
              "type": "uint256"
            }
          ],
          "internalType": "struct LibRequest.CancelRequest",
          "name": "request",
          "type": "tuple"
        }
      ],
      "name": "getRequestHash",
      "outputs": [
        {
          "internalType": "bytes32",
          "name": "requestHash",
          "type": "bytes32"
        }
      ],
      "payable": false,
      "stateMutability": "view",
      "type": "function"
    },
    {
      "constant": true,
      "inputs": [
        {
          "internalType": "address",
          "name": "account",
          "type": "address"
        }
      ],
      "name": "isPauser",
      "outputs": [
        {
          "internalType": "bool",
          "name": "",
          "type": "bool"
        }
      ],
      "payable": false,
      "stateMutability": "view",
      "type": "function"
    },
    {
      "constant": true,
      "inputs": [
        {
          "internalType": "bytes32",
          "name": "hash",
          "type": "bytes32"
        },
        {
          "internalType": "address",
          "name": "signerAddress",
          "type": "address"
        },
        {
          "internalType": "bytes",
          "name": "signature",
          "type": "bytes"
        }
      ],
      "name": "isValidSignature",
      "outputs": [
        {
          "internalType": "bool",
          "name": "isValid",
          "type": "bool"
        }
      ],
      "payable": false,
      "stateMutability": "pure",
      "type": "function"
    },
    {
      "constant": true,
      "inputs": [
        {
          "internalType": "address",
          "name": "account",
          "type": "address"
        }
      ],
      "name": "isWhitelistAdmin",
      "outputs": [
        {
          "internalType": "bool",
          "name": "",
          "type": "bool"
        }
      ],
      "payable": false,
      "stateMutability": "view",
      "type": "function"
    },
    {
      "constant": true,
      "inputs": [
        {
          "internalType": "address",
          "name": "account",
          "type": "address"
        }
      ],
      "name": "isWhitelisted",
      "outputs": [
        {
          "internalType": "bool",
          "name": "",
          "type": "bool"
        }
      ],
      "payable": false,
      "stateMutability": "view",
      "type": "function"
    },
    {
      "constant": true,
      "inputs": [],
      "name": "lastTime",
      "outputs": [
        {
          "internalType": "uint256",
          "name": "",
          "type": "uint256"
        }
      ],
      "payable": false,
      "stateMutability": "view",
      "type": "function"
    },
    {
      "constant": true,
      "inputs": [
        {
          "internalType": "bytes32",
          "name": "",
          "type": "bytes32"
        }
      ],
      "name": "lastestCount",
      "outputs": [
        {
          "internalType": "uint256",
          "name": "",
          "type": "uint256"
        }
      ],
      "payable": false,
      "stateMutability": "view",
      "type": "function"
    },
    {
      "constant": true,
      "inputs": [
        {
          "internalType": "bytes32",
          "name": "",
          "type": "bytes32"
        }
      ],
      "name": "lastestPrice",
      "outputs": [
        {
          "internalType": "uint256",
          "name": "",
          "type": "uint256"
        }
      ],
      "payable": false,
      "stateMutability": "view",
      "type": "function"
    },
    {
      "constant": true,
      "inputs": [
        {
          "internalType": "bytes32",
          "name": "",
          "type": "bytes32"
        }
      ],
      "name": "lastestVolume",
      "outputs": [
        {
          "internalType": "uint256",
          "name": "baseVolume",
          "type": "uint256"
        },
        {
          "internalType": "uint256",
          "name": "quoteVolume",
          "type": "uint256"
        }
      ],
      "payable": false,
      "stateMutability": "view",
      "type": "function"
    },
    {
      "constant": true,
      "inputs": [],
      "name": "makerFeePercentage",
      "outputs": [
        {
          "internalType": "uint256",
          "name": "",
          "type": "uint256"
        }
      ],
      "payable": false,
      "stateMutability": "view",
      "type": "function"
    },
    {
      "constant": true,
      "inputs": [
        {
          "internalType": "bytes32",
          "name": "",
          "type": "bytes32"
        }
      ],
      "name": "max",
      "outputs": [
        {
          "internalType": "uint256",
          "name": "",
          "type": "uint256"
        }
      ],
      "payable": false,
      "stateMutability": "view",
      "type": "function"
    },
    {
      "constant": true,
      "inputs": [],
      "name": "minimumLockTime",
      "outputs": [
        {
          "internalType": "uint256",
          "name": "",
          "type": "uint256"
        }
      ],
      "payable": false,
      "stateMutability": "view",
      "type": "function"
    },
    {
      "constant": false,
      "inputs": [],
      "name": "pause",
      "outputs": [],
      "payable": false,
      "stateMutability": "nonpayable",
      "type": "function"
    },
    {
      "constant": true,
      "inputs": [],
      "name": "paused",
      "outputs": [
        {
          "internalType": "bool",
          "name": "",
          "type": "bool"
        }
      ],
      "payable": false,
      "stateMutability": "view",
      "type": "function"
    },
    {
      "constant": true,
      "inputs": [
        {
          "internalType": "bytes32",
          "name": "",
          "type": "bytes32"
        }
      ],
      "name": "recorded",
      "outputs": [
        {
          "internalType": "bool",
          "name": "",
          "type": "bool"
        }
      ],
      "payable": false,
      "stateMutability": "view",
      "type": "function"
    },
    {
      "constant": false,
      "inputs": [
        {
          "internalType": "address",
          "name": "account",
          "type": "address"
        }
      ],
      "name": "removeWhitelisted",
      "outputs": [],
      "payable": false,
      "stateMutability": "nonpayable",
      "type": "function"
    },
    {
      "constant": false,
      "inputs": [],
      "name": "renouncePauser",
      "outputs": [],
      "payable": false,
      "stateMutability": "nonpayable",
      "type": "function"
    },
    {
      "constant": false,
      "inputs": [],
      "name": "renounceWhitelistAdmin",
      "outputs": [],
      "payable": false,
      "stateMutability": "nonpayable",
      "type": "function"
    },
    {
      "constant": false,
      "inputs": [],
      "name": "renounceWhitelisted",
      "outputs": [],
      "payable": false,
      "stateMutability": "nonpayable",
      "type": "function"
    },
    {
      "constant": true,
      "inputs": [],
      "name": "takerFeePercentage",
      "outputs": [
        {
          "internalType": "uint256",
          "name": "",
          "type": "uint256"
        }
      ],
      "payable": false,
      "stateMutability": "view",
      "type": "function"
    },
    {
      "constant": true,
      "inputs": [],
      "name": "timestamp",
      "outputs": [
        {
          "internalType": "uint256",
          "name": "",
          "type": "uint256"
        }
      ],
      "payable": false,
      "stateMutability": "view",
      "type": "function"
    },
    {
      "constant": true,
      "inputs": [
        {
          "internalType": "bytes32",
          "name": "",
          "type": "bytes32"
        }
      ],
      "name": "timestamps",
      "outputs": [
        {
          "internalType": "uint256",
          "name": "",
          "type": "uint256"
        }
      ],
      "payable": false,
      "stateMutability": "view",
      "type": "function"
    },
    {
      "constant": false,
      "inputs": [],
      "name": "unpause",
      "outputs": [],
      "payable": false,
      "stateMutability": "nonpayable",
      "type": "function"
    },
    {
      "constant": true,
      "inputs": [
        {
          "internalType": "bytes32",
          "name": "orderHash",
          "type": "bytes32"
        }
      ],
      "name": "getOrderData",
      "outputs": [
        {
          "components": [
            {
              "internalType": "uint256",
              "name": "filled",
              "type": "uint256"
            },
            {
              "internalType": "uint256",
              "name": "max",
              "type": "uint256"
            },
            {
              "internalType": "bool",
              "name": "cancelled",
              "type": "bool"
            },
            {
              "internalType": "bool",
              "name": "flag",
              "type": "bool"
            }
          ],
          "internalType": "struct Boomflow.OrderData",
          "name": "orderData",
          "type": "tuple"
        }
      ],
      "payable": false,
      "stateMutability": "view",
      "type": "function"
    },
    {
      "constant": true,
      "inputs": [],
      "name": "getTimestamp",
      "outputs": [
        {
          "internalType": "uint256",
          "name": "",
          "type": "uint256"
        }
      ],
      "payable": false,
      "stateMutability": "view",
      "type": "function"
    },
    {
      "constant": false,
      "inputs": [
        {
          "components": [
            {
              "internalType": "address",
              "name": "userAddress",
              "type": "address"
            },
            {
              "internalType": "uint256",
              "name": "amount",
              "type": "uint256"
            },
            {
              "internalType": "uint256",
              "name": "price",
              "type": "uint256"
            },
            {
              "internalType": "uint256",
              "name": "orderType",
              "type": "uint256"
            },
            {
              "internalType": "bool",
              "name": "side",
              "type": "bool"
            },
            {
              "internalType": "uint256",
              "name": "salt",
              "type": "uint256"
            },
            {
              "internalType": "address",
              "name": "baseAssetAddress",
              "type": "address"
            },
            {
              "internalType": "address",
              "name": "quoteAssetAddress",
              "type": "address"
            },
            {
              "internalType": "address",
              "name": "feeAddress",
              "type": "address"
            },
            {
              "internalType": "uint256",
              "name": "makerFeePercentage",
              "type": "uint256"
            },
            {
              "internalType": "uint256",
              "name": "takerFeePercentage",
              "type": "uint256"
            }
          ],
          "internalType": "struct LibOrder.Order[]",
          "name": "orders",
          "type": "tuple[]"
        }
      ],
      "name": "recordOrders",
      "outputs": [],
      "payable": false,
      "stateMutability": "nonpayable",
      "type": "function"
    },
    {
      "constant": false,
      "inputs": [
        {
          "internalType": "uint256",
          "name": "newTimestamp",
          "type": "uint256"
        }
      ],
      "name": "setTimestamp",
      "outputs": [],
      "payable": false,
      "stateMutability": "nonpayable",
      "type": "function"
    },
    {
      "constant": false,
      "inputs": [
        {
          "internalType": "bytes32[]",
          "name": "hashes",
          "type": "bytes32[]"
        }
      ],
      "name": "removeObsoleteData",
      "outputs": [],
      "payable": false,
      "stateMutability": "nonpayable",
      "type": "function"
    },
    {
      "constant": true,
      "inputs": [
        {
          "internalType": "address",
          "name": "baseAssetAddress",
          "type": "address"
        },
        {
          "internalType": "address",
          "name": "quoteAssetAddress",
          "type": "address"
        }
      ],
      "name": "getPrice",
      "outputs": [
        {
          "internalType": "uint256",
          "name": "price",
          "type": "uint256"
        }
      ],
      "payable": false,
      "stateMutability": "view",
      "type": "function"
    },
    {
      "constant": true,
      "inputs": [
        {
          "internalType": "address",
          "name": "baseAssetAddress",
          "type": "address"
        },
        {
          "internalType": "address",
          "name": "quoteAssetAddress",
          "type": "address"
        }
      ],
      "name": "getCount",
      "outputs": [
        {
          "internalType": "uint256",
          "name": "count",
          "type": "uint256"
        }
      ],
      "payable": false,
      "stateMutability": "view",
      "type": "function"
    },
    {
      "constant": true,
      "inputs": [
        {
          "internalType": "address",
          "name": "baseAssetAddress",
          "type": "address"
        },
        {
          "internalType": "address",
          "name": "quoteAssetAddress",
          "type": "address"
        }
      ],
      "name": "getVolume",
      "outputs": [
        {
          "internalType": "uint256",
          "name": "baseVolume",
          "type": "uint256"
        },
        {
          "internalType": "uint256",
          "name": "quoteVolume",
          "type": "uint256"
        }
      ],
      "payable": false,
      "stateMutability": "view",
      "type": "function"
    },
    {
      "constant": false,
      "inputs": [
        {
          "components": [
            {
              "internalType": "address",
              "name": "userAddress",
              "type": "address"
            },
            {
              "internalType": "uint256",
              "name": "amount",
              "type": "uint256"
            },
            {
              "internalType": "uint256",
              "name": "price",
              "type": "uint256"
            },
            {
              "internalType": "uint256",
              "name": "orderType",
              "type": "uint256"
            },
            {
              "internalType": "bool",
              "name": "side",
              "type": "bool"
            },
            {
              "internalType": "uint256",
              "name": "salt",
              "type": "uint256"
            },
            {
              "internalType": "address",
              "name": "baseAssetAddress",
              "type": "address"
            },
            {
              "internalType": "address",
              "name": "quoteAssetAddress",
              "type": "address"
            },
            {
              "internalType": "address",
              "name": "feeAddress",
              "type": "address"
            },
            {
              "internalType": "uint256",
              "name": "makerFeePercentage",
              "type": "uint256"
            },
            {
              "internalType": "uint256",
              "name": "takerFeePercentage",
              "type": "uint256"
            }
          ],
          "internalType": "struct LibOrder.Order[]",
          "name": "makerOrders",
          "type": "tuple[]"
        },
        {
          "components": [
            {
              "internalType": "address",
              "name": "userAddress",
              "type": "address"
            },
            {
              "internalType": "uint256",
              "name": "amount",
              "type": "uint256"
            },
            {
              "internalType": "uint256",
              "name": "price",
              "type": "uint256"
            },
            {
              "internalType": "uint256",
              "name": "orderType",
              "type": "uint256"
            },
            {
              "internalType": "bool",
              "name": "side",
              "type": "bool"
            },
            {
              "internalType": "uint256",
              "name": "salt",
              "type": "uint256"
            },
            {
              "internalType": "address",
              "name": "baseAssetAddress",
              "type": "address"
            },
            {
              "internalType": "address",
              "name": "quoteAssetAddress",
              "type": "address"
            },
            {
              "internalType": "address",
              "name": "feeAddress",
              "type": "address"
            },
            {
              "internalType": "uint256",
              "name": "makerFeePercentage",
              "type": "uint256"
            },
            {
              "internalType": "uint256",
              "name": "takerFeePercentage",
              "type": "uint256"
            }
          ],
          "internalType": "struct LibOrder.Order[]",
          "name": "takerOrders",
          "type": "tuple[]"
        },
        {
          "internalType": "bytes[]",
          "name": "makerSignatures",
          "type": "bytes[]"
        },
        {
          "internalType": "bytes[]",
          "name": "takerSignatures",
          "type": "bytes[]"
        },
        {
          "components": [
            {
              "internalType": "uint256",
              "name": "tradeAmount",
              "type": "uint256"
            },
            {
              "internalType": "uint256",
              "name": "makerContractFee",
              "type": "uint256"
            },
            {
              "internalType": "uint256",
              "name": "takerContractFee",
              "type": "uint256"
            },
            {
              "internalType": "address",
              "name": "contractFeeAddress",
              "type": "address"
            }
          ],
          "internalType": "struct LibFillResults.Context[]",
          "name": "contexts",
          "type": "tuple[]"
        }
      ],
      "name": "batchExecuteTrade",
      "outputs": [],
      "payable": false,
      "stateMutability": "nonpayable",
      "type": "function"
    },
    {
      "constant": false,
      "inputs": [
        {
          "components": [
            {
              "internalType": "address",
              "name": "userAddress",
              "type": "address"
            },
            {
              "internalType": "uint256",
              "name": "amount",
              "type": "uint256"
            },
            {
              "internalType": "uint256",
              "name": "price",
              "type": "uint256"
            },
            {
              "internalType": "uint256",
              "name": "orderType",
              "type": "uint256"
            },
            {
              "internalType": "bool",
              "name": "side",
              "type": "bool"
            },
            {
              "internalType": "uint256",
              "name": "salt",
              "type": "uint256"
            },
            {
              "internalType": "address",
              "name": "baseAssetAddress",
              "type": "address"
            },
            {
              "internalType": "address",
              "name": "quoteAssetAddress",
              "type": "address"
            },
            {
              "internalType": "address",
              "name": "feeAddress",
              "type": "address"
            },
            {
              "internalType": "uint256",
              "name": "makerFeePercentage",
              "type": "uint256"
            },
            {
              "internalType": "uint256",
              "name": "takerFeePercentage",
              "type": "uint256"
            }
          ],
          "internalType": "struct LibOrder.Order",
          "name": "makerOrder",
          "type": "tuple"
        },
        {
          "components": [
            {
              "internalType": "address",
              "name": "userAddress",
              "type": "address"
            },
            {
              "internalType": "uint256",
              "name": "amount",
              "type": "uint256"
            },
            {
              "internalType": "uint256",
              "name": "price",
              "type": "uint256"
            },
            {
              "internalType": "uint256",
              "name": "orderType",
              "type": "uint256"
            },
            {
              "internalType": "bool",
              "name": "side",
              "type": "bool"
            },
            {
              "internalType": "uint256",
              "name": "salt",
              "type": "uint256"
            },
            {
              "internalType": "address",
              "name": "baseAssetAddress",
              "type": "address"
            },
            {
              "internalType": "address",
              "name": "quoteAssetAddress",
              "type": "address"
            },
            {
              "internalType": "address",
              "name": "feeAddress",
              "type": "address"
            },
            {
              "internalType": "uint256",
              "name": "makerFeePercentage",
              "type": "uint256"
            },
            {
              "internalType": "uint256",
              "name": "takerFeePercentage",
              "type": "uint256"
            }
          ],
          "internalType": "struct LibOrder.Order",
          "name": "takerOrder",
          "type": "tuple"
        },
        {
          "internalType": "bytes",
          "name": "makerSignature",
          "type": "bytes"
        },
        {
          "internalType": "bytes",
          "name": "takerSignature",
          "type": "bytes"
        },
        {
          "components": [
            {
              "internalType": "uint256",
              "name": "tradeAmount",
              "type": "uint256"
            },
            {
              "internalType": "uint256",
              "name": "makerContractFee",
              "type": "uint256"
            },
            {
              "internalType": "uint256",
              "name": "takerContractFee",
              "type": "uint256"
            },
            {
              "internalType": "address",
              "name": "contractFeeAddress",
              "type": "address"
            }
          ],
          "internalType": "struct LibFillResults.Context",
          "name": "context",
          "type": "tuple"
        }
      ],
      "name": "executeTrade",
      "outputs": [
        {
          "components": [
            {
              "internalType": "uint256",
              "name": "tradeAmount",
              "type": "uint256"
            },
            {
              "internalType": "uint256",
              "name": "tradeFunds",
              "type": "uint256"
            },
            {
              "internalType": "uint256",
              "name": "makerFillAmount",
              "type": "uint256"
            },
            {
              "internalType": "uint256",
              "name": "takerFillAmount",
              "type": "uint256"
            },
            {
              "internalType": "uint256",
              "name": "makerFee",
              "type": "uint256"
            },
            {
              "internalType": "uint256",
              "name": "takerFee",
              "type": "uint256"
            },
            {
              "internalType": "uint256",
              "name": "makerContractFee",
              "type": "uint256"
            },
            {
              "internalType": "uint256",
              "name": "takerContractFee",
              "type": "uint256"
            }
          ],
          "internalType": "struct LibFillResults.MatchedFillResults",
          "name": "matchedFillResults",
          "type": "tuple"
        }
      ],
      "payable": false,
      "stateMutability": "nonpayable",
      "type": "function"
    },
    {
      "constant": false,
      "inputs": [
        {
          "components": [
            {
              "components": [
                {
                  "internalType": "address",
                  "name": "userAddress",
                  "type": "address"
                },
                {
                  "internalType": "uint256",
                  "name": "amount",
                  "type": "uint256"
                },
                {
                  "internalType": "uint256",
                  "name": "price",
                  "type": "uint256"
                },
                {
                  "internalType": "uint256",
                  "name": "orderType",
                  "type": "uint256"
                },
                {
                  "internalType": "bool",
                  "name": "side",
                  "type": "bool"
                },
                {
                  "internalType": "uint256",
                  "name": "salt",
                  "type": "uint256"
                },
                {
                  "internalType": "address",
                  "name": "baseAssetAddress",
                  "type": "address"
                },
                {
                  "internalType": "address",
                  "name": "quoteAssetAddress",
                  "type": "address"
                },
                {
                  "internalType": "address",
                  "name": "feeAddress",
                  "type": "address"
                },
                {
                  "internalType": "uint256",
                  "name": "makerFeePercentage",
                  "type": "uint256"
                },
                {
                  "internalType": "uint256",
                  "name": "takerFeePercentage",
                  "type": "uint256"
                }
              ],
              "internalType": "struct LibOrder.Order",
              "name": "order",
              "type": "tuple"
            },
            {
              "internalType": "uint256",
              "name": "nonce",
              "type": "uint256"
            }
          ],
          "internalType": "struct LibRequest.CancelRequest[]",
          "name": "requests",
          "type": "tuple[]"
        },
        {
          "internalType": "bytes[]",
          "name": "signatures",
          "type": "bytes[]"
        }
      ],
      "name": "cancelOrders",
      "outputs": [],
      "payable": false,
      "stateMutability": "nonpayable",
      "type": "function"
    },
    {
      "constant": false,
      "inputs": [
        {
          "components": [
            {
              "components": [
                {
                  "internalType": "address",
                  "name": "userAddress",
                  "type": "address"
                },
                {
                  "internalType": "uint256",
                  "name": "amount",
                  "type": "uint256"
                },
                {
                  "internalType": "uint256",
                  "name": "price",
                  "type": "uint256"
                },
                {
                  "internalType": "uint256",
                  "name": "orderType",
                  "type": "uint256"
                },
                {
                  "internalType": "bool",
                  "name": "side",
                  "type": "bool"
                },
                {
                  "internalType": "uint256",
                  "name": "salt",
                  "type": "uint256"
                },
                {
                  "internalType": "address",
                  "name": "baseAssetAddress",
                  "type": "address"
                },
                {
                  "internalType": "address",
                  "name": "quoteAssetAddress",
                  "type": "address"
                },
                {
                  "internalType": "address",
                  "name": "feeAddress",
                  "type": "address"
                },
                {
                  "internalType": "uint256",
                  "name": "makerFeePercentage",
                  "type": "uint256"
                },
                {
                  "internalType": "uint256",
                  "name": "takerFeePercentage",
                  "type": "uint256"
                }
              ],
              "internalType": "struct LibOrder.Order",
              "name": "order",
              "type": "tuple"
            },
            {
              "internalType": "uint256",
              "name": "nonce",
              "type": "uint256"
            }
          ],
          "internalType": "struct LibRequest.CancelRequest",
          "name": "request",
          "type": "tuple"
        },
        {
          "internalType": "bytes",
          "name": "signature",
          "type": "bytes"
        }
      ],
      "name": "cancelOrder",
      "outputs": [],
      "payable": false,
      "stateMutability": "nonpayable",
      "type": "function"
    },
    {
      "constant": false,
      "inputs": [
        {
          "components": [
            {
              "internalType": "address",
              "name": "userAddress",
              "type": "address"
            },
            {
              "internalType": "uint256",
              "name": "amount",
              "type": "uint256"
            },
            {
              "internalType": "uint256",
              "name": "price",
              "type": "uint256"
            },
            {
              "internalType": "uint256",
              "name": "orderType",
              "type": "uint256"
            },
            {
              "internalType": "bool",
              "name": "side",
              "type": "bool"
            },
            {
              "internalType": "uint256",
              "name": "salt",
              "type": "uint256"
            },
            {
              "internalType": "address",
              "name": "baseAssetAddress",
              "type": "address"
            },
            {
              "internalType": "address",
              "name": "quoteAssetAddress",
              "type": "address"
            },
            {
              "internalType": "address",
              "name": "feeAddress",
              "type": "address"
            },
            {
              "internalType": "uint256",
              "name": "makerFeePercentage",
              "type": "uint256"
            },
            {
              "internalType": "uint256",
              "name": "takerFeePercentage",
              "type": "uint256"
            }
          ],
          "internalType": "struct LibOrder.Order",
          "name": "order",
          "type": "tuple"
        },
        {
          "internalType": "bytes",
          "name": "signature",
          "type": "bytes"
        }
      ],
      "name": "finalizeOrder",
      "outputs": [],
      "payable": false,
      "stateMutability": "nonpayable",
      "type": "function"
    },
    {
      "constant": false,
      "inputs": [],
      "name": "Pause",
      "outputs": [],
      "payable": false,
      "stateMutability": "nonpayable",
      "type": "function"
    },
    {
      "constant": false,
      "inputs": [],
      "name": "Resume",
      "outputs": [],
      "payable": false,
      "stateMutability": "nonpayable",
      "type": "function"
    },
    {
      "constant": true,
      "inputs": [
        {
          "components": [
            {
              "internalType": "address",
              "name": "userAddress",
              "type": "address"
            },
            {
              "internalType": "uint256",
              "name": "amount",
              "type": "uint256"
            },
            {
              "internalType": "uint256",
              "name": "price",
              "type": "uint256"
            },
            {
              "internalType": "uint256",
              "name": "orderType",
              "type": "uint256"
            },
            {
              "internalType": "bool",
              "name": "side",
              "type": "bool"
            },
            {
              "internalType": "uint256",
              "name": "salt",
              "type": "uint256"
            },
            {
              "internalType": "address",
              "name": "baseAssetAddress",
              "type": "address"
            },
            {
              "internalType": "address",
              "name": "quoteAssetAddress",
              "type": "address"
            },
            {
              "internalType": "address",
              "name": "feeAddress",
              "type": "address"
            },
            {
              "internalType": "uint256",
              "name": "makerFeePercentage",
              "type": "uint256"
            },
            {
              "internalType": "uint256",
              "name": "takerFeePercentage",
              "type": "uint256"
            }
          ],
          "internalType": "struct LibOrder.Order",
          "name": "order",
          "type": "tuple"
        }
      ],
      "name": "getOrderInfo",
      "outputs": [
        {
          "components": [
            {
              "internalType": "uint8",
              "name": "orderStatus",
              "type": "uint8"
            },
            {
              "internalType": "bytes32",
              "name": "orderHash",
              "type": "bytes32"
            },
            {
              "internalType": "uint256",
              "name": "filledAmount",
              "type": "uint256"
            }
          ],
          "internalType": "struct LibOrder.OrderInfo",
          "name": "orderInfo",
          "type": "tuple"
        }
      ],
      "payable": false,
      "stateMutability": "view",
      "type": "function"
    },
    {
      "constant": true,
      "inputs": [
        {
          "components": [
            {
              "internalType": "address",
              "name": "userAddress",
              "type": "address"
            },
            {
              "internalType": "uint256",
              "name": "amount",
              "type": "uint256"
            },
            {
              "internalType": "uint256",
              "name": "price",
              "type": "uint256"
            },
            {
              "internalType": "uint256",
              "name": "orderType",
              "type": "uint256"
            },
            {
              "internalType": "bool",
              "name": "side",
              "type": "bool"
            },
            {
              "internalType": "uint256",
              "name": "salt",
              "type": "uint256"
            },
            {
              "internalType": "address",
              "name": "baseAssetAddress",
              "type": "address"
            },
            {
              "internalType": "address",
              "name": "quoteAssetAddress",
              "type": "address"
            },
            {
              "internalType": "address",
              "name": "feeAddress",
              "type": "address"
            },
            {
              "internalType": "uint256",
              "name": "makerFeePercentage",
              "type": "uint256"
            },
            {
              "internalType": "uint256",
              "name": "takerFeePercentage",
              "type": "uint256"
            }
          ],
          "internalType": "struct LibOrder.Order",
          "name": "order",
          "type": "tuple"
        },
        {
          "components": [
            {
              "internalType": "uint8",
              "name": "orderStatus",
              "type": "uint8"
            },
            {
              "internalType": "bytes32",
              "name": "orderHash",
              "type": "bytes32"
            },
            {
              "internalType": "uint256",
              "name": "filledAmount",
              "type": "uint256"
            }
          ],
          "internalType": "struct LibOrder.OrderInfo",
          "name": "orderInfo",
          "type": "tuple"
        },
        {
          "internalType": "bytes",
          "name": "signature",
          "type": "bytes"
        }
      ],
      "name": "assertFillableOrder",
      "outputs": [],
      "payable": false,
      "stateMutability": "pure",
      "type": "function"
    }
  ],
  "bytecode": "0x60806040526000600c556000600d556000600e55620151806010553480156200002757600080fd5b50604080518082019091526008815267426f6f6d666c6f7760c01b60208201526200006d6200005e6001600160e01b036200018d16565b6001600160e01b036200019116565b6002805460ff19166001179055466003819055604051620000919060200162000776565b60408051601f19818403018152828252805160209182012085518683012084840184526003808652620312e360ec1b95840195909552935492516200010094919391927fe6bbd6277e1bf288eed5e8d1780f9a50b239e86b153736bceebccf4ea79d90b39291309101620007d4565b60408051601f19818403018152919052805160209091012060045550620001449050620001356001600160e01b036200018d16565b6001600160e01b03620001e316565b6006805460ff1916905562000174620001656001600160e01b036200018d16565b6001600160e01b036200023516565b620001876001600160e01b036200029a16565b620008c2565b3390565b620001ac816000620002e560201b62001dc91790919060201c565b6040516001600160a01b038216907f22380c05984257a1cb900161c713dd71d39e74820f1aea43bd3f1bdd2096129990600090a250565b620001fe816005620002e560201b62001dc91790919060201c565b6040516001600160a01b038216907f6719d08c1888103bea251a4ed56406bd0c3e69723c8a1686e017e7bbe159b6f890600090a250565b6200025b6200024c6001600160e01b036200018d16565b6001600160e01b036200033f16565b620002835760405162461bcd60e51b81526004016200027a9062000872565b60405180910390fd5b62000297816001600160e01b036200036216565b50565b620002b16200024c6001600160e01b036200018d16565b620002d05760405162461bcd60e51b81526004016200027a9062000872565b620002e36001600160e01b03620003b416565b565b620002fa82826001600160e01b036200047916565b156200031a5760405162461bcd60e51b81526004016200027a906200082a565b6001600160a01b0316600090815260209190915260409020805460ff19166001179055565b60006200035c8260006200047960201b620017551790919060201c565b92915050565b6200037d816001620002e560201b62001dc91790919060201c565b6040516001600160a01b038216907fee1504a83b6d4a361f4c1dc78ab59bfa30d6a3b6612c403e86bb01ef2984295f90600090a250565b620003da620003cb6001600160e01b036200018d16565b6001600160e01b03620004c416565b620003f95760405162461bcd60e51b81526004016200027a906200083c565b60065460ff16156200041f5760405162461bcd60e51b81526004016200027a906200084e565b6006805460ff191660011790557f62e78cea01bee320cd4e420270b5ea74000d11b0c9f74754ebdbfc544b05a258620004606001600160e01b036200018d16565b6040516200046f9190620007c4565b60405180910390a1565b60006001600160a01b038216620004a45760405162461bcd60e51b81526004016200027a9062000860565b506001600160a01b03166000908152602091909152604090205460ff1690565b60006200035c8260056200047960201b620017551790919060201c565b620004ec81620008ae565b82525050565b620004ec8162000892565b620004ec816200089f565b600062000517600c836200088d565b6b1cdd1c9a5b99c81b985b594b60a21b8152600c0192915050565b600062000541601f8362000884565b7f526f6c65733a206163636f756e7420616c72656164792068617320726f6c6500815260200192915050565b60006200057c60308362000884565b7f506175736572526f6c653a2063616c6c657220646f6573206e6f74206861766581526f207468652050617573657220726f6c6560801b602082015260400192915050565b6000620005d06019836200088d565b7f6164647265737320766572696679696e67436f6e747261637400000000000000815260190192915050565b60006200060b6010836200088d565b6f1d5a5b9d0c8d4d8818da185a5b92590b60821b815260100192915050565b6000620006396001836200088d565b602960f81b815260010192915050565b600062000658600f836200088d565b6e1cdd1c9a5b99c81d995c9cda5bdb8b608a1b8152600f0192915050565b60006200068560108362000884565b6f14185d5cd8589b194e881c185d5cd95960821b815260200192915050565b6000620006b360228362000884565b7f526f6c65733a206163636f756e7420697320746865207a65726f206164647265815261737360f01b602082015260400192915050565b6000620006f960408362000884565b7f57686974656c69737441646d696e526f6c653a2063616c6c657220646f65732081527f6e6f742068617665207468652057686974656c69737441646d696e20726f6c65602082015260400192915050565b60006200075a600d836200088d565b6c08a92a06e626488dedac2d2dc5609b1b8152600d0192915050565b600062000783826200074b565b9150620007908262000508565b91506200079d8262000649565b9150620007aa82620005fc565b9150620007b782620005c1565b91506200035c826200062a565b602081016200035c8284620004e1565b60a08101620007e48288620004fd565b620007f36020830187620004fd565b620008026040830186620004fd565b620008116060830185620004fd565b620008206080830184620004f2565b9695505050505050565b602080825281016200035c8162000532565b602080825281016200035c816200056d565b602080825281016200035c8162000676565b602080825281016200035c81620006a4565b602080825281016200035c81620006ea565b90815260200190565b919050565b60006200035c82620008a2565b90565b6001600160a01b031690565b60006200035c8260006200035c8262000892565b61430e80620008d26000396000f3fe608060405234801561001057600080fd5b50600436106103205760003560e01c8063954f85e3116101a7578063bf2ee5f0116100ee578063d6cd947311610097578063ed6d0c5b11610071578063ed6d0c5b1461060c578063f9f652ee14610614578063fb4d31441461063457610320565b8063d6cd9473146105dc578063e306f779146105e4578063e7e0ec5d146105ec57610320565b8063d2adbc21116100c8578063d2adbc21146105a3578063d3d7f889146105b6578063d6399790146105c957610320565b8063bf2ee5f014610575578063c37f03c714610588578063d1afe78f1461059057610320565b8063a68bdd6211610150578063b58729581161012a578063b587295814610547578063b80777ea1461055a578063bb5f747b1461056257610320565b8063a68bdd6214610519578063ac41865a14610521578063ae86cdbb1461053457610320565b8063a1627fa911610181578063a1627fa9146104e0578063a40f1e3a146104f3578063a61522771461050657610320565b8063954f85e3146104b25780639a8a0592146104c5578063a0a2b573146104cd57610320565b8063490d6d111161026b5780636ef8d66d116102145780638456cb59116101ee5780638456cb591461048f578063936347021461049757806393e9a084146104aa57610320565b80636ef8d66d146104615780637362d9c81461046957806382dc1ec41461047c57610320565b80635c975abb116102455780635c975abb146104305780635dedabf9146104385780636985a0221461045957610320565b8063490d6d111461040d5780634c5a628c1461041557806353db95a01461041d57610320565b8063291d9549116102cd5780633af32abf116102a75780633af32abf146103df5780633f4ba83a146103f257806346fbf68e146103fa57610320565b8063291d9549146103995780632ac12622146103ac5780632c1678db146103cc57610320565b80632699918c116102fe5780632699918c14610360578063288cdc911461037357806328acc9e71461038657610320565b806310154bad14610325578063188ec3561461033a57806318db082914610358575b600080fd5b610338610333366004612bc9565b610654565b005b610342610690565b60405161034f9190613c21565b60405180910390f35b610342610696565b61033861036e366004612ee9565b61069c565b610342610381366004612dde565b61074f565b610338610394366004612c29565b610761565b6103386103a7366004612bc9565b610803565b6103bf6103ba366004612dde565b610833565b60405161034f9190613c13565b6103426103da366004612dde565b610848565b6103bf6103ed366004612bc9565b61085a565b610338610875565b6103bf610408366004612bc9565b610908565b61033861091b565b61033861094c565b61033861042b366004612c5e565b61095c565b6103bf610a10565b61044b610446366004612bef565b610a19565b60405161034f929190613f95565b610338610a69565b610338610a98565b610338610477366004612bc9565b610aa8565b61033861048a366004612bc9565b610ad8565b610338610b08565b6103bf6104a5366004612dfc565b610b88565b610342610ca6565b6103386104c0366004612cbd565b610cac565b610342610d40565b6103386104db366004612dde565b610d46565b6103426104ee366004612dde565b610d93565b61044b610501366004612dde565b610da5565b610342610514366004612dde565b610dbe565b610342610dd0565b61034261052f366004612bef565b610dd6565b610338610542366004612f27565b610e19565b610342610555366004612dde565b610fcc565b610342610fde565b6103bf610570366004612bc9565b610fe4565b610338610583366004612e80565b610ff6565b6103426110bb565b61033861059e366004612cf2565b6110c7565b6103426105b1366004612e61565b6112b6565b6103426105c4366004612bef565b6112c9565b6103bf6105d7366004612dde565b61130c565b610338611321565b610342611331565b6105ff6105fa366004612f79565b611337565b60405161034f9190613f6a565b6103426113f8565b610627610622366004612eca565b6113fe565b60405161034f9190613f87565b610647610642366004612dde565b611587565b60405161034f9190613f79565b61065f6105706115ea565b6106845760405162461bcd60e51b815260040161067b90613eaa565b60405180910390fd5b61068d816115ee565b50565b600c5490565b600d5481565b6106a76103ed6115ea565b6106c35760405162461bcd60e51b815260040161067b90613eda565b60065460ff16156106e65760405162461bcd60e51b815260040161067b90613dda565b60006106f183611636565b905061070281846000015184610b88565b61071e5760405162461bcd60e51b815260040161067b90613dba565b6000908152600960209081526040808320805460ff1916600117905560a090940151600a9091529290209190915550565b60076020526000908152604090205481565b61076c6105706115ea565b6107885760405162461bcd60e51b815260040161067b90613eaa565b60005b81518110156107ff57600c54600a60008484815181106107a757fe5b6020026020010151815260200190815260200160002054106107db5760405162461bcd60e51b815260040161067b90613dca565b6107f78282815181106107ea57fe5b6020026020010151611644565b60010161078b565b5050565b61080e6105706115ea565b61082a5760405162461bcd60e51b815260040161067b90613eaa565b61068d8161170d565b60096020526000908152604090205460ff1681565b60126020526000908152604090205481565b600061086d60018363ffffffff61175516565b90505b919050565b6108806104086115ea565b61089c5760405162461bcd60e51b815260040161067b90613d5a565b60065460ff166108be5760405162461bcd60e51b815260040161067b90613d2a565b6006805460ff191690557f5db9ee0a495bf2e6ff9c91a7834c1ba4fdd244a5e8aa4e537bd38aeae4b073aa6108f16115ea565b6040516108fe9190613bdd565b60405180910390a1565b600061086d60058363ffffffff61175516565b6109266105706115ea565b6109425760405162461bcd60e51b815260040161067b90613eaa565b61094a610875565b565b61094a6109576115ea565b6117a1565b6109676103ed6115ea565b6109835760405162461bcd60e51b815260040161067b90613eda565b60065460ff16156109a65760405162461bcd60e51b815260040161067b90613dda565b80518251146109c75760405162461bcd60e51b815260040161067b90613eba565b60005b8251811015610a0b57610a038382815181106109e257fe5b60200260200101518383815181106109f657fe5b6020026020010151610ff6565b6001016109ca565b505050565b60065460ff1690565b60008060008484604051602001610a31929190613bab565b60408051601f198184030181529181528151602092830120600090815260139092529020805460019091015490969095509350505050565b610a746105706115ea565b610a905760405162461bcd60e51b815260040161067b90613eaa565b61094a610b08565b61094a610aa36115ea565b6117e9565b610ab36105706115ea565b610acf5760405162461bcd60e51b815260040161067b90613eaa565b61068d81611831565b610ae36104086115ea565b610aff5760405162461bcd60e51b815260040161067b90613d5a565b61068d81611879565b610b136104086115ea565b610b2f5760405162461bcd60e51b815260040161067b90613d5a565b60065460ff1615610b525760405162461bcd60e51b815260040161067b90613dda565b6006805460ff191660011790557f62e78cea01bee320cd4e420270b5ea74000d11b0c9f74754ebdbfc544b05a2586108f16115ea565b60006001600160a01b038316610bb05760405162461bcd60e51b815260040161067b90613dfa565b8151604114610bd15760405162461bcd60e51b815260040161067b90613cfa565b600082604081518110610be057fe5b016020015160f81c9050601b811480610bfc57508060ff16601c145b610c185760405162461bcd60e51b815260040161067b90613eca565b6000610c258460006118c1565b90506000610c348560206118c1565b905060018784848460405160008152602001604052604051610c599493929190613ca4565b6020604051602081039080840390855afa158015610c7b573d6000803e3d6000fd5b505050602060405103516001600160a01b0316866001600160a01b03161493505050505b9392505050565b600f5481565b610cb76105706115ea565b610cd35760405162461bcd60e51b815260040161067b90613eaa565b60005b81518110156107ff57600c54828281518110610cee57fe5b602002602001015160a0015110610d38576000610d1d838381518110610d1057fe5b6020026020010151611636565b6000908152600b60205260409020805460ff19166001179055505b600101610cd6565b60035481565b610d516105706115ea565b610d6d5760405162461bcd60e51b815260040161067b90613eaa565b600c548111610d8e5760405162461bcd60e51b815260040161067b90613d6a565b600c55565b60086020526000908152604090205481565b6013602052600090815260409020805460019091015482565b60116020526000908152604090205481565b600e5481565b6000808383604051602001610dec929190613bab565b60408051601f19818403018152918152815160209283012060009081526011909252902054949350505050565b815160ff1660011415610e3e5760405162461bcd60e51b815260040161067b90613f3a565b815160ff1660021415610e635760405162461bcd60e51b815260040161067b90613d9a565b815160ff1660071415610e885760405162461bcd60e51b815260040161067b90613d4a565b815160ff16610ea95760405162461bcd60e51b815260040161067b90613d0a565b815160ff1660051415610ece5760405162461bcd60e51b815260040161067b90613e3a565b815160ff1660041415610ef35760405162461bcd60e51b815260040161067b90613eea565b815160ff1660061415610f185760405162461bcd60e51b815260040161067b90613d8a565b815160ff16600314610f3c5760405162461bcd60e51b815260040161067b90613efa565b826101200151670de0b6b3a764000011610f685760405162461bcd60e51b815260040161067b90613e8a565b826101400151670de0b6b3a764000011610f945760405162461bcd60e51b815260040161067b90613e8a565b6040820151610a0b57610fb08260200151846000015183610b88565b610a0b5760405162461bcd60e51b815260040161067b90613dba565b600a6020526000908152604090205481565b600c5481565b600061086d818363ffffffff61175516565b6110016103ed6115ea565b61101d5760405162461bcd60e51b815260040161067b90613eda565b60065460ff16156110405760405162461bcd60e51b815260040161067b90613dda565b600061104b836112b6565b83515190915061105d90829084610b88565b6110795760405162461bcd60e51b815260040161067b90613f2a565b60006110888460000151611636565b6000908152600960209081526040808320805460ff19166001179055955160a00151600a90915294902093909355505050565b670429d069189e000081565b6110d26103ed6115ea565b6110ee5760405162461bcd60e51b815260040161067b90613eda565b60065460ff16156111115760405162461bcd60e51b815260040161067b90613dda565b60025460ff166111335760405162461bcd60e51b815260040161067b90613f4a565b6002805460ff19169055835185511461115e5760405162461bcd60e51b815260040161067b90613e6a565b825185511461117f5760405162461bcd60e51b815260040161067b90613dea565b81518451146111a05760405162461bcd60e51b815260040161067b90613d1a565b80518551146111c15760405162461bcd60e51b815260040161067b90613daa565b6111c9612671565b60005b86518110156112a05761120d8382815181106111e457fe5b6020026020010151602001518483815181106111fc57fe5b6020026020010151604001516118f0565b61127987828151811061121c57fe5b602002602001015187838151811061123057fe5b602002602001015187848151811061124457fe5b602002602001015187858151811061125857fe5b602002602001015187868151811061126c57fe5b602002602001015161199a565b915061129887828151811061128a57fe5b602002602001015183611c2f565b6001016111cc565b50506002805460ff191660011790555050505050565b600061086d6112c483611d06565b611d89565b60008083836040516020016112df929190613bab565b60408051601f19818403018152918152815160209283012060009081526012909252902054949350505050565b600b6020526000908152604090205460ff1681565b61094a61132c6115ea565b61170d565b60045481565b61133f612671565b61134a6103ed6115ea565b6113665760405162461bcd60e51b815260040161067b90613eda565b60065460ff16156113895760405162461bcd60e51b815260040161067b90613dda565b60025460ff166113ab5760405162461bcd60e51b815260040161067b90613f4a565b6002805460ff19169055602082015160408301516113c991906118f0565b6113d6868686868661199a565b90506113e28682611c2f565b6002805460ff1916600117905595945050505050565b60105481565b6114066126b6565b61140f82611636565b602080830182905260009182526007815260409182902054918301919091528201516114425760015b60ff168152610870565b60008260600151600181111561145457fe5b600181111561145f57fe5b14158015611488575060018260600151600181111561147a57fe5b600181111561148557fe5b14155b15611494576007611438565b6000826060015160018111156114a657fe5b60018111156114b157fe5b1480156114c057506040820151155b156114cc576002611438565b6020808201516000908152600890915260409020541580159061150a5750600860008260200151815260200190815260200160002054816040015110155b15611516576005611438565b60208082015160009081526009909152604090205460ff161561153a576006611438565b604081015115801561156157506020808201516000908152600b909152604090205460ff16155b80156115725750600c548260a00151105b1561157e576004611438565b60038152919050565b61158f6126d6565b5060408051608081018252600083815260076020908152838220548352848252600881528382205481840152848252600981528382205460ff908116151584860152948252600b905291909120549091161515606082015290565b3390565b6115ff60018263ffffffff611dc916565b6040516001600160a01b038216907fee1504a83b6d4a361f4c1dc78ab59bfa30d6a3b6612c403e86bb01ef2984295f90600090a250565b600061086d6112c483611e15565b60008181526007602052604090205415611668576000818152600760205260408120555b6000818152600860205260409020541561168c576000818152600860205260408120555b60008181526009602052604090205460ff16156116ba576000818152600960205260409020805460ff191690555b6000818152600b602052604090205460ff16156116e8576000818152600b60205260409020805460ff191690555b6000818152600a60205260409020541561068d576000908152600a6020526040812055565b61171e60018263ffffffff611e7d16565b6040516001600160a01b038216907f270d9b30cf5b0793bbfd54c9d5b94aeb49462b8148399000265144a8722da6b690600090a250565b60006001600160a01b03821661177d5760405162461bcd60e51b815260040161067b90613e7a565b506001600160a01b03811660009081526020839052604090205460ff165b92915050565b6117b260008263ffffffff611e7d16565b6040516001600160a01b038216907f0a8eb35e5ca14b3d6f28e4abf2f128dbab231a58b56e89beb5d636115001e16590600090a250565b6117fa60058263ffffffff611e7d16565b6040516001600160a01b038216907fcd265ebaf09df2871cc7bd4133404a235ba12eff2041bb89d9c714a2621c7c7e90600090a250565b61184260008263ffffffff611dc916565b6040516001600160a01b038216907f22380c05984257a1cb900161c713dd71d39e74820f1aea43bd3f1bdd2096129990600090a250565b61188a60058263ffffffff611dc916565b6040516001600160a01b038216907f6719d08c1888103bea251a4ed56406bd0c3e69723c8a1686e017e7bbe159b6f890600090a250565b600081602001835110156118e75760405162461bcd60e51b815260040161067b90613e1a565b50016020015190565b670429d069189e000082106119175760405162461bcd60e51b815260040161067b90613e9a565b670429d069189e0000811061193e5760405162461bcd60e51b815260040161067b90613e2a565b81600d54141580611951575080600e5414155b156107ff574261196e601054600f54611ec590919063ffffffff16565b1061198b5760405162461bcd60e51b815260040161067b90613f0a565b42600f55600d91909155600e55565b6119a2612671565b846080015115158660800151151514156119ce5760405162461bcd60e51b815260040161067b90613f5a565b6000866060015160018111156119e057fe5b60018111156119eb57fe5b14611a085760405162461bcd60e51b815260040161067b90613e5a565b60c0808701516001600160a01b039081169187019190915260e08088015190911690860152611a356126b6565b611a3e876113fe565b9050611a486126b6565b611a51876113fe565b9050816040015160001415611a7b5760208089015183820151600090815260089092526040909120555b6040810151611a9f5760208088015182820151600090815260089092526040909120555b611aaa888388610e19565b611ab5878287610e19565b611abf8888611eea565b611b0e8888846040015184604001516008600088602001518152602001908152602001600020546008600088602001518152602001908152602001600020548a60600151600d54600e54611f6c565b9250611b1a83856121dc565b611b378284608001518560c00151876060015187600001516121fd565b611b8b818460a001518560e0015187606001518b608001518015611b75575060018c606001516001811115611b6857fe5b6001811115611b7357fe5b145b611b80578751611b86565b87602001515b6121fd565b611b9b8888866060015186612272565b60208083018051600090815260088352604080822054925182526007909352919091205410611bdf5760a08801516020808401516000908152600a90915260409020555b60208082018051600090815260088352604080822054925182526007909352919091205410611c235760a08701516020808301516000908152600a90915260409020555b50505b95945050505050565b60008260c001518360e00151604051602001611c4c929190613bab565b60408051601f19818403018152918152815160209283012085820151600082815260118552838120919091556012909352912054909150611c9490600163ffffffff611ec516565b6000828152601260209081526040808320939093558451601390915291902054611cc39163ffffffff611ec516565b6000828152601360209081526040909120918255830151600190910154611cef9163ffffffff611ec516565b600091825260136020526040909120600101555050565b600060405180610140016040528061010481526020016141c86101049139604051602001611d349190613bd1565b60405160208183030381529060405280519060200120611d578360000151611e15565b602080850151604051611d6c94939201613c2f565b604051602081830303815290604052805190602001209050919050565b6004546040517f19010000000000000000000000000000000000000000000000000000000000008152600281019190915260228101919091526042902090565b611dd38282611755565b15611df05760405162461bcd60e51b815260040161067b90613d3a565b6001600160a01b0316600090815260209190915260409020805460ff19166001179055565b60008060405180610100016040528060dc81526020016140ec60dc9139604051602001611e429190613bd1565b6040516020818303038152906040528051906020012090506020831015611e6557fe5b601f1992909201805192815261018081209290525090565b611e878282611755565b611ea35760405162461bcd60e51b815260040161067b90613e0a565b6001600160a01b0316600090815260209190915260409020805460ff19169055565b600082820183811015610c9f5760405162461bcd60e51b815260040161067b90613d7a565b600081606001516001811115611efc57fe5b6001811115611f0757fe5b14156107ff57816080015115611f4457806040015182604001511015611f3f5760405162461bcd60e51b815260040161067b90613f1a565b6107ff565b8060400151826040015111156107ff5760405162461bcd60e51b815260040161067b90613f1a565b611f74612671565b6000611f80878a61253a565b90506000611f8e878a61253a565b905060008b606001516001811115611fa257fe5b6001811115611fad57fe5b1480611fbb57508a60800151155b15611fd157611fca828261257c565b8352612002565b6000611ff2611fe883670de0b6b3a7640000612592565b8e604001516125cc565b9050611ffe838261257c565b8452505b61202561201784600001518e60400151612592565b670de0b6b3a76400006125cc565b602084015260808b0151156120ba5761204a61201784600001518d6101400151612592565b60a084015260208301516101208d01516120679161201791612592565b6080840152825160a084015161208a916120809161253a565b8460e0015161253a565b6060840152602083015160808401516120b0916120a69161253a565b8460c0015161253a565b6040840152612125565b6120d061201784602001518d6101400151612592565b60a084015282516101208d01516120ea9161201791612592565b6080840152602083015160a0840151612106916120809161253a565b60608401528251608084015161211f916120a69161253a565b60408401525b6001600160a01b038616156121cd57612163670de0b6b3a7640000612157868660a0015161259290919063ffffffff16565b9063ffffffff6125cc16565b60e0840152608083015161218b90670de0b6b3a764000090612157908863ffffffff61259216565b60c084015260e083015160a08401516121a99163ffffffff61253a16565b60a084015260c083015160808401516121c79163ffffffff61253a16565b60808401525b50509998505050505050505050565b80518251146107ff5760405162461bcd60e51b815260040161067b90613cea565b61220b856040015182611ec5565b6007600087602001518152602001908152602001600020819055507f31e18216f8b2ca46fa286ccb3d0ee6bd32435c0bbe4108625808581e661c52ca8560200151858585338660405161226396959493929190613c4a565b60405180910390a15050505050565b60008460800151612287578460e0015161228d565b8460c001515b9050600085608001516122a4578560c001516122aa565b8560e001515b8651865160608601516040516323b872dd60e01b81529394506001600160a01b038516936323b872dd936122e49390929091600401613beb565b600060405180830381600087803b1580156122fe57600080fd5b505af1158015612312573d6000803e3d6000fd5b50508651885160408088015190516323b872dd60e01b81526001600160a01b03881695506323b872dd945061234c93929190600401613beb565b600060405180830381600087803b15801561236657600080fd5b505af115801561237a573d6000803e3d6000fd5b5050875161010088015160a08701516040516323b872dd60e01b81526001600160a01b03871695506323b872dd94506123b893929190600401613beb565b600060405180830381600087803b1580156123d257600080fd5b505af11580156123e6573d6000803e3d6000fd5b5050865161010089015160808701516040516323b872dd60e01b81526001600160a01b03881695506323b872dd945061242493929190600401613beb565b600060405180830381600087803b15801561243e57600080fd5b505af1158015612452573d6000803e3d6000fd5b505050506001600160a01b0384161561253257855160e08401516040516323b872dd60e01b81526001600160a01b038416926323b872dd9261249992899190600401613beb565b600060405180830381600087803b1580156124b357600080fd5b505af11580156124c7573d6000803e3d6000fd5b5050865160c08601516040516323b872dd60e01b81526001600160a01b03871694506323b872dd93506124ff92918991600401613beb565b600060405180830381600087803b15801561251957600080fd5b505af115801561252d573d6000803e3d6000fd5b505050505b505050505050565b6000610c9f83836040518060400160405280601e81526020017f536166654d6174683a207375627472616374696f6e206f766572666c6f77000081525061260e565b600081831061258b5781610c9f565b5090919050565b6000826125a15750600061179b565b828202828482816125ae57fe5b0414610c9f5760405162461bcd60e51b815260040161067b90613e4a565b6000610c9f83836040518060400160405280601a81526020017f536166654d6174683a206469766973696f6e206279207a65726f00000000000081525061263a565b600081848411156126325760405162461bcd60e51b815260040161067b9190613cd9565b505050900390565b6000818361265b5760405162461bcd60e51b815260040161067b9190613cd9565b50600083858161266757fe5b0495945050505050565b60405180610100016040528060008152602001600081526020016000815260200160008152602001600081526020016000815260200160008152602001600081525090565b604080516060810182526000808252602082018190529181019190915290565b604051806080016040528060008152602001600081526020016000151581526020016000151581525090565b803561179b816140bc565b600082601f83011261271e57600080fd5b813561273161272c82613fd7565b613fb0565b9150818183526020840193506020810190508385602084028201111561275657600080fd5b60005b83811015612782578161276c888261294e565b8452506020928301929190910190600101612759565b5050505092915050565b600082601f83011261279d57600080fd5b81356127ab61272c82613fd7565b81815260209384019390925082018360005b8381101561278257813586016127d38882612959565b84525060209283019291909101906001016127bd565b600082601f8301126127fa57600080fd5b813561280861272c82613fd7565b915081818352602084019350602081019050838561018084028201111561282e57600080fd5b60005b83811015612782578161284488826129a8565b8452506020909201916101809190910190600101612831565b600082601f83011261286e57600080fd5b813561287c61272c82613fd7565b915081818352602084019350602081019050838560808402820111156128a157600080fd5b60005b8381101561278257816128b788826129f1565b845250602090920191608091909101906001016128a4565b600082601f8301126128e057600080fd5b81356128ee61272c82613fd7565b915081818352602084019350602081019050838561016084028201111561291457600080fd5b60005b83811015612782578161292a8882612abb565b8452506020909201916101609190910190600101612917565b803561179b816140d0565b803561179b816140d9565b600082601f83011261296a57600080fd5b813561297861272c82613ff8565b9150808252602083016020830185838301111561299457600080fd5b61299f838284614063565b50505092915050565b600061018082840312156129bb57600080fd5b6129c56040613fb0565b905060006129d38484612abb565b8252506101606129e58484830161294e565b60208301525092915050565b600060808284031215612a0357600080fd5b612a0d6080613fb0565b90506000612a1b848461294e565b8252506020612a2c8484830161294e565b6020830152506040612a408482850161294e565b6040830152506060612a5484828501612702565b60608301525092915050565b600060608284031215612a7257600080fd5b612a7c6060613fb0565b90506000612a8a8484612bbe565b8252506020612a9b8484830161294e565b6020830152506040612aaf8482850161294e565b60408301525092915050565b60006101608284031215612ace57600080fd5b612ad9610160613fb0565b90506000612ae78484612702565b8252506020612af88484830161294e565b6020830152506040612b0c8482850161294e565b6040830152506060612b208482850161294e565b6060830152506080612b3484828501612943565b60808301525060a0612b488482850161294e565b60a08301525060c0612b5c84828501612702565b60c08301525060e0612b7084828501612702565b60e083015250610100612b8584828501612702565b61010083015250610120612b9b8482850161294e565b61012083015250610140612bb18482850161294e565b6101408301525092915050565b803561179b816140e2565b600060208284031215612bdb57600080fd5b6000612be78484612702565b949350505050565b60008060408385031215612c0257600080fd5b6000612c0e8585612702565b9250506020612c1f85828601612702565b9150509250929050565b600060208284031215612c3b57600080fd5b813567ffffffffffffffff811115612c5257600080fd5b612be78482850161270d565b60008060408385031215612c7157600080fd5b823567ffffffffffffffff811115612c8857600080fd5b612c94858286016127e9565b925050602083013567ffffffffffffffff811115612cb157600080fd5b612c1f8582860161278c565b600060208284031215612ccf57600080fd5b813567ffffffffffffffff811115612ce657600080fd5b612be7848285016128cf565b600080600080600060a08688031215612d0a57600080fd5b853567ffffffffffffffff811115612d2157600080fd5b612d2d888289016128cf565b955050602086013567ffffffffffffffff811115612d4a57600080fd5b612d56888289016128cf565b945050604086013567ffffffffffffffff811115612d7357600080fd5b612d7f8882890161278c565b935050606086013567ffffffffffffffff811115612d9c57600080fd5b612da88882890161278c565b925050608086013567ffffffffffffffff811115612dc557600080fd5b612dd18882890161285d565b9150509295509295909350565b600060208284031215612df057600080fd5b6000612be7848461294e565b600080600060608486031215612e1157600080fd5b6000612e1d868661294e565b9350506020612e2e86828701612702565b925050604084013567ffffffffffffffff811115612e4b57600080fd5b612e5786828701612959565b9150509250925092565b60006101808284031215612e7457600080fd5b6000612be784846129a8565b6000806101a08385031215612e9457600080fd5b6000612ea085856129a8565b92505061018083013567ffffffffffffffff811115612ebe57600080fd5b612c1f85828601612959565b60006101608284031215612edd57600080fd5b6000612be78484612abb565b6000806101808385031215612efd57600080fd5b6000612f098585612abb565b92505061016083013567ffffffffffffffff811115612ebe57600080fd5b60008060006101e08486031215612f3d57600080fd5b6000612f498686612abb565b935050610160612f5b86828701612a60565b9250506101c084013567ffffffffffffffff811115612e4b57600080fd5b60008060008060006103808688031215612f9257600080fd5b6000612f9e8888612abb565b955050610160612fb088828901612abb565b9450506102c086013567ffffffffffffffff811115612fce57600080fd5b612fda88828901612959565b9350506102e086013567ffffffffffffffff811115612ff857600080fd5b61300488828901612959565b925050610300612dd1888289016129f1565b61301f81614052565b82525050565b61301f8161402d565b61301f61303a8261402d565b61409b565b61301f81614038565b61301f8161403d565b600061305c82614020565b6130668185614024565b935061307681856020860161406f565b61307f816140ac565b9093019392505050565b600061309482614020565b61309e8185610870565b93506130ae81856020860161406f565b9290920192915050565b60006130c5601783614024565b7f54524144455f414d4f554e545f4d49534d415443484544000000000000000000815260200192915050565b60006130fe601983614024565b7f57726f6e67206c656e677468206f66207369676e617475726500000000000000815260200192915050565b6000613137600783614024565b7f494e56414c494400000000000000000000000000000000000000000000000000815260200192915050565b6000613170601f83614024565b7f54414b45525f5349474e41545552455f4c454e4754485f4d49534d4154434800815260200192915050565b60006131a9601483614024565b7f5061757361626c653a206e6f7420706175736564000000000000000000000000815260200192915050565b60006131e2601f83614024565b7f526f6c65733a206163636f756e7420616c72656164792068617320726f6c6500815260200192915050565b600061321b600c83614024565b7f494e56414c49445f545950450000000000000000000000000000000000000000815260200192915050565b6000613254603083614024565b7f506175736572526f6c653a2063616c6c657220646f6573206e6f74206861766581527f207468652050617573657220726f6c6500000000000000000000000000000000602082015260400192915050565b60006132b3601583614024565b7f494e56414c49445f4e45575f54494d455354414d500000000000000000000000815260200192915050565b60006132ec601b83614024565b7f536166654d6174683a206164646974696f6e206f766572666c6f770000000000815260200192915050565b6000613325600983614024565b7f43414e43454c4c45440000000000000000000000000000000000000000000000815260200192915050565b600061335e600d83614024565b7f494e56414c49445f505249434500000000000000000000000000000000000000815260200192915050565b6000613397601783614024565b7f434f4e544558545f4c454e4754485f4d49534d41544348000000000000000000815260200192915050565b60006133d0601783614024565b7f494e56414c49445f4f524445525f5349474e4154555245000000000000000000815260200192915050565b6000613409601183614024565b7f494e56414c49445f54494d455354414d50000000000000000000000000000000815260200192915050565b6000613442601083614024565b7f5061757361626c653a2070617573656400000000000000000000000000000000815260200192915050565b600061347b601f83614024565b7f4d414b45525f5349474e41545552455f4c454e4754485f4d49534d4154434800815260200192915050565b60006134b4601483614024565b7f57726f6e67207369676e65722061646472657373000000000000000000000000815260200192915050565b60006134ed602183614024565b7f526f6c65733a206163636f756e7420646f6573206e6f74206861766520726f6c81527f6500000000000000000000000000000000000000000000000000000000000000602082015260400192915050565b600061354c600c83614024565b7f57726f6e67206c656e6774680000000000000000000000000000000000000000815260200192915050565b6000613585601a83614024565b7f494e56414c49445f54414b45525f434f4e54524143545f464545000000000000815260200192915050565b60006135be600c83614024565b7f46554c4c595f46494c4c45440000000000000000000000000000000000000000815260200192915050565b60006135f7602183614024565b7f536166654d6174683a206d756c7469706c69636174696f6e206f766572666c6f81527f7700000000000000000000000000000000000000000000000000000000000000602082015260400192915050565b6000613656601283614024565b7f494e56414c49445f4d414b45525f545950450000000000000000000000000000815260200192915050565b600061368f601583614024565b7f4f524445525f4c454e4754485f4d49534d415443480000000000000000000000815260200192915050565b60006136c8602283614024565b7f526f6c65733a206163636f756e7420697320746865207a65726f20616464726581527f7373000000000000000000000000000000000000000000000000000000000000602082015260400192915050565b6000613727601683614024565b7f494e56414c49445f4645455f50455243454e5441474500000000000000000000815260200192915050565b6000613760601a83614024565b7f494e56414c49445f4d414b45525f434f4e54524143545f464545000000000000815260200192915050565b6000613799604083614024565b7f57686974656c69737441646d696e526f6c653a2063616c6c657220646f65732081527f6e6f742068617665207468652057686974656c69737441646d696e20726f6c65602082015260400192915050565b60006137f8601883614024565b7f494e56414c49445f5349474e41545552455f4c454e4754480000000000000000815260200192915050565b6000613831600783614024565b7f57726f6e67205600000000000000000000000000000000000000000000000000815260200192915050565b600061386a603a83614024565b7f57686974656c6973746564526f6c653a2063616c6c657220646f6573206e6f7481527f2068617665207468652057686974656c697374656420726f6c65000000000000602082015260400192915050565b60006138c9600783614024565b7f4558504952454400000000000000000000000000000000000000000000000000815260200192915050565b6000613902601083614024565b7f4f524445525f554e46494c4c41424c4500000000000000000000000000000000815260200192915050565b600061393b601983614024565b7f434f4e54524143545f4645455f5354494c4c5f4c4f434b454400000000000000815260200192915050565b6000613974601883614024565b7f4e454741544956455f5350524541445f52455155495245440000000000000000815260200192915050565b60006139ad601883614024565b7f494e56414c49445f43414e43454c5f5349474e41545552450000000000000000815260200192915050565b60006139e6600e83614024565b7f494e56414c49445f414d4f554e54000000000000000000000000000000000000815260200192915050565b6000613a1f601f83614024565b7f5265656e7472616e637947756172643a207265656e7472616e742063616c6c00815260200192915050565b6000613a58600c83614024565b7f494e56414c49445f534944450000000000000000000000000000000000000000815260200192915050565b8051610100830190613a968482613048565b506020820151613aa96020850182613048565b506040820151613abc6040850182613048565b506060820151613acf6060850182613048565b506080820151613ae26080850182613048565b5060a0820151613af560a0850182613048565b5060c0820151613b0860c0850182613048565b5060e0820151613b1b60e0850182613048565b50505050565b80516080830190613b328482613048565b506020820151613b456020850182613048565b506040820151613b58604085018261303f565b506060820151613b1b606085018261303f565b80516060830190613b7c8482613ba2565b506020820151613b8f6020850182613048565b506040820151613b1b6040850182613048565b61301f8161404c565b6000613bb7828561302e565b601482019150613bc7828461302e565b5060140192915050565b6000610c9f8284613089565b6020810161179b8284613016565b60608101613bf98286613025565b613c066020830185613025565b612be76040830184613048565b6020810161179b828461303f565b6020810161179b8284613048565b60608101613c3d8286613048565b613c066020830185613048565b60c08101613c588289613048565b613c656020830188613048565b613c726040830187613048565b613c7f6060830186613025565b613c8c6080830185613016565b613c9960a0830184613048565b979650505050505050565b60808101613cb28287613048565b613cbf6020830186613ba2565b613ccc6040830185613048565b611c266060830184613048565b60208082528101610c9f8184613051565b6020808252810161086d816130b8565b6020808252810161086d816130f1565b6020808252810161086d8161312a565b6020808252810161086d81613163565b6020808252810161086d8161319c565b6020808252810161086d816131d5565b6020808252810161086d8161320e565b6020808252810161086d81613247565b6020808252810161086d816132a6565b6020808252810161086d816132df565b6020808252810161086d81613318565b6020808252810161086d81613351565b6020808252810161086d8161338a565b6020808252810161086d816133c3565b6020808252810161086d816133fc565b6020808252810161086d81613435565b6020808252810161086d8161346e565b6020808252810161086d816134a7565b6020808252810161086d816134e0565b6020808252810161086d8161353f565b6020808252810161086d81613578565b6020808252810161086d816135b1565b6020808252810161086d816135ea565b6020808252810161086d81613649565b6020808252810161086d81613682565b6020808252810161086d816136bb565b6020808252810161086d8161371a565b6020808252810161086d81613753565b6020808252810161086d8161378c565b6020808252810161086d816137eb565b6020808252810161086d81613824565b6020808252810161086d8161385d565b6020808252810161086d816138bc565b6020808252810161086d816138f5565b6020808252810161086d8161392e565b6020808252810161086d81613967565b6020808252810161086d816139a0565b6020808252810161086d816139d9565b6020808252810161086d81613a12565b6020808252810161086d81613a4b565b610100810161179b8284613a84565b6080810161179b8284613b21565b6060810161179b8284613b6b565b60408101613fa38285613048565b610c9f6020830184613048565b60405181810167ffffffffffffffff81118282101715613fcf57600080fd5b604052919050565b600067ffffffffffffffff821115613fee57600080fd5b5060209081020190565b600067ffffffffffffffff82111561400f57600080fd5b506020601f91909101601f19160190565b5190565b90815260200190565b600061086d82614040565b151590565b90565b6001600160a01b031690565b60ff1690565b600061086d82600061086d8261402d565b82818337506000910152565b60005b8381101561408a578181015183820152602001614072565b83811115613b1b5750506000910152565b600061086d82600061086d826140b6565b601f01601f191690565b60601b90565b6140c58161402d565b811461068d57600080fd5b6140c581614038565b6140c58161403d565b6140c58161404c56fe4f7264657228616464726573732075736572416464726573732c75696e7432353620616d6f756e742c75696e743235362070726963652c75696e74323536206f72646572547970652c626f6f6c20736964652c75696e743235362073616c742c6164647265737320626173654173736574416464726573732c616464726573732071756f74654173736574416464726573732c6164647265737320666565416464726573732c75696e74323536206d616b657246656550657263656e746167652c75696e743235362074616b657246656550657263656e746167652943616e63656c52657175657374284f72646572206f726465722c75696e74323536206e6f6e6365294f7264657228616464726573732075736572416464726573732c75696e7432353620616d6f756e742c75696e743235362070726963652c75696e74323536206f72646572547970652c626f6f6c20736964652c75696e743235362073616c742c6164647265737320626173654173736574416464726573732c616464726573732071756f74654173736574416464726573732c6164647265737320666565416464726573732c75696e74323536206d616b657246656550657263656e746167652c75696e743235362074616b657246656550657263656e7461676529a365627a7a72315820c68aa2a80c9ba5eea7fd2d80d8027abd6eed941718f17043c63f2b460b7d18486c6578706572696d656e74616cf564736f6c63430005100040",
  "source": "pragma solidity 0.5.16;\npragma experimental ABIEncoderV2;\n\nimport \"@openzeppelin/contracts/access/roles/WhitelistAdminRole.sol\";\nimport \"@openzeppelin/contracts/access/roles/WhitelistedRole.sol\";\nimport \"@openzeppelin/contracts/lifecycle/Pausable.sol\";\nimport \"@openzeppelin/contracts/utils/ReentrancyGuard.sol\";\n\nimport \"../crc-l/ICRCL.sol\";\nimport \"./libs/LibFillResults.sol\";\nimport \"./libs/LibSignatureValidator.sol\";\nimport \"./libs/LibRequest.sol\";\n\ncontract Boomflow is WhitelistAdminRole, WhitelistedRole, ReentrancyGuard, LibSignatureValidator, LibRequest, Pausable {\n    using SafeMath for uint;\n\n    // Contract fee cannot float over 30%\n    uint256 public constant MAX_CONTRACT_FEE = 3 * 10 ** 17;\n\n    // Fill event is emitted whenever an order is filled.\n    event Fill(\n        bytes32 orderHash,                  // Order's hash\n        uint256 fee,                        // Fee order creator to pay\n        uint256 contractFee,                // Fee order creator pay for contract\n        address contractFeeAddress,         // Address to receive contract fee\n        address matcherAddress,             // DEX operator that submitted the order\n        uint256 tradeAmount                 // Total amount traded\n    );\n\n    // Mapping of orderHash => amount of baseAsset already sold by user; for Market Buy, it is in amount of quoteAsset\n    mapping (bytes32 => uint256) public filled;\n\n    // Mapping of orderHash => max amount of baseAsset from user; for Market Buy, it is in amount of quoteAsset\n    mapping (bytes32 => uint256) public max;\n\n    // Mapping of orderHash => cancelled\n    mapping (bytes32 => bool) public cancelled;\n\n    // Mapping of orderHash => timestamp; order hash only shows\n    // up if it's status is one of (cancelled or finalized or filled)\n    mapping (bytes32 => uint256) public timestamps;\n\n    // Mapping of orderHash => recorded order\n    mapping (bytes32 => bool) public recorded;\n\n    // Current min timestamp for valid orders\n    uint256 public timestamp = 0;\n\n    // Contract Fee Percentage\n    uint256 public makerFeePercentage = 0;\n    uint256 public takerFeePercentage = 0;\n\n    // Contract Fee Lock Period\n    uint public lastTime;\n    uint public minimumLockTime = 24 hours; // default minimum waiting period after issuing synths\n\n    // DeFi Oracle\n    struct Volumes {\n        uint256 baseVolume;\n        uint256 quoteVolume;\n    }\n\n    mapping (bytes32 => uint256) public lastestPrice;\n    mapping (bytes32 => uint256) public lastestCount;\n    mapping (bytes32 => Volumes) public lastestVolume;\n\n    constructor () public {\n        addWhitelisted(_msgSender());\n        Pause();\n    }\n\n    struct OrderData {\n        uint256 filled;\n        uint256 max;\n        bool cancelled;\n        bool flag; // whether recorded\n    }\n\n    function getOrderData(bytes32 orderHash)\n        public\n        view\n        returns (OrderData memory orderData)\n    {\n        orderData = OrderData({\n            filled: filled[orderHash],\n            max: max[orderHash],\n            cancelled: cancelled[orderHash],\n            flag: recorded[orderHash]\n        });\n    }\n\n    //----------------- Storage Optimization ---------------\n    function getTimestamp() public view returns (uint256) {\n        return timestamp;\n    }\n\n    /**\n     * Upload the unmatched order hashes.\n     * The function should be called prior to `setTimestamp`\n     * Only onlyWhitelistAdmin (DEX) have the access permission.\n     */\n    function recordOrders(\n        Order[] memory orders\n    )\n        public\n        onlyWhitelistAdmin\n    {\n        for (uint i = 0; i < orders.length; i++) {\n            // timestamp check\n            if (orders[i].salt >= timestamp) {\n                bytes32 orderHash = getOrderHash(orders[i]);\n                recorded[orderHash] = true;\n            }\n        }\n    }\n\n    function setTimestamp(uint256 newTimestamp)\n        public\n        onlyWhitelistAdmin\n    {\n        require(newTimestamp > timestamp, \"INVALID_NEW_TIMESTAMP\");\n        timestamp = newTimestamp;\n    }\n\n    function removeObsoleteData(bytes32[] memory hashes)\n        public\n        onlyWhitelistAdmin\n    {\n        for (uint i = 0; i < hashes.length; i++) {\n            // Order timestamp is lower than current timestamp\n            require(timestamps[hashes[i]] < timestamp, \"INVALID_TIMESTAMP\");\n\n            // Remove order data\n            removeData(hashes[i]);\n        }\n    }\n\n    function removeData(bytes32 orderHash) internal {\n        if (filled[orderHash] != 0) delete filled[orderHash];\n        if (max[orderHash] != 0) delete max[orderHash];\n        if (cancelled[orderHash]) delete cancelled[orderHash];\n        if (recorded[orderHash]) delete recorded[orderHash];\n        if (timestamps[orderHash] != 0) delete timestamps[orderHash];\n    }\n    //----------------- End Storage Optimization -----------\n\n    //----------------- DeFi Index -------------------------\n    function getPrice(address baseAssetAddress, address quoteAssetAddress) public view returns (uint256 price) {\n        bytes32 pairHash = keccak256(abi.encodePacked(baseAssetAddress, quoteAssetAddress));\n        price = lastestPrice[pairHash];\n    }\n\n    function getCount(address baseAssetAddress, address quoteAssetAddress) public view returns (uint256 count) {\n        bytes32 pairHash = keccak256(abi.encodePacked(baseAssetAddress, quoteAssetAddress));\n        count = lastestCount[pairHash];\n    }\n\n    function getVolume(address baseAssetAddress, address quoteAssetAddress) public view returns (uint256 baseVolume, uint256 quoteVolume) {\n        bytes32 pairHash = keccak256(abi.encodePacked(baseAssetAddress, quoteAssetAddress));\n        baseVolume = lastestVolume[pairHash].baseVolume;\n        quoteVolume = lastestVolume[pairHash].quoteVolume;\n    }\n\n    function _updatePriceAndCountAndVolume(\n        Order memory makerOrder,\n        LibFillResults.MatchedFillResults memory matchedFillResults\n    )\n        internal\n    {\n        bytes32 pairHash = keccak256(abi.encodePacked(makerOrder.baseAssetAddress, makerOrder.quoteAssetAddress));\n\n        lastestPrice[pairHash] = makerOrder.price;\n\n        lastestCount[pairHash] = lastestCount[pairHash].add(1);\n\n        lastestVolume[pairHash].baseVolume = lastestVolume[pairHash].baseVolume.add(matchedFillResults.tradeAmount);\n        lastestVolume[pairHash].quoteVolume = lastestVolume[pairHash].quoteVolume.add(matchedFillResults.tradeFunds);\n    }\n\n    //----------------- End DeFi Index ---------------------\n\n    /**\n     * Execute orders in batches.\n     * Only Whitelistlisted (DEX) have the access permission.\n     *\n     * The function will iteratively execute each pair of orders\n     */\n    function batchExecuteTrade(\n        Order[] memory makerOrders,\n        Order[] memory takerOrders,\n        bytes[] memory makerSignatures,\n        bytes[] memory takerSignatures,\n        LibFillResults.Context[] memory contexts\n    )\n        public\n        onlyWhitelisted\n        whenNotPaused\n        nonReentrant\n    {\n        require(makerOrders.length == takerOrders.length, \"ORDER_LENGTH_MISMATCH\");\n        require(makerOrders.length == makerSignatures.length, \"MAKER_SIGNATURE_LENGTH_MISMATCH\");\n        require(takerOrders.length == takerSignatures.length, \"TAKER_SIGNATURE_LENGTH_MISMATCH\");\n        require(makerOrders.length == contexts.length, \"CONTEXT_LENGTH_MISMATCH\");\n\n        LibFillResults.MatchedFillResults memory matchedFillResults;\n        for(uint i = 0; i < makerOrders.length; i++){\n            _setContractFee(contexts[i].makerContractFee, contexts[i].takerContractFee);\n\n            matchedFillResults = _executeTrade(makerOrders[i], takerOrders[i], makerSignatures[i], takerSignatures[i], contexts[i]);\n\n            _updatePriceAndCountAndVolume(makerOrders[i], matchedFillResults);\n        }\n    }\n\n    /**\n     * Execute the exchange between a maker order and a taker order.\n     * Only Whitelistlisted (DEX) have the access permission.\n     */\n    function executeTrade(\n        Order memory makerOrder,\n        Order memory takerOrder,\n        bytes memory makerSignature,\n        bytes memory takerSignature,\n        LibFillResults.Context memory context\n    )\n        public\n        onlyWhitelisted\n        whenNotPaused\n        nonReentrant\n        returns (LibFillResults.MatchedFillResults memory matchedFillResults)\n    {\n        _setContractFee(context.makerContractFee, context.takerContractFee);\n\n        matchedFillResults = _executeTrade(makerOrder, takerOrder, makerSignature, takerSignature, context);\n\n        _updatePriceAndCountAndVolume(makerOrder, matchedFillResults);\n    }\n\n    /**\n     * Cancel orders in batches.\n     * Only Whitelistlisted (DEX) have the access permission.\n     *\n     * The function will iteratively cancel each order specified\n     */\n    function cancelOrders(CancelRequest[] memory requests, bytes[] memory signatures)\n        public\n        onlyWhitelisted\n        whenNotPaused\n    {\n        require(requests.length == signatures.length, \"INVALID_SIGNATURE_LENGTH\");\n        for(uint i = 0; i < requests.length; i++){\n            cancelOrder(requests[i], signatures[i]);\n        }\n    }\n\n    /**\n     * Cancel an order with user-signed request.\n     * Only Whitelistlisted (DEX) have the access permission.\n     *\n     * The function will cancel a single order\n     */\n    function cancelOrder(CancelRequest memory request, bytes memory signature)\n        public\n        onlyWhitelisted\n        whenNotPaused\n    {\n        // Validate user signature\n        bytes32 requestHash = getRequestHash(request);\n        require(isValidSignature(requestHash,request.order.userAddress,signature), \"INVALID_CANCEL_SIGNATURE\");\n\n        bytes32 orderHash = getOrderHash(request.order);\n\n        cancelled[orderHash] = true;\n        timestamps[orderHash] = request.order.salt;\n    }\n\n    /**\n     * Cancel an order without user-signed request.\n     * Only Whitelistlisted (DEX) have the access permission.\n     *\n     * The function will cancel a single order when DEX decides that there are\n     * no more matching orders available\n     */\n    function finalizeOrder(Order memory order, bytes memory signature)\n        public\n        onlyWhitelisted\n        whenNotPaused\n    {\n        //require(OrderType(order.orderType) == OrderType.Market, \"INVALID_TYPE\");\n        bytes32 orderHash = getOrderHash(order);\n\n        // Validate user signature (check only if first time seen)\n        require(isValidSignature(orderHash,order.userAddress,signature), \"INVALID_ORDER_SIGNATURE\");\n\n        cancelled[orderHash] = true;\n        timestamps[orderHash] = order.salt;\n    }\n\n    /**\n     * Pause the majority of functionalities of Boomflow.\n     * Only WhitelistAdmin (DEX) have the access permission.\n     *\n     * Note that when deployed, Boomflow is by default paused.\n     */\n    function Pause()\n        public\n        onlyWhitelistAdmin\n    {\n        pause();\n    }\n\n    /**\n     * Resume all paused functionalities of Boomflow.\n     * Only WhitelistAdmin (DEX) have the access permission.\n     *\n     */\n    function Resume()\n        public\n        onlyWhitelistAdmin\n    {\n        unpause();\n    }\n// ----------------------------- Helper Functions -----------------------------\n    /**\n     * Modify the contract fees.\n     * Note that contract fees could be adjusted by DEX during trade execution, but there\n     * is hard-coded lock period between every adjustment to throttle the number of times\n     * DEX modify the value\n     */\n    function _setContractFee(\n        uint256 _makerFeePercentage,\n        uint256 _takerFeePercentage\n    )\n        internal\n    {\n        require(_makerFeePercentage < MAX_CONTRACT_FEE, \"INVALID_MAKER_CONTRACT_FEE\");\n        require(_takerFeePercentage < MAX_CONTRACT_FEE, \"INVALID_TAKER_CONTRACT_FEE\");\n\n        if (makerFeePercentage != _makerFeePercentage || takerFeePercentage != _takerFeePercentage) {\n            require(lastTime.add(minimumLockTime) < block.timestamp, \"CONTRACT_FEE_STILL_LOCKED\");\n            lastTime = block.timestamp;\n\n            makerFeePercentage = _makerFeePercentage;\n            takerFeePercentage = _takerFeePercentage;\n        }\n    }\n\n    /**\n     * Execute the exchange between a maker order and a taker order.\n     * Only Whitelistlisted (DEX) have the access permission.\n     *\n     * The function will atomically perform the following operations:\n     *\n     *      1. Validate both taker order, maker order and the match\n     *      2. Calculate the matching results\n     *      3. Settle the exchanges\n     */\n    function _executeTrade(\n        Order memory makerOrder,\n        Order memory takerOrder,\n        bytes memory makerSignature,\n        bytes memory takerSignature,\n        LibFillResults.Context memory context\n    )\n        internal\n        returns (LibFillResults.MatchedFillResults memory matchedFillResults)\n    {\n        // We assume that the two order sides are opposite, takerOrder.quoteAssetAddress == makerOrder.quoteAssetAddress and takerOrder.baseAssetAddress == makerOrder.baseAssetAddress.\n        // If this assumption isn't true, the match will fail at signature validation.\n        require(makerOrder.side != takerOrder.side, \"INVALID_SIDE\");\n        require(OrderType(makerOrder.orderType) == OrderType.Limit, \"INVALID_MAKER_TYPE\");\n\n        takerOrder.baseAssetAddress = makerOrder.baseAssetAddress;\n        takerOrder.quoteAssetAddress = makerOrder.quoteAssetAddress;\n\n        // Get left & right order info\n        OrderInfo memory makerOrderInfo = getOrderInfo(makerOrder);\n        OrderInfo memory takerOrderInfo = getOrderInfo(takerOrder);\n\n        // Record the order if not seen before\n        if (makerOrderInfo.filledAmount == 0) {\n            max[makerOrderInfo.orderHash] = makerOrder.amount;\n        }\n        if (takerOrderInfo.filledAmount == 0) {\n            max[takerOrderInfo.orderHash] = takerOrder.amount;\n        }\n\n        // Either our context is valid or we revert\n        assertFillableOrder(\n            makerOrder,\n            makerOrderInfo,\n            makerSignature\n        );\n        assertFillableOrder(\n            takerOrder,\n            takerOrderInfo,\n            takerSignature\n        );\n\n        // Either it is a valid match or we revert\n        assertValidMatch(makerOrder, takerOrder);\n\n        // Compute proportional fill amounts\n        matchedFillResults = LibFillResults.calculateMatchedFillResults(\n            makerOrder,\n            takerOrder,\n            makerOrderInfo.filledAmount,\n            takerOrderInfo.filledAmount,\n            max[makerOrderInfo.orderHash],\n            max[takerOrderInfo.orderHash],\n            context.contractFeeAddress,\n            makerFeePercentage,\n            takerFeePercentage\n        );\n\n        // Either the calculation match with offchain execution or we revert\n        assertValidContext(matchedFillResults, context);\n\n        // Update exchange state\n        updateFilledStates(\n            makerOrderInfo,\n            matchedFillResults.makerFee,\n            matchedFillResults.makerContractFee,\n            context.contractFeeAddress,\n            matchedFillResults.tradeAmount\n        );\n        updateFilledStates(\n            takerOrderInfo,\n            matchedFillResults.takerFee,\n            matchedFillResults.takerContractFee,\n            context.contractFeeAddress,\n            (takerOrder.side && OrderType(takerOrder.orderType) == OrderType.Market) ? matchedFillResults.tradeFunds : matchedFillResults.tradeAmount\n        );\n\n        // Settle matched orders. Succeeds or throws.\n        settleTrade(makerOrder, takerOrder, context.contractFeeAddress, matchedFillResults);\n\n        if (filled[makerOrderInfo.orderHash] >= max[makerOrderInfo.orderHash]) {\n            timestamps[makerOrderInfo.orderHash] = makerOrder.salt;\n        }\n\n        if (filled[takerOrderInfo.orderHash] >= max[takerOrderInfo.orderHash]) {\n            timestamps[takerOrderInfo.orderHash] = takerOrder.salt;\n        }\n\n        return matchedFillResults;\n    }\n\n    function getOrderInfo(Order memory order)\n        public\n        view\n        returns (OrderInfo memory orderInfo)\n    {\n        // Compute the order hash\n        orderInfo.orderHash = getOrderHash(order);\n\n        // Fetch operated amount\n        orderInfo.filledAmount = filled[orderInfo.orderHash];\n\n        // Validate the order amount\n        if (order.amount == 0) {\n            orderInfo.orderStatus = uint8(OrderStatus.INVALID_AMOUNT);\n            return orderInfo;\n        }\n\n        // Validate the order type\n        if (OrderType(order.orderType) != OrderType.Limit &&\n          OrderType(order.orderType) != OrderType.Market) {\n            orderInfo.orderStatus = uint8(OrderStatus.INVALID_TYPE);\n            return orderInfo;\n        }\n\n        // Validate the order price\n        if (OrderType(order.orderType) == OrderType.Limit && order.price == 0) {\n            orderInfo.orderStatus = uint8(OrderStatus.INVALID_PRICE);\n            return orderInfo;\n        }\n\n        // Validate order availability\n        if (max[orderInfo.orderHash] != 0 && orderInfo.filledAmount >= max[orderInfo.orderHash]) {\n            orderInfo.orderStatus = uint8(OrderStatus.FULLY_FILLED);\n            return orderInfo;\n        }\n\n        // Validate if order is cancelled\n        if (cancelled[orderInfo.orderHash]) {\n            orderInfo.orderStatus = uint8(OrderStatus.CANCELLED);\n            return orderInfo;\n        }\n\n        // Validate order expiration, if the order has been neither settled nor recorded\n        if (orderInfo.filledAmount == 0 && !recorded[orderInfo.orderHash] && order.salt < timestamp) {\n            orderInfo.orderStatus = uint8(OrderStatus.EXPIRED);\n            return orderInfo;\n        }\n\n        // All other statuses are ruled out: order is Fillable\n        orderInfo.orderStatus = uint8(OrderStatus.FILLABLE);\n        return orderInfo;\n    }\n\n    function assertFillableOrder(\n        Order memory order,\n        OrderInfo memory orderInfo,\n        bytes memory signature\n    )\n        public\n        pure\n    {\n        require(orderInfo.orderStatus != uint8(OrderStatus.INVALID_AMOUNT), \"INVALID_AMOUNT\");\n        require(orderInfo.orderStatus != uint8(OrderStatus.INVALID_PRICE), \"INVALID_PRICE\");\n        require(orderInfo.orderStatus != uint8(OrderStatus.INVALID_TYPE), \"INVALID_TYPE\");\n        require(orderInfo.orderStatus != uint8(OrderStatus.INVALID), \"INVALID\");\n        require(orderInfo.orderStatus != uint8(OrderStatus.FULLY_FILLED), \"FULLY_FILLED\");\n        require(orderInfo.orderStatus != uint8(OrderStatus.EXPIRED), \"EXPIRED\");\n        require(orderInfo.orderStatus != uint8(OrderStatus.CANCELLED), \"CANCELLED\");\n        require(\n            orderInfo.orderStatus == uint8(OrderStatus.FILLABLE),\n            \"ORDER_UNFILLABLE\"\n        );\n\n        // Validate the order fee percentage is less than 1\n        require(uint256(10**18) > order.makerFeePercentage, \"INVALID_FEE_PERCENTAGE\");\n        require(uint256(10**18) > order.takerFeePercentage, \"INVALID_FEE_PERCENTAGE\");\n\n        // Validate user signature (check only if first time seen)\n        if (orderInfo.filledAmount == 0) {\n            require(isValidSignature(orderInfo.orderHash,order.userAddress,signature), \"INVALID_ORDER_SIGNATURE\");\n        }\n    }\n\n    /**\n     * Make sure there is a profitable spread when both taker and maker orders are limit order.\n     * There is a profitable spread iff the cost per unit bought (OrderA.MakerAmount/OrderA.TakerAmount) for each order is greater\n     * or equal than the profit per unit sold of the matched order (OrderB.TakerAmount/OrderB.MakerAmount).\n     */\n    function assertValidMatch(\n        LibOrder.Order memory makerOrder,\n        LibOrder.Order memory takerOrder\n    )\n        internal\n        pure\n    {\n        if (OrderType(takerOrder.orderType) == OrderType.Limit) {\n            if (makerOrder.side) {\n                require(\n                    makerOrder.price >= takerOrder.price,\n                    \"NEGATIVE_SPREAD_REQUIRED\"\n                );\n            } else {\n                require(\n                    makerOrder.price <= takerOrder.price,\n                    \"NEGATIVE_SPREAD_REQUIRED\"\n                );\n            }\n        }\n    }\n\n    function assertValidContext(\n        LibFillResults.MatchedFillResults memory result,\n        LibFillResults.Context memory context\n    )\n        internal\n        pure\n    {\n        require(\n            result.tradeAmount == context.tradeAmount,\n            \"TRADE_AMOUNT_MISMATCHED\"\n        );\n    }\n\n    // Update state with results of a fill order.\n    function updateFilledStates(\n        OrderInfo memory orderInfo,\n        uint256 fee,\n        uint256 contractFee,\n        address contractFeeAddress,\n        uint256 value\n    )\n        internal\n    {\n        // Update maker state\n        filled[orderInfo.orderHash] = SafeMath.add(orderInfo.filledAmount, value);\n        emit Fill(\n            orderInfo.orderHash,\n            fee,\n            contractFee,\n            contractFeeAddress,\n            msg.sender,\n            value\n        );\n    }\n\n    // Settle the trade between one maker and one taker order\n    function settleTrade(\n        Order memory makerOrder,\n        Order memory takerOrder,\n        address contractFeeAddress,\n        LibFillResults.MatchedFillResults memory matchedFillResults\n    )\n        internal\n    {\n        address makerFillAsset = makerOrder.side ? makerOrder.baseAssetAddress : makerOrder.quoteAssetAddress;\n        address takerFillAsset = makerOrder.side ? makerOrder.quoteAssetAddress : makerOrder.baseAssetAddress;\n\n        // Settle net results\n        ICRCL(takerFillAsset).transferFrom(makerOrder.userAddress,takerOrder.userAddress,matchedFillResults.takerFillAmount);\n        ICRCL(makerFillAsset).transferFrom(takerOrder.userAddress,makerOrder.userAddress,matchedFillResults.makerFillAmount);\n\n        // Settle dex fees\n        ICRCL(takerFillAsset).transferFrom(makerOrder.userAddress,takerOrder.feeAddress,matchedFillResults.takerFee);\n        ICRCL(makerFillAsset).transferFrom(takerOrder.userAddress,makerOrder.feeAddress,matchedFillResults.makerFee);\n\n        // Settle contract fees if feeAddress is not null address\n        if (contractFeeAddress != address(0)) {\n            ICRCL(takerFillAsset).transferFrom(makerOrder.userAddress,contractFeeAddress,matchedFillResults.takerContractFee);\n            ICRCL(makerFillAsset).transferFrom(takerOrder.userAddress,contractFeeAddress,matchedFillResults.makerContractFee);\n        }\n    }\n\n}",
  "sourcePath": "/Users/kang/work/nft-dex/boomflow-contract/contracts/boomflow/boomflow.sol",
  "compiler": {
    "name": "solc",
    "version": "0.5.16+commit.9c3226ce.Emscripten.clang"
  },
  "schemaVersion": "3.0.23",
  "updatedAt": "2023-07-24T08:41:35.869Z",
  "devdoc": {
    "methods": {
      "getRequestHash(((address,uint256,uint256,uint256,bool,uint256,address,address,address,uint256,uint256),uint256))": {
        "details": "Calculates Keccak-256 hash of the request.",
        "params": {
          "request": "The request structure."
        },
        "return": "Keccak-256 EIP712 hash of the request."
      },
      "pause()": {
        "details": "Called by a pauser to pause, triggers stopped state."
      },
      "paused()": {
        "details": "Returns true if the contract is paused, and false otherwise."
      },
      "unpause()": {
        "details": "Called by a pauser to unpause, returns to normal state."
      }
    }
  },
  "userdoc": {
    "methods": {
      "Pause()": {
        "notice": "Pause the majority of functionalities of Boomflow. Only WhitelistAdmin (DEX) have the access permission.     * Note that when deployed, Boomflow is by default paused."
      },
      "Resume()": {
        "notice": "Resume all paused functionalities of Boomflow. Only WhitelistAdmin (DEX) have the access permission.     "
      },
      "batchExecuteTrade((address,uint256,uint256,uint256,bool,uint256,address,address,address,uint256,uint256)[],(address,uint256,uint256,uint256,bool,uint256,address,address,address,uint256,uint256)[],bytes[],bytes[],(uint256,uint256,uint256,address)[])": {
        "notice": "Execute orders in batches. Only Whitelistlisted (DEX) have the access permission.     * The function will iteratively execute each pair of orders"
      },
      "cancelOrder(((address,uint256,uint256,uint256,bool,uint256,address,address,address,uint256,uint256),uint256),bytes)": {
        "notice": "Cancel an order with user-signed request. Only Whitelistlisted (DEX) have the access permission.     * The function will cancel a single order"
      },
      "cancelOrders(((address,uint256,uint256,uint256,bool,uint256,address,address,address,uint256,uint256),uint256)[],bytes[])": {
        "notice": "Cancel orders in batches. Only Whitelistlisted (DEX) have the access permission.     * The function will iteratively cancel each order specified"
      },
      "executeTrade((address,uint256,uint256,uint256,bool,uint256,address,address,address,uint256,uint256),(address,uint256,uint256,uint256,bool,uint256,address,address,address,uint256,uint256),bytes,bytes,(uint256,uint256,uint256,address))": {
        "notice": "Execute the exchange between a maker order and a taker order. Only Whitelistlisted (DEX) have the access permission."
      },
      "finalizeOrder((address,uint256,uint256,uint256,bool,uint256,address,address,address,uint256,uint256),bytes)": {
        "notice": "Cancel an order without user-signed request. Only Whitelistlisted (DEX) have the access permission.     * The function will cancel a single order when DEX decides that there are no more matching orders available"
      },
      "recordOrders((address,uint256,uint256,uint256,bool,uint256,address,address,address,uint256,uint256)[])": {
        "notice": "Upload the unmatched order hashes. The function should be called prior to `setTimestamp` Only onlyWhitelistAdmin (DEX) have the access permission."
      }
    }
  }
}