{
  "contractName": "Boomflow",
  "abi": [
    {
      "inputs": [],
      "payable": false,
      "stateMutability": "nonpayable",
      "type": "constructor"
    },
    {
      "anonymous": false,
      "inputs": [
        {
          "indexed": false,
          "internalType": "bytes32",
          "name": "orderHash",
          "type": "bytes32"
        },
        {
          "indexed": false,
          "internalType": "uint256",
          "name": "fee",
          "type": "uint256"
        },
        {
          "indexed": false,
          "internalType": "uint256",
          "name": "contractFee",
          "type": "uint256"
        },
        {
          "indexed": false,
          "internalType": "address",
          "name": "contractFeeAddress",
          "type": "address"
        },
        {
          "indexed": false,
          "internalType": "address",
          "name": "matcherAddress",
          "type": "address"
        },
        {
          "indexed": false,
          "internalType": "uint256",
          "name": "tradeAmount",
          "type": "uint256"
        }
      ],
      "name": "Fill",
      "type": "event"
    },
    {
      "anonymous": false,
      "inputs": [
        {
          "indexed": false,
          "internalType": "address",
          "name": "account",
          "type": "address"
        }
      ],
      "name": "Paused",
      "type": "event"
    },
    {
      "anonymous": false,
      "inputs": [
        {
          "indexed": true,
          "internalType": "address",
          "name": "account",
          "type": "address"
        }
      ],
      "name": "PauserAdded",
      "type": "event"
    },
    {
      "anonymous": false,
      "inputs": [
        {
          "indexed": true,
          "internalType": "address",
          "name": "account",
          "type": "address"
        }
      ],
      "name": "PauserRemoved",
      "type": "event"
    },
    {
      "anonymous": false,
      "inputs": [
        {
          "indexed": false,
          "internalType": "address",
          "name": "account",
          "type": "address"
        }
      ],
      "name": "Unpaused",
      "type": "event"
    },
    {
      "anonymous": false,
      "inputs": [
        {
          "indexed": true,
          "internalType": "address",
          "name": "account",
          "type": "address"
        }
      ],
      "name": "WhitelistAdminAdded",
      "type": "event"
    },
    {
      "anonymous": false,
      "inputs": [
        {
          "indexed": true,
          "internalType": "address",
          "name": "account",
          "type": "address"
        }
      ],
      "name": "WhitelistAdminRemoved",
      "type": "event"
    },
    {
      "anonymous": false,
      "inputs": [
        {
          "indexed": true,
          "internalType": "address",
          "name": "account",
          "type": "address"
        }
      ],
      "name": "WhitelistedAdded",
      "type": "event"
    },
    {
      "anonymous": false,
      "inputs": [
        {
          "indexed": true,
          "internalType": "address",
          "name": "account",
          "type": "address"
        }
      ],
      "name": "WhitelistedRemoved",
      "type": "event"
    },
    {
      "constant": true,
      "inputs": [],
      "name": "EIP712_DOMAIN_HASH",
      "outputs": [
        {
          "internalType": "bytes32",
          "name": "",
          "type": "bytes32"
        }
      ],
      "payable": false,
      "stateMutability": "view",
      "type": "function"
    },
    {
      "constant": true,
      "inputs": [],
      "name": "MAX_CONTRACT_FEE",
      "outputs": [
        {
          "internalType": "uint256",
          "name": "",
          "type": "uint256"
        }
      ],
      "payable": false,
      "stateMutability": "view",
      "type": "function"
    },
    {
      "constant": false,
      "inputs": [
        {
          "internalType": "address",
          "name": "account",
          "type": "address"
        }
      ],
      "name": "addPauser",
      "outputs": [],
      "payable": false,
      "stateMutability": "nonpayable",
      "type": "function"
    },
    {
      "constant": false,
      "inputs": [
        {
          "internalType": "address",
          "name": "account",
          "type": "address"
        }
      ],
      "name": "addWhitelistAdmin",
      "outputs": [],
      "payable": false,
      "stateMutability": "nonpayable",
      "type": "function"
    },
    {
      "constant": false,
      "inputs": [
        {
          "internalType": "address",
          "name": "account",
          "type": "address"
        }
      ],
      "name": "addWhitelisted",
      "outputs": [],
      "payable": false,
      "stateMutability": "nonpayable",
      "type": "function"
    },
    {
      "constant": true,
      "inputs": [
        {
          "internalType": "bytes32",
          "name": "",
          "type": "bytes32"
        }
      ],
      "name": "cancelled",
      "outputs": [
        {
          "internalType": "bool",
          "name": "",
          "type": "bool"
        }
      ],
      "payable": false,
      "stateMutability": "view",
      "type": "function"
    },
    {
      "constant": true,
      "inputs": [],
      "name": "chainId",
      "outputs": [
        {
          "internalType": "uint256",
          "name": "",
          "type": "uint256"
        }
      ],
      "payable": false,
      "stateMutability": "view",
      "type": "function"
    },
    {
      "constant": true,
      "inputs": [
        {
          "internalType": "bytes32",
          "name": "",
          "type": "bytes32"
        }
      ],
      "name": "filled",
      "outputs": [
        {
          "internalType": "uint256",
          "name": "",
          "type": "uint256"
        }
      ],
      "payable": false,
      "stateMutability": "view",
      "type": "function"
    },
    {
      "constant": true,
      "inputs": [
        {
          "components": [
            {
              "components": [
                {
                  "internalType": "address",
                  "name": "userAddress",
                  "type": "address"
                },
                {
                  "internalType": "uint256",
                  "name": "amount",
                  "type": "uint256"
                },
                {
                  "internalType": "uint256",
                  "name": "price",
                  "type": "uint256"
                },
                {
                  "internalType": "uint256",
                  "name": "orderType",
                  "type": "uint256"
                },
                {
                  "internalType": "bool",
                  "name": "side",
                  "type": "bool"
                },
                {
                  "internalType": "uint256",
                  "name": "salt",
                  "type": "uint256"
                },
                {
                  "internalType": "address",
                  "name": "baseAssetAddress",
                  "type": "address"
                },
                {
                  "internalType": "address",
                  "name": "quoteAssetAddress",
                  "type": "address"
                },
                {
                  "internalType": "address",
                  "name": "feeAddress",
                  "type": "address"
                },
                {
                  "internalType": "uint256",
                  "name": "makerFeePercentage",
                  "type": "uint256"
                },
                {
                  "internalType": "uint256",
                  "name": "takerFeePercentage",
                  "type": "uint256"
                }
              ],
              "internalType": "struct LibOrder.Order",
              "name": "order",
              "type": "tuple"
            },
            {
              "internalType": "uint256",
              "name": "nonce",
              "type": "uint256"
            }
          ],
          "internalType": "struct LibRequest.CancelRequest",
          "name": "request",
          "type": "tuple"
        }
      ],
      "name": "getRequestHash",
      "outputs": [
        {
          "internalType": "bytes32",
          "name": "requestHash",
          "type": "bytes32"
        }
      ],
      "payable": false,
      "stateMutability": "view",
      "type": "function"
    },
    {
      "constant": true,
      "inputs": [
        {
          "internalType": "address",
          "name": "account",
          "type": "address"
        }
      ],
      "name": "isPauser",
      "outputs": [
        {
          "internalType": "bool",
          "name": "",
          "type": "bool"
        }
      ],
      "payable": false,
      "stateMutability": "view",
      "type": "function"
    },
    {
      "constant": true,
      "inputs": [
        {
          "internalType": "bytes32",
          "name": "hash",
          "type": "bytes32"
        },
        {
          "internalType": "address",
          "name": "signerAddress",
          "type": "address"
        },
        {
          "internalType": "bytes",
          "name": "signature",
          "type": "bytes"
        }
      ],
      "name": "isValidSignature",
      "outputs": [
        {
          "internalType": "bool",
          "name": "isValid",
          "type": "bool"
        }
      ],
      "payable": false,
      "stateMutability": "pure",
      "type": "function"
    },
    {
      "constant": true,
      "inputs": [
        {
          "internalType": "address",
          "name": "account",
          "type": "address"
        }
      ],
      "name": "isWhitelistAdmin",
      "outputs": [
        {
          "internalType": "bool",
          "name": "",
          "type": "bool"
        }
      ],
      "payable": false,
      "stateMutability": "view",
      "type": "function"
    },
    {
      "constant": true,
      "inputs": [
        {
          "internalType": "address",
          "name": "account",
          "type": "address"
        }
      ],
      "name": "isWhitelisted",
      "outputs": [
        {
          "internalType": "bool",
          "name": "",
          "type": "bool"
        }
      ],
      "payable": false,
      "stateMutability": "view",
      "type": "function"
    },
    {
      "constant": true,
      "inputs": [],
      "name": "lastTime",
      "outputs": [
        {
          "internalType": "uint256",
          "name": "",
          "type": "uint256"
        }
      ],
      "payable": false,
      "stateMutability": "view",
      "type": "function"
    },
    {
      "constant": true,
      "inputs": [
        {
          "internalType": "bytes32",
          "name": "",
          "type": "bytes32"
        }
      ],
      "name": "lastestCount",
      "outputs": [
        {
          "internalType": "uint256",
          "name": "",
          "type": "uint256"
        }
      ],
      "payable": false,
      "stateMutability": "view",
      "type": "function"
    },
    {
      "constant": true,
      "inputs": [
        {
          "internalType": "bytes32",
          "name": "",
          "type": "bytes32"
        }
      ],
      "name": "lastestPrice",
      "outputs": [
        {
          "internalType": "uint256",
          "name": "",
          "type": "uint256"
        }
      ],
      "payable": false,
      "stateMutability": "view",
      "type": "function"
    },
    {
      "constant": true,
      "inputs": [
        {
          "internalType": "bytes32",
          "name": "",
          "type": "bytes32"
        }
      ],
      "name": "lastestVolume",
      "outputs": [
        {
          "internalType": "uint256",
          "name": "baseVolume",
          "type": "uint256"
        },
        {
          "internalType": "uint256",
          "name": "quoteVolume",
          "type": "uint256"
        }
      ],
      "payable": false,
      "stateMutability": "view",
      "type": "function"
    },
    {
      "constant": true,
      "inputs": [],
      "name": "makerFeePercentage",
      "outputs": [
        {
          "internalType": "uint256",
          "name": "",
          "type": "uint256"
        }
      ],
      "payable": false,
      "stateMutability": "view",
      "type": "function"
    },
    {
      "constant": true,
      "inputs": [
        {
          "internalType": "bytes32",
          "name": "",
          "type": "bytes32"
        }
      ],
      "name": "max",
      "outputs": [
        {
          "internalType": "uint256",
          "name": "",
          "type": "uint256"
        }
      ],
      "payable": false,
      "stateMutability": "view",
      "type": "function"
    },
    {
      "constant": true,
      "inputs": [],
      "name": "minimumLockTime",
      "outputs": [
        {
          "internalType": "uint256",
          "name": "",
          "type": "uint256"
        }
      ],
      "payable": false,
      "stateMutability": "view",
      "type": "function"
    },
    {
      "constant": false,
      "inputs": [],
      "name": "pause",
      "outputs": [],
      "payable": false,
      "stateMutability": "nonpayable",
      "type": "function"
    },
    {
      "constant": true,
      "inputs": [],
      "name": "paused",
      "outputs": [
        {
          "internalType": "bool",
          "name": "",
          "type": "bool"
        }
      ],
      "payable": false,
      "stateMutability": "view",
      "type": "function"
    },
    {
      "constant": true,
      "inputs": [
        {
          "internalType": "bytes32",
          "name": "",
          "type": "bytes32"
        }
      ],
      "name": "recorded",
      "outputs": [
        {
          "internalType": "bool",
          "name": "",
          "type": "bool"
        }
      ],
      "payable": false,
      "stateMutability": "view",
      "type": "function"
    },
    {
      "constant": false,
      "inputs": [
        {
          "internalType": "address",
          "name": "account",
          "type": "address"
        }
      ],
      "name": "removeWhitelisted",
      "outputs": [],
      "payable": false,
      "stateMutability": "nonpayable",
      "type": "function"
    },
    {
      "constant": false,
      "inputs": [],
      "name": "renouncePauser",
      "outputs": [],
      "payable": false,
      "stateMutability": "nonpayable",
      "type": "function"
    },
    {
      "constant": false,
      "inputs": [],
      "name": "renounceWhitelistAdmin",
      "outputs": [],
      "payable": false,
      "stateMutability": "nonpayable",
      "type": "function"
    },
    {
      "constant": false,
      "inputs": [],
      "name": "renounceWhitelisted",
      "outputs": [],
      "payable": false,
      "stateMutability": "nonpayable",
      "type": "function"
    },
    {
      "constant": true,
      "inputs": [],
      "name": "takerFeePercentage",
      "outputs": [
        {
          "internalType": "uint256",
          "name": "",
          "type": "uint256"
        }
      ],
      "payable": false,
      "stateMutability": "view",
      "type": "function"
    },
    {
      "constant": true,
      "inputs": [],
      "name": "timestamp",
      "outputs": [
        {
          "internalType": "uint256",
          "name": "",
          "type": "uint256"
        }
      ],
      "payable": false,
      "stateMutability": "view",
      "type": "function"
    },
    {
      "constant": true,
      "inputs": [
        {
          "internalType": "bytes32",
          "name": "",
          "type": "bytes32"
        }
      ],
      "name": "timestamps",
      "outputs": [
        {
          "internalType": "uint256",
          "name": "",
          "type": "uint256"
        }
      ],
      "payable": false,
      "stateMutability": "view",
      "type": "function"
    },
    {
      "constant": false,
      "inputs": [],
      "name": "unpause",
      "outputs": [],
      "payable": false,
      "stateMutability": "nonpayable",
      "type": "function"
    },
    {
      "constant": true,
      "inputs": [
        {
          "internalType": "bytes32",
          "name": "orderHash",
          "type": "bytes32"
        }
      ],
      "name": "getOrderData",
      "outputs": [
        {
          "components": [
            {
              "internalType": "uint256",
              "name": "filled",
              "type": "uint256"
            },
            {
              "internalType": "uint256",
              "name": "max",
              "type": "uint256"
            },
            {
              "internalType": "bool",
              "name": "cancelled",
              "type": "bool"
            },
            {
              "internalType": "bool",
              "name": "flag",
              "type": "bool"
            }
          ],
          "internalType": "struct Boomflow.OrderData",
          "name": "orderData",
          "type": "tuple"
        }
      ],
      "payable": false,
      "stateMutability": "view",
      "type": "function"
    },
    {
      "constant": true,
      "inputs": [
        {
          "internalType": "bytes32",
          "name": "orderHash",
          "type": "bytes32"
        }
      ],
      "name": "getBaseMakerOrders",
      "outputs": [
        {
          "components": [
            {
              "internalType": "address",
              "name": "userAddress",
              "type": "address"
            },
            {
              "internalType": "uint256",
              "name": "amount",
              "type": "uint256"
            },
            {
              "internalType": "uint256",
              "name": "price",
              "type": "uint256"
            },
            {
              "internalType": "uint256",
              "name": "orderType",
              "type": "uint256"
            },
            {
              "internalType": "bool",
              "name": "side",
              "type": "bool"
            },
            {
              "internalType": "uint256",
              "name": "salt",
              "type": "uint256"
            },
            {
              "internalType": "address",
              "name": "baseAssetAddress",
              "type": "address"
            },
            {
              "internalType": "address",
              "name": "quoteAssetAddress",
              "type": "address"
            },
            {
              "internalType": "address",
              "name": "feeAddress",
              "type": "address"
            },
            {
              "internalType": "uint256",
              "name": "makerFeePercentage",
              "type": "uint256"
            },
            {
              "internalType": "uint256",
              "name": "takerFeePercentage",
              "type": "uint256"
            }
          ],
          "internalType": "struct LibOrder.Order[]",
          "name": "orders",
          "type": "tuple[]"
        }
      ],
      "payable": false,
      "stateMutability": "view",
      "type": "function"
    },
    {
      "constant": true,
      "inputs": [
        {
          "internalType": "bytes32",
          "name": "orderHash",
          "type": "bytes32"
        }
      ],
      "name": "getQuoteMakerOrders",
      "outputs": [
        {
          "components": [
            {
              "internalType": "address",
              "name": "userAddress",
              "type": "address"
            },
            {
              "internalType": "uint256",
              "name": "amount",
              "type": "uint256"
            },
            {
              "internalType": "uint256",
              "name": "price",
              "type": "uint256"
            },
            {
              "internalType": "uint256",
              "name": "orderType",
              "type": "uint256"
            },
            {
              "internalType": "bool",
              "name": "side",
              "type": "bool"
            },
            {
              "internalType": "uint256",
              "name": "salt",
              "type": "uint256"
            },
            {
              "internalType": "address",
              "name": "baseAssetAddress",
              "type": "address"
            },
            {
              "internalType": "address",
              "name": "quoteAssetAddress",
              "type": "address"
            },
            {
              "internalType": "address",
              "name": "feeAddress",
              "type": "address"
            },
            {
              "internalType": "uint256",
              "name": "makerFeePercentage",
              "type": "uint256"
            },
            {
              "internalType": "uint256",
              "name": "takerFeePercentage",
              "type": "uint256"
            }
          ],
          "internalType": "struct LibOrder.Order[]",
          "name": "orders",
          "type": "tuple[]"
        }
      ],
      "payable": false,
      "stateMutability": "view",
      "type": "function"
    },
    {
      "constant": true,
      "inputs": [],
      "name": "getTimestamp",
      "outputs": [
        {
          "internalType": "uint256",
          "name": "",
          "type": "uint256"
        }
      ],
      "payable": false,
      "stateMutability": "view",
      "type": "function"
    },
    {
      "constant": false,
      "inputs": [
        {
          "components": [
            {
              "internalType": "address",
              "name": "userAddress",
              "type": "address"
            },
            {
              "internalType": "uint256",
              "name": "amount",
              "type": "uint256"
            },
            {
              "internalType": "uint256",
              "name": "price",
              "type": "uint256"
            },
            {
              "internalType": "uint256",
              "name": "orderType",
              "type": "uint256"
            },
            {
              "internalType": "bool",
              "name": "side",
              "type": "bool"
            },
            {
              "internalType": "uint256",
              "name": "salt",
              "type": "uint256"
            },
            {
              "internalType": "address",
              "name": "baseAssetAddress",
              "type": "address"
            },
            {
              "internalType": "address",
              "name": "quoteAssetAddress",
              "type": "address"
            },
            {
              "internalType": "address",
              "name": "feeAddress",
              "type": "address"
            },
            {
              "internalType": "uint256",
              "name": "makerFeePercentage",
              "type": "uint256"
            },
            {
              "internalType": "uint256",
              "name": "takerFeePercentage",
              "type": "uint256"
            }
          ],
          "internalType": "struct LibOrder.Order[]",
          "name": "orders",
          "type": "tuple[]"
        }
      ],
      "name": "recordOrders",
      "outputs": [],
      "payable": false,
      "stateMutability": "nonpayable",
      "type": "function"
    },
    {
      "constant": false,
      "inputs": [
        {
          "internalType": "uint256",
          "name": "newTimestamp",
          "type": "uint256"
        }
      ],
      "name": "setTimestamp",
      "outputs": [],
      "payable": false,
      "stateMutability": "nonpayable",
      "type": "function"
    },
    {
      "constant": false,
      "inputs": [
        {
          "internalType": "bytes32[]",
          "name": "hashes",
          "type": "bytes32[]"
        }
      ],
      "name": "removeObsoleteData",
      "outputs": [],
      "payable": false,
      "stateMutability": "nonpayable",
      "type": "function"
    },
    {
      "constant": true,
      "inputs": [
        {
          "internalType": "address",
          "name": "baseAssetAddress",
          "type": "address"
        },
        {
          "internalType": "address",
          "name": "quoteAssetAddress",
          "type": "address"
        }
      ],
      "name": "getPrice",
      "outputs": [
        {
          "internalType": "uint256",
          "name": "price",
          "type": "uint256"
        }
      ],
      "payable": false,
      "stateMutability": "view",
      "type": "function"
    },
    {
      "constant": true,
      "inputs": [
        {
          "internalType": "address",
          "name": "baseAssetAddress",
          "type": "address"
        },
        {
          "internalType": "address",
          "name": "quoteAssetAddress",
          "type": "address"
        }
      ],
      "name": "getCount",
      "outputs": [
        {
          "internalType": "uint256",
          "name": "count",
          "type": "uint256"
        }
      ],
      "payable": false,
      "stateMutability": "view",
      "type": "function"
    },
    {
      "constant": true,
      "inputs": [
        {
          "internalType": "address",
          "name": "baseAssetAddress",
          "type": "address"
        },
        {
          "internalType": "address",
          "name": "quoteAssetAddress",
          "type": "address"
        }
      ],
      "name": "getVolume",
      "outputs": [
        {
          "internalType": "uint256",
          "name": "baseVolume",
          "type": "uint256"
        },
        {
          "internalType": "uint256",
          "name": "quoteVolume",
          "type": "uint256"
        }
      ],
      "payable": false,
      "stateMutability": "view",
      "type": "function"
    },
    {
      "constant": false,
      "inputs": [
        {
          "components": [
            {
              "internalType": "address",
              "name": "userAddress",
              "type": "address"
            },
            {
              "internalType": "uint256",
              "name": "amount",
              "type": "uint256"
            },
            {
              "internalType": "uint256",
              "name": "price",
              "type": "uint256"
            },
            {
              "internalType": "uint256",
              "name": "orderType",
              "type": "uint256"
            },
            {
              "internalType": "bool",
              "name": "side",
              "type": "bool"
            },
            {
              "internalType": "uint256",
              "name": "salt",
              "type": "uint256"
            },
            {
              "internalType": "address",
              "name": "baseAssetAddress",
              "type": "address"
            },
            {
              "internalType": "address",
              "name": "quoteAssetAddress",
              "type": "address"
            },
            {
              "internalType": "address",
              "name": "feeAddress",
              "type": "address"
            },
            {
              "internalType": "uint256",
              "name": "makerFeePercentage",
              "type": "uint256"
            },
            {
              "internalType": "uint256",
              "name": "takerFeePercentage",
              "type": "uint256"
            }
          ],
          "internalType": "struct LibOrder.Order",
          "name": "takerOrder",
          "type": "tuple"
        },
        {
          "components": [
            {
              "internalType": "address",
              "name": "userAddress",
              "type": "address"
            },
            {
              "internalType": "uint256",
              "name": "amount",
              "type": "uint256"
            },
            {
              "internalType": "uint256",
              "name": "price",
              "type": "uint256"
            },
            {
              "internalType": "uint256",
              "name": "orderType",
              "type": "uint256"
            },
            {
              "internalType": "bool",
              "name": "side",
              "type": "bool"
            },
            {
              "internalType": "uint256",
              "name": "salt",
              "type": "uint256"
            },
            {
              "internalType": "address",
              "name": "baseAssetAddress",
              "type": "address"
            },
            {
              "internalType": "address",
              "name": "quoteAssetAddress",
              "type": "address"
            },
            {
              "internalType": "address",
              "name": "feeAddress",
              "type": "address"
            },
            {
              "internalType": "uint256",
              "name": "makerFeePercentage",
              "type": "uint256"
            },
            {
              "internalType": "uint256",
              "name": "takerFeePercentage",
              "type": "uint256"
            }
          ],
          "internalType": "struct LibOrder.Order[]",
          "name": "makerOrders",
          "type": "tuple[]"
        },
        {
          "internalType": "bytes",
          "name": "takerSignature",
          "type": "bytes"
        },
        {
          "internalType": "bytes[]",
          "name": "makerSignatures",
          "type": "bytes[]"
        }
      ],
      "name": "recordInstantExchangeOrders",
      "outputs": [],
      "payable": false,
      "stateMutability": "nonpayable",
      "type": "function"
    },
    {
      "constant": false,
      "inputs": [
        {
          "components": [
            {
              "internalType": "address",
              "name": "userAddress",
              "type": "address"
            },
            {
              "internalType": "uint256",
              "name": "amount",
              "type": "uint256"
            },
            {
              "internalType": "uint256",
              "name": "price",
              "type": "uint256"
            },
            {
              "internalType": "uint256",
              "name": "orderType",
              "type": "uint256"
            },
            {
              "internalType": "bool",
              "name": "side",
              "type": "bool"
            },
            {
              "internalType": "uint256",
              "name": "salt",
              "type": "uint256"
            },
            {
              "internalType": "address",
              "name": "baseAssetAddress",
              "type": "address"
            },
            {
              "internalType": "address",
              "name": "quoteAssetAddress",
              "type": "address"
            },
            {
              "internalType": "address",
              "name": "feeAddress",
              "type": "address"
            },
            {
              "internalType": "uint256",
              "name": "makerFeePercentage",
              "type": "uint256"
            },
            {
              "internalType": "uint256",
              "name": "takerFeePercentage",
              "type": "uint256"
            }
          ],
          "internalType": "struct LibOrder.Order[]",
          "name": "takerOrders",
          "type": "tuple[]"
        },
        {
          "internalType": "bytes[]",
          "name": "takerSignatures",
          "type": "bytes[]"
        },
        {
          "internalType": "uint256",
          "name": "threshold",
          "type": "uint256"
        },
        {
          "internalType": "uint256[]",
          "name": "makerContractFees",
          "type": "uint256[]"
        },
        {
          "internalType": "uint256[]",
          "name": "takerContractFees",
          "type": "uint256[]"
        },
        {
          "internalType": "address[]",
          "name": "contractFeeAddresses",
          "type": "address[]"
        }
      ],
      "name": "batchExecuteInstantExchangeTrade",
      "outputs": [],
      "payable": false,
      "stateMutability": "nonpayable",
      "type": "function"
    },
    {
      "constant": false,
      "inputs": [
        {
          "components": [
            {
              "internalType": "address",
              "name": "userAddress",
              "type": "address"
            },
            {
              "internalType": "uint256",
              "name": "amount",
              "type": "uint256"
            },
            {
              "internalType": "uint256",
              "name": "price",
              "type": "uint256"
            },
            {
              "internalType": "uint256",
              "name": "orderType",
              "type": "uint256"
            },
            {
              "internalType": "bool",
              "name": "side",
              "type": "bool"
            },
            {
              "internalType": "uint256",
              "name": "salt",
              "type": "uint256"
            },
            {
              "internalType": "address",
              "name": "baseAssetAddress",
              "type": "address"
            },
            {
              "internalType": "address",
              "name": "quoteAssetAddress",
              "type": "address"
            },
            {
              "internalType": "address",
              "name": "feeAddress",
              "type": "address"
            },
            {
              "internalType": "uint256",
              "name": "makerFeePercentage",
              "type": "uint256"
            },
            {
              "internalType": "uint256",
              "name": "takerFeePercentage",
              "type": "uint256"
            }
          ],
          "internalType": "struct LibOrder.Order",
          "name": "takerOrder",
          "type": "tuple"
        },
        {
          "internalType": "bytes",
          "name": "takerSignature",
          "type": "bytes"
        },
        {
          "internalType": "uint256",
          "name": "threshold",
          "type": "uint256"
        },
        {
          "internalType": "uint256",
          "name": "makerContractFee",
          "type": "uint256"
        },
        {
          "internalType": "uint256",
          "name": "takerContractFee",
          "type": "uint256"
        },
        {
          "internalType": "address",
          "name": "contractFeeAddress",
          "type": "address"
        }
      ],
      "name": "executeInstantExchangeTrade",
      "outputs": [],
      "payable": false,
      "stateMutability": "nonpayable",
      "type": "function"
    },
    {
      "constant": false,
      "inputs": [
        {
          "components": [
            {
              "internalType": "address",
              "name": "userAddress",
              "type": "address"
            },
            {
              "internalType": "uint256",
              "name": "amount",
              "type": "uint256"
            },
            {
              "internalType": "uint256",
              "name": "price",
              "type": "uint256"
            },
            {
              "internalType": "uint256",
              "name": "orderType",
              "type": "uint256"
            },
            {
              "internalType": "bool",
              "name": "side",
              "type": "bool"
            },
            {
              "internalType": "uint256",
              "name": "salt",
              "type": "uint256"
            },
            {
              "internalType": "address",
              "name": "baseAssetAddress",
              "type": "address"
            },
            {
              "internalType": "address",
              "name": "quoteAssetAddress",
              "type": "address"
            },
            {
              "internalType": "address",
              "name": "feeAddress",
              "type": "address"
            },
            {
              "internalType": "uint256",
              "name": "makerFeePercentage",
              "type": "uint256"
            },
            {
              "internalType": "uint256",
              "name": "takerFeePercentage",
              "type": "uint256"
            }
          ],
          "internalType": "struct LibOrder.Order[]",
          "name": "makerOrders",
          "type": "tuple[]"
        },
        {
          "components": [
            {
              "internalType": "address",
              "name": "userAddress",
              "type": "address"
            },
            {
              "internalType": "uint256",
              "name": "amount",
              "type": "uint256"
            },
            {
              "internalType": "uint256",
              "name": "price",
              "type": "uint256"
            },
            {
              "internalType": "uint256",
              "name": "orderType",
              "type": "uint256"
            },
            {
              "internalType": "bool",
              "name": "side",
              "type": "bool"
            },
            {
              "internalType": "uint256",
              "name": "salt",
              "type": "uint256"
            },
            {
              "internalType": "address",
              "name": "baseAssetAddress",
              "type": "address"
            },
            {
              "internalType": "address",
              "name": "quoteAssetAddress",
              "type": "address"
            },
            {
              "internalType": "address",
              "name": "feeAddress",
              "type": "address"
            },
            {
              "internalType": "uint256",
              "name": "makerFeePercentage",
              "type": "uint256"
            },
            {
              "internalType": "uint256",
              "name": "takerFeePercentage",
              "type": "uint256"
            }
          ],
          "internalType": "struct LibOrder.Order[]",
          "name": "takerOrders",
          "type": "tuple[]"
        },
        {
          "internalType": "bytes[]",
          "name": "makerSignatures",
          "type": "bytes[]"
        },
        {
          "internalType": "bytes[]",
          "name": "takerSignatures",
          "type": "bytes[]"
        },
        {
          "components": [
            {
              "internalType": "uint256",
              "name": "tradeAmount",
              "type": "uint256"
            },
            {
              "internalType": "uint256",
              "name": "makerContractFee",
              "type": "uint256"
            },
            {
              "internalType": "uint256",
              "name": "takerContractFee",
              "type": "uint256"
            },
            {
              "internalType": "address",
              "name": "contractFeeAddress",
              "type": "address"
            }
          ],
          "internalType": "struct LibFillResults.Context[]",
          "name": "contexts",
          "type": "tuple[]"
        }
      ],
      "name": "batchExecuteTrade",
      "outputs": [],
      "payable": false,
      "stateMutability": "nonpayable",
      "type": "function"
    },
    {
      "constant": false,
      "inputs": [
        {
          "components": [
            {
              "internalType": "address",
              "name": "userAddress",
              "type": "address"
            },
            {
              "internalType": "uint256",
              "name": "amount",
              "type": "uint256"
            },
            {
              "internalType": "uint256",
              "name": "price",
              "type": "uint256"
            },
            {
              "internalType": "uint256",
              "name": "orderType",
              "type": "uint256"
            },
            {
              "internalType": "bool",
              "name": "side",
              "type": "bool"
            },
            {
              "internalType": "uint256",
              "name": "salt",
              "type": "uint256"
            },
            {
              "internalType": "address",
              "name": "baseAssetAddress",
              "type": "address"
            },
            {
              "internalType": "address",
              "name": "quoteAssetAddress",
              "type": "address"
            },
            {
              "internalType": "address",
              "name": "feeAddress",
              "type": "address"
            },
            {
              "internalType": "uint256",
              "name": "makerFeePercentage",
              "type": "uint256"
            },
            {
              "internalType": "uint256",
              "name": "takerFeePercentage",
              "type": "uint256"
            }
          ],
          "internalType": "struct LibOrder.Order",
          "name": "makerOrder",
          "type": "tuple"
        },
        {
          "components": [
            {
              "internalType": "address",
              "name": "userAddress",
              "type": "address"
            },
            {
              "internalType": "uint256",
              "name": "amount",
              "type": "uint256"
            },
            {
              "internalType": "uint256",
              "name": "price",
              "type": "uint256"
            },
            {
              "internalType": "uint256",
              "name": "orderType",
              "type": "uint256"
            },
            {
              "internalType": "bool",
              "name": "side",
              "type": "bool"
            },
            {
              "internalType": "uint256",
              "name": "salt",
              "type": "uint256"
            },
            {
              "internalType": "address",
              "name": "baseAssetAddress",
              "type": "address"
            },
            {
              "internalType": "address",
              "name": "quoteAssetAddress",
              "type": "address"
            },
            {
              "internalType": "address",
              "name": "feeAddress",
              "type": "address"
            },
            {
              "internalType": "uint256",
              "name": "makerFeePercentage",
              "type": "uint256"
            },
            {
              "internalType": "uint256",
              "name": "takerFeePercentage",
              "type": "uint256"
            }
          ],
          "internalType": "struct LibOrder.Order",
          "name": "takerOrder",
          "type": "tuple"
        },
        {
          "internalType": "bytes",
          "name": "makerSignature",
          "type": "bytes"
        },
        {
          "internalType": "bytes",
          "name": "takerSignature",
          "type": "bytes"
        },
        {
          "components": [
            {
              "internalType": "uint256",
              "name": "tradeAmount",
              "type": "uint256"
            },
            {
              "internalType": "uint256",
              "name": "makerContractFee",
              "type": "uint256"
            },
            {
              "internalType": "uint256",
              "name": "takerContractFee",
              "type": "uint256"
            },
            {
              "internalType": "address",
              "name": "contractFeeAddress",
              "type": "address"
            }
          ],
          "internalType": "struct LibFillResults.Context",
          "name": "context",
          "type": "tuple"
        }
      ],
      "name": "executeTrade",
      "outputs": [
        {
          "components": [
            {
              "internalType": "uint256",
              "name": "tradeAmount",
              "type": "uint256"
            },
            {
              "internalType": "uint256",
              "name": "tradeFunds",
              "type": "uint256"
            },
            {
              "internalType": "uint256",
              "name": "makerFillAmount",
              "type": "uint256"
            },
            {
              "internalType": "uint256",
              "name": "takerFillAmount",
              "type": "uint256"
            },
            {
              "internalType": "uint256",
              "name": "makerFee",
              "type": "uint256"
            },
            {
              "internalType": "uint256",
              "name": "takerFee",
              "type": "uint256"
            },
            {
              "internalType": "uint256",
              "name": "makerContractFee",
              "type": "uint256"
            },
            {
              "internalType": "uint256",
              "name": "takerContractFee",
              "type": "uint256"
            }
          ],
          "internalType": "struct LibFillResults.MatchedFillResults",
          "name": "matchedFillResults",
          "type": "tuple"
        }
      ],
      "payable": false,
      "stateMutability": "nonpayable",
      "type": "function"
    },
    {
      "constant": false,
      "inputs": [
        {
          "components": [
            {
              "components": [
                {
                  "internalType": "address",
                  "name": "userAddress",
                  "type": "address"
                },
                {
                  "internalType": "uint256",
                  "name": "amount",
                  "type": "uint256"
                },
                {
                  "internalType": "uint256",
                  "name": "price",
                  "type": "uint256"
                },
                {
                  "internalType": "uint256",
                  "name": "orderType",
                  "type": "uint256"
                },
                {
                  "internalType": "bool",
                  "name": "side",
                  "type": "bool"
                },
                {
                  "internalType": "uint256",
                  "name": "salt",
                  "type": "uint256"
                },
                {
                  "internalType": "address",
                  "name": "baseAssetAddress",
                  "type": "address"
                },
                {
                  "internalType": "address",
                  "name": "quoteAssetAddress",
                  "type": "address"
                },
                {
                  "internalType": "address",
                  "name": "feeAddress",
                  "type": "address"
                },
                {
                  "internalType": "uint256",
                  "name": "makerFeePercentage",
                  "type": "uint256"
                },
                {
                  "internalType": "uint256",
                  "name": "takerFeePercentage",
                  "type": "uint256"
                }
              ],
              "internalType": "struct LibOrder.Order",
              "name": "order",
              "type": "tuple"
            },
            {
              "internalType": "uint256",
              "name": "nonce",
              "type": "uint256"
            }
          ],
          "internalType": "struct LibRequest.CancelRequest[]",
          "name": "requests",
          "type": "tuple[]"
        },
        {
          "internalType": "bytes[]",
          "name": "signatures",
          "type": "bytes[]"
        }
      ],
      "name": "cancelOrders",
      "outputs": [],
      "payable": false,
      "stateMutability": "nonpayable",
      "type": "function"
    },
    {
      "constant": false,
      "inputs": [
        {
          "components": [
            {
              "components": [
                {
                  "internalType": "address",
                  "name": "userAddress",
                  "type": "address"
                },
                {
                  "internalType": "uint256",
                  "name": "amount",
                  "type": "uint256"
                },
                {
                  "internalType": "uint256",
                  "name": "price",
                  "type": "uint256"
                },
                {
                  "internalType": "uint256",
                  "name": "orderType",
                  "type": "uint256"
                },
                {
                  "internalType": "bool",
                  "name": "side",
                  "type": "bool"
                },
                {
                  "internalType": "uint256",
                  "name": "salt",
                  "type": "uint256"
                },
                {
                  "internalType": "address",
                  "name": "baseAssetAddress",
                  "type": "address"
                },
                {
                  "internalType": "address",
                  "name": "quoteAssetAddress",
                  "type": "address"
                },
                {
                  "internalType": "address",
                  "name": "feeAddress",
                  "type": "address"
                },
                {
                  "internalType": "uint256",
                  "name": "makerFeePercentage",
                  "type": "uint256"
                },
                {
                  "internalType": "uint256",
                  "name": "takerFeePercentage",
                  "type": "uint256"
                }
              ],
              "internalType": "struct LibOrder.Order",
              "name": "order",
              "type": "tuple"
            },
            {
              "internalType": "uint256",
              "name": "nonce",
              "type": "uint256"
            }
          ],
          "internalType": "struct LibRequest.CancelRequest",
          "name": "request",
          "type": "tuple"
        },
        {
          "internalType": "bytes",
          "name": "signature",
          "type": "bytes"
        }
      ],
      "name": "cancelOrder",
      "outputs": [],
      "payable": false,
      "stateMutability": "nonpayable",
      "type": "function"
    },
    {
      "constant": false,
      "inputs": [
        {
          "components": [
            {
              "internalType": "address",
              "name": "userAddress",
              "type": "address"
            },
            {
              "internalType": "uint256",
              "name": "amount",
              "type": "uint256"
            },
            {
              "internalType": "uint256",
              "name": "price",
              "type": "uint256"
            },
            {
              "internalType": "uint256",
              "name": "orderType",
              "type": "uint256"
            },
            {
              "internalType": "bool",
              "name": "side",
              "type": "bool"
            },
            {
              "internalType": "uint256",
              "name": "salt",
              "type": "uint256"
            },
            {
              "internalType": "address",
              "name": "baseAssetAddress",
              "type": "address"
            },
            {
              "internalType": "address",
              "name": "quoteAssetAddress",
              "type": "address"
            },
            {
              "internalType": "address",
              "name": "feeAddress",
              "type": "address"
            },
            {
              "internalType": "uint256",
              "name": "makerFeePercentage",
              "type": "uint256"
            },
            {
              "internalType": "uint256",
              "name": "takerFeePercentage",
              "type": "uint256"
            }
          ],
          "internalType": "struct LibOrder.Order",
          "name": "order",
          "type": "tuple"
        },
        {
          "internalType": "bytes",
          "name": "signature",
          "type": "bytes"
        }
      ],
      "name": "finalizeOrder",
      "outputs": [],
      "payable": false,
      "stateMutability": "nonpayable",
      "type": "function"
    },
    {
      "constant": false,
      "inputs": [],
      "name": "Pause",
      "outputs": [],
      "payable": false,
      "stateMutability": "nonpayable",
      "type": "function"
    },
    {
      "constant": false,
      "inputs": [],
      "name": "Resume",
      "outputs": [],
      "payable": false,
      "stateMutability": "nonpayable",
      "type": "function"
    },
    {
      "constant": true,
      "inputs": [
        {
          "components": [
            {
              "internalType": "address",
              "name": "userAddress",
              "type": "address"
            },
            {
              "internalType": "uint256",
              "name": "amount",
              "type": "uint256"
            },
            {
              "internalType": "uint256",
              "name": "price",
              "type": "uint256"
            },
            {
              "internalType": "uint256",
              "name": "orderType",
              "type": "uint256"
            },
            {
              "internalType": "bool",
              "name": "side",
              "type": "bool"
            },
            {
              "internalType": "uint256",
              "name": "salt",
              "type": "uint256"
            },
            {
              "internalType": "address",
              "name": "baseAssetAddress",
              "type": "address"
            },
            {
              "internalType": "address",
              "name": "quoteAssetAddress",
              "type": "address"
            },
            {
              "internalType": "address",
              "name": "feeAddress",
              "type": "address"
            },
            {
              "internalType": "uint256",
              "name": "makerFeePercentage",
              "type": "uint256"
            },
            {
              "internalType": "uint256",
              "name": "takerFeePercentage",
              "type": "uint256"
            }
          ],
          "internalType": "struct LibOrder.Order",
          "name": "order",
          "type": "tuple"
        }
      ],
      "name": "getOrderInfo",
      "outputs": [
        {
          "components": [
            {
              "internalType": "uint8",
              "name": "orderStatus",
              "type": "uint8"
            },
            {
              "internalType": "bytes32",
              "name": "orderHash",
              "type": "bytes32"
            },
            {
              "internalType": "uint256",
              "name": "filledAmount",
              "type": "uint256"
            }
          ],
          "internalType": "struct LibOrder.OrderInfo",
          "name": "orderInfo",
          "type": "tuple"
        }
      ],
      "payable": false,
      "stateMutability": "view",
      "type": "function"
    },
    {
      "constant": true,
      "inputs": [
        {
          "components": [
            {
              "internalType": "address",
              "name": "userAddress",
              "type": "address"
            },
            {
              "internalType": "uint256",
              "name": "amount",
              "type": "uint256"
            },
            {
              "internalType": "uint256",
              "name": "price",
              "type": "uint256"
            },
            {
              "internalType": "uint256",
              "name": "orderType",
              "type": "uint256"
            },
            {
              "internalType": "bool",
              "name": "side",
              "type": "bool"
            },
            {
              "internalType": "uint256",
              "name": "salt",
              "type": "uint256"
            },
            {
              "internalType": "address",
              "name": "baseAssetAddress",
              "type": "address"
            },
            {
              "internalType": "address",
              "name": "quoteAssetAddress",
              "type": "address"
            },
            {
              "internalType": "address",
              "name": "feeAddress",
              "type": "address"
            },
            {
              "internalType": "uint256",
              "name": "makerFeePercentage",
              "type": "uint256"
            },
            {
              "internalType": "uint256",
              "name": "takerFeePercentage",
              "type": "uint256"
            }
          ],
          "internalType": "struct LibOrder.Order",
          "name": "order",
          "type": "tuple"
        },
        {
          "components": [
            {
              "internalType": "uint8",
              "name": "orderStatus",
              "type": "uint8"
            },
            {
              "internalType": "bytes32",
              "name": "orderHash",
              "type": "bytes32"
            },
            {
              "internalType": "uint256",
              "name": "filledAmount",
              "type": "uint256"
            }
          ],
          "internalType": "struct LibOrder.OrderInfo",
          "name": "orderInfo",
          "type": "tuple"
        },
        {
          "internalType": "bytes",
          "name": "signature",
          "type": "bytes"
        }
      ],
      "name": "assertFillableOrder",
      "outputs": [],
      "payable": false,
      "stateMutability": "pure",
      "type": "function"
    }
  ],
  "bytecode": "0x6080604052600380546001600160a01b031916301790556000600f8190556010819055601155620151806013553480156200003957600080fd5b5062000060620000516001600160e01b03620001c216565b6001600160e01b03620001c616565b4660028190556040516200007790602001620007ab565b60408051601f19818403018152828252805160209182012083830183526008845267426f6f6d666c6f7760c01b93820193909352815180830183526003808252620312e360ec1b91830191909152600254905492516200012a94937fa766a8a2c54c152051aa6d32ac0b8d30934cb1f5a7456d8b3ca26980cc1a7223937fe6bbd6277e1bf288eed5e8d1780f9a50b239e86b153736bceebccf4ea79d90b393926001600160a01b03909216910162000809565b60408051601f198184030181529190528051602090910120600455506005805460ff19166001179055620001796200016a6001600160e01b03620001c216565b6001600160e01b036200021816565b6007805460ff19169055620001a96200019a6001600160e01b03620001c216565b6001600160e01b036200026a16565b620001bc6001600160e01b03620002cf16565b620008f7565b3390565b620001e18160006200031a60201b6200325d1790919060201c565b6040516001600160a01b038216907f22380c05984257a1cb900161c713dd71d39e74820f1aea43bd3f1bdd2096129990600090a250565b620002338160066200031a60201b6200325d1790919060201c565b6040516001600160a01b038216907f6719d08c1888103bea251a4ed56406bd0c3e69723c8a1686e017e7bbe159b6f890600090a250565b62000290620002816001600160e01b03620001c216565b6001600160e01b036200037416565b620002b85760405162461bcd60e51b8152600401620002af90620008a7565b60405180910390fd5b620002cc816001600160e01b036200039716565b50565b620002e6620002816001600160e01b03620001c216565b620003055760405162461bcd60e51b8152600401620002af90620008a7565b620003186001600160e01b03620003e916565b565b6200032f82826001600160e01b03620004ae16565b156200034f5760405162461bcd60e51b8152600401620002af906200085f565b6001600160a01b0316600090815260209190915260409020805460ff19166001179055565b600062000391826000620004ae60201b6200242d1790919060201c565b92915050565b620003b28160016200031a60201b6200325d1790919060201c565b6040516001600160a01b038216907fee1504a83b6d4a361f4c1dc78ab59bfa30d6a3b6612c403e86bb01ef2984295f90600090a250565b6200040f620004006001600160e01b03620001c216565b6001600160e01b03620004f916565b6200042e5760405162461bcd60e51b8152600401620002af9062000871565b60075460ff1615620004545760405162461bcd60e51b8152600401620002af9062000883565b6007805460ff191660011790557f62e78cea01bee320cd4e420270b5ea74000d11b0c9f74754ebdbfc544b05a258620004956001600160e01b03620001c216565b604051620004a49190620007f9565b60405180910390a1565b60006001600160a01b038216620004d95760405162461bcd60e51b8152600401620002af9062000895565b506001600160a01b03166000908152602091909152604090205460ff1690565b600062000391826006620004ae60201b6200242d1790919060201c565b6200052181620008e3565b82525050565b6200052181620008c7565b6200052181620008d4565b60006200054c600c83620008c2565b6b1cdd1c9a5b99c81b985b594b60a21b8152600c0192915050565b600062000576601f83620008b9565b7f526f6c65733a206163636f756e7420616c72656164792068617320726f6c6500815260200192915050565b6000620005b1603083620008b9565b7f506175736572526f6c653a2063616c6c657220646f6573206e6f74206861766581526f207468652050617573657220726f6c6560801b602082015260400192915050565b600062000605601983620008c2565b7f6164647265737320766572696679696e67436f6e747261637400000000000000815260190192915050565b600062000640601083620008c2565b6f1d5a5b9d0c8d4d8818da185a5b92590b60821b815260100192915050565b60006200066e600183620008c2565b602960f81b815260010192915050565b60006200068d600f83620008c2565b6e1cdd1c9a5b99c81d995c9cda5bdb8b608a1b8152600f0192915050565b6000620006ba601083620008b9565b6f14185d5cd8589b194e881c185d5cd95960821b815260200192915050565b6000620006e8602283620008b9565b7f526f6c65733a206163636f756e7420697320746865207a65726f206164647265815261737360f01b602082015260400192915050565b60006200072e604083620008b9565b7f57686974656c69737441646d696e526f6c653a2063616c6c657220646f65732081527f6e6f742068617665207468652057686974656c69737441646d696e20726f6c65602082015260400192915050565b60006200078f600d83620008c2565b6c08a92a06e626488dedac2d2dc5609b1b8152600d0192915050565b6000620007b88262000780565b9150620007c5826200053d565b9150620007d2826200067e565b9150620007df8262000631565b9150620007ec82620005f6565b915062000391826200065f565b6020810162000391828462000516565b60a0810162000819828862000532565b62000828602083018762000532565b62000837604083018662000532565b62000846606083018562000532565b62000855608083018462000527565b9695505050505050565b60208082528101620003918162000567565b602080825281016200039181620005a2565b602080825281016200039181620006ab565b602080825281016200039181620006d9565b6020808252810162000391816200071f565b90815260200190565b919050565b60006200039182620008d7565b90565b6001600160a01b031690565b6000620003918260006200039182620008c7565b6163b080620009076000396000f3fe608060405234801561001057600080fd5b50600436106103575760003560e01c806393634702116101c8578063bb5f747b11610104578063d6cd9473116100a2578063ed6d0c5b1161007c578063ed6d0c5b1461069c578063f2fb6d28146106a4578063f9f652ee146106b7578063fb4d3144146106d757610357565b8063d6cd94731461066c578063e306f77914610674578063e7e0ec5d1461067c57610357565b8063d1afe78f116100de578063d1afe78f14610620578063d2adbc2114610633578063d3d7f88914610646578063d63997901461065957610357565b8063bb5f747b146105f2578063bf2ee5f014610605578063c37f03c71461061857610357565b8063a40f1e3a11610171578063ac41865a1161014b578063ac41865a146105b1578063ae86cdbb146105c4578063b5872958146105d7578063b80777ea146105ea57610357565b8063a40f1e3a14610583578063a615227714610596578063a68bdd62146105a957610357565b80639a8a0592116101a25780639a8a059214610555578063a0a2b5731461055d578063a1627fa91461057057610357565b8063936347021461052757806393e9a0841461053a578063954f85e31461054257610357565b806345ad1f06116102975780635dedabf9116102405780636ef8d66d1161021a5780636ef8d66d146104f15780637362d9c8146104f957806382dc1ec41461050c5780638456cb591461051f57610357565b80635dedabf9146104b55780635fc39d04146104d65780636985a022146104e957610357565b80634c5a628c116102715780634c5a628c1461049257806353db95a01461049a5780635c975abb146104ad57610357565b806345ad1f061461046457806346fbf68e14610477578063490d6d111461048a57610357565b8063288cdc91116103045780632ac12622116102de5780632ac12622146104165780632c1678db146104365780633af32abf146104495780633f4ba83a1461045c57610357565b8063288cdc91146103dd57806328acc9e7146103f0578063291d95491461040357610357565b8063188ec35611610335578063188ec356146103ad57806318db0829146103c25780632699918c146103ca57610357565b806303a3324b1461035c57806310154bad14610385578063147d74231461039a575b600080fd5b61036f61036a3660046148be565b6106f7565b60405161037c9190615c11565b60405180910390f35b61039861039336600461458d565b6107ea565b005b61036f6103a83660046148be565b610826565b6103b5610904565b60405161037c9190615c30565b6103b561090b565b6103986103d8366004614a76565b610911565b6103b56103eb3660046148be565b6109c4565b6103986103fe3660046145ed565b6109d6565b61039861041136600461458d565b610a78565b6104296104243660046148be565b610aa8565b60405161037c9190615c22565b6103b56104443660046148be565b610abd565b61042961045736600461458d565b610acf565b610398610aea565b6103986104723660046149c9565b610b7d565b61042961048536600461458d565b61139f565b6103986113b2565b6103986113e3565b6103986104a8366004614622565b6113f3565b6104296114a7565b6104c86104c33660046145b3565b6114b0565b60405161037c929190616034565b6103986104e4366004614ab4565b611500565b6103986115a1565b6103986115d0565b61039861050736600461458d565b6115e0565b61039861051a36600461458d565b611610565b610398611640565b6104296105353660046148dc565b6116c0565b6103b56117de565b610398610550366004614681565b6117e4565b6103b5611878565b61039861056b3660046148be565b61187e565b6103b561057e3660046148be565b6118cb565b6104c86105913660046148be565b6118dd565b6103b56105a43660046148be565b6118f6565b6103b5611908565b6103b56105bf3660046145b3565b61190e565b6103986105d2366004614b4c565b611951565b6103b56105e53660046148be565b611b04565b6103b5611b16565b61042961060036600461458d565b611b1c565b610398610613366004614960565b611b2e565b6103b5611bf3565b61039861062e3660046147b4565b611bff565b6103b5610641366004614941565b611dee565b6103b56106543660046145b3565b611e01565b6104296106673660046148be565b611e44565b610398611e59565b6103b5611e69565b61068f61068a366004614b9e565b611e6f565b60405161037c9190616009565b6103b5611f30565b6103986106b23660046146b6565b611f36565b6106ca6106c53660046149aa565b6120b9565b60405161037c9190616026565b6106ea6106e53660046148be565b612242565b60405161037c9190616018565b6060600b6000838152602001908152602001600020805480602002602001604051908101604052809291908181526020016000905b828210156107df5760008481526020908190206040805161016081018252600b860290920180546001600160a01b0390811684526001808301548587015260028301549385019390935260038201546060850152600482015460ff1615156080850152600582015460a08501526006820154811660c08501526007820154811660e08501526008820154166101008401526009810154610120840152600a0154610140830152908352909201910161072c565b505050509050919050565b6107f56106006122c2565b61081a5760405162461bcd60e51b815260040161081190615f09565b60405180910390fd5b610823816122c6565b50565b6000818152600c602090815260408083208054825181850281018501909352808352606094929391929091840182156107df5760008481526020908190206040805161016081018252600b860290920180546001600160a01b0390811684526001808301548587015260028301549385019390935260038201546060850152600482015460ff1615156080850152600582015460a08501526006820154811660c08501526007820154811660e08501526008820154166101008401526009810154610120840152600a0154610140830152908352909201910161072c565b600f545b90565b60105481565b61091c6104576122c2565b6109385760405162461bcd60e51b815260040161081190615f39565b60075460ff161561095b5760405162461bcd60e51b815260040161081190615e39565b60006109668361230e565b9050610977818460000151846116c0565b6109935760405162461bcd60e51b815260040161081190615df9565b6000908152600a60209081526040808320805460ff1916600117905560a090940151600d9091529290209190915550565b60086020526000908152604090205481565b6109e16106006122c2565b6109fd5760405162461bcd60e51b815260040161081190615f09565b60005b8151811015610a7457600f54600d6000848481518110610a1c57fe5b602002602001015181526020019081526020016000205410610a505760405162461bcd60e51b815260040161081190615e09565b610a6c828281518110610a5f57fe5b602002602001015161231c565b600101610a00565b5050565b610a836106006122c2565b610a9f5760405162461bcd60e51b815260040161081190615f09565b610823816123e5565b600a6020526000908152604090205460ff1681565b60156020526000908152604090205481565b6000610ae260018363ffffffff61242d16565b90505b919050565b610af56104856122c2565b610b115760405162461bcd60e51b815260040161081190615d79565b60075460ff16610b335760405162461bcd60e51b815260040161081190615d49565b6007805460ff191690557f5db9ee0a495bf2e6ff9c91a7834c1ba4fdd244a5e8aa4e537bd38aeae4b073aa610b666122c2565b604051610b739190615bdb565b60405180910390a1565b610b886104576122c2565b610ba45760405162461bcd60e51b815260040161081190615f39565b60075460ff1615610bc75760405162461bcd60e51b815260040161081190615e39565b60055460ff16610be95760405162461bcd60e51b815260040161081190615fe9565b6005805460ff19169055600184606001516001811115610c0557fe5b6001811115610c1057fe5b14610c2d5760405162461bcd60e51b815260040161081190615f59565b8051835114610c4e5760405162461bcd60e51b815260040161081190615e19565b610c56613de4565b610c5f856120b9565b9050806040015160001415610c895760208086015182820151600090815260099092526040909120555b610c94858285611951565b60005b84518110156112bb576000858281518110610cae57fe5b6020026020010151606001516001811115610cc557fe5b6001811115610cd057fe5b14610ced5760405162461bcd60e51b815260040161081190615eb9565b610cf5613de4565b610d11868381518110610d0457fe5b60200260200101516120b9565b9050806040015160001415610d5457858281518110610d2c57fe5b6020026020010151602001516009600083602001518152602001908152602001600020819055505b610d85868381518110610d6357fe5b602002602001015182868581518110610d7857fe5b6020026020010151611951565b858281518110610d9157fe5b602002602001015160c001516001600160a01b03168760c001516001600160a01b0316141561101e57858281518110610dc657fe5b6020026020010151608001511515876080015115151415610df95760405162461bcd60e51b815260040161081190615ff9565b6020808401516000908152600b909152604090205415610f0f57858281518110610e1f57fe5b602002602001015160c001516001600160a01b0316600b600085602001518152602001908152602001600020600081548110610e5757fe5b600091825260209091206006600b9092020101546001600160a01b031614610e915760405162461bcd60e51b815260040161081190615d89565b858281518110610e9d57fe5b602002602001015160e001516001600160a01b0316600b600085602001518152602001908152602001600020600081548110610ed557fe5b600091825260209091206007600b9092020101546001600160a01b031614610f0f5760405162461bcd60e51b815260040161081190615fb9565b600b600084602001518152602001908152602001600020868381518110610f3257fe5b6020908102919091018101518254600180820185556000948552938390208251600b90920201805473ffffffffffffffffffffffffffffffffffffffff199081166001600160a01b0393841617825593830151948101949094556040820151600285015560608201516003850155608082015160048501805460ff191691151591909117905560a0820151600585015560c0820151600685018054851691831691909117905560e0820151600785018054851691831691909117905561010082015160088501805490941691161790915561012081015160098301556101400151600a909101556112b2565b85828151811061102a57fe5b602002602001015160c001516001600160a01b03168760e001516001600160a01b031614156112b25785828151811061105f57fe5b602002602001015160800151151587608001511515146110915760405162461bcd60e51b815260040161081190615ff9565b6020808401516000908152600c9091526040902054156111a7578582815181106110b757fe5b602002602001015160c001516001600160a01b0316600c6000856020015181526020019081526020016000206000815481106110ef57fe5b600091825260209091206006600b9092020101546001600160a01b0316146111295760405162461bcd60e51b815260040161081190615f99565b85828151811061113557fe5b602002602001015160e001516001600160a01b0316600c60008560200151815260200190815260200160002060008154811061116d57fe5b600091825260209091206007600b9092020101546001600160a01b0316146111a75760405162461bcd60e51b815260040161081190615d29565b600c6000846020015181526020019081526020016000208683815181106111ca57fe5b6020908102919091018101518254600180820185556000948552938390208251600b90920201805473ffffffffffffffffffffffffffffffffffffffff199081166001600160a01b0393841617825593830151948101949094556040820151600285015560608201516003850155608082015160048501805460ff191691151591909117905560a0820151600585015560c0820151600685018054851691831691909117905560e0820151600785018054851691831691909117905561010082015160088501805490941691161790915561012081015160098301556101400151600a909101555b50600101610c97565b506020808201516000908152600b9091526040902054158015906112f257506020808201516000908152600c909152604090205415155b1561138b57600c60008260200151815260200190815260200160002060008154811061131a57fe5b60009182526020808320600b92830201600701548482015184529190526040822080546001600160a01b0390921692909161135157fe5b600091825260209091206007600b9092020101546001600160a01b03161461138b5760405162461bcd60e51b815260040161081190615da9565b50506005805460ff19166001179055505050565b6000610ae260068363ffffffff61242d16565b6113bd6106006122c2565b6113d95760405162461bcd60e51b815260040161081190615f09565b6113e1610aea565b565b6113e16113ee6122c2565b612479565b6113fe6104576122c2565b61141a5760405162461bcd60e51b815260040161081190615f39565b60075460ff161561143d5760405162461bcd60e51b815260040161081190615e39565b805182511461145e5760405162461bcd60e51b815260040161081190615f19565b60005b82518110156114a25761149a83828151811061147957fe5b602002602001015183838151811061148d57fe5b6020026020010151611b2e565b600101611461565b505050565b60075460ff1690565b600080600084846040516020016114c8929190615ba9565b60408051601f198184030181529181528151602092830120600090815260169092529020805460019091015490969095509350505050565b61150b6104576122c2565b6115275760405162461bcd60e51b815260040161081190615f39565b60075460ff161561154a5760405162461bcd60e51b815260040161081190615e39565b60055460ff1661156c5760405162461bcd60e51b815260040161081190615fe9565b6005805460ff1916905561158083836124c1565b61158c8686868461256b565b50506005805460ff1916600117905550505050565b6115ac6106006122c2565b6115c85760405162461bcd60e51b815260040161081190615f09565b6113e1611640565b6113e16115db6122c2565b612d28565b6115eb6106006122c2565b6116075760405162461bcd60e51b815260040161081190615f09565b61082381612d70565b61161b6104856122c2565b6116375760405162461bcd60e51b815260040161081190615d79565b61082381612db8565b61164b6104856122c2565b6116675760405162461bcd60e51b815260040161081190615d79565b60075460ff161561168a5760405162461bcd60e51b815260040161081190615e39565b6007805460ff191660011790557f62e78cea01bee320cd4e420270b5ea74000d11b0c9f74754ebdbfc544b05a258610b666122c2565b60006001600160a01b0383166116e85760405162461bcd60e51b815260040161081190615e59565b81516041146117095760405162461bcd60e51b815260040161081190615d09565b60008260408151811061171857fe5b016020015160f81c9050601b81148061173457508060ff16601c145b6117505760405162461bcd60e51b815260040161081190615f29565b600061175d846000612e00565b9050600061176c856020612e00565b9050600187848484604051600081526020016040526040516117919493929190615cb3565b6020604051602081039080840390855afa1580156117b3573d6000803e3d6000fd5b505050602060405103516001600160a01b0316866001600160a01b03161493505050505b9392505050565b60125481565b6117ef6106006122c2565b61180b5760405162461bcd60e51b815260040161081190615f09565b60005b8151811015610a7457600f5482828151811061182657fe5b602002602001015160a001511061187057600061185583838151811061184857fe5b602002602001015161230e565b6000908152600e60205260409020805460ff19166001179055505b60010161180e565b60025481565b6118896106006122c2565b6118a55760405162461bcd60e51b815260040161081190615f09565b600f5481116118c65760405162461bcd60e51b815260040161081190615d99565b600f55565b60096020526000908152604090205481565b6016602052600090815260409020805460019091015482565b60146020526000908152604090205481565b60115481565b6000808383604051602001611924929190615ba9565b60408051601f19818403018152918152815160209283012060009081526014909252902054949350505050565b815160ff16600114156119765760405162461bcd60e51b815260040161081190615fd9565b815160ff166002141561199b5760405162461bcd60e51b815260040161081190615dd9565b815160ff16600714156119c05760405162461bcd60e51b815260040161081190615d69565b815160ff166119e15760405162461bcd60e51b815260040161081190615d19565b815160ff1660051415611a065760405162461bcd60e51b815260040161081190615e99565b815160ff1660041415611a2b5760405162461bcd60e51b815260040161081190615f49565b815160ff1660061415611a505760405162461bcd60e51b815260040161081190615dc9565b815160ff16600314611a745760405162461bcd60e51b815260040161081190615f79565b826101200151670de0b6b3a764000011611aa05760405162461bcd60e51b815260040161081190615ee9565b826101400151670de0b6b3a764000011611acc5760405162461bcd60e51b815260040161081190615ee9565b60408201516114a257611ae882602001518460000151836116c0565b6114a25760405162461bcd60e51b815260040161081190615df9565b600d6020526000908152604090205481565b600f5481565b6000610ae2818363ffffffff61242d16565b611b396104576122c2565b611b555760405162461bcd60e51b815260040161081190615f39565b60075460ff1615611b785760405162461bcd60e51b815260040161081190615e39565b6000611b8383611dee565b835151909150611b95908290846116c0565b611bb15760405162461bcd60e51b815260040161081190615fc9565b6000611bc0846000015161230e565b6000908152600a60209081526040808320805460ff19166001179055955160a00151600d90915294902093909355505050565b670429d069189e000081565b611c0a6104576122c2565b611c265760405162461bcd60e51b815260040161081190615f39565b60075460ff1615611c495760405162461bcd60e51b815260040161081190615e39565b60055460ff16611c6b5760405162461bcd60e51b815260040161081190615fe9565b6005805460ff191690558351855114611c965760405162461bcd60e51b815260040161081190615ec9565b8251855114611cb75760405162461bcd60e51b815260040161081190615e49565b8151845114611cd85760405162461bcd60e51b815260040161081190615d39565b8051855114611cf95760405162461bcd60e51b815260040161081190615de9565b611d01613e04565b60005b8651811015611dd857611d45838281518110611d1c57fe5b602002602001015160200151848381518110611d3457fe5b6020026020010151604001516124c1565b611db1878281518110611d5457fe5b6020026020010151878381518110611d6857fe5b6020026020010151878481518110611d7c57fe5b6020026020010151878581518110611d9057fe5b6020026020010151878681518110611da457fe5b6020026020010151612e2f565b9150611dd0878281518110611dc257fe5b6020026020010151836130c3565b600101611d04565b50506005805460ff191660011790555050505050565b6000610ae2611dfc8361319a565b61321d565b6000808383604051602001611e17929190615ba9565b60408051601f19818403018152918152815160209283012060009081526015909252902054949350505050565b600e6020526000908152604090205460ff1681565b6113e1611e646122c2565b6123e5565b60045481565b611e77613e04565b611e826104576122c2565b611e9e5760405162461bcd60e51b815260040161081190615f39565b60075460ff1615611ec15760405162461bcd60e51b815260040161081190615e39565b60055460ff16611ee35760405162461bcd60e51b815260040161081190615fe9565b6005805460ff1916905560208201516040830151611f0191906124c1565b611f0e8686868686612e2f565b9050611f1a86826130c3565b6005805460ff1916600117905595945050505050565b60135481565b611f416104576122c2565b611f5d5760405162461bcd60e51b815260040161081190615f39565b60075460ff1615611f805760405162461bcd60e51b815260040161081190615e39565b60055460ff16611fa25760405162461bcd60e51b815260040161081190615fe9565b6005805460ff191690558451865114611fcd5760405162461bcd60e51b815260040161081190615ec9565b8251865114611fee5760405162461bcd60e51b815260040161081190615e29565b815186511461200f5760405162461bcd60e51b815260040161081190615e29565b80518651146120305760405162461bcd60e51b815260040161081190615e29565b60005b8651811015611dd85761206c84828151811061204b57fe5b602002602001015184838151811061205f57fe5b60200260200101516124c1565b6120b187828151811061207b57fe5b602002602001015187838151811061208f57fe5b6020026020010151878585815181106120a457fe5b602002602001015161256b565b600101612033565b6120c1613de4565b6120ca8261230e565b602080830182905260009182526008815260409182902054918301919091528201516120fd5760015b60ff168152610ae5565b60008260600151600181111561210f57fe5b600181111561211a57fe5b14158015612143575060018260600151600181111561213557fe5b600181111561214057fe5b14155b1561214f5760076120f3565b60008260600151600181111561216157fe5b600181111561216c57fe5b14801561217b57506040820151155b156121875760026120f3565b602080820151600090815260099091526040902054158015906121c55750600960008260200151815260200190815260200160002054816040015110155b156121d15760056120f3565b6020808201516000908152600a909152604090205460ff16156121f55760066120f3565b604081015115801561221c57506020808201516000908152600e909152604090205460ff16155b801561222d5750600f548260a00151105b156122395760046120f3565b60038152919050565b61224a613e49565b6000828152600b602052604081205415158061227357506000838152600c602052604090205415155b60408051608081018252600086815260086020908152838220548352878252600981528382205481840152968152600a909652948190205460ff16151590850152151560608401525090919050565b3390565b6122d760018263ffffffff61325d16565b6040516001600160a01b038216907fee1504a83b6d4a361f4c1dc78ab59bfa30d6a3b6612c403e86bb01ef2984295f90600090a250565b6000610ae2611dfc836132a9565b60008181526008602052604090205415612340576000818152600860205260408120555b60008181526009602052604090205415612364576000818152600960205260408120555b6000818152600a602052604090205460ff1615612392576000818152600a60205260409020805460ff191690555b6000818152600e602052604090205460ff16156123c0576000818152600e60205260409020805460ff191690555b6000818152600d602052604090205415610823576000908152600d6020526040812055565b6123f660018263ffffffff61331116565b6040516001600160a01b038216907f270d9b30cf5b0793bbfd54c9d5b94aeb49462b8148399000265144a8722da6b690600090a250565b60006001600160a01b0382166124555760405162461bcd60e51b815260040161081190615ed9565b506001600160a01b03811660009081526020839052604090205460ff165b92915050565b61248a60008263ffffffff61331116565b6040516001600160a01b038216907f0a8eb35e5ca14b3d6f28e4abf2f128dbab231a58b56e89beb5d636115001e16590600090a250565b670429d069189e000082106124e85760405162461bcd60e51b815260040161081190615ef9565b670429d069189e0000811061250f5760405162461bcd60e51b815260040161081190615e89565b8160105414158061252257508060115414155b15610a74574261253f60135460125461335990919063ffffffff16565b1061255c5760405162461bcd60e51b815260040161081190615f89565b42601255601091909155601155565b612573613de4565b61257c856120b9565b9050612589858286611951565b6060808660800151612767576020808401516000908152600b825260408082208054825181860281018601909352808352919390929084015b828210156126755760008481526020908190206040805161016081018252600b860290920180546001600160a01b0390811684526001808301548587015260028301549385019390935260038201546060850152600482015460ff1615156080850152600582015460a08501526006820154811660c08501526007820154811660e08501526008820154166101008401526009810154610120840152600a015461014083015290835290920191016125c2565b5050506020808601516000908152600c82526040808220805482518186028101860190935280835295975090949093509184015b8282101561275c5760008481526020908190206040805161016081018252600b860290920180546001600160a01b0390811684526001808301548587015260028301549385019390935260038201546060850152600482015460ff1615156080850152600582015460a08501526006820154811660c08501526007820154811660e08501526008820154166101008401526009810154610120840152600a015461014083015290835290920191016126a9565b505050509050612935565b6020808401516000908152600c825260408082208054825181860281018601909352808352919390929084015b828210156128475760008481526020908190206040805161016081018252600b860290920180546001600160a01b0390811684526001808301548587015260028301549385019390935260038201546060850152600482015460ff1615156080850152600582015460a08501526006820154811660c08501526007820154811660e08501526008820154166101008401526009810154610120840152600a01546101408301529083529092019101612794565b5050506020808601516000908152600b82526040808220805482518186028101860190935280835295975090949093509184015b8282101561292e5760008481526020908190206040805161016081018252600b860290920180546001600160a01b0390811684526001808301548587015260028301549385019390935260038201546060850152600482015460ff1615156080850152600582015460a08501526006820154811660c08501526007820154811660e08501526008820154166101008401526009810154610120840152600a0154610140830152908352909201910161287b565b5050505090505b8051825115159015151461295b5760405162461bcd60e51b815260040161081190615f69565b815115612cdb5761296a613e75565b60405180610160016040528089600001516001600160a01b031681526020018960200151815260200189604001518152602001896060015181526020016000151581526020018960a001518152602001846000815181106129c757fe5b602002602001015160c001516001600160a01b03168152602001846000815181106129ee57fe5b602002602001015160e001516001600160a01b0316815260200160006001600160a01b031681526020016000815260200160008152509050612a2e613ef5565b612a3f82858785602001518a61337e565b9050612a49613e75565b6040518061016001604052808b600001516001600160a01b03168152602001836040015181526020018b6040015181526020018b6060015181526020016001151581526020018b60a00151815260200185600081518110612aa657fe5b602002602001015160c001516001600160a01b0316815260200185600081518110612acd57fe5b602002602001015160e001516001600160a01b031681526020018b61010001516001600160a01b03168152602001600081526020018b61014001518152509050612b15613ef5565b612b2682868985602001518c61337e565b905088612b3b84604001518360600151613598565b11612cd657612b6d878260a001518360c001518b8f60800151612b62578760600151612b68565b87608001515b6135da565b60005b8651811015612c2f57612b81613de4565b612b90888381518110610d0457fe5b9050612bf08186600001518481518110612ba657fe5b60200260200101516080015187600001518581518110612bc257fe5b602002602001015160c001518d89600001518781518110612bdf57fe5b6020026020010151600001516135da565b612c26888381518110612bff57fe5b60200260200101518e8c88600001518681518110612c1957fe5b602002602001015161364f565b50600101612b70565b5060005b8551811015612cd457612c44613de4565b612c53878381518110610d0457fe5b9050612ca28184600001518481518110612c6957fe5b60200260200101516080015185600001518581518110612c8557fe5b602002602001015160c001518d87600001518781518110612bdf57fe5b612ccb878381518110612cb157fe5b60200260200101518e8c86600001518681518110612c1957fe5b50600101612c33565b505b505050505b6020808401516000908152600b90915260408120612cf891613f32565b6020808401516000908152600c90915260408120612d1591613f32565b612d1f8787610911565b50505050505050565b612d3960068263ffffffff61331116565b6040516001600160a01b038216907fcd265ebaf09df2871cc7bd4133404a235ba12eff2041bb89d9c714a2621c7c7e90600090a250565b612d8160008263ffffffff61325d16565b6040516001600160a01b038216907f22380c05984257a1cb900161c713dd71d39e74820f1aea43bd3f1bdd2096129990600090a250565b612dc960068263ffffffff61325d16565b6040516001600160a01b038216907f6719d08c1888103bea251a4ed56406bd0c3e69723c8a1686e017e7bbe159b6f890600090a250565b60008160200183511015612e265760405162461bcd60e51b815260040161081190615e79565b50016020015190565b612e37613e04565b84608001511515866080015115151415612e635760405162461bcd60e51b815260040161081190615ff9565b600086606001516001811115612e7557fe5b6001811115612e8057fe5b14612e9d5760405162461bcd60e51b815260040161081190615eb9565b60c0808701516001600160a01b039081169187019190915260e08088015190911690860152612eca613de4565b612ed3876120b9565b9050612edd613de4565b612ee6876120b9565b9050816040015160001415612f105760208089015183820151600090815260099092526040909120555b6040810151612f345760208088015182820151600090815260099092526040909120555b612f3f888388611951565b612f4a878287611951565b612f5488886139e1565b612fa38888846040015184604001516009600088602001518152602001908152602001600020546009600088602001518152602001908152602001600020548a60600151601054601154613a63565b9250612faf8385613cd3565b612fcc8284608001518560c00151876060015187600001516135da565b61301f818460a001518560e0015187606001518b60800151801561300a575060018c606001516001811115612ffd57fe5b600181111561300857fe5b145b613015578751612b68565b87602001516135da565b61302f888886606001518661364f565b602080830180516000908152600983526040808220549251825260089093529190912054106130735760a08801516020808401516000908152600d90915260409020555b602080820180516000908152600983526040808220549251825260089093529190912054106130b75760a08701516020808301516000908152600d90915260409020555b50505b95945050505050565b60008260c001518360e001516040516020016130e0929190615ba9565b60408051601f1981840301815291815281516020928301208582015160008281526014855283812091909155601590935291205490915061312890600163ffffffff61335916565b60008281526015602090815260408083209390935584516016909152919020546131579163ffffffff61335916565b60008281526016602090815260409091209182558301516001909101546131839163ffffffff61335916565b600091825260166020526040909120600101555050565b6000604051806101400160405280610104815260200161626a61010491396040516020016131c89190615bcf565b604051602081830303815290604052805190602001206131eb83600001516132a9565b60208085015160405161320094939201615c3e565b604051602081830303815290604052805190602001209050919050565b6004546040517f19010000000000000000000000000000000000000000000000000000000000008152600281019190915260228101919091526042902090565b613267828261242d565b156132845760405162461bcd60e51b815260040161081190615d59565b6001600160a01b0316600090815260209190915260409020805460ff19166001179055565b60008060405180610100016040528060dc815260200161618e60dc91396040516020016132d69190615bcf565b60405160208183030381529060405280519060200120905060208310156132f957fe5b601f1992909201805192815261018081209290525090565b61331b828261242d565b6133375760405162461bcd60e51b815260040161081190615e69565b6001600160a01b0316600090815260209190915260409020805460ff19169055565b6000828201838110156117d75760405162461bcd60e51b815260040161081190615db9565b613386613ef5565b600060208083018290526040808401839052606084018390526080840183905260a0840183905260c08401929092528651825181815281830281019092019092529080156133ee57816020015b6133db613e04565b8152602001906001900390816133d35790505b50815260005b855181101561358e57613405613de4565b613414878381518110610d0457fe5b905061341e613e04565b61347288848151811061342d57fe5b60200260200101518a846040015161344d8b604001518960400151613359565b6009600088602001518152602001908152602001600020548b8b601054601154613a63565b9050808460000151848151811061348557fe5b6020026020010181905250836000015183815181106134a057fe5b602002602001015160400151846020018181510191508181525050836000015183815181106134cb57fe5b602090810291909101015160600151604085018051909101905283518051849081106134f357fe5b6020908102919091010151516060850180519091019052835180518490811061351857fe5b60209081029190910181015101516080850180519091019052835180518490811061353f57fe5b602002602001015160a001518460a00181815101915081815250508360000151838151811061356a57fe5b602090810291909101015160e0015160c085018051909101905250506001016133f4565b5095945050505050565b60006117d783836040518060400160405280601e81526020017f536166654d6174683a207375627472616374696f6e206f766572666c6f770000815250613cf4565b6135e8856040015182613359565b6008600087602001518152602001908152602001600020819055507f31e18216f8b2ca46fa286ccb3d0ee6bd32435c0bbe4108625808581e661c52ca8560200151858585338660405161364096959493929190615c59565b60405180910390a15050505050565b60008460800151613664578460e0015161366a565b8460c001515b905060008560800151613681578560c00151613687565b8560e001515b8651865160608601516040516323b872dd60e01b81529394506001600160a01b038516936323b872dd936136c19390929091600401615be9565b602060405180830381600087803b1580156136db57600080fd5b505af11580156136ef573d6000803e3d6000fd5b505050506040513d601f19601f8201168201806040525061371391908101906148a0565b508451865160408086015190516323b872dd60e01b81526001600160a01b038616936323b872dd9361374c939192909190600401615be9565b602060405180830381600087803b15801561376657600080fd5b505af115801561377a573d6000803e3d6000fd5b505050506040513d601f19601f8201168201806040525061379e91908101906148a0565b50855161010086015160a08501516040516323b872dd60e01b81526001600160a01b038516936323b872dd936137db939192909190600401615be9565b602060405180830381600087803b1580156137f557600080fd5b505af1158015613809573d6000803e3d6000fd5b505050506040513d601f19601f8201168201806040525061382d91908101906148a0565b50845161010087015160808501516040516323b872dd60e01b81526001600160a01b038616936323b872dd9361386a939192909190600401615be9565b602060405180830381600087803b15801561388457600080fd5b505af1158015613898573d6000803e3d6000fd5b505050506040513d601f19601f820116820180604052506138bc91908101906148a0565b506001600160a01b038416156139d957855160e08401516040516323b872dd60e01b81526001600160a01b038416926323b872dd9261390092899190600401615be9565b602060405180830381600087803b15801561391a57600080fd5b505af115801561392e573d6000803e3d6000fd5b505050506040513d601f19601f8201168201806040525061395291908101906148a0565b50845160c08401516040516323b872dd60e01b81526001600160a01b038516926323b872dd9261398792899190600401615be9565b602060405180830381600087803b1580156139a157600080fd5b505af11580156139b5573d6000803e3d6000fd5b505050506040513d601f19601f82011682018060405250612d1f91908101906148a0565b505050505050565b6000816060015160018111156139f357fe5b60018111156139fe57fe5b1415610a7457816080015115613a3b57806040015182604001511015613a365760405162461bcd60e51b815260040161081190615fa9565b610a74565b806040015182604001511115610a745760405162461bcd60e51b815260040161081190615fa9565b613a6b613e04565b6000613a77878a613598565b90506000613a85878a613598565b905060008b606001516001811115613a9957fe5b6001811115613aa457fe5b1480613ab257508a60800151155b15613ac857613ac18282613d20565b8352613af9565b6000613ae9613adf83670de0b6b3a7640000613d36565b8e60400151613d70565b9050613af58382613d20565b8452505b613b1c613b0e84600001518e60400151613d36565b670de0b6b3a7640000613d70565b602084015260808b015115613bb157613b41613b0e84600001518d6101400151613d36565b60a084015260208301516101208d0151613b5e91613b0e91613d36565b6080840152825160a0840151613b8191613b7791613598565b8460e00151613598565b606084015260208301516080840151613ba791613b9d91613598565b8460c00151613598565b6040840152613c1c565b613bc7613b0e84602001518d6101400151613d36565b60a084015282516101208d0151613be191613b0e91613d36565b6080840152602083015160a0840151613bfd91613b7791613598565b606084015282516080840151613c1691613b9d91613598565b60408401525b6001600160a01b03861615613cc457613c5a670de0b6b3a7640000613c4e868660a00151613d3690919063ffffffff16565b9063ffffffff613d7016565b60e08401526080830151613c8290670de0b6b3a764000090613c4e908863ffffffff613d3616565b60c084015260e083015160a0840151613ca09163ffffffff61359816565b60a084015260c08301516080840151613cbe9163ffffffff61359816565b60808401525b50509998505050505050505050565b8051825114610a745760405162461bcd60e51b815260040161081190615cf9565b60008184841115613d185760405162461bcd60e51b81526004016108119190615ce8565b505050900390565b6000818310613d2f57816117d7565b5090919050565b600082613d4557506000612473565b82820282848281613d5257fe5b04146117d75760405162461bcd60e51b815260040161081190615ea9565b60006117d783836040518060400160405280601a81526020017f536166654d6174683a206469766973696f6e206279207a65726f00000000000081525060008183613dce5760405162461bcd60e51b81526004016108119190615ce8565b506000838581613dda57fe5b0495945050505050565b604080516060810182526000808252602082018190529181019190915290565b60405180610100016040528060008152602001600081526020016000815260200160008152602001600081526020016000815260200160008152602001600081525090565b604051806080016040528060008152602001600081526020016000151581526020016000151581525090565b60405180610160016040528060006001600160a01b031681526020016000815260200160008152602001600081526020016000151581526020016000815260200160006001600160a01b0316815260200160006001600160a01b0316815260200160006001600160a01b0316815260200160008152602001600081525090565b6040518060e00160405280606081526020016000815260200160008152602001600081526020016000815260200160008152602001600081525090565b50805460008255600b0290600052602060002090810190610823919061090891905b80821115613fd757805473ffffffffffffffffffffffffffffffffffffffff199081168255600060018301819055600283018190556003830181905560048301805460ff1916905560058301819055600683018054831690556007830180548316905560088301805490921690915560098201819055600a820155600b01613f54565b5090565b80356124738161615e565b600082601f830112613ff757600080fd5b813561400a61400582616076565b61604f565b9150818183526020840193506020810190508385602084028201111561402f57600080fd5b60005b8381101561405b57816140458882613fdb565b8452506020928301929190910190600101614032565b5050505092915050565b600082601f83011261407657600080fd5b813561408461400582616076565b915081818352602084019350602081019050838560208402820111156140a957600080fd5b60005b8381101561405b57816140bf8882614312565b84525060209283019291909101906001016140ac565b600082601f8301126140e657600080fd5b81356140f461400582616076565b81815260209384019390925082018360005b8381101561405b578135860161411c888261431d565b8452506020928301929190910190600101614106565b600082601f83011261414357600080fd5b813561415161400582616076565b915081818352602084019350602081019050838561018084028201111561417757600080fd5b60005b8381101561405b578161418d888261436c565b845250602090920191610180919091019060010161417a565b600082601f8301126141b757600080fd5b81356141c561400582616076565b915081818352602084019350602081019050838560808402820111156141ea57600080fd5b60005b8381101561405b578161420088826143b5565b845250602090920191608091909101906001016141ed565b600082601f83011261422957600080fd5b813561423761400582616076565b915081818352602084019350602081019050838561016084028201111561425d57600080fd5b60005b8381101561405b5781614273888261447f565b8452506020909201916101609190910190600101614260565b600082601f83011261429d57600080fd5b81356142ab61400582616076565b915081818352602084019350602081019050838560208402820111156142d057600080fd5b60005b8381101561405b57816142e68882614312565b84525060209283019291909101906001016142d3565b803561247381616172565b805161247381616172565b80356124738161617b565b600082601f83011261432e57600080fd5b813561433c61400582616097565b9150808252602083016020830185838301111561435857600080fd5b614363838284616105565b50505092915050565b6000610180828403121561437f57600080fd5b614389604061604f565b90506000614397848461447f565b8252506101606143a984848301614312565b60208301525092915050565b6000608082840312156143c757600080fd5b6143d1608061604f565b905060006143df8484614312565b82525060206143f084848301614312565b602083015250604061440484828501614312565b604083015250606061441884828501613fdb565b60608301525092915050565b60006060828403121561443657600080fd5b614440606061604f565b9050600061444e8484614582565b825250602061445f84848301614312565b602083015250604061447384828501614312565b60408301525092915050565b6000610160828403121561449257600080fd5b61449d61016061604f565b905060006144ab8484613fdb565b82525060206144bc84848301614312565b60208301525060406144d084828501614312565b60408301525060606144e484828501614312565b60608301525060806144f8848285016142fc565b60808301525060a061450c84828501614312565b60a08301525060c061452084828501613fdb565b60c08301525060e061453484828501613fdb565b60e08301525061010061454984828501613fdb565b6101008301525061012061455f84828501614312565b6101208301525061014061457584828501614312565b6101408301525092915050565b803561247381616184565b60006020828403121561459f57600080fd5b60006145ab8484613fdb565b949350505050565b600080604083850312156145c657600080fd5b60006145d28585613fdb565b92505060206145e385828601613fdb565b9150509250929050565b6000602082840312156145ff57600080fd5b813567ffffffffffffffff81111561461657600080fd5b6145ab84828501614065565b6000806040838503121561463557600080fd5b823567ffffffffffffffff81111561464c57600080fd5b61465885828601614132565b925050602083013567ffffffffffffffff81111561467557600080fd5b6145e3858286016140d5565b60006020828403121561469357600080fd5b813567ffffffffffffffff8111156146aa57600080fd5b6145ab84828501614218565b60008060008060008060c087890312156146cf57600080fd5b863567ffffffffffffffff8111156146e657600080fd5b6146f289828a01614218565b965050602087013567ffffffffffffffff81111561470f57600080fd5b61471b89828a016140d5565b955050604061472c89828a01614312565b945050606087013567ffffffffffffffff81111561474957600080fd5b61475589828a0161428c565b935050608087013567ffffffffffffffff81111561477257600080fd5b61477e89828a0161428c565b92505060a087013567ffffffffffffffff81111561479b57600080fd5b6147a789828a01613fe6565b9150509295509295509295565b600080600080600060a086880312156147cc57600080fd5b853567ffffffffffffffff8111156147e357600080fd5b6147ef88828901614218565b955050602086013567ffffffffffffffff81111561480c57600080fd5b61481888828901614218565b945050604086013567ffffffffffffffff81111561483557600080fd5b614841888289016140d5565b935050606086013567ffffffffffffffff81111561485e57600080fd5b61486a888289016140d5565b925050608086013567ffffffffffffffff81111561488757600080fd5b614893888289016141a6565b9150509295509295909350565b6000602082840312156148b257600080fd5b60006145ab8484614307565b6000602082840312156148d057600080fd5b60006145ab8484614312565b6000806000606084860312156148f157600080fd5b60006148fd8686614312565b935050602061490e86828701613fdb565b925050604084013567ffffffffffffffff81111561492b57600080fd5b6149378682870161431d565b9150509250925092565b6000610180828403121561495457600080fd5b60006145ab848461436c565b6000806101a0838503121561497457600080fd5b6000614980858561436c565b92505061018083013567ffffffffffffffff81111561499e57600080fd5b6145e38582860161431d565b600061016082840312156149bd57600080fd5b60006145ab848461447f565b6000806000806101c085870312156149e057600080fd5b60006149ec878761447f565b94505061016085013567ffffffffffffffff811115614a0a57600080fd5b614a1687828801614218565b93505061018085013567ffffffffffffffff811115614a3457600080fd5b614a408782880161431d565b9250506101a085013567ffffffffffffffff811115614a5e57600080fd5b614a6a878288016140d5565b91505092959194509250565b6000806101808385031215614a8a57600080fd5b6000614a96858561447f565b92505061016083013567ffffffffffffffff81111561499e57600080fd5b6000806000806000806102008789031215614ace57600080fd5b6000614ada898961447f565b96505061016087013567ffffffffffffffff811115614af857600080fd5b614b0489828a0161431d565b955050610180614b1689828a01614312565b9450506101a0614b2889828a01614312565b9350506101c0614b3a89828a01614312565b9250506101e06147a789828a01613fdb565b60008060006101e08486031215614b6257600080fd5b6000614b6e868661447f565b935050610160614b8086828701614424565b9250506101c084013567ffffffffffffffff81111561492b57600080fd5b60008060008060006103808688031215614bb757600080fd5b6000614bc3888861447f565b955050610160614bd58882890161447f565b9450506102c086013567ffffffffffffffff811115614bf357600080fd5b614bff8882890161431d565b9350506102e086013567ffffffffffffffff811115614c1d57600080fd5b614c298882890161431d565b925050610300614893888289016143b5565b6000614c478383615aca565b50506101600190565b614c59816160f4565b82525050565b614c59816160d2565b614c59614c74826160d2565b61613d565b6000614c84826160c5565b614c8e81856160c9565b9350614c99836160bf565b8060005b83811015614cc7578151614cb18882614c3b565b9750614cbc836160bf565b925050600101614c9d565b509495945050505050565b614c59816160dd565b614c5981610908565b6000614cef826160c5565b614cf981856160c9565b9350614d09818560208601616111565b614d128161614e565b9093019392505050565b6000614d27826160c5565b614d318185610ae5565b9350614d41818560208601616111565b9290920192915050565b6000614d586017836160c9565b7f54524144455f414d4f554e545f4d49534d415443484544000000000000000000815260200192915050565b6000614d916019836160c9565b7f57726f6e67206c656e677468206f66207369676e617475726500000000000000815260200192915050565b6000614dca6007836160c9565b7f494e56414c494400000000000000000000000000000000000000000000000000815260200192915050565b6000614e036029836160c9565b7f71756f74654d616b65724f72646572733a2077726f6e672071756f746541737381527f6574416464726573730000000000000000000000000000000000000000000000602082015260400192915050565b6000614e62601f836160c9565b7f54414b45525f5349474e41545552455f4c454e4754485f4d49534d4154434800815260200192915050565b6000614e9b6014836160c9565b7f5061757361626c653a206e6f7420706175736564000000000000000000000000815260200192915050565b6000614ed4601f836160c9565b7f526f6c65733a206163636f756e7420616c72656164792068617320726f6c6500815260200192915050565b6000614f0d600c836160c9565b7f494e56414c49445f545950450000000000000000000000000000000000000000815260200192915050565b6000614f466030836160c9565b7f506175736572526f6c653a2063616c6c657220646f6573206e6f74206861766581527f207468652050617573657220726f6c6500000000000000000000000000000000602082015260400192915050565b6000614fa56027836160c9565b7f626173654d616b65724f72646572733a2077726f6e672062617365417373657481527f4164647265737300000000000000000000000000000000000000000000000000602082015260400192915050565b60006150046015836160c9565b7f494e56414c49445f4e45575f54494d455354414d500000000000000000000000815260200192915050565b600061503d6013836160c9565b7f494e56414c49445f51554f54455f415353455400000000000000000000000000815260200192915050565b6000615076601b836160c9565b7f536166654d6174683a206164646974696f6e206f766572666c6f770000000000815260200192915050565b60006150af6009836160c9565b7f43414e43454c4c45440000000000000000000000000000000000000000000000815260200192915050565b60006150e8600d836160c9565b7f494e56414c49445f505249434500000000000000000000000000000000000000815260200192915050565b60006151216017836160c9565b7f434f4e544558545f4c454e4754485f4d49534d41544348000000000000000000815260200192915050565b600061515a6017836160c9565b7f494e56414c49445f4f524445525f5349474e4154555245000000000000000000815260200192915050565b60006151936011836160c9565b7f494e56414c49445f54494d455354414d50000000000000000000000000000000815260200192915050565b60006151cc6019836160c9565b7f5349474e41545552455f4c454e4754485f4d49534d4154434800000000000000815260200192915050565b60006152056024836160c9565b7f434f4e54524143545f4645455f414444524553535f4c454e4754485f4d49534d81527f4154434800000000000000000000000000000000000000000000000000000000602082015260400192915050565b60006152646010836160c9565b7f5061757361626c653a2070617573656400000000000000000000000000000000815260200192915050565b600061529d601f836160c9565b7f4d414b45525f5349474e41545552455f4c454e4754485f4d49534d4154434800815260200192915050565b60006152d66014836160c9565b7f57726f6e67207369676e65722061646472657373000000000000000000000000815260200192915050565b600061530f6021836160c9565b7f526f6c65733a206163636f756e7420646f6573206e6f74206861766520726f6c81527f6500000000000000000000000000000000000000000000000000000000000000602082015260400192915050565b600061536e600c836160c9565b7f57726f6e67206c656e6774680000000000000000000000000000000000000000815260200192915050565b60006153a7601a836160c9565b7f494e56414c49445f54414b45525f434f4e54524143545f464545000000000000815260200192915050565b60006153e0600c836160c9565b7f46554c4c595f46494c4c45440000000000000000000000000000000000000000815260200192915050565b60006154196021836160c9565b7f536166654d6174683a206d756c7469706c69636174696f6e206f766572666c6f81527f7700000000000000000000000000000000000000000000000000000000000000602082015260400192915050565b60006154786012836160c9565b7f494e56414c49445f4d414b45525f545950450000000000000000000000000000815260200192915050565b60006154b16015836160c9565b7f4f524445525f4c454e4754485f4d49534d415443480000000000000000000000815260200192915050565b60006154ea6022836160c9565b7f526f6c65733a206163636f756e7420697320746865207a65726f20616464726581527f7373000000000000000000000000000000000000000000000000000000000000602082015260400192915050565b60006155496016836160c9565b7f494e56414c49445f4645455f50455243454e5441474500000000000000000000815260200192915050565b6000615582601a836160c9565b7f494e56414c49445f4d414b45525f434f4e54524143545f464545000000000000815260200192915050565b60006155bb6040836160c9565b7f57686974656c69737441646d696e526f6c653a2063616c6c657220646f65732081527f6e6f742068617665207468652057686974656c69737441646d696e20726f6c65602082015260400192915050565b600061561a6018836160c9565b7f494e56414c49445f5349474e41545552455f4c454e4754480000000000000000815260200192915050565b60006156536007836160c9565b7f57726f6e67205600000000000000000000000000000000000000000000000000815260200192915050565b600061568c603a836160c9565b7f57686974656c6973746564526f6c653a2063616c6c657220646f6573206e6f7481527f2068617665207468652057686974656c697374656420726f6c65000000000000602082015260400192915050565b60006156eb6007836160c9565b7f4558504952454400000000000000000000000000000000000000000000000000815260200192915050565b60006157246012836160c9565b7f494e56414c49445f54414b45525f545950450000000000000000000000000000815260200192915050565b600061575d600e836160c9565b7f494e56414c49445f4c454e475448000000000000000000000000000000000000815260200192915050565b60006157966010836160c9565b7f4f524445525f554e46494c4c41424c4500000000000000000000000000000000815260200192915050565b60006157cf6019836160c9565b7f434f4e54524143545f4645455f5354494c4c5f4c4f434b454400000000000000815260200192915050565b60006158086028836160c9565b7f71756f74654d616b65724f72646572733a2077726f6e67206261736541737365815267744164647265737360c01b602082015260400192915050565b60006158526018836160c9565b7f4e454741544956455f5350524541445f52455155495245440000000000000000815260200192915050565b600061588b6028836160c9565b7f626173654d616b65724f72646572733a2077726f6e672071756f746541737365815267744164647265737360c01b602082015260400192915050565b60006158d56018836160c9565b7f494e56414c49445f43414e43454c5f5349474e41545552450000000000000000815260200192915050565b600061590e600e836160c9565b7f494e56414c49445f414d4f554e54000000000000000000000000000000000000815260200192915050565b6000615947601f836160c9565b7f5265656e7472616e637947756172643a207265656e7472616e742063616c6c00815260200192915050565b6000615980600c836160c9565b7f494e56414c49445f534944450000000000000000000000000000000000000000815260200192915050565b80516101008301906159be8482614cdb565b5060208201516159d16020850182614cdb565b5060408201516159e46040850182614cdb565b5060608201516159f76060850182614cdb565b506080820151615a0a6080850182614cdb565b5060a0820151615a1d60a0850182614cdb565b5060c0820151615a3060c0850182614cdb565b5060e0820151615a4360e0850182614cdb565b50505050565b80516080830190615a5a8482614cdb565b506020820151615a6d6020850182614cdb565b506040820151615a806040850182614cd2565b506060820151615a436060850182614cd2565b80516060830190615aa48482615ba0565b506020820151615ab76020850182614cdb565b506040820151615a436040850182614cdb565b8051610160830190615adc8482614c5f565b506020820151615aef6020850182614cdb565b506040820151615b026040850182614cdb565b506060820151615b156060850182614cdb565b506080820151615b286080850182614cd2565b5060a0820151615b3b60a0850182614cdb565b5060c0820151615b4e60c0850182614c5f565b5060e0820151615b6160e0850182614c5f565b50610100820151615b76610100850182614c5f565b50610120820151615b8b610120850182614cdb565b50610140820151615a43610140850182614cdb565b614c59816160ee565b6000615bb58285614c68565b601482019150615bc58284614c68565b5060140192915050565b60006117d78284614d1c565b602081016124738284614c50565b60608101615bf78286614c5f565b615c046020830185614c5f565b6145ab6040830184614cdb565b602080825281016117d78184614c79565b602081016124738284614cd2565b602081016124738284614cdb565b60608101615c4c8286614cdb565b615c046020830185614cdb565b60c08101615c678289614cdb565b615c746020830188614cdb565b615c816040830187614cdb565b615c8e6060830186614c5f565b615c9b6080830185614c50565b615ca860a0830184614cdb565b979650505050505050565b60808101615cc18287614cdb565b615cce6020830186615ba0565b615cdb6040830185614cdb565b6130ba6060830184614cdb565b602080825281016117d78184614ce4565b60208082528101610ae281614d4b565b60208082528101610ae281614d84565b60208082528101610ae281614dbd565b60208082528101610ae281614df6565b60208082528101610ae281614e55565b60208082528101610ae281614e8e565b60208082528101610ae281614ec7565b60208082528101610ae281614f00565b60208082528101610ae281614f39565b60208082528101610ae281614f98565b60208082528101610ae281614ff7565b60208082528101610ae281615030565b60208082528101610ae281615069565b60208082528101610ae2816150a2565b60208082528101610ae2816150db565b60208082528101610ae281615114565b60208082528101610ae28161514d565b60208082528101610ae281615186565b60208082528101610ae2816151bf565b60208082528101610ae2816151f8565b60208082528101610ae281615257565b60208082528101610ae281615290565b60208082528101610ae2816152c9565b60208082528101610ae281615302565b60208082528101610ae281615361565b60208082528101610ae28161539a565b60208082528101610ae2816153d3565b60208082528101610ae28161540c565b60208082528101610ae28161546b565b60208082528101610ae2816154a4565b60208082528101610ae2816154dd565b60208082528101610ae28161553c565b60208082528101610ae281615575565b60208082528101610ae2816155ae565b60208082528101610ae28161560d565b60208082528101610ae281615646565b60208082528101610ae28161567f565b60208082528101610ae2816156de565b60208082528101610ae281615717565b60208082528101610ae281615750565b60208082528101610ae281615789565b60208082528101610ae2816157c2565b60208082528101610ae2816157fb565b60208082528101610ae281615845565b60208082528101610ae28161587e565b60208082528101610ae2816158c8565b60208082528101610ae281615901565b60208082528101610ae28161593a565b60208082528101610ae281615973565b610100810161247382846159ac565b608081016124738284615a49565b606081016124738284615a93565b604081016160428285614cdb565b6117d76020830184614cdb565b60405181810167ffffffffffffffff8111828210171561606e57600080fd5b604052919050565b600067ffffffffffffffff82111561608d57600080fd5b5060209081020190565b600067ffffffffffffffff8211156160ae57600080fd5b506020601f91909101601f19160190565b60200190565b5190565b90815260200190565b6000610ae2826160e2565b151590565b6001600160a01b031690565b60ff1690565b6000610ae2826000610ae2826160d2565b82818337506000910152565b60005b8381101561612c578181015183820152602001616114565b83811115615a435750506000910152565b6000610ae2826000610ae282616158565b601f01601f191690565b60601b90565b616167816160d2565b811461082357600080fd5b616167816160dd565b61616781610908565b616167816160ee56fe4f7264657228616464726573732075736572416464726573732c75696e7432353620616d6f756e742c75696e743235362070726963652c75696e74323536206f72646572547970652c626f6f6c20736964652c75696e743235362073616c742c6164647265737320626173654173736574416464726573732c616464726573732071756f74654173736574416464726573732c6164647265737320666565416464726573732c75696e74323536206d616b657246656550657263656e746167652c75696e743235362074616b657246656550657263656e746167652943616e63656c52657175657374284f72646572206f726465722c75696e74323536206e6f6e6365294f7264657228616464726573732075736572416464726573732c75696e7432353620616d6f756e742c75696e743235362070726963652c75696e74323536206f72646572547970652c626f6f6c20736964652c75696e743235362073616c742c6164647265737320626173654173736574416464726573732c616464726573732071756f74654173736574416464726573732c6164647265737320666565416464726573732c75696e74323536206d616b657246656550657263656e746167652c75696e743235362074616b657246656550657263656e7461676529a365627a7a72315820be57553bf1d22e43eb5901878ed01f70a4416cdd1b1d09d4991f2f6d02b675e26c6578706572696d656e74616cf564736f6c63430005100040",
  "source": "pragma solidity 0.5.16;\r\npragma experimental ABIEncoderV2;\r\n\r\nimport \"@openzeppelin/contracts/access/roles/WhitelistAdminRole.sol\";\r\nimport \"@openzeppelin/contracts/access/roles/WhitelistedRole.sol\";\r\nimport \"@openzeppelin/contracts/lifecycle/Pausable.sol\";\r\nimport \"@openzeppelin/contracts/utils/ReentrancyGuard.sol\";\r\n\r\n/* Remix IDE\r\nimport \"github.com/OpenZeppelin/openzeppelin-contracts/blob/v2.5.0/contracts/access/roles/WhitelistAdminRole.sol\";\r\nimport \"github.com/OpenZeppelin/openzeppelin-contracts/blob/v2.5.0/contracts/access/roles/WhitelistedRole.sol\";\r\nimport \"github.com/OpenZeppelin/openzeppelin-contracts/blob/v2.5.0/contracts/lifecycle/Pausable.sol\";\r\nimport \"github.com/OpenZeppelin/openzeppelin-contracts/blob/v2.5.0/contracts/utils/ReentrancyGuard.sol\";\r\n*/\r\n\r\nimport \"../crc-l/ICRCL.sol\";\r\n\r\nimport \"./libs/LibOrder.sol\";\r\nimport \"./libs/LibFillResults.sol\";\r\nimport \"./libs/LibSignatureValidator.sol\";\r\nimport \"./libs/LibRequest.sol\";\r\n\r\ncontract Boomflow is WhitelistAdminRole, WhitelistedRole, LibOrder, ReentrancyGuard, LibSignatureValidator, LibRequest, Pausable {\r\n    using SafeMath for uint;\r\n\r\n    // Contract fee cannot float over 30%\r\n    uint256 public constant MAX_CONTRACT_FEE = 3 * 10 ** 17;\r\n\r\n    // Fill event is emitted whenever an order is filled.\r\n    event Fill(\r\n        bytes32 orderHash,                  // Order's hash\r\n        uint256 fee,                        // Fee order creator to pay\r\n        uint256 contractFee,                // Fee order creator pay for contract\r\n        address contractFeeAddress,         // Address to receive contract fee\r\n        address matcherAddress,             // DEX operator that submitted the order\r\n        uint256 tradeAmount                 // Total amount traded\r\n    );\r\n\r\n    // Mapping of orderHash => amount of baseAsset already sold by user; for Market Buy, it is in amount of quoteAsset\r\n    mapping (bytes32 => uint256) public filled;\r\n\r\n    // Mapping of orderHash => max amount of baseAsset from user; for Market Buy, it is in amount of quoteAsset\r\n    mapping (bytes32 => uint256) public max;\r\n\r\n    // Mapping of orderHash => cancelled\r\n    mapping (bytes32 => bool) public cancelled;\r\n\r\n    // Mapping of orderHash => all instantExchange base orders\r\n    mapping (bytes32 => Order[]) baseMakerOrders;\r\n\r\n    // Mapping of orderHash => all instantExchange quote orders\r\n    mapping (bytes32 => Order[]) quoteMakerOrders;\r\n\r\n    // Mapping of orderHash => timestamp; order hash only shows\r\n    // up if it's status is one of (cancelled or finalized or filled)\r\n    mapping (bytes32 => uint256) public timestamps;\r\n\r\n    // Mapping of orderHash => recorded order\r\n    mapping (bytes32 => bool) public recorded;\r\n\r\n    // Current min timestamp for valid orders\r\n    uint256 public timestamp = 0;\r\n\r\n    // Contract Fee Percentage\r\n    uint256 public makerFeePercentage = 0;\r\n    uint256 public takerFeePercentage = 0;\r\n\r\n    // Contract Fee Lock Period\r\n    uint public lastTime;\r\n    uint public minimumLockTime = 24 hours; // default minimum waiting period after issuing synths\r\n\r\n    // DeFi Oracle\r\n    struct Volumes {\r\n        uint256 baseVolume;\r\n        uint256 quoteVolume;\r\n    }\r\n\r\n    mapping (bytes32 => uint256) public lastestPrice;\r\n    mapping (bytes32 => uint256) public lastestCount;\r\n    mapping (bytes32 => Volumes) public lastestVolume;\r\n\r\n    constructor () public {\r\n        addWhitelisted(_msgSender());\r\n        Pause();\r\n    }\r\n\r\n    struct OrderData {\r\n        uint256 filled;\r\n        uint256 max;\r\n        bool cancelled;\r\n        bool flag;\r\n    }\r\n\r\n    function getOrderData(bytes32 orderHash)\r\n        public\r\n        view\r\n        returns (OrderData memory orderData)\r\n    {\r\n        bool hasMakerOrdersRecorded = (baseMakerOrders[orderHash].length != 0) || (quoteMakerOrders[orderHash].length != 0);\r\n        orderData = OrderData({\r\n            filled: filled[orderHash],\r\n            max: max[orderHash],\r\n            cancelled: cancelled[orderHash],\r\n            flag: hasMakerOrdersRecorded\r\n        });\r\n    }\r\n\r\n    function getBaseMakerOrders(bytes32 orderHash)\r\n        public\r\n        view\r\n        returns (Order[] memory orders)\r\n    {\r\n        orders = baseMakerOrders[orderHash];\r\n    }\r\n\r\n    function getQuoteMakerOrders(bytes32 orderHash)\r\n        public\r\n        view\r\n        returns (Order[] memory orders)\r\n    {\r\n        orders = quoteMakerOrders[orderHash];\r\n    }\r\n\r\n    //----------------- Storage Optimization ---------------\r\n    function getTimestamp() public view returns (uint256) {\r\n        return timestamp;\r\n    }\r\n\r\n    /**\r\n     * Upload the unmatched order hashes.\r\n     * The function should be called prior to `setTimestamp`\r\n     * Only onlyWhitelistAdmin (DEX) have the access permission.\r\n     */\r\n    function recordOrders(\r\n        Order[] memory orders\r\n    )\r\n        public\r\n        onlyWhitelistAdmin\r\n    {\r\n        for (uint i = 0; i < orders.length; i++) {\r\n            // timestamp check\r\n            if (orders[i].salt >= timestamp) {\r\n                bytes32 orderHash = getOrderHash(orders[i]);\r\n                recorded[orderHash] = true;\r\n            }\r\n        }\r\n    }\r\n\r\n    function setTimestamp(uint256 newTimestamp)\r\n        public\r\n        onlyWhitelistAdmin\r\n    {\r\n        require(newTimestamp > timestamp, \"INVALID_NEW_TIMESTAMP\");\r\n        timestamp = newTimestamp;\r\n    }\r\n\r\n    function removeObsoleteData(bytes32[] memory hashes)\r\n        public\r\n        onlyWhitelistAdmin\r\n    {\r\n        for (uint i = 0; i < hashes.length; i++) {\r\n            // Order timestamp is lower than current timestamp\r\n            require(timestamps[hashes[i]] < timestamp, \"INVALID_TIMESTAMP\");\r\n\r\n            // Remove order data\r\n            removeData(hashes[i]);\r\n        }\r\n    }\r\n\r\n    function removeData(bytes32 orderHash) internal {\r\n        if (filled[orderHash] != 0) delete filled[orderHash];\r\n        if (max[orderHash] != 0) delete max[orderHash];\r\n        if (cancelled[orderHash]) delete cancelled[orderHash];\r\n        if (recorded[orderHash]) delete recorded[orderHash];\r\n        if (timestamps[orderHash] != 0) delete timestamps[orderHash];\r\n    }\r\n    //----------------- End Storage Optimization -----------\r\n\r\n    //----------------- DeFi Index -------------------------\r\n    function getPrice(address baseAssetAddress, address quoteAssetAddress) public view returns (uint256 price) {\r\n        bytes32 pairHash = keccak256(abi.encodePacked(baseAssetAddress, quoteAssetAddress));\r\n        price = lastestPrice[pairHash];\r\n    }\r\n\r\n    function getCount(address baseAssetAddress, address quoteAssetAddress) public view returns (uint256 count) {\r\n        bytes32 pairHash = keccak256(abi.encodePacked(baseAssetAddress, quoteAssetAddress));\r\n        count = lastestCount[pairHash];\r\n    }\r\n\r\n    function getVolume(address baseAssetAddress, address quoteAssetAddress) public view returns (uint256 baseVolume, uint256 quoteVolume) {\r\n        bytes32 pairHash = keccak256(abi.encodePacked(baseAssetAddress, quoteAssetAddress));\r\n        baseVolume = lastestVolume[pairHash].baseVolume;\r\n        quoteVolume = lastestVolume[pairHash].quoteVolume;\r\n    }\r\n\r\n    function _updatePriceAndCountAndVolume(\r\n        Order memory makerOrder,\r\n        LibFillResults.MatchedFillResults memory matchedFillResults\r\n    )\r\n        internal\r\n    {\r\n        bytes32 pairHash = keccak256(abi.encodePacked(makerOrder.baseAssetAddress, makerOrder.quoteAssetAddress));\r\n\r\n        lastestPrice[pairHash] = makerOrder.price;\r\n\r\n        lastestCount[pairHash] = lastestCount[pairHash].add(1);\r\n\r\n        lastestVolume[pairHash].baseVolume = lastestVolume[pairHash].baseVolume.add(matchedFillResults.tradeAmount);\r\n        lastestVolume[pairHash].quoteVolume = lastestVolume[pairHash].quoteVolume.add(matchedFillResults.tradeFunds);\r\n    }\r\n\r\n    //----------------- End DeFi Index ---------------------\r\n\r\n    // Exchange\r\n    /**\r\n     * Record the matched base maker orders and quote maker orders for a specific taker order.\r\n     * The function should be called prior to `executeInstantExchangeTrade`\r\n     * Only Whitelistlisted (DEX) have the access permission.\r\n     *\r\n     * The function could be run in batches for a single taker order, and `makerOrders` could\r\n     * contains a mixture of base and quote maker orders, as long as DEX ensures the order of\r\n     * base maker orders and that of quote maker orders are unploaded in the exact order, respectively.\r\n     *\r\n     * Requirements:\r\n     * - All base maker orders should have the same base and quote assets\r\n     * - All quote maker orders should have the same base and quote assets\r\n     * - All base maker orders should have the same base assets as the taker order\r\n     * - All quote maker orders should have the same quote assets as the taker order\r\n     */\r\n    function recordInstantExchangeOrders(\r\n        Order memory takerOrder,\r\n        Order[] memory makerOrders,\r\n        bytes memory takerSignature,\r\n        bytes[] memory makerSignatures\r\n    )\r\n        public\r\n        onlyWhitelisted\r\n        whenNotPaused\r\n        nonReentrant\r\n    {\r\n        // Taker order must be market order in Instant Exchange\r\n        require(OrderType(takerOrder.orderType) == OrderType.Market, \"INVALID_TAKER_TYPE\");\r\n\r\n        // Base and quote makerOrder arrays are compatible\r\n        require(makerOrders.length == makerSignatures.length, \"SIGNATURE_LENGTH_MISMATCH\");\r\n\r\n        OrderInfo memory takerOrderInfo = getOrderInfo(takerOrder);\r\n\r\n        // Record the order if not seen before\r\n        if (takerOrderInfo.filledAmount == 0) {\r\n            max[takerOrderInfo.orderHash] = takerOrder.amount;\r\n        }\r\n\r\n        // Assert if the taker order is valid\r\n        assertFillableOrder(\r\n            takerOrder,\r\n            takerOrderInfo,\r\n            takerSignature\r\n        );\r\n\r\n        for (uint i = 0; i < makerOrders.length; i++) {\r\n            require(OrderType(makerOrders[i].orderType) == OrderType.Limit, \"INVALID_MAKER_TYPE\");\r\n\r\n            OrderInfo memory makerOrderInfo = getOrderInfo(makerOrders[i]);\r\n\r\n            // Record the order if not seen before\r\n            if (makerOrderInfo.filledAmount == 0) {\r\n                max[makerOrderInfo.orderHash] = makerOrders[i].amount;\r\n            }\r\n\r\n            // Assert if the maker order is valid\r\n            assertFillableOrder(\r\n                makerOrders[i],\r\n                makerOrderInfo,\r\n                makerSignatures[i]\r\n            );\r\n\r\n            // If a maker order's base assets is equal to the taker order's base asset, then push it to `baseMakerOrders`\r\n            // If a maker order's quote assets is equal to the taker order's base asset, push it to `quoteMakerOrders`\r\n            // Ignore Otherwise\r\n            if (takerOrder.baseAssetAddress == makerOrders[i].baseAssetAddress) {\r\n                // For base maker order, the side should always be the opposite of the taker order's\r\n                require(takerOrder.side != makerOrders[i].side, \"INVALID_SIDE\");\r\n\r\n                if (baseMakerOrders[takerOrderInfo.orderHash].length > 0) {\r\n                    // Check if all makerOrders are for the same asset pair\r\n                    require(baseMakerOrders[takerOrderInfo.orderHash][0].baseAssetAddress == makerOrders[i].baseAssetAddress, \"baseMakerOrders: wrong baseAssetAddress\");\r\n                    require(baseMakerOrders[takerOrderInfo.orderHash][0].quoteAssetAddress == makerOrders[i].quoteAssetAddress, \"baseMakerOrders: wrong quoteAssetAddress\");\r\n                }\r\n                baseMakerOrders[takerOrderInfo.orderHash].push(makerOrders[i]);\r\n            } else if (takerOrder.quoteAssetAddress == makerOrders[i].baseAssetAddress) {\r\n                // For quote maker order, the side should always be the same as the taker order's\r\n                require(takerOrder.side == makerOrders[i].side, \"INVALID_SIDE\");\r\n\r\n                if (quoteMakerOrders[takerOrderInfo.orderHash].length > 0) {\r\n                    // Check if all makerOrders are for the same asset pair\r\n                    require(quoteMakerOrders[takerOrderInfo.orderHash][0].baseAssetAddress == makerOrders[i].baseAssetAddress, \"quoteMakerOrders: wrong baseAssetAddress\");\r\n                    require(quoteMakerOrders[takerOrderInfo.orderHash][0].quoteAssetAddress == makerOrders[i].quoteAssetAddress, \"quoteMakerOrders: wrong quoteAssetAddress\");\r\n                }\r\n                quoteMakerOrders[takerOrderInfo.orderHash].push(makerOrders[i]);\r\n            }\r\n        }\r\n\r\n        // Make sure all the maker orders share the same quote asset:\r\n        // Note that with the previous checks, we could only guarantee that maker orders match the first order in base and quote queues, respectively;\r\n        // in order to check both queues, we need to further validate the match between the first order in base and quote queues\r\n        if (baseMakerOrders[takerOrderInfo.orderHash].length > 0 && quoteMakerOrders[takerOrderInfo.orderHash].length > 0) {\r\n            require(baseMakerOrders[takerOrderInfo.orderHash][0].quoteAssetAddress == quoteMakerOrders[takerOrderInfo.orderHash][0].quoteAssetAddress, \"INVALID_QUOTE_ASSET\");\r\n        }\r\n    }\r\n\r\n    /**\r\n     * Execute orders in batches.\r\n     * Only Whitelistlisted (DEX) have the access permission.\r\n     *\r\n     * The function will iteratively execute each pair of orders\r\n     */\r\n    function batchExecuteInstantExchangeTrade(\r\n        Order[] memory takerOrders,\r\n        bytes[] memory takerSignatures,\r\n        uint256 threshold,\r\n        uint256[] memory makerContractFees,\r\n        uint256[] memory takerContractFees,\r\n        address[] memory contractFeeAddresses\r\n    )\r\n        public\r\n        onlyWhitelisted\r\n        whenNotPaused\r\n        nonReentrant\r\n    {\r\n        require(takerOrders.length == takerSignatures.length, \"ORDER_LENGTH_MISMATCH\");\r\n        require(takerOrders.length == makerContractFees.length, \"CONTRACT_FEE_ADDRESS_LENGTH_MISMATCH\");\r\n        require(takerOrders.length == takerContractFees.length, \"CONTRACT_FEE_ADDRESS_LENGTH_MISMATCH\");\r\n        require(takerOrders.length == contractFeeAddresses.length, \"CONTRACT_FEE_ADDRESS_LENGTH_MISMATCH\");\r\n\r\n        for(uint i = 0; i < takerOrders.length; i++){\r\n            _setContractFee(makerContractFees[i], takerContractFees[i]);\r\n\r\n            _executeInstantExchangeTrade(takerOrders[i], takerSignatures[i], threshold, contractFeeAddresses[i]);\r\n        }\r\n    }\r\n\r\n    /**\r\n     * Execute all the recorded base maker orders and quote maker orders for a specific taker order.\r\n     * The function should be called after `recordInstantExchangeOrders`\r\n     * Only Whitelistlisted (DEX) have the access permission.\r\n     */\r\n    function executeInstantExchangeTrade(\r\n        Order memory takerOrder,\r\n        bytes memory takerSignature,\r\n        uint256 threshold,\r\n        uint256 makerContractFee,\r\n        uint256 takerContractFee,\r\n        address contractFeeAddress\r\n    )\r\n        public\r\n        onlyWhitelisted\r\n        whenNotPaused\r\n        nonReentrant\r\n    {\r\n        _setContractFee(makerContractFee, takerContractFee);\r\n\r\n        _executeInstantExchangeTrade(takerOrder, takerSignature, threshold, contractFeeAddress);\r\n    }\r\n\r\n    /**\r\n     * Execute orders in batches.\r\n     * Only Whitelistlisted (DEX) have the access permission.\r\n     *\r\n     * The function will iteratively execute each pair of orders\r\n     */\r\n    function batchExecuteTrade(\r\n        Order[] memory makerOrders,\r\n        Order[] memory takerOrders,\r\n        bytes[] memory makerSignatures,\r\n        bytes[] memory takerSignatures,\r\n        LibFillResults.Context[] memory contexts\r\n    )\r\n        public\r\n        onlyWhitelisted\r\n        whenNotPaused\r\n        nonReentrant\r\n    {\r\n        require(makerOrders.length == takerOrders.length, \"ORDER_LENGTH_MISMATCH\");\r\n        require(makerOrders.length == makerSignatures.length, \"MAKER_SIGNATURE_LENGTH_MISMATCH\");\r\n        require(takerOrders.length == takerSignatures.length, \"TAKER_SIGNATURE_LENGTH_MISMATCH\");\r\n        require(makerOrders.length == contexts.length, \"CONTEXT_LENGTH_MISMATCH\");\r\n\r\n        LibFillResults.MatchedFillResults memory matchedFillResults;\r\n        for(uint i = 0; i < makerOrders.length; i++){\r\n            _setContractFee(contexts[i].makerContractFee, contexts[i].takerContractFee);\r\n\r\n            matchedFillResults = _executeTrade(makerOrders[i], takerOrders[i], makerSignatures[i], takerSignatures[i], contexts[i]);\r\n\r\n            _updatePriceAndCountAndVolume(makerOrders[i], matchedFillResults);\r\n        }\r\n    }\r\n\r\n    /**\r\n     * Execute the exchange between a maker order and a taker order.\r\n     * Only Whitelistlisted (DEX) have the access permission.\r\n     */\r\n    function executeTrade(\r\n        Order memory makerOrder,\r\n        Order memory takerOrder,\r\n        bytes memory makerSignature,\r\n        bytes memory takerSignature,\r\n        LibFillResults.Context memory context\r\n    )\r\n        public\r\n        onlyWhitelisted\r\n        whenNotPaused\r\n        nonReentrant\r\n        returns (LibFillResults.MatchedFillResults memory matchedFillResults)\r\n    {\r\n        _setContractFee(context.makerContractFee, context.takerContractFee);\r\n\r\n        matchedFillResults = _executeTrade(makerOrder, takerOrder, makerSignature, takerSignature, context);\r\n\r\n        _updatePriceAndCountAndVolume(makerOrder, matchedFillResults);\r\n    }\r\n\r\n    /**\r\n     * Cancel orders in batches.\r\n     * Only Whitelistlisted (DEX) have the access permission.\r\n     *\r\n     * The function will iteratively cancel each order specified\r\n     */\r\n    function cancelOrders(CancelRequest[] memory requests, bytes[] memory signatures)\r\n        public\r\n        onlyWhitelisted\r\n        whenNotPaused\r\n    {\r\n        require(requests.length == signatures.length, \"INVALID_SIGNATURE_LENGTH\");\r\n        for(uint i = 0; i < requests.length; i++){\r\n            cancelOrder(requests[i], signatures[i]);\r\n        }\r\n    }\r\n\r\n    /**\r\n     * Cancel an order with user-signed request.\r\n     * Only Whitelistlisted (DEX) have the access permission.\r\n     *\r\n     * The function will cancel a single order\r\n     */\r\n    function cancelOrder(CancelRequest memory request, bytes memory signature)\r\n        public\r\n        onlyWhitelisted\r\n        whenNotPaused\r\n    {\r\n        // Validate user signature\r\n        bytes32 requestHash = getRequestHash(request);\r\n        require(isValidSignature(requestHash,request.order.userAddress,signature), \"INVALID_CANCEL_SIGNATURE\");\r\n\r\n        bytes32 orderHash = getOrderHash(request.order);\r\n\r\n        cancelled[orderHash] = true;\r\n        timestamps[orderHash] = request.order.salt;\r\n    }\r\n\r\n    /**\r\n     * Cancel an order without user-signed request.\r\n     * Only Whitelistlisted (DEX) have the access permission.\r\n     *\r\n     * The function will cancel a single order when DEX decides that there are\r\n     * no more matching orders available\r\n     */\r\n    function finalizeOrder(Order memory order, bytes memory signature)\r\n        public\r\n        onlyWhitelisted\r\n        whenNotPaused\r\n    {\r\n        //require(OrderType(order.orderType) == OrderType.Market, \"INVALID_TYPE\");\r\n        bytes32 orderHash = getOrderHash(order);\r\n\r\n        // Validate user signature (check only if first time seen)\r\n        require(isValidSignature(orderHash,order.userAddress,signature), \"INVALID_ORDER_SIGNATURE\");\r\n\r\n        cancelled[orderHash] = true;\r\n        timestamps[orderHash] = order.salt;\r\n    }\r\n\r\n    /**\r\n     * Pause the majority of functionalities of Boomflow.\r\n     * Only WhitelistAdmin (DEX) have the access permission.\r\n     *\r\n     * Note that when deployed, Boomflow is by default paused.\r\n     */\r\n    function Pause()\r\n        public\r\n        onlyWhitelistAdmin\r\n    {\r\n        pause();\r\n    }\r\n\r\n    /**\r\n     * Resume all paused functionalities of Boomflow.\r\n     * Only WhitelistAdmin (DEX) have the access permission.\r\n     *\r\n     */\r\n    function Resume()\r\n        public\r\n        onlyWhitelistAdmin\r\n    {\r\n        unpause();\r\n    }\r\n// ----------------------------- Helper Functions -----------------------------\r\n    /**\r\n     * Modify the contract fees.\r\n     * Note that contract fees could be adjusted by DEX during trade execution, but there\r\n     * is hard-coded lock period between every adjustment to throttle the number of times\r\n     * DEX modify the value\r\n     */\r\n    function _setContractFee(\r\n        uint256 _makerFeePercentage,\r\n        uint256 _takerFeePercentage\r\n    )\r\n        internal\r\n    {\r\n        require(_makerFeePercentage < MAX_CONTRACT_FEE, \"INVALID_MAKER_CONTRACT_FEE\");\r\n        require(_takerFeePercentage < MAX_CONTRACT_FEE, \"INVALID_TAKER_CONTRACT_FEE\");\r\n\r\n        if (makerFeePercentage != _makerFeePercentage || takerFeePercentage != _takerFeePercentage) {\r\n            require(lastTime.add(minimumLockTime) < block.timestamp, \"CONTRACT_FEE_STILL_LOCKED\");\r\n            lastTime = block.timestamp;\r\n\r\n            makerFeePercentage = _makerFeePercentage;\r\n            takerFeePercentage = _takerFeePercentage;\r\n        }\r\n    }\r\n\r\n    /**\r\n     * Execute all the recorded base maker orders and quote maker orders for a specific taker order.\r\n     * The function should be called after `recordInstantExchangeOrders`\r\n     * Only Whitelistlisted (DEX) have the access permission.\r\n     *\r\n     * The function will atomically perform the following operations:\r\n     *\r\n     *      1. Impersonate a taker order between the taker-owned asset and intermediate asset\r\n     *      2. Calculate the results for the first exchange roundtrip\r\n     *      3. Impersonate another taker order between intermediate asset the taker-asked asset\r\n     *      4. Calculate the results for the second exchange roundtrip\r\n     *      5. Settle all the exchanges\r\n     *\r\n     * Requirements:\r\n     * - The length of base and quote makerOrder lists should be either both zero or both nonzero\r\n     * - The amount of intermediate asset left after the second exchange roundtrip should be less than `threshold`\r\n     */\r\n    function _executeInstantExchangeTrade(\r\n        Order memory takerOrder,\r\n        bytes memory takerSignature,\r\n        uint256 threshold,\r\n        address contractFeeAddress\r\n    )\r\n        internal\r\n    {\r\n        OrderInfo memory takerOrderInfo = getOrderInfo(takerOrder);\r\n\r\n        // Either the taker order is still valid or we revert\r\n        assertFillableOrder(\r\n            takerOrder,\r\n            takerOrderInfo,\r\n            takerSignature\r\n        );\r\n\r\n        Order[] memory firstOrderLists;\r\n        Order[] memory secondOrderLists;\r\n\r\n        // If taker order is buy, then it goes through 1st exchange roundtrip\r\n        // with quote maker orders, then base maker orders; vice versa\r\n        if (!takerOrder.side) {\r\n            firstOrderLists = baseMakerOrders[takerOrderInfo.orderHash];\r\n            secondOrderLists = quoteMakerOrders[takerOrderInfo.orderHash];\r\n        } else {\r\n            firstOrderLists = quoteMakerOrders[takerOrderInfo.orderHash];\r\n            secondOrderLists = baseMakerOrders[takerOrderInfo.orderHash];\r\n        }\r\n\r\n        // Two makerOrder lists have either both zero lengths or nonzero lengths\r\n        require(\r\n            (firstOrderLists.length != 0) == (secondOrderLists.length != 0),\r\n            \"INVALID_LENGTH\"\r\n        );\r\n\r\n        // Simply cancel the takerOrder if orderlists are empty\r\n        if (firstOrderLists.length > 0) {\r\n            // Mimic 1st roundtrip takerOrder: A-B.\r\n            // Note that the constructed taker order is always on Sell side\r\n            // because based on the rules for instant exchange asset pairs,\r\n            // the intermediate asset is always the quote asset.\r\n            Order memory firstTakerOrder = Order({\r\n                userAddress: takerOrder.userAddress,\r\n                amount: takerOrder.amount,\r\n                price: takerOrder.price,\r\n                orderType: takerOrder.orderType,\r\n                side: false,\r\n                salt: takerOrder.salt,\r\n                baseAssetAddress: firstOrderLists[0].baseAssetAddress,\r\n                quoteAssetAddress: firstOrderLists[0].quoteAssetAddress,\r\n                feeAddress: address(0),\r\n                makerFeePercentage: 0,\r\n                takerFeePercentage: 0\r\n            });\r\n\r\n            // Calculate matching results for the 1st roundtrip\r\n            LibFillResults.MatchedMarketFillResults memory firstMatchedResults = _calculateMarketOrder(firstTakerOrder, firstOrderLists, takerOrderInfo, firstTakerOrder.amount, contractFeeAddress);\r\n\r\n            // Mimic 2nd roundtrip takerOrder: C-B\r\n            // Note that the constructed taker order is always on Buy side\r\n            // for the same reason the 1st taker order is always on Sell side\r\n            Order memory secondTakerOrder = Order({\r\n                userAddress: takerOrder.userAddress,\r\n                amount: firstMatchedResults.totalTakerFill,\r\n                price: takerOrder.price,\r\n                orderType: takerOrder.orderType,\r\n                side: true,\r\n                salt: takerOrder.salt,\r\n                baseAssetAddress: secondOrderLists[0].baseAssetAddress,\r\n                quoteAssetAddress: secondOrderLists[0].quoteAssetAddress,\r\n                feeAddress: takerOrder.feeAddress,\r\n                makerFeePercentage: 0,\r\n                takerFeePercentage: takerOrder.takerFeePercentage\r\n            });\r\n\r\n            // Calculate matching results for the 2nd roundtrip\r\n            LibFillResults.MatchedMarketFillResults memory secondMatchedResults = _calculateMarketOrder(secondTakerOrder, secondOrderLists, takerOrderInfo, secondTakerOrder.amount, contractFeeAddress);\r\n\r\n            // Ensure that there is almost no intermediate B left\r\n            // Note that it is very likely that the match is not perfect, and in the case where there are a slight\r\n            // amount of B left, we would still allow the transaction and transfer B to the user as a by-product\r\n            if (SafeMath.sub(firstMatchedResults.totalTakerFill, secondMatchedResults.totalTradeAmount) <= threshold) {\r\n                // Settle the result for takerOrder\r\n                updateFilledStates(\r\n                    takerOrderInfo,\r\n                    secondMatchedResults.totalTakerFee,\r\n                    secondMatchedResults.totalTakerContractFee,\r\n                    contractFeeAddress,\r\n                    takerOrder.side ? firstMatchedResults.totalTradeFunds : firstMatchedResults.totalTradeAmount\r\n                );\r\n\r\n                // Settle maker orders from 1st round trip\r\n                for (uint i = 0; i < firstOrderLists.length; i++) {\r\n                    // Update exchange states\r\n                    OrderInfo memory makerOrderInfo = getOrderInfo(firstOrderLists[i]);\r\n                    updateFilledStates(\r\n                        makerOrderInfo,\r\n                        firstMatchedResults.fillResults[i].makerFee,\r\n                        firstMatchedResults.fillResults[i].makerContractFee,\r\n                        contractFeeAddress,\r\n                        firstMatchedResults.fillResults[i].tradeAmount\r\n                    );\r\n\r\n                    // Settle orders\r\n                    settleTrade(firstOrderLists[i], takerOrder, contractFeeAddress, firstMatchedResults.fillResults[i]);\r\n                }\r\n\r\n                // Settle maker orders from 2st round trip\r\n                for (uint i = 0; i < secondOrderLists.length; i++) {\r\n                    // Update exchange states\r\n                    OrderInfo memory makerOrderInfo = getOrderInfo(secondOrderLists[i]);\r\n                    updateFilledStates(\r\n                        makerOrderInfo,\r\n                        secondMatchedResults.fillResults[i].makerFee,\r\n                        secondMatchedResults.fillResults[i].makerContractFee,\r\n                        contractFeeAddress,\r\n                        secondMatchedResults.fillResults[i].tradeAmount\r\n                    );\r\n\r\n                    // Settle orders\r\n                    settleTrade(secondOrderLists[i], takerOrder, contractFeeAddress, secondMatchedResults.fillResults[i]);\r\n                }\r\n            }\r\n        }\r\n\r\n        // Delete the stored maker orders\r\n        delete baseMakerOrders[takerOrderInfo.orderHash];\r\n        delete quoteMakerOrders[takerOrderInfo.orderHash];\r\n\r\n        // Cancel the taker order\r\n        finalizeOrder(takerOrder, takerSignature);\r\n    }\r\n\r\n    /**\r\n     * Execute the exchange between a maker order and a taker order.\r\n     * Only Whitelistlisted (DEX) have the access permission.\r\n     *\r\n     * The function will atomically perform the following operations:\r\n     *\r\n     *      1. Validate both taker order, maker order and the match\r\n     *      2. Calculate the matching results\r\n     *      3. Settle the exchanges\r\n     */\r\n    function _executeTrade(\r\n        Order memory makerOrder,\r\n        Order memory takerOrder,\r\n        bytes memory makerSignature,\r\n        bytes memory takerSignature,\r\n        LibFillResults.Context memory context\r\n    )\r\n        internal\r\n        returns (LibFillResults.MatchedFillResults memory matchedFillResults)\r\n    {\r\n        // We assume that the two order sides are opposite, takerOrder.quoteAssetAddress == makerOrder.quoteAssetAddress and takerOrder.baseAssetAddress == makerOrder.baseAssetAddress.\r\n        // If this assumption isn't true, the match will fail at signature validation.\r\n        require(makerOrder.side != takerOrder.side, \"INVALID_SIDE\");\r\n        require(OrderType(makerOrder.orderType) == OrderType.Limit, \"INVALID_MAKER_TYPE\");\r\n\r\n        takerOrder.baseAssetAddress = makerOrder.baseAssetAddress;\r\n        takerOrder.quoteAssetAddress = makerOrder.quoteAssetAddress;\r\n\r\n        // Get left & right order info\r\n        OrderInfo memory makerOrderInfo = getOrderInfo(makerOrder);\r\n        OrderInfo memory takerOrderInfo = getOrderInfo(takerOrder);\r\n\r\n        // Record the order if not seen before\r\n        if (makerOrderInfo.filledAmount == 0) {\r\n            max[makerOrderInfo.orderHash] = makerOrder.amount;\r\n        }\r\n        if (takerOrderInfo.filledAmount == 0) {\r\n            max[takerOrderInfo.orderHash] = takerOrder.amount;\r\n        }\r\n\r\n        // Either our context is valid or we revert\r\n        assertFillableOrder(\r\n            makerOrder,\r\n            makerOrderInfo,\r\n            makerSignature\r\n        );\r\n        assertFillableOrder(\r\n            takerOrder,\r\n            takerOrderInfo,\r\n            takerSignature\r\n        );\r\n\r\n        // Either it is a valid match or we revert\r\n        assertValidMatch(makerOrder, takerOrder);\r\n\r\n        // Compute proportional fill amounts\r\n        matchedFillResults = LibFillResults.calculateMatchedFillResults(\r\n            makerOrder,\r\n            takerOrder,\r\n            makerOrderInfo.filledAmount,\r\n            takerOrderInfo.filledAmount,\r\n            max[makerOrderInfo.orderHash],\r\n            max[takerOrderInfo.orderHash],\r\n            context.contractFeeAddress,\r\n            makerFeePercentage,\r\n            takerFeePercentage\r\n        );\r\n\r\n        // Either the calculation match with offchain execution or we revert\r\n        assertValidContext(matchedFillResults, context);\r\n\r\n        // Update exchange state\r\n        updateFilledStates(\r\n            makerOrderInfo,\r\n            matchedFillResults.makerFee,\r\n            matchedFillResults.makerContractFee,\r\n            context.contractFeeAddress,\r\n            matchedFillResults.tradeAmount\r\n        );\r\n        updateFilledStates(\r\n            takerOrderInfo,\r\n            matchedFillResults.takerFee,\r\n            matchedFillResults.takerContractFee,\r\n            context.contractFeeAddress,\r\n            (takerOrder.side && OrderType(takerOrder.orderType) == OrderType.Market) ? matchedFillResults.tradeFunds : matchedFillResults.tradeAmount\r\n        );\r\n\r\n        // Settle matched orders. Succeeds or throws.\r\n        settleTrade(makerOrder, takerOrder, context.contractFeeAddress, matchedFillResults);\r\n\r\n        if (filled[makerOrderInfo.orderHash] >= max[makerOrderInfo.orderHash]) {\r\n            timestamps[makerOrderInfo.orderHash] = makerOrder.salt;\r\n        }\r\n\r\n        if (filled[takerOrderInfo.orderHash] >= max[takerOrderInfo.orderHash]) {\r\n            timestamps[takerOrderInfo.orderHash] = takerOrder.salt;\r\n        }\r\n\r\n        return matchedFillResults;\r\n    }\r\n\r\n    function getOrderInfo(Order memory order)\r\n        public\r\n        view\r\n        returns (OrderInfo memory orderInfo)\r\n    {\r\n        // Compute the order hash\r\n        orderInfo.orderHash = getOrderHash(order);\r\n\r\n        // Fetch operated amount\r\n        orderInfo.filledAmount = filled[orderInfo.orderHash];\r\n\r\n        // Validate the order amount\r\n        if (order.amount == 0) {\r\n            orderInfo.orderStatus = uint8(OrderStatus.INVALID_AMOUNT);\r\n            return orderInfo;\r\n        }\r\n\r\n        // Validate the order type\r\n        if (OrderType(order.orderType) != OrderType.Limit &&\r\n          OrderType(order.orderType) != OrderType.Market) {\r\n            orderInfo.orderStatus = uint8(OrderStatus.INVALID_TYPE);\r\n            return orderInfo;\r\n        }\r\n\r\n        // Validate the order price\r\n        if (OrderType(order.orderType) == OrderType.Limit && order.price == 0) {\r\n            orderInfo.orderStatus = uint8(OrderStatus.INVALID_PRICE);\r\n            return orderInfo;\r\n        }\r\n\r\n        // Validate order availability\r\n        if (max[orderInfo.orderHash] != 0 && orderInfo.filledAmount >= max[orderInfo.orderHash]) {\r\n            orderInfo.orderStatus = uint8(OrderStatus.FULLY_FILLED);\r\n            return orderInfo;\r\n        }\r\n\r\n        // Validate if order is cancelled\r\n        if (cancelled[orderInfo.orderHash]) {\r\n            orderInfo.orderStatus = uint8(OrderStatus.CANCELLED);\r\n            return orderInfo;\r\n        }\r\n\r\n        // Validate order expiration, if the order has been neither settled nor recorded\r\n        if (orderInfo.filledAmount == 0 && !recorded[orderInfo.orderHash] && order.salt < timestamp) {\r\n            orderInfo.orderStatus = uint8(OrderStatus.EXPIRED);\r\n            return orderInfo;\r\n        }\r\n\r\n        // All other statuses are ruled out: order is Fillable\r\n        orderInfo.orderStatus = uint8(OrderStatus.FILLABLE);\r\n        return orderInfo;\r\n    }\r\n\r\n    function assertFillableOrder(\r\n        Order memory order,\r\n        OrderInfo memory orderInfo,\r\n        bytes memory signature\r\n    )\r\n        public\r\n        pure\r\n    {\r\n        require(orderInfo.orderStatus != uint8(OrderStatus.INVALID_AMOUNT), \"INVALID_AMOUNT\");\r\n        require(orderInfo.orderStatus != uint8(OrderStatus.INVALID_PRICE), \"INVALID_PRICE\");\r\n        require(orderInfo.orderStatus != uint8(OrderStatus.INVALID_TYPE), \"INVALID_TYPE\");\r\n        require(orderInfo.orderStatus != uint8(OrderStatus.INVALID), \"INVALID\");\r\n        require(orderInfo.orderStatus != uint8(OrderStatus.FULLY_FILLED), \"FULLY_FILLED\");\r\n        require(orderInfo.orderStatus != uint8(OrderStatus.EXPIRED), \"EXPIRED\");\r\n        require(orderInfo.orderStatus != uint8(OrderStatus.CANCELLED), \"CANCELLED\");\r\n        require(\r\n            orderInfo.orderStatus == uint8(OrderStatus.FILLABLE),\r\n            \"ORDER_UNFILLABLE\"\r\n        );\r\n\r\n        // Validate the order fee percentage is less than 1\r\n        require(uint256(10**18) > order.makerFeePercentage, \"INVALID_FEE_PERCENTAGE\");\r\n        require(uint256(10**18) > order.takerFeePercentage, \"INVALID_FEE_PERCENTAGE\");\r\n\r\n        // Validate user signature (check only if first time seen)\r\n        if (orderInfo.filledAmount == 0) {\r\n            require(isValidSignature(orderInfo.orderHash,order.userAddress,signature), \"INVALID_ORDER_SIGNATURE\");\r\n        }\r\n    }\r\n\r\n    /**\r\n     * Make sure there is a profitable spread when both taker and maker orders are limit order.\r\n     * There is a profitable spread iff the cost per unit bought (OrderA.MakerAmount/OrderA.TakerAmount) for each order is greater\r\n     * or equal than the profit per unit sold of the matched order (OrderB.TakerAmount/OrderB.MakerAmount).\r\n     */\r\n    function assertValidMatch(\r\n        LibOrder.Order memory makerOrder,\r\n        LibOrder.Order memory takerOrder\r\n    )\r\n        internal\r\n        pure\r\n    {\r\n        if (OrderType(takerOrder.orderType) == OrderType.Limit) {\r\n            if (makerOrder.side) {\r\n                require(\r\n                    makerOrder.price >= takerOrder.price,\r\n                    \"NEGATIVE_SPREAD_REQUIRED\"\r\n                );\r\n            } else {\r\n                require(\r\n                    makerOrder.price <= takerOrder.price,\r\n                    \"NEGATIVE_SPREAD_REQUIRED\"\r\n                );\r\n            }\r\n        }\r\n    }\r\n\r\n    function assertValidContext(\r\n        LibFillResults.MatchedFillResults memory result,\r\n        LibFillResults.Context memory context\r\n    )\r\n        internal\r\n        pure\r\n    {\r\n        require(\r\n            result.tradeAmount == context.tradeAmount,\r\n            \"TRADE_AMOUNT_MISMATCHED\"\r\n        );\r\n    }\r\n\r\n    // Update state with results of a fill order.\r\n    function updateFilledStates(\r\n        OrderInfo memory orderInfo,\r\n        uint256 fee,\r\n        uint256 contractFee,\r\n        address contractFeeAddress,\r\n        uint256 value\r\n    )\r\n        internal\r\n    {\r\n        // Update maker state\r\n        filled[orderInfo.orderHash] = SafeMath.add(orderInfo.filledAmount, value);\r\n        emit Fill(\r\n            orderInfo.orderHash,\r\n            fee,\r\n            contractFee,\r\n            contractFeeAddress,\r\n            msg.sender,\r\n            value\r\n        );\r\n    }\r\n\r\n    // Settle the trade between one maker and one taker order\r\n    function settleTrade(\r\n        Order memory makerOrder,\r\n        Order memory takerOrder,\r\n        address contractFeeAddress,\r\n        LibFillResults.MatchedFillResults memory matchedFillResults\r\n    )\r\n        internal\r\n    {\r\n        address makerFillAsset = makerOrder.side ? makerOrder.baseAssetAddress : makerOrder.quoteAssetAddress;\r\n        address takerFillAsset = makerOrder.side ? makerOrder.quoteAssetAddress : makerOrder.baseAssetAddress;\r\n\r\n        // Settle net results\r\n        ICRCL(takerFillAsset).transferFrom(makerOrder.userAddress,takerOrder.userAddress,matchedFillResults.takerFillAmount);\r\n        ICRCL(makerFillAsset).transferFrom(takerOrder.userAddress,makerOrder.userAddress,matchedFillResults.makerFillAmount);\r\n\r\n        // Settle dex fees\r\n        ICRCL(takerFillAsset).transferFrom(makerOrder.userAddress,takerOrder.feeAddress,matchedFillResults.takerFee);\r\n        ICRCL(makerFillAsset).transferFrom(takerOrder.userAddress,makerOrder.feeAddress,matchedFillResults.makerFee);\r\n\r\n        // Settle contract fees if feeAddress is not null address\r\n        if (contractFeeAddress != address(0)) {\r\n            ICRCL(takerFillAsset).transferFrom(makerOrder.userAddress,contractFeeAddress,matchedFillResults.takerContractFee);\r\n            ICRCL(makerFillAsset).transferFrom(takerOrder.userAddress,contractFeeAddress,matchedFillResults.makerContractFee);\r\n        }\r\n    }\r\n\r\n    function _min(uint256 value1, uint256 value2) internal pure returns (uint256) {\r\n        if (value1 > value2) {\r\n            return value2;\r\n        }\r\n        return value1;\r\n    }\r\n\r\n    // Calculate the matching results of one taker order against multiple maker orders\r\n    function _calculateMarketOrder(\r\n        Order memory takerOrder,\r\n        Order[] memory makerOrders,\r\n        OrderInfo memory takerOrderInfo,\r\n        uint256 takerOrderMax,\r\n        address contractFeeAddress\r\n    )\r\n        internal\r\n        view\r\n        returns (LibFillResults.MatchedMarketFillResults memory matchedMarketFillResults)\r\n    {\r\n        // Initialize fill results\r\n        matchedMarketFillResults.totalMakerFill = 0;\r\n        matchedMarketFillResults.totalTakerFill = 0;\r\n        matchedMarketFillResults.totalTradeAmount = 0;\r\n        matchedMarketFillResults.totalTradeFunds = 0;\r\n        matchedMarketFillResults.totalTakerFee = 0;\r\n        matchedMarketFillResults.totalTakerContractFee = 0;\r\n\r\n        matchedMarketFillResults.fillResults = new LibFillResults.MatchedFillResults[](makerOrders.length);\r\n\r\n        for (uint i = 0; i < makerOrders.length; i++) {\r\n            // Get maker order info\r\n            OrderInfo memory makerOrderInfo = getOrderInfo(makerOrders[i]);\r\n\r\n            // Calculate the matching result between one maker and one taker order\r\n            LibFillResults.MatchedFillResults memory matchedFillResults = LibFillResults.calculateMatchedFillResults(\r\n                makerOrders[i],\r\n                takerOrder,\r\n                makerOrderInfo.filledAmount,\r\n                SafeMath.add(takerOrderInfo.filledAmount, matchedMarketFillResults.totalTakerFill),\r\n                max[makerOrderInfo.orderHash],\r\n                takerOrderMax,\r\n                contractFeeAddress,\r\n                makerFeePercentage,\r\n                takerFeePercentage\r\n            );\r\n\r\n            // Record the match results\r\n            matchedMarketFillResults.fillResults[i] = matchedFillResults;\r\n\r\n            matchedMarketFillResults.totalMakerFill += matchedMarketFillResults.fillResults[i].makerFillAmount;\r\n            matchedMarketFillResults.totalTakerFill += matchedMarketFillResults.fillResults[i].takerFillAmount;\r\n            matchedMarketFillResults.totalTradeAmount += matchedMarketFillResults.fillResults[i].tradeAmount;\r\n            matchedMarketFillResults.totalTradeFunds += matchedMarketFillResults.fillResults[i].tradeFunds;\r\n            matchedMarketFillResults.totalTakerFee += matchedMarketFillResults.fillResults[i].takerFee;\r\n            matchedMarketFillResults.totalTakerContractFee += matchedMarketFillResults.fillResults[i].takerContractFee;\r\n        }\r\n\r\n        // Reset all the temporarily cancelled orders\r\n        /*for (uint i = 0; i < makerOrders.length; i++) {\r\n            cancelled[orderHashes[i]] = false;\r\n        }*/\r\n\r\n        return matchedMarketFillResults;\r\n    }\r\n}",
  "sourcePath": "/Users/kang/work/boomflow-contract/contracts/boomflow/boomflow.sol",
  "compiler": {
    "name": "solc",
    "version": "0.5.16+commit.9c3226ce.Emscripten.clang"
  },
  "schemaVersion": "3.0.23",
  "updatedAt": "2021-03-15T11:32:21.481Z",
  "devdoc": {
    "methods": {
      "getRequestHash(((address,uint256,uint256,uint256,bool,uint256,address,address,address,uint256,uint256),uint256))": {
        "details": "Calculates Keccak-256 hash of the request.",
        "params": {
          "request": "The request structure."
        },
        "return": "Keccak-256 EIP712 hash of the request."
      },
      "pause()": {
        "details": "Called by a pauser to pause, triggers stopped state."
      },
      "paused()": {
        "details": "Returns true if the contract is paused, and false otherwise."
      },
      "unpause()": {
        "details": "Called by a pauser to unpause, returns to normal state."
      }
    }
  },
  "userdoc": {
    "methods": {
      "Pause()": {
        "notice": "Pause the majority of functionalities of Boomflow. Only WhitelistAdmin (DEX) have the access permission.      * Note that when deployed, Boomflow is by default paused."
      },
      "Resume()": {
        "notice": "Resume all paused functionalities of Boomflow. Only WhitelistAdmin (DEX) have the access permission.      "
      },
      "batchExecuteInstantExchangeTrade((address,uint256,uint256,uint256,bool,uint256,address,address,address,uint256,uint256)[],bytes[],uint256,uint256[],uint256[],address[])": {
        "notice": "Execute orders in batches. Only Whitelistlisted (DEX) have the access permission.      * The function will iteratively execute each pair of orders"
      },
      "batchExecuteTrade((address,uint256,uint256,uint256,bool,uint256,address,address,address,uint256,uint256)[],(address,uint256,uint256,uint256,bool,uint256,address,address,address,uint256,uint256)[],bytes[],bytes[],(uint256,uint256,uint256,address)[])": {
        "notice": "Execute orders in batches. Only Whitelistlisted (DEX) have the access permission.      * The function will iteratively execute each pair of orders"
      },
      "cancelOrder(((address,uint256,uint256,uint256,bool,uint256,address,address,address,uint256,uint256),uint256),bytes)": {
        "notice": "Cancel an order with user-signed request. Only Whitelistlisted (DEX) have the access permission.      * The function will cancel a single order"
      },
      "cancelOrders(((address,uint256,uint256,uint256,bool,uint256,address,address,address,uint256,uint256),uint256)[],bytes[])": {
        "notice": "Cancel orders in batches. Only Whitelistlisted (DEX) have the access permission.      * The function will iteratively cancel each order specified"
      },
      "executeInstantExchangeTrade((address,uint256,uint256,uint256,bool,uint256,address,address,address,uint256,uint256),bytes,uint256,uint256,uint256,address)": {
        "notice": "Execute all the recorded base maker orders and quote maker orders for a specific taker order. The function should be called after `recordInstantExchangeOrders` Only Whitelistlisted (DEX) have the access permission."
      },
      "executeTrade((address,uint256,uint256,uint256,bool,uint256,address,address,address,uint256,uint256),(address,uint256,uint256,uint256,bool,uint256,address,address,address,uint256,uint256),bytes,bytes,(uint256,uint256,uint256,address))": {
        "notice": "Execute the exchange between a maker order and a taker order. Only Whitelistlisted (DEX) have the access permission."
      },
      "finalizeOrder((address,uint256,uint256,uint256,bool,uint256,address,address,address,uint256,uint256),bytes)": {
        "notice": "Cancel an order without user-signed request. Only Whitelistlisted (DEX) have the access permission.      * The function will cancel a single order when DEX decides that there are no more matching orders available"
      },
      "recordInstantExchangeOrders((address,uint256,uint256,uint256,bool,uint256,address,address,address,uint256,uint256),(address,uint256,uint256,uint256,bool,uint256,address,address,address,uint256,uint256)[],bytes,bytes[])": {
        "notice": "Record the matched base maker orders and quote maker orders for a specific taker order. The function should be called prior to `executeInstantExchangeTrade` Only Whitelistlisted (DEX) have the access permission.      * The function could be run in batches for a single taker order, and `makerOrders` could contains a mixture of base and quote maker orders, as long as DEX ensures the order of base maker orders and that of quote maker orders are unploaded in the exact order, respectively.      * Requirements: - All base maker orders should have the same base and quote assets - All quote maker orders should have the same base and quote assets - All base maker orders should have the same base assets as the taker order - All quote maker orders should have the same quote assets as the taker order"
      },
      "recordOrders((address,uint256,uint256,uint256,bool,uint256,address,address,address,uint256,uint256)[])": {
        "notice": "Upload the unmatched order hashes. The function should be called prior to `setTimestamp` Only onlyWhitelistAdmin (DEX) have the access permission."
      }
    }
  }
}