{
  "contractName": "CRCL",
  "abi": [
    {
      "inputs": [
        {
          "internalType": "string",
          "name": "name",
          "type": "string"
        },
        {
          "internalType": "string",
          "name": "symbol",
          "type": "string"
        },
        {
          "internalType": "uint8",
          "name": "decimals",
          "type": "uint8"
        },
        {
          "internalType": "address",
          "name": "tokenAddr",
          "type": "address"
        },
        {
          "internalType": "address",
          "name": "boomflow",
          "type": "address"
        },
        {
          "internalType": "uint256",
          "name": "deferTime",
          "type": "uint256"
        },
        {
          "internalType": "bool",
          "name": "isCFX",
          "type": "bool"
        }
      ],
      "payable": false,
      "stateMutability": "nonpayable",
      "type": "constructor"
    },
    {
      "anonymous": false,
      "inputs": [
        {
          "indexed": true,
          "internalType": "address",
          "name": "sender",
          "type": "address"
        },
        {
          "indexed": true,
          "internalType": "address",
          "name": "recipient",
          "type": "address"
        },
        {
          "indexed": false,
          "internalType": "uint256",
          "name": "value",
          "type": "uint256"
        }
      ],
      "name": "Deposit",
      "type": "event"
    },
    {
      "anonymous": false,
      "inputs": [
        {
          "indexed": false,
          "internalType": "address",
          "name": "account",
          "type": "address"
        }
      ],
      "name": "Paused",
      "type": "event"
    },
    {
      "anonymous": false,
      "inputs": [
        {
          "indexed": true,
          "internalType": "address",
          "name": "account",
          "type": "address"
        }
      ],
      "name": "PauserAdded",
      "type": "event"
    },
    {
      "anonymous": false,
      "inputs": [
        {
          "indexed": true,
          "internalType": "address",
          "name": "account",
          "type": "address"
        }
      ],
      "name": "PauserRemoved",
      "type": "event"
    },
    {
      "anonymous": false,
      "inputs": [
        {
          "indexed": true,
          "internalType": "address",
          "name": "sender",
          "type": "address"
        },
        {
          "indexed": false,
          "internalType": "uint256",
          "name": "time",
          "type": "uint256"
        }
      ],
      "name": "ScheduleWithdraw",
      "type": "event"
    },
    {
      "anonymous": false,
      "inputs": [
        {
          "indexed": true,
          "internalType": "address",
          "name": "sender",
          "type": "address"
        },
        {
          "indexed": true,
          "internalType": "address",
          "name": "recipient",
          "type": "address"
        },
        {
          "indexed": false,
          "internalType": "uint256",
          "name": "value",
          "type": "uint256"
        }
      ],
      "name": "Transfer",
      "type": "event"
    },
    {
      "anonymous": false,
      "inputs": [
        {
          "indexed": false,
          "internalType": "address",
          "name": "account",
          "type": "address"
        }
      ],
      "name": "Unpaused",
      "type": "event"
    },
    {
      "anonymous": false,
      "inputs": [
        {
          "indexed": true,
          "internalType": "address",
          "name": "account",
          "type": "address"
        }
      ],
      "name": "WhitelistAdminAdded",
      "type": "event"
    },
    {
      "anonymous": false,
      "inputs": [
        {
          "indexed": true,
          "internalType": "address",
          "name": "account",
          "type": "address"
        }
      ],
      "name": "WhitelistAdminRemoved",
      "type": "event"
    },
    {
      "anonymous": false,
      "inputs": [
        {
          "indexed": true,
          "internalType": "address",
          "name": "sender",
          "type": "address"
        },
        {
          "indexed": true,
          "internalType": "address",
          "name": "recipient",
          "type": "address"
        },
        {
          "indexed": false,
          "internalType": "uint256",
          "name": "value",
          "type": "uint256"
        }
      ],
      "name": "Withdraw",
      "type": "event"
    },
    {
      "anonymous": false,
      "inputs": [
        {
          "indexed": true,
          "internalType": "address",
          "name": "account",
          "type": "address"
        },
        {
          "indexed": false,
          "internalType": "uint256",
          "name": "balance",
          "type": "uint256"
        }
      ],
      "name": "Write",
      "type": "event"
    },
    {
      "constant": true,
      "inputs": [],
      "name": "EIP712_DOMAIN_HASH",
      "outputs": [
        {
          "internalType": "bytes32",
          "name": "",
          "type": "bytes32"
        }
      ],
      "payable": false,
      "stateMutability": "view",
      "type": "function"
    },
    {
      "constant": true,
      "inputs": [],
      "name": "_deferTime",
      "outputs": [
        {
          "internalType": "uint256",
          "name": "",
          "type": "uint256"
        }
      ],
      "payable": false,
      "stateMutability": "view",
      "type": "function"
    },
    {
      "constant": false,
      "inputs": [
        {
          "internalType": "address",
          "name": "account",
          "type": "address"
        }
      ],
      "name": "addPauser",
      "outputs": [],
      "payable": false,
      "stateMutability": "nonpayable",
      "type": "function"
    },
    {
      "constant": false,
      "inputs": [
        {
          "internalType": "address",
          "name": "account",
          "type": "address"
        }
      ],
      "name": "addWhitelistAdmin",
      "outputs": [],
      "payable": false,
      "stateMutability": "nonpayable",
      "type": "function"
    },
    {
      "constant": true,
      "inputs": [],
      "name": "chainId",
      "outputs": [
        {
          "internalType": "uint256",
          "name": "",
          "type": "uint256"
        }
      ],
      "payable": false,
      "stateMutability": "view",
      "type": "function"
    },
    {
      "constant": true,
      "inputs": [],
      "name": "deferTime",
      "outputs": [
        {
          "internalType": "uint256",
          "name": "",
          "type": "uint256"
        }
      ],
      "payable": false,
      "stateMutability": "view",
      "type": "function"
    },
    {
      "constant": true,
      "inputs": [
        {
          "internalType": "address",
          "name": "account",
          "type": "address"
        }
      ],
      "name": "getDeferTime",
      "outputs": [
        {
          "internalType": "uint256",
          "name": "",
          "type": "uint256"
        }
      ],
      "payable": false,
      "stateMutability": "view",
      "type": "function"
    },
    {
      "constant": true,
      "inputs": [
        {
          "components": [
            {
              "internalType": "address",
              "name": "userAddress",
              "type": "address"
            },
            {
              "internalType": "uint256",
              "name": "amount",
              "type": "uint256"
            },
            {
              "internalType": "address",
              "name": "recipient",
              "type": "address"
            },
            {
              "internalType": "bool",
              "name": "burn",
              "type": "bool"
            },
            {
              "internalType": "uint256",
              "name": "nonce",
              "type": "uint256"
            }
          ],
          "internalType": "struct CRCLRequest.WithdrawRequest",
          "name": "request",
          "type": "tuple"
        }
      ],
      "name": "getRequestHash",
      "outputs": [
        {
          "internalType": "bytes32",
          "name": "requestHash",
          "type": "bytes32"
        }
      ],
      "payable": false,
      "stateMutability": "view",
      "type": "function"
    },
    {
      "constant": true,
      "inputs": [
        {
          "components": [
            {
              "internalType": "address",
              "name": "userAddress",
              "type": "address"
            },
            {
              "internalType": "uint256[]",
              "name": "amounts",
              "type": "uint256[]"
            },
            {
              "internalType": "address[]",
              "name": "recipients",
              "type": "address[]"
            },
            {
              "internalType": "uint256",
              "name": "nonce",
              "type": "uint256"
            }
          ],
          "internalType": "struct CRCLRequest.TransferRequest",
          "name": "request",
          "type": "tuple"
        }
      ],
      "name": "getTransferRequestHash",
      "outputs": [
        {
          "internalType": "bytes32",
          "name": "requestHash",
          "type": "bytes32"
        }
      ],
      "payable": false,
      "stateMutability": "view",
      "type": "function"
    },
    {
      "constant": true,
      "inputs": [
        {
          "components": [
            {
              "internalType": "address",
              "name": "userAddress",
              "type": "address"
            },
            {
              "internalType": "uint256",
              "name": "amount",
              "type": "uint256"
            },
            {
              "internalType": "string",
              "name": "recipient",
              "type": "string"
            },
            {
              "internalType": "address",
              "name": "defiRelayer",
              "type": "address"
            },
            {
              "internalType": "uint256",
              "name": "fee",
              "type": "uint256"
            },
            {
              "internalType": "uint256",
              "name": "nonce",
              "type": "uint256"
            }
          ],
          "internalType": "struct CRCLRequest.WithdrawCrossChainRequest",
          "name": "request",
          "type": "tuple"
        }
      ],
      "name": "getWithdrawCrossChainRequestHash",
      "outputs": [
        {
          "internalType": "bytes32",
          "name": "requestHash",
          "type": "bytes32"
        }
      ],
      "payable": false,
      "stateMutability": "view",
      "type": "function"
    },
    {
      "constant": true,
      "inputs": [
        {
          "internalType": "address",
          "name": "account",
          "type": "address"
        }
      ],
      "name": "isPauser",
      "outputs": [
        {
          "internalType": "bool",
          "name": "",
          "type": "bool"
        }
      ],
      "payable": false,
      "stateMutability": "view",
      "type": "function"
    },
    {
      "constant": true,
      "inputs": [
        {
          "internalType": "bytes32",
          "name": "hash",
          "type": "bytes32"
        },
        {
          "internalType": "address",
          "name": "signerAddress",
          "type": "address"
        },
        {
          "internalType": "bytes",
          "name": "signature",
          "type": "bytes"
        }
      ],
      "name": "isValidSignature",
      "outputs": [
        {
          "internalType": "bool",
          "name": "isValid",
          "type": "bool"
        }
      ],
      "payable": false,
      "stateMutability": "pure",
      "type": "function"
    },
    {
      "constant": true,
      "inputs": [
        {
          "internalType": "address",
          "name": "account",
          "type": "address"
        }
      ],
      "name": "isWhitelistAdmin",
      "outputs": [
        {
          "internalType": "bool",
          "name": "",
          "type": "bool"
        }
      ],
      "payable": false,
      "stateMutability": "view",
      "type": "function"
    },
    {
      "constant": false,
      "inputs": [],
      "name": "pause",
      "outputs": [],
      "payable": false,
      "stateMutability": "nonpayable",
      "type": "function"
    },
    {
      "constant": true,
      "inputs": [],
      "name": "paused",
      "outputs": [
        {
          "internalType": "bool",
          "name": "",
          "type": "bool"
        }
      ],
      "payable": false,
      "stateMutability": "view",
      "type": "function"
    },
    {
      "constant": false,
      "inputs": [],
      "name": "renouncePauser",
      "outputs": [],
      "payable": false,
      "stateMutability": "nonpayable",
      "type": "function"
    },
    {
      "constant": false,
      "inputs": [],
      "name": "renounceWhitelistAdmin",
      "outputs": [],
      "payable": false,
      "stateMutability": "nonpayable",
      "type": "function"
    },
    {
      "constant": false,
      "inputs": [
        {
          "internalType": "uint256",
          "name": "time",
          "type": "uint256"
        }
      ],
      "name": "setDeferTime",
      "outputs": [
        {
          "internalType": "bool",
          "name": "",
          "type": "bool"
        }
      ],
      "payable": false,
      "stateMutability": "nonpayable",
      "type": "function"
    },
    {
      "constant": true,
      "inputs": [
        {
          "internalType": "bytes32",
          "name": "",
          "type": "bytes32"
        }
      ],
      "name": "timestamps",
      "outputs": [
        {
          "internalType": "uint256",
          "name": "",
          "type": "uint256"
        }
      ],
      "payable": false,
      "stateMutability": "view",
      "type": "function"
    },
    {
      "constant": false,
      "inputs": [],
      "name": "unpause",
      "outputs": [],
      "payable": false,
      "stateMutability": "nonpayable",
      "type": "function"
    },
    {
      "constant": true,
      "inputs": [],
      "name": "name",
      "outputs": [
        {
          "internalType": "string",
          "name": "",
          "type": "string"
        }
      ],
      "payable": false,
      "stateMutability": "view",
      "type": "function"
    },
    {
      "constant": true,
      "inputs": [],
      "name": "symbol",
      "outputs": [
        {
          "internalType": "string",
          "name": "",
          "type": "string"
        }
      ],
      "payable": false,
      "stateMutability": "view",
      "type": "function"
    },
    {
      "constant": true,
      "inputs": [],
      "name": "decimals",
      "outputs": [
        {
          "internalType": "uint256",
          "name": "",
          "type": "uint256"
        }
      ],
      "payable": false,
      "stateMutability": "view",
      "type": "function"
    },
    {
      "constant": true,
      "inputs": [],
      "name": "totalSupply",
      "outputs": [
        {
          "internalType": "uint256",
          "name": "",
          "type": "uint256"
        }
      ],
      "payable": false,
      "stateMutability": "view",
      "type": "function"
    },
    {
      "constant": true,
      "inputs": [
        {
          "internalType": "address",
          "name": "account",
          "type": "address"
        }
      ],
      "name": "balanceOf",
      "outputs": [
        {
          "internalType": "uint256",
          "name": "",
          "type": "uint256"
        }
      ],
      "payable": false,
      "stateMutability": "view",
      "type": "function"
    },
    {
      "constant": true,
      "inputs": [],
      "name": "getTokenAddress",
      "outputs": [
        {
          "internalType": "address",
          "name": "",
          "type": "address"
        }
      ],
      "payable": false,
      "stateMutability": "view",
      "type": "function"
    },
    {
      "constant": true,
      "inputs": [],
      "name": "getBoomflow",
      "outputs": [
        {
          "internalType": "address",
          "name": "",
          "type": "address"
        }
      ],
      "payable": false,
      "stateMutability": "view",
      "type": "function"
    },
    {
      "constant": true,
      "inputs": [],
      "name": "getTimestamp",
      "outputs": [
        {
          "internalType": "uint256",
          "name": "",
          "type": "uint256"
        }
      ],
      "payable": false,
      "stateMutability": "view",
      "type": "function"
    },
    {
      "constant": false,
      "inputs": [
        {
          "internalType": "uint256",
          "name": "newTimestamp",
          "type": "uint256"
        }
      ],
      "name": "setTimestamp",
      "outputs": [],
      "payable": false,
      "stateMutability": "nonpayable",
      "type": "function"
    },
    {
      "constant": false,
      "inputs": [
        {
          "internalType": "bytes32[]",
          "name": "hashes",
          "type": "bytes32[]"
        }
      ],
      "name": "removeObsoleteData",
      "outputs": [],
      "payable": false,
      "stateMutability": "nonpayable",
      "type": "function"
    },
    {
      "constant": false,
      "inputs": [
        {
          "internalType": "address",
          "name": "sender",
          "type": "address"
        },
        {
          "internalType": "address",
          "name": "recipient",
          "type": "address"
        },
        {
          "internalType": "uint256",
          "name": "amount",
          "type": "uint256"
        }
      ],
      "name": "transferFrom",
      "outputs": [],
      "payable": false,
      "stateMutability": "nonpayable",
      "type": "function"
    },
    {
      "constant": false,
      "inputs": [
        {
          "components": [
            {
              "internalType": "address",
              "name": "userAddress",
              "type": "address"
            },
            {
              "internalType": "uint256[]",
              "name": "amounts",
              "type": "uint256[]"
            },
            {
              "internalType": "address[]",
              "name": "recipients",
              "type": "address[]"
            },
            {
              "internalType": "uint256",
              "name": "nonce",
              "type": "uint256"
            }
          ],
          "internalType": "struct CRCLRequest.TransferRequest",
          "name": "request",
          "type": "tuple"
        },
        {
          "internalType": "bytes",
          "name": "signature",
          "type": "bytes"
        }
      ],
      "name": "transferFor",
      "outputs": [],
      "payable": false,
      "stateMutability": "nonpayable",
      "type": "function"
    },
    {
      "constant": false,
      "inputs": [
        {
          "internalType": "address",
          "name": "",
          "type": "address"
        },
        {
          "internalType": "address",
          "name": "from",
          "type": "address"
        },
        {
          "internalType": "address",
          "name": "to",
          "type": "address"
        },
        {
          "internalType": "uint256",
          "name": "amount",
          "type": "uint256"
        },
        {
          "internalType": "bytes",
          "name": "userData",
          "type": "bytes"
        },
        {
          "internalType": "bytes",
          "name": "",
          "type": "bytes"
        }
      ],
      "name": "tokensReceived",
      "outputs": [],
      "payable": false,
      "stateMutability": "nonpayable",
      "type": "function"
    },
    {
      "constant": false,
      "inputs": [
        {
          "internalType": "address",
          "name": "to",
          "type": "address"
        },
        {
          "internalType": "uint256",
          "name": "amount",
          "type": "uint256"
        }
      ],
      "name": "deposit",
      "outputs": [],
      "payable": false,
      "stateMutability": "nonpayable",
      "type": "function"
    },
    {
      "constant": false,
      "inputs": [
        {
          "internalType": "address",
          "name": "to",
          "type": "address"
        }
      ],
      "name": "depositCFX",
      "outputs": [],
      "payable": true,
      "stateMutability": "payable",
      "type": "function"
    },
    {
      "constant": false,
      "inputs": [
        {
          "components": [
            {
              "internalType": "address",
              "name": "userAddress",
              "type": "address"
            },
            {
              "internalType": "uint256",
              "name": "amount",
              "type": "uint256"
            },
            {
              "internalType": "address",
              "name": "recipient",
              "type": "address"
            },
            {
              "internalType": "bool",
              "name": "burn",
              "type": "bool"
            },
            {
              "internalType": "uint256",
              "name": "nonce",
              "type": "uint256"
            }
          ],
          "internalType": "struct CRCLRequest.WithdrawRequest",
          "name": "request",
          "type": "tuple"
        },
        {
          "internalType": "bytes",
          "name": "signature",
          "type": "bytes"
        }
      ],
      "name": "withdraw",
      "outputs": [],
      "payable": false,
      "stateMutability": "nonpayable",
      "type": "function"
    },
    {
      "constant": false,
      "inputs": [
        {
          "components": [
            {
              "internalType": "address",
              "name": "userAddress",
              "type": "address"
            },
            {
              "internalType": "uint256",
              "name": "amount",
              "type": "uint256"
            },
            {
              "internalType": "string",
              "name": "recipient",
              "type": "string"
            },
            {
              "internalType": "address",
              "name": "defiRelayer",
              "type": "address"
            },
            {
              "internalType": "uint256",
              "name": "fee",
              "type": "uint256"
            },
            {
              "internalType": "uint256",
              "name": "nonce",
              "type": "uint256"
            }
          ],
          "internalType": "struct CRCLRequest.WithdrawCrossChainRequest",
          "name": "request",
          "type": "tuple"
        },
        {
          "internalType": "bytes",
          "name": "signature",
          "type": "bytes"
        }
      ],
      "name": "withdrawCrossChain",
      "outputs": [],
      "payable": false,
      "stateMutability": "nonpayable",
      "type": "function"
    },
    {
      "constant": false,
      "inputs": [],
      "name": "requestForceWithdraw",
      "outputs": [],
      "payable": false,
      "stateMutability": "nonpayable",
      "type": "function"
    },
    {
      "constant": false,
      "inputs": [
        {
          "internalType": "address",
          "name": "recipient",
          "type": "address"
        }
      ],
      "name": "forceWithdraw",
      "outputs": [],
      "payable": false,
      "stateMutability": "nonpayable",
      "type": "function"
    },
    {
      "constant": false,
      "inputs": [],
      "name": "Pause",
      "outputs": [],
      "payable": false,
      "stateMutability": "nonpayable",
      "type": "function"
    },
    {
      "constant": false,
      "inputs": [],
      "name": "Resume",
      "outputs": [],
      "payable": false,
      "stateMutability": "nonpayable",
      "type": "function"
    }
  ],
  "bytecode": "0x60806040523480156200001157600080fd5b506040516200451a3803806200451a8339810160408190526200003491620005ea565b60408051808201909152600481526310d490d360e21b60208201528262000076620000676001600160e01b036200032916565b6001600160e01b036200032e16565b6001554660038190556040516200009090602001620008ee565b60408051601f19818403018152828252805160209182012085518683012084840184526003808652620312e360ec1b9584019590955293549251620000ff94919391927fe6bbd6277e1bf288eed5e8d1780f9a50b239e86b153736bceebccf4ea79d90b392913091016200096a565b60408051601f19818403018152919052805160209091012060045550620001439050620001346001600160e01b036200032916565b6001600160e01b036200038016565b6006805460ff1916905562000178731820a4b7618bde71dce8cdc73aab6c95905fad24620003d2602090811b6200383417901c565b15620001ac5760068054610100600160a81b031916741820a4b7618bde71dce8cdc73aab6c95905fad240017905562000227565b620001d67388887ed889e776bcbe2f0f9932ecfabcdfcd1820620003d260201b620038341760201c565b620001fe5760405162461bcd60e51b8152600401620001f590620009d2565b60405180910390fd5b60068054610100600160a81b0319167488887ed889e776bcbe2f0f9932ecfabcdfcd1820001790555b86516200023c9060079060208a0190620004b8565b50855162000252906008906020890190620004b8565b5060ff8516600955600a80546001600160a01b03199081166001600160a01b0387811691909117909255600b80549091168583161760ff60a01b1916600160a01b84151502179055600654604051610100909104909116906329965a1d903090620002bd90620008e1565b6040519081900381206001600160e01b031960e085901b168252620002e8929130906004016200093c565b600060405180830381600087803b1580156200030357600080fd5b505af115801562000318573d6000803e3d6000fd5b505050505050505050505062000ae5565b335b90565b620003498160006200040f60201b620020db1790919060201c565b6040516001600160a01b038216907f22380c05984257a1cb900161c713dd71d39e74820f1aea43bd3f1bdd2096129990600090a250565b6200039b8160056200040f60201b620020db1790919060201c565b6040516001600160a01b038216907f6719d08c1888103bea251a4ed56406bd0c3e69723c8a1686e017e7bbe159b6f890600090a250565b6000813f7fc5d2460186f7233c927e7db2dcc703c0e500b653ca82273b7bfad8045d85a4708181148015906200040757508115155b949350505050565b6200042482826001600160e01b036200046916565b15620004445760405162461bcd60e51b8152600401620001f590620009c0565b6001600160a01b0316600090815260209190915260409020805460ff19166001179055565b60006001600160a01b038216620004945760405162461bcd60e51b8152600401620001f590620009e4565b506001600160a01b03811660009081526020839052604090205460ff165b92915050565b828054600181600116156101000203166002900490600052602060002090601f016020900481019282601f10620004fb57805160ff19168380011785556200052b565b828001600101855582156200052b579182015b828111156200052b5782518255916020019190600101906200050e565b50620005399291506200053d565b5090565b6200032b91905b8082111562000539576000815560010162000544565b8051620004b28162000aaa565b8051620004b28162000ac4565b600082601f8301126200058657600080fd5b81516200059d620005978262000a1d565b620009f6565b91508082526020830160208301858383011115620005ba57600080fd5b620005c783828462000a77565b50505092915050565b8051620004b28162000acf565b8051620004b28162000ada565b600080600080600080600060e0888a0312156200060657600080fd5b87516001600160401b038111156200061d57600080fd5b6200062b8a828b0162000574565b97505060208801516001600160401b038111156200064857600080fd5b620006568a828b0162000574565b9650506040620006698a828b01620005dd565b95505060606200067c8a828b016200055a565b94505060806200068f8a828b016200055a565b93505060a0620006a28a828b01620005d0565b92505060c0620006b58a828b0162000567565b91505092959891949750929550565b620006cf8162000a53565b82525050565b620006cf816200032b565b6000620006ef600c8362000a4e565b6b1cdd1c9a5b99c81b985b594b60a21b8152600c0192915050565b600062000719601f8362000a45565b7f526f6c65733a206163636f756e7420616c72656164792068617320726f6c6500815260200192915050565b60006200075460198362000a4e565b7f6164647265737320766572696679696e67436f6e747261637400000000000000815260190192915050565b60006200078f60108362000a4e565b6f1d5a5b9d0c8d4d8818da185a5b92590b60821b815260100192915050565b6000620007bd60018362000a4e565b602960f81b815260010192915050565b6000620007dc600f8362000a4e565b6e1cdd1c9a5b99c81d995c9cda5bdb8b608a1b8152600f0192915050565b60006200080960208362000a45565b7f4552433737373a2045524331383230206e6f74206465706c6f79656420796574815260200192915050565b60006200084460228362000a45565b7f526f6c65733a206163636f756e7420697320746865207a65726f206164647265815261737360f01b602082015260400192915050565b60006200088a60158362000a4e565b7f455243373737546f6b656e73526563697069656e740000000000000000000000815260150192915050565b6000620008c5600d8362000a4e565b6c08a92a06e626488dedac2d2dc5609b1b8152600d0192915050565b6000620004b2826200087b565b6000620008fb82620008b6565b91506200090882620006e0565b91506200091582620007cd565b9150620009228262000780565b91506200092f8262000745565b9150620004b282620007ae565b606081016200094c8286620006c4565b6200095b6020830185620006d5565b620004076040830184620006c4565b60a081016200097a8288620006d5565b620009896020830187620006d5565b620009986040830186620006d5565b620009a76060830185620006d5565b620009b66080830184620006c4565b9695505050505050565b60208082528101620004b2816200070a565b60208082528101620004b281620007fa565b60208082528101620004b28162000835565b6040518181016001600160401b038111828210171562000a1557600080fd5b604052919050565b60006001600160401b0382111562000a3457600080fd5b506020601f91909101601f19160190565b90815260200190565b919050565b6000620004b28262000a65565b151590565b6001600160a01b031690565b60ff1690565b60005b8381101562000a9457818101518382015260200162000a7a565b8381111562000aa4576000848401525b50505050565b62000ab58162000a53565b811462000ac157600080fd5b50565b62000ab58162000a60565b62000ab5816200032b565b62000ab58162000a71565b613a258062000af56000396000f3fe6080604052600436106102c55760003560e01c80637b1d294611610179578063a0a2b573116100d6578063c9ac73c81161008a578063dd65e64911610064578063dd65e64914610701578063e306f77914610716578063f03c25541461072b576102c5565b8063c9ac73c8146106b7578063d94f5b39146106cc578063da60d27e146106ec576102c5565b8063b9815289116100bb578063b981528914610662578063bb5f747b14610682578063c5de069a146106a2576102c5565b8063a0a2b57314610622578063b587295814610642576102c5565b8063936347021161012d57806395d89b411161011257806395d89b41146105d85780639844713b146105ed5780639a8a05921461060d576102c5565b8063936347021461059857806394f7cda2146105b8576102c5565b806382dc1ec41161015e57806382dc1ec4146105435780638456cb5914610563578063882f3e1614610578576102c5565b80637b1d2946146105035780637c6ecf2814610523576102c5565b80633f4ba83a116102275780635c975abb116101db5780636ef8d66d116101c05780636ef8d66d146104ae57806370a08231146104c35780637362d9c8146104e3576102c5565b80635c975abb146104845780636985a02214610499576102c5565b806347e7ef241161020c57806347e7ef241461043a578063490d6d111461045a5780634c5a628c1461046f576102c5565b80633f4ba83a146103f857806346fbf68e1461040d576102c5565b806323b872dd1161027e5780632a8961bb116102635780632a8961bb146103b05780632b664ee3146103d0578063313ce567146103e3576102c5565b806323b872dd1461037057806328acc9e714610390576102c5565b806310fe9ae8116102af57806310fe9ae81461031757806318160ddd14610339578063188ec3561461035b576102c5565b806223de29146102ca57806306fdde03146102ec575b600080fd5b3480156102d657600080fd5b506102ea6102e53660046124f8565b61074b565b005b3480156102f857600080fd5b50610301610839565b60405161030e91906134cd565b60405180910390f35b34801561032357600080fd5b5061032c6108cf565b60405161030e91906132bd565b34801561034557600080fd5b5061034e6108de565b60405161030e919061337d565b34801561036757600080fd5b5061034e6108e4565b34801561037c57600080fd5b506102ea61038b3660046125af565b6108ea565b34801561039c57600080fd5b506102ea6103ab366004612636565b6109a9565b3480156103bc57600080fd5b506102ea6103cb3660046127cb565b610a92565b6102ea6103de3660046124d2565b610c20565b3480156103ef57600080fd5b5061034e610d10565b34801561040457600080fd5b506102ea610d16565b34801561041957600080fd5b5061042d6104283660046124d2565b610da9565b60405161030e919061336f565b34801561044657600080fd5b506102ea6104553660046125fc565b610dc2565b34801561046657600080fd5b506102ea610ea9565b34801561047b57600080fd5b506102ea610eda565b34801561049057600080fd5b5061042d610eea565b3480156104a557600080fd5b506102ea610ef3565b3480156104ba57600080fd5b506102ea610f22565b3480156104cf57600080fd5b5061034e6104de3660046124d2565b610f32565b3480156104ef57600080fd5b506102ea6104fe3660046124d2565b610f4d565b34801561050f57600080fd5b5061034e61051e3660046124d2565b610f7d565b34801561052f57600080fd5b5061034e61053e366004612702565b610fc2565b34801561054f57600080fd5b506102ea61055e3660046124d2565b610fd5565b34801561056f57600080fd5b506102ea611005565b34801561058457600080fd5b506102ea6105933660046124d2565b611085565b3480156105a457600080fd5b5061042d6105b33660046126a7565b6111c3565b3480156105c457600080fd5b506102ea6105d336600461281f565b6112e1565b3480156105e457600080fd5b50610301611410565b3480156105f957600080fd5b5061042d610608366004612689565b611471565b34801561061957600080fd5b5061034e6114a3565b34801561062e57600080fd5b506102ea61063d366004612689565b6114a9565b34801561064e57600080fd5b5061034e61065d366004612689565b6114f6565b34801561066e57600080fd5b506102ea61067d366004612737565b611508565b34801561068e57600080fd5b5061042d61069d3660046124d2565b61166a565b3480156106ae57600080fd5b5061034e61167c565b3480156106c357600080fd5b5061034e611682565b3480156106d857600080fd5b5061034e6106e7366004612801565b611688565b3480156106f857600080fd5b506102ea611696565b34801561070d57600080fd5b5061032c6116a7565b34801561072257600080fd5b5061034e6116b6565b34801561073757600080fd5b5061034e610746366004612796565b6116bc565b60065460ff16156107775760405162461bcd60e51b815260040161076e906135de565b60405180910390fd5b600a546001600160a01b031661078b6116ca565b6001600160a01b0316146107b15760405162461bcd60e51b815260040161076e906136be565b6001600160a01b03841630146107d95760405162461bcd60e51b815260040161076e9061367e565b81516014146107fa5760405162461bcd60e51b815260040161076e9061363e565b60148201516001600160a01b0381166108255760405162461bcd60e51b815260040161076e906136ee565b6108308682866116ce565b50505050505050565b60078054604080516020601f60026000196101006001881615020190951694909404938401819004810282018101909252828152606093909290918301828280156108c55780601f1061089a576101008083540402835291602001916108c5565b820191906000526020600020905b8154815290600101906020018083116108a857829003601f168201915b5050505050905090565b600a546001600160a01b031690565b600c5490565b600f5490565b60065460ff161561090d5760405162461bcd60e51b815260040161076e906135de565b600b546001600160a01b03166109216116ca565b6001600160a01b0316146109475760405162461bcd60e51b815260040161076e9061357e565b6001600160a01b03831661096d5760405162461bcd60e51b815260040161076e906135ce565b6001600160a01b0382166109935760405162461bcd60e51b815260040161076e906135ee565b80156109a4576109a4838383611777565b505050565b6109b461069d6116ca565b6109d05760405162461bcd60e51b815260040161076e9061365e565b60005b8151811015610a8e57600e60008383815181106109ec57fe5b602002602001015181526020019081526020016000205460001415610a235760405162461bcd60e51b815260040161076e9061356e565b600f54600e6000848481518110610a3657fe5b602002602001015181526020019081526020016000205410610a6a5760405162461bcd60e51b815260040161076e9061359e565b610a86828281518110610a7957fe5b6020026020010151611841565b6001016109d3565b5050565b610a9d61069d6116ca565b610ab95760405162461bcd60e51b815260040161076e9061365e565b60065460ff1615610adc5760405162461bcd60e51b815260040161076e906135de565b6000610ae7836116bc565b9050610af8818460000151846111c3565b610b145760405162461bcd60e51b815260040161076e906135ae565b600f548360a001511015610b3a5760405162461bcd60e51b815260040161076e9061366e565b60a08301516000828152600e6020908152604090912091909155835190840151610b649190611866565b600a54835160208501516080860151604080880151606089015191517fcb55417e0000000000000000000000000000000000000000000000000000000081526001600160a01b039096169563cb55417e95610bc8959094909390929160040161331c565b602060405180830381600087803b158015610be257600080fd5b505af1158015610bf6573d6000803e3d6000fd5b505050506040513d601f19601f82011682018060405250610c1a919081019061266b565b50505050565b60065460ff1615610c435760405162461bcd60e51b815260040161076e906135de565b600b54600160a01b900460ff16610c6c5760405162461bcd60e51b815260040161076e9061351e565b6001600160a01b038116610c925760405162461bcd60e51b815260040161076e906136ee565b600a60009054906101000a90046001600160a01b03166001600160a01b031663d0e30db0346040518263ffffffff1660e01b81526004016000604051808303818588803b158015610ce257600080fd5b505af1158015610cf6573d6000803e3d6000fd5b5050505050610d0d610d066116ca565b82346116ce565b50565b60095490565b610d216104286116ca565b610d3d5760405162461bcd60e51b815260040161076e9061352e565b60065460ff16610d5f5760405162461bcd60e51b815260040161076e906134fe565b6006805460ff191690557f5db9ee0a495bf2e6ff9c91a7834c1ba4fdd244a5e8aa4e537bd38aeae4b073aa610d926116ca565b604051610d9f91906132cb565b60405180910390a1565b6000610dbc60058363ffffffff61194816565b92915050565b60065460ff1615610de55760405162461bcd60e51b815260040161076e906135de565b6001600160a01b038216610e0b5760405162461bcd60e51b815260040161076e906136ee565b600a546001600160a01b03166323b872dd610e246116ca565b30846040518463ffffffff1660e01b8152600401610e44939291906132d9565b602060405180830381600087803b158015610e5e57600080fd5b505af1158015610e72573d6000803e3d6000fd5b505050506040513d601f19601f82011682018060405250610e96919081019061266b565b50610a8e610ea26116ca565b83836116ce565b610eb461069d6116ca565b610ed05760405162461bcd60e51b815260040161076e9061365e565b610ed8610d16565b565b610ed8610ee56116ca565b611990565b60065460ff1690565b610efe61069d6116ca565b610f1a5760405162461bcd60e51b815260040161076e9061365e565b610ed8611005565b610ed8610f2d6116ca565b6119d8565b6001600160a01b03166000908152600d602052604090205490565b610f5861069d6116ca565b610f745760405162461bcd60e51b815260040161076e9061365e565b610d0d81611a20565b6000610f8a61069d6116ca565b610fa65760405162461bcd60e51b815260040161076e9061365e565b506001600160a01b031660009081526002602052604090205490565b6000610dbc610fd083611a68565b611b3a565b610fe06104286116ca565b610ffc5760405162461bcd60e51b815260040161076e9061352e565b610d0d81611b7a565b6110106104286116ca565b61102c5760405162461bcd60e51b815260040161076e9061352e565b60065460ff161561104f5760405162461bcd60e51b815260040161076e906135de565b6006805460ff191660011790557f62e78cea01bee320cd4e420270b5ea74000d11b0c9f74754ebdbfc544b05a258610d926116ca565b600260006110916116ca565b6001600160a01b031681526020810191909152604001600020546110c75760405162461bcd60e51b815260040161076e9061369e565b6110ff600154600260006110d96116ca565b6001600160a01b031681526020810191909152604001600020549063ffffffff611bc216565b42101561111e5760405162461bcd60e51b815260040161076e906136ce565b600b54600160a01b900460ff16156111735761116e61113b6116ca565b82600d60006111486116ca565b6001600160a01b03166001600160a01b0316815260200190815260200160002054611be7565b6111b1565b6111b161117e6116ca565b82600d600061118b6116ca565b6001600160a01b03166001600160a01b0316815260200190815260200160002054611cf6565b610d0d6111bc6116ca565b6000611de1565b60006001600160a01b0383166111eb5760405162461bcd60e51b815260040161076e906135fe565b815160411461120c5760405162461bcd60e51b815260040161076e906134ee565b60008260408151811061121b57fe5b016020015160f81c9050601b81148061123757508060ff16601c145b6112535760405162461bcd60e51b815260040161076e9061368e565b6000611260846000611e38565b9050600061126f856020611e38565b905060018784848460405160008152602001604052604051611294949392919061348f565b6020604051602081039080840390855afa1580156112b6573d6000803e3d6000fd5b505050602060405103516001600160a01b0316866001600160a01b03161493505050505b9392505050565b6112ec61069d6116ca565b6113085760405162461bcd60e51b815260040161076e9061365e565b60065460ff161561132b5760405162461bcd60e51b815260040161076e906135de565b600061133683611688565b9050611347818460000151846111c3565b6113635760405162461bcd60e51b815260040161076e906135ae565b600f54836080015110156113895760405162461bcd60e51b815260040161076e9061366e565b60808301516000828152600e6020526040902055606083015115806113b75750600b54600160a01b900460ff165b6113d35760405162461bcd60e51b815260040161076e906136fe565b8260600151156113f9576113f4836000015184604001518560200151611be7565b6109a4565b6109a4836000015184604001518560200151611cf6565b60088054604080516020601f60026000196101006001881615020190951694909404938401819004810282018101909252828152606093909290918301828280156108c55780601f1061089a576101008083540402835291602001916108c5565b600061147e61069d6116ca565b61149a5760405162461bcd60e51b815260040161076e9061365e565b50600190815590565b60035481565b6114b461069d6116ca565b6114d05760405162461bcd60e51b815260040161076e9061365e565b600f5481116114f15760405162461bcd60e51b815260040161076e9061353e565b600f55565b600e6020526000908152604090205481565b61151361069d6116ca565b61152f5760405162461bcd60e51b815260040161076e9061365e565b60065460ff16156115525760405162461bcd60e51b815260040161076e906135de565b81516001600160a01b03166115795760405162461bcd60e51b815260040161076e906136de565b816040015151826020015151146115a25760405162461bcd60e51b815260040161076e906135be565b60006115ad83610fc2565b90506115be818460000151846111c3565b6115da5760405162461bcd60e51b815260040161076e9061354e565b600f54836060015110156116005760405162461bcd60e51b815260040161076e9061366e565b60608301516000828152600e60205260408120919091555b836040015151811015610c1a5761166284600001518560400151838151811061163d57fe5b60200260200101518660200151848151811061165557fe5b6020026020010151611777565b600101611618565b6000610dbc818363ffffffff61194816565b60015481565b60015490565b6000610dbc610fd083611e67565b610ed86116a16116ca565b42611de1565b600b546001600160a01b031690565b60045481565b6000610dbc610fd083611ed6565b3390565b6001600160a01b0382166116f45760405162461bcd60e51b815260040161076e906134de565b6001600160a01b03831630141561171d5760405162461bcd60e51b815260040161076e9061358e565b6117278282611f71565b816001600160a01b0316836001600160a01b03167f5548c837ab068cf56a2c2479df0882a4922fd203edb7517321831d95078c5f628360405161176a919061337d565b60405180910390a3505050565b6117ba816040518060600160405280602c81526020016138e8602c91396001600160a01b0386166000908152600d6020526040902054919063ffffffff61202516565b6001600160a01b038085166000908152600d602052604080822093909355908416815220546117ef908263ffffffff611bc216565b6001600160a01b038084166000818152600d602052604090819020939093559151908516907fddf252ad1be2c89b69c2b068fc378daa952ba7f163c4a11628f55a4df523b3ef9061176a90859061337d565b6000818152600e602052604090205415610d0d576000908152600e6020526040812055565b6001600160a01b03821661188c5760405162461bcd60e51b815260040161076e9061361e565b6118cf816040518060600160405280602181526020016138c7602191396001600160a01b0385166000908152600d6020526040902054919063ffffffff61202516565b6001600160a01b0383166000908152600d6020526040902055600c546118fb908263ffffffff61205116565b600c556040516000906001600160a01b038416907fddf252ad1be2c89b69c2b068fc378daa952ba7f163c4a11628f55a4df523b3ef9061193c90859061337d565b60405180910390a35050565b60006001600160a01b0382166119705760405162461bcd60e51b815260040161076e9061364e565b506001600160a01b03166000908152602091909152604090205460ff1690565b6119a160008263ffffffff61209316565b6040516001600160a01b038216907f0a8eb35e5ca14b3d6f28e4abf2f128dbab231a58b56e89beb5d636115001e16590600090a250565b6119e960058263ffffffff61209316565b6040516001600160a01b038216907fcd265ebaf09df2871cc7bd4133404a235ba12eff2041bb89d9c714a2621c7c7e90600090a250565b611a3160008263ffffffff6120db16565b6040516001600160a01b038216907f22380c05984257a1cb900161c713dd71d39e74820f1aea43bd3f1bdd2096129990600090a250565b600060405180608001604052806059815260200161386e60599139604051602001611a9391906132b1565b6040516020818303038152906040528051906020012082600001518360200151604051602001611ac391906132a5565b604051602081830303815290604052805190602001208460400151604051602001611aee9190613299565b604051602081830303815290604052805190602001208560600151604051602001611b1d95949392919061338b565b604051602081830303815290604052805190602001209050919050565b6004546040517f19010000000000000000000000000000000000000000000000000000000000008152600281019190915260228101919091526042902090565b611b8b60058263ffffffff6120db16565b6040516001600160a01b038216907f6719d08c1888103bea251a4ed56406bd0c3e69723c8a1686e017e7bbe159b6f890600090a250565b6000828201838110156112da5760405162461bcd60e51b815260040161076e9061355e565b611bf18382611866565b600a546040517f2e1a7d4d0000000000000000000000000000000000000000000000000000000081526001600160a01b0390911690632e1a7d4d90611c3a90849060040161337d565b600060405180830381600087803b158015611c5457600080fd5b505af1158015611c68573d6000803e3d6000fd5b50506040518492506001600160a01b038316915083156108fc029084906000818181858888f19350505050158015611ca4573d6000803e3d6000fd5b50826001600160a01b0316846001600160a01b03167f9b1bfa7fa9ee420a16e124f794c35ac9f90472acc99140eb2f6447c714cad8eb84604051611ce8919061337d565b60405180910390a350505050565b611d008382611866565b600a546040517fa9059cbb0000000000000000000000000000000000000000000000000000000081526001600160a01b039091169063a9059cbb90611d4b9085908590600401613301565b602060405180830381600087803b158015611d6557600080fd5b505af1158015611d79573d6000803e3d6000fd5b505050506040513d601f19601f82011682018060405250611d9d919081019061266b565b50816001600160a01b0316836001600160a01b03167f9b1bfa7fa9ee420a16e124f794c35ac9f90472acc99140eb2f6447c714cad8eb8360405161176a919061337d565b6001600160a01b03821660008181526002602052604090819020839055517f0ebe7b96b8d0566030cee68cd5153d3af3eb238d56092c9493a18e6d0b56836990611e2c90849061337d565b60405180910390a25050565b60008160200183511015611e5e5760405162461bcd60e51b815260040161076e9061362e565b50016020015190565b60006040518060800160405280605d8152602001613914605d9139604051602001611e9291906132b1565b6040516020818303038152906040528051906020012082600001518360200151846040015185606001518660800151604051602001611b1d969594939291906133cd565b60006040518060a001604052806072815260200161397160729139604051602001611f0191906132b1565b60405160208183030381529060405280519060200120826000015183602001518460400151604051602001611f3691906132b1565b60405160208183030381529060405280519060200120856060015186608001518760a00151604051602001611b1d9796959493929190613427565b6001600160a01b038216611f975760405162461bcd60e51b815260040161076e906136ae565b600c54611faa908263ffffffff611bc216565b600c556001600160a01b0382166000908152600d6020526040902054611fd6908263ffffffff611bc216565b6001600160a01b0383166000818152600d60205260408082209390935591519091907fddf252ad1be2c89b69c2b068fc378daa952ba7f163c4a11628f55a4df523b3ef9061193c90859061337d565b600081848411156120495760405162461bcd60e51b815260040161076e91906134cd565b505050900390565b60006112da83836040518060400160405280601e81526020017f536166654d6174683a207375627472616374696f6e206f766572666c6f770000815250612025565b61209d8282611948565b6120b95760405162461bcd60e51b815260040161076e9061360e565b6001600160a01b0316600090815260209190915260409020805460ff19169055565b6120e58282611948565b156121025760405162461bcd60e51b815260040161076e9061350e565b6001600160a01b0316600090815260209190915260409020805460ff19166001179055565b8035610dbc8161380e565b600082601f83011261214357600080fd5b813561215661215182613735565b61370e565b9150818183526020840193506020810190508385602084028201111561217b57600080fd5b60005b838110156121a757816121918882612127565b845250602092830192919091019060010161217e565b5050505092915050565b600082601f8301126121c257600080fd5b81356121d061215182613735565b915081818352602084019350602081019050838560208402820111156121f557600080fd5b60005b838110156121a7578161220b88826122a7565b84525060209283019291909101906001016121f8565b600082601f83011261223257600080fd5b813561224061215182613735565b9150818183526020840193506020810190508385602084028201111561226557600080fd5b60005b838110156121a7578161227b88826122a7565b8452506020928301929190910190600101612268565b8035610dbc81613822565b8051610dbc81613822565b8035610dbc8161382b565b600082601f8301126122c357600080fd5b81356122d161215182613756565b915080825260208301602083018583830111156122ed57600080fd5b6122f88382846137cc565b50505092915050565b60006080828403121561231357600080fd5b61231d608061370e565b9050600061232b8484612127565b825250602082013567ffffffffffffffff81111561234857600080fd5b61235484828501612221565b602083015250604082013567ffffffffffffffff81111561237457600080fd5b61238084828501612132565b6040830152506060612394848285016122a7565b60608301525092915050565b600060c082840312156123b257600080fd5b6123bc60c061370e565b905060006123ca8484612127565b82525060206123db848483016122a7565b602083015250604082013567ffffffffffffffff8111156123fb57600080fd5b612407848285016122b2565b604083015250606061241b84828501612127565b606083015250608061242f848285016122a7565b60808301525060a0612443848285016122a7565b60a08301525092915050565b600060a0828403121561246157600080fd5b61246b60a061370e565b905060006124798484612127565b825250602061248a848483016122a7565b602083015250604061249e84828501612127565b60408301525060606124b284828501612291565b60608301525060806124c6848285016122a7565b60808301525092915050565b6000602082840312156124e457600080fd5b60006124f08484612127565b949350505050565b60008060008060008060c0878903121561251157600080fd5b600061251d8989612127565b965050602061252e89828a01612127565b955050604061253f89828a01612127565b945050606061255089828a016122a7565b935050608087013567ffffffffffffffff81111561256d57600080fd5b61257989828a016122b2565b92505060a087013567ffffffffffffffff81111561259657600080fd5b6125a289828a016122b2565b9150509295509295509295565b6000806000606084860312156125c457600080fd5b60006125d08686612127565b93505060206125e186828701612127565b92505060406125f2868287016122a7565b9150509250925092565b6000806040838503121561260f57600080fd5b600061261b8585612127565b925050602061262c858286016122a7565b9150509250929050565b60006020828403121561264857600080fd5b813567ffffffffffffffff81111561265f57600080fd5b6124f0848285016121b1565b60006020828403121561267d57600080fd5b60006124f0848461229c565b60006020828403121561269b57600080fd5b60006124f084846122a7565b6000806000606084860312156126bc57600080fd5b60006126c886866122a7565b93505060206126d986828701612127565b925050604084013567ffffffffffffffff8111156126f657600080fd5b6125f2868287016122b2565b60006020828403121561271457600080fd5b813567ffffffffffffffff81111561272b57600080fd5b6124f084828501612301565b6000806040838503121561274a57600080fd5b823567ffffffffffffffff81111561276157600080fd5b61276d85828601612301565b925050602083013567ffffffffffffffff81111561278a57600080fd5b61262c858286016122b2565b6000602082840312156127a857600080fd5b813567ffffffffffffffff8111156127bf57600080fd5b6124f0848285016123a0565b600080604083850312156127de57600080fd5b823567ffffffffffffffff8111156127f557600080fd5b61276d858286016123a0565b600060a0828403121561281357600080fd5b60006124f0848461244f565b60008060c0838503121561283257600080fd5b600061283e858561244f565b92505060a083013567ffffffffffffffff81111561278a57600080fd5b6000612867838361288a565b505060200190565b60006128678383612943565b612884816137bb565b82525050565b61288481613796565b600061289e82613784565b6128a88185613788565b93506128b38361377e565b8060005b838110156128e15781516128cb888261285b565b97506128d68361377e565b9250506001016128b7565b509495945050505050565b60006128f782613784565b6129018185613788565b935061290c8361377e565b8060005b838110156128e1578151612924888261286f565b975061292f8361377e565b925050600101612910565b612884816137a1565b612884816137a6565b600061295782613784565b612961818561378d565b93506129718185602086016137d8565b61297a81613804565b9093019392505050565b600061298f82613784565b6129998185613788565b93506129a98185602086016137d8565b9290920192915050565b60006129c060218361378d565b7f4352434c3a206465706f73697420746f20746865207a65726f2061646472657381527f7300000000000000000000000000000000000000000000000000000000000000602082015260400192915050565b6000612a1f60198361378d565b7f57726f6e67206c656e677468206f66207369676e617475726500000000000000815260200192915050565b6000612a5860148361378d565b7f5061757361626c653a206e6f7420706175736564000000000000000000000000815260200192915050565b6000612a91601f8361378d565b7f526f6c65733a206163636f756e7420616c72656164792068617320726f6c6500815260200192915050565b6000612aca60178361378d565b7f4352434c3a204352434c2d434658207265717569726564000000000000000000815260200192915050565b6000612b0360308361378d565b7f506175736572526f6c653a2063616c6c657220646f6573206e6f74206861766581527f207468652050617573657220726f6c6500000000000000000000000000000000602082015260400192915050565b6000612b6260158361378d565b7f494e56414c49445f4e45575f54494d455354414d500000000000000000000000815260200192915050565b6000612b9b60208361378d565b7f4352434c3a20494e56414c49445f5452414e534645525f5349474e4154555245815260200192915050565b6000612bd4601b8361378d565b7f536166654d6174683a206164646974696f6e206f766572666c6f770000000000815260200192915050565b6000612c0d60178361378d565b7f494e56414c49445f46494e49534845445f535441545553000000000000000000815260200192915050565b6000612c4660178361378d565b7f4352434c3a20626f6f6d666c6f77207265717569726564000000000000000000815260200192915050565b6000612c7f60238361378d565b7f4352434c3a206465706f7369742066726f6d20746865204352434c206164647281526265737360e81b602082015260400192915050565b6000612cc460118361378d565b7f494e56414c49445f54494d455354414d50000000000000000000000000000000815260200192915050565b6000612cfd601a8361378d565b7f494e56414c49445f57495448445241575f5349474e4154555245000000000000815260200192915050565b6000612d36601c8361378d565b7f4352434c3a20616d6f756e74206c656e677468206d69736d6174636800000000815260200192915050565b6000612d6f60248361378d565b7f4352434c3a207472616e736665722066726f6d20746865207a65726f2061646481527f7265737300000000000000000000000000000000000000000000000000000000602082015260400192915050565b6000612dce60108361378d565b7f5061757361626c653a2070617573656400000000000000000000000000000000815260200192915050565b6000612e0760228361378d565b7f4352434c3a207472616e7366657220746f20746865207a65726f206164647265815261737360f01b602082015260400192915050565b6000612e4b60148361378d565b7f57726f6e67207369676e65722061646472657373000000000000000000000000815260200192915050565b6000612e8460218361378d565b7f526f6c65733a206163636f756e7420646f6573206e6f74206861766520726f6c81527f6500000000000000000000000000000000000000000000000000000000000000602082015260400192915050565b6000612ee360208361378d565b7f4352434c3a206275726e2066726f6d20746865207a65726f2061646472657373815260200192915050565b6000612f1c600c8361378d565b7f57726f6e67206c656e6774680000000000000000000000000000000000000000815260200192915050565b6000612f5560238361378d565b7f4352434c3a2075736572446174612073686f756c6420626520616e206164647281526265737360e81b602082015260400192915050565b6000612f9a60228361378d565b7f526f6c65733a206163636f756e7420697320746865207a65726f206164647265815261737360f01b602082015260400192915050565b6000612fde60408361378d565b7f57686974656c69737441646d696e526f6c653a2063616c6c657220646f65732081527f6e6f742068617665207468652057686974656c69737441646d696e20726f6c65602082015260400192915050565b600061303d60158361378d565b7f4352434c3a207265717565737420657870697265640000000000000000000000815260200192915050565b600061307660198361378d565b7f4352434c3a206465706f736974206e6f7420746f204352434c00000000000000815260200192915050565b60006130af60078361378d565b7f57726f6e67205600000000000000000000000000000000000000000000000000815260200192915050565b60006130e8601c8361378d565b7f464f5243455f57495448445241575f4e4f545f52455155455354454400000000815260200192915050565b6000613121601e8361378d565b7f4352434c3a206d696e7420746f20746865207a65726f20616464726573730000815260200192915050565b600061315a601c8361378d565b7f4352434c3a206465706f736974206e6f7420617574686f72697a656400000000815260200192915050565b600061319360148361378d565b7f54494d455f4c4f434b5f494e434f4d504c455445000000000000000000000000815260200192915050565b60006131cc601f8361378d565b7f4352434c3a207472616e7366657220666f72207a65726f206164647265737300815260200192915050565b6000613205601d8361378d565b7f4352434c3a206465706f73697420746f207a65726f2061646472657373000000815260200192915050565b600061323e60248361378d565b7f4352434c3a2073686f756c642063616c6c20776974686472617743726f73734381527f6861696e00000000000000000000000000000000000000000000000000000000602082015260400192915050565b612884816137b5565b60006112da8284612893565b60006112da82846128ec565b60006112da8284612984565b60208101610dbc828461288a565b60208101610dbc828461287b565b606081016132e7828661287b565b6132f4602083018561288a565b6124f06040830184612943565b6040810161330f828561288a565b6112da6020830184612943565b60a0810161332a828861288a565b6133376020830187612943565b6133446040830186612943565b8181036060830152613356818561294c565b9050613365608083018461288a565b9695505050505050565b60208101610dbc828461293a565b60208101610dbc8284612943565b60a081016133998288612943565b6133a6602083018761288a565b6133b36040830186612943565b6133c06060830185612943565b6133656080830184612943565b60c081016133db8289612943565b6133e8602083018861288a565b6133f56040830187612943565b613402606083018661288a565b61340f608083018561293a565b61341c60a0830184612943565b979650505050505050565b60e08101613435828a612943565b613442602083018961288a565b61344f6040830188612943565b61345c6060830187612943565b613469608083018661288a565b61347660a0830185612943565b61348360c0830184612943565b98975050505050505050565b6080810161349d8287612943565b6134aa6020830186613290565b6134b76040830185612943565b6134c46060830184612943565b95945050505050565b602080825281016112da818461294c565b60208082528101610dbc816129b3565b60208082528101610dbc81612a12565b60208082528101610dbc81612a4b565b60208082528101610dbc81612a84565b60208082528101610dbc81612abd565b60208082528101610dbc81612af6565b60208082528101610dbc81612b55565b60208082528101610dbc81612b8e565b60208082528101610dbc81612bc7565b60208082528101610dbc81612c00565b60208082528101610dbc81612c39565b60208082528101610dbc81612c72565b60208082528101610dbc81612cb7565b60208082528101610dbc81612cf0565b60208082528101610dbc81612d29565b60208082528101610dbc81612d62565b60208082528101610dbc81612dc1565b60208082528101610dbc81612dfa565b60208082528101610dbc81612e3e565b60208082528101610dbc81612e77565b60208082528101610dbc81612ed6565b60208082528101610dbc81612f0f565b60208082528101610dbc81612f48565b60208082528101610dbc81612f8d565b60208082528101610dbc81612fd1565b60208082528101610dbc81613030565b60208082528101610dbc81613069565b60208082528101610dbc816130a2565b60208082528101610dbc816130db565b60208082528101610dbc81613114565b60208082528101610dbc8161314d565b60208082528101610dbc81613186565b60208082528101610dbc816131bf565b60208082528101610dbc816131f8565b60208082528101610dbc81613231565b60405181810167ffffffffffffffff8111828210171561372d57600080fd5b604052919050565b600067ffffffffffffffff82111561374c57600080fd5b5060209081020190565b600067ffffffffffffffff82111561376d57600080fd5b506020601f91909101601f19160190565b60200190565b5190565b919050565b90815260200190565b6000610dbc826137a9565b151590565b90565b6001600160a01b031690565b60ff1690565b6000610dbc826000610dbc82613796565b82818337506000910152565b60005b838110156137f35781810151838201526020016137db565b83811115610c1a5750506000910152565b601f01601f191690565b61381781613796565b8114610d0d57600080fd5b613817816137a1565b613817816137a6565b6000813f7fc5d2460186f7233c927e7db2dcc703c0e500b653ca82273b7bfad8045d85a4708181148015906124f057505015159291505056fe5472616e736665725265717565737428616464726573732075736572416464726573732c75696e743235365b5d20616d6f756e74732c616464726573735b5d20726563697069656e74732c75696e74323536206e6f6e6365294352434c3a206275726e20616d6f756e7420657863656564732062616c616e63654352434c3a207472616e7366657220616d6f756e742065786365656473206c6f636b65642062616c616e636557697468647261775265717565737428616464726573732075736572416464726573732c75696e7432353620616d6f756e742c6164647265737320726563697069656e742c626f6f6c206275726e2c75696e74323536206e6f6e63652957697468647261775265717565737428616464726573732075736572416464726573732c75696e7432353620616d6f756e742c737472696e6720726563697069656e742c61646472657373206465666952656c617965722c75696e74323536206665652c75696e74323536206e6f6e636529a365627a7a7231582055e9cd2c50fb9610f7913e1d4384e13f18ca14f0c53edbecc1587bf00d3d471c6c6578706572696d656e74616cf564736f6c63430005100040",
  "source": "pragma solidity 0.5.16;\npragma experimental ABIEncoderV2;\n\nimport \"@openzeppelin/contracts/access/roles/WhitelistAdminRole.sol\";\nimport \"@openzeppelin/contracts/token/ERC20/IERC20.sol\";\nimport \"@openzeppelin/contracts/token/ERC777/IERC777Recipient.sol\";\nimport \"@openzeppelin/contracts/lifecycle/Pausable.sol\";\n\nimport \"./ICRCL.sol\";\nimport \"./TimeLock.sol\";\nimport \"../ERC777/IWrappedCfx.sol\";\nimport \"../ERC777/ITokenBase.sol\";\nimport \"./libs/CRCLRequest.sol\";\nimport \"../boomflow/libs/LibSignatureValidator.sol\";\nimport \"../ERC1820Context.sol\";\n\ncontract CRCL is ICRCL, WhitelistAdminRole, TimeLock, IERC777Recipient, LibSignatureValidator, CRCLRequest, Pausable, ERC1820Context {\n    using SafeMath for uint256;\n\n    string _name;\n    string _symbol;\n    uint256 _decimals;\n\n    address _tokenAddr;\n    address _boomflow;\n\n    bool _isCFX;\n\n    uint256 private _totalSupply;\n    mapping (address => uint256) private _balances;\n\n    // Mapping of requestHash => timestamp; request hash only shows\n    // up if it is completed\n    mapping (bytes32 => uint256) public timestamps;\n\n    // Current min timestamp for valid requests\n    uint256 private _timestamp;\n\n    constructor (string memory name, string memory symbol, uint8 decimals, address tokenAddr, address boomflow, uint256 deferTime, bool isCFX)\n        TimeLock(deferTime) public {\n        _name = name;\n        _symbol = symbol;\n        _decimals = decimals;\n        _tokenAddr = tokenAddr;\n        _boomflow = boomflow;\n        _isCFX = isCFX;\n\n        ERC1820_REGISTRY.setInterfaceImplementer(address(this), keccak256(\"ERC777TokensRecipient\"), address(this));\n    }\n\n    // -------------------- Getters --------------------\n\n    function name() public view returns (string memory) {\n        return _name;\n    }\n\n    function symbol() public view returns (string memory) {\n        return _symbol;\n    }\n\n    function decimals() public view returns (uint256) {\n        return _decimals;\n    }\n\n    function totalSupply() public view returns (uint256) {\n        return _totalSupply;\n    }\n\n    function balanceOf(address account) public view returns (uint256) {\n        return _balances[account];\n    }\n\n    function getTokenAddress() public view returns (address) {\n        return _tokenAddr;\n    }\n\n    function getBoomflow() public view returns (address) {\n        return _boomflow;\n    }\n\n    //----------------- Storage Optimization ---------------\n    function getTimestamp() public view returns (uint256) {\n        return _timestamp;\n    }\n\n    function setTimestamp(uint256 newTimestamp)\n        public\n        onlyWhitelistAdmin\n    {\n        require(newTimestamp > _timestamp, \"INVALID_NEW_TIMESTAMP\");\n        _timestamp = newTimestamp;\n    }\n\n    function removeObsoleteData(bytes32[] memory hashes)\n        public\n        onlyWhitelistAdmin\n    {\n        for (uint i = 0; i < hashes.length; i++) {\n            // Request hash is finished\n            require(timestamps[hashes[i]] != 0, \"INVALID_FINISHED_STATUS\");\n\n            // Request timestamp is lower than current timestamp\n            require(timestamps[hashes[i]] < _timestamp, \"INVALID_TIMESTAMP\");\n\n            // Remove requst data\n            removeData(hashes[i]);\n        }\n    }\n\n    function removeData(bytes32 requestHash) internal {\n        if (timestamps[requestHash] != 0) delete timestamps[requestHash];\n    }\n    //----------------- End Storage Optimization -----------\n\n    /**\n     * Transfer the amount of token from sender to recipient.\n     * Only `boomflow` contract have the access permission.\n     * Emits an {Transfer} event indicating the amount transferred.\n     *\n     * Requirements:\n     * - `msg.sender` must be the `boomflow` contract.\n     * - `sender` and `recipient` cannot be the zero address.\n     * - `sender` must have a balance of at least `amount`.\n     */\n    function transferFrom(address sender, address recipient, uint256 amount) public whenNotPaused {\n        require(_msgSender() == _boomflow, \"CRCL: boomflow required\");\n        require(sender != address(0), \"CRCL: transfer from the zero address\");\n        require(recipient != address(0), \"CRCL: transfer to the zero address\");\n\n        if (amount > 0) {\n            _transfer(sender, recipient, amount);\n        }\n    }\n\n    /**\n     * Transfer tokens from one sender to a list of recipients according to a list of amounts.\n     * Only WhitelistAdmin have the access permission.\n     * Emits an {Transfer} event indicating the amount transferred.\n     *\n     * Requirements:\n     * - `request.userAddress` cannot be zero address.\n     * - `request.amounts` and `request.recipients` must have the same length.\n     */\n    function transferFor(TransferRequest memory request, bytes memory signature) public onlyWhitelistAdmin whenNotPaused {\n        require(request.userAddress != address(0), \"CRCL: transfer for zero address\");\n        require(request.amounts.length == request.recipients.length, \"CRCL: amount length mismatch\");\n\n        bytes32 requestHash = getTransferRequestHash(request);\n        require(isValidSignature(requestHash, request.userAddress,signature), \"CRCL: INVALID_TRANSFER_SIGNATURE\");\n\n        // Validate timestamp\n        require(request.nonce >= _timestamp, \"CRCL: request expired\");\n        timestamps[requestHash] = request.nonce;\n\n        for (uint i = 0; i < request.recipients.length; i++) {\n            _transfer(request.userAddress, request.recipients[i], request.amounts[i]);\n        }\n    }\n\n    // Implement ERC777Recipient interface for users to deposit.\n    function tokensReceived(\n        address,\n        address from,\n        address to,\n        uint256 amount,\n        bytes memory userData,\n        bytes memory\n    )\n        public\n        whenNotPaused\n    {\n        require(_msgSender() == _tokenAddr, \"CRCL: deposit not authorized\");\n        require(to == address(this), \"CRCL: deposit not to CRCL\");\n\n        // Recover the recipient address\n        require(userData.length == 20, \"CRCL: userData should be an address\");\n        address addr = address(0);\n        assembly {\n            addr := mload(add(userData, 20))\n        }\n\n        require(addr != address(0), \"CRCL: deposit to zero address\");\n        _deposit(from, addr, amount);\n    }\n\n    function deposit(address to, uint256 amount) public whenNotPaused {\n        require(to != address(0), \"CRCL: deposit to zero address\");\n        IERC20(_tokenAddr).transferFrom(_msgSender(), address(this), amount);\n        _deposit(_msgSender(), to, amount);\n    }\n\n    function depositCFX(address to) public payable whenNotPaused {\n        require(_isCFX, \"CRCL: CRCL-CFX required\");\n        require(to != address(0), \"CRCL: deposit to zero address\");\n        IWrappedCfx(_tokenAddr).deposit.value(msg.value)();\n        _deposit(_msgSender(), to, msg.value);\n    }\n\n    /**\n     * Withdraw the amount of token from sender's CRCL to recipient's ERC777 asset.\n     * Only WhitelistAdmin (DEX) have the access permission.\n     * The function will atomically perform the following operations:\n     *\n     *      1. Validate the user signature\n     *      2. Burn `request.amount` of CRCL token from `request.userAddress`\n     *      3. Transfer equal amount of ERC777 token from the contract address to `request.recipient`\n     *\n     * The ERC777 token emits a {Transfer} event indicating the amount transferred.\n     * The CRCL token emits a {Withdraw} event indicating the amount withdrawn.\n     *\n     * Requirements:\n     * - The request hash has to be unique.\n     */\n    function withdraw(WithdrawRequest memory request, bytes memory signature) public onlyWhitelistAdmin whenNotPaused {\n        // Validate the user signature\n        bytes32 requestHash = getRequestHash(request);\n        require(isValidSignature(requestHash,request.userAddress,signature), \"INVALID_WITHDRAW_SIGNATURE\");\n\n        // Validate timestamp\n        require(request.nonce >= _timestamp, \"CRCL: request expired\");\n        timestamps[requestHash] = request.nonce;\n\n        // unless for DEX-CFX in which case isCrosschain == true will\n        // withdraw directly to CFX instead of WCFX.\n        require(!request.burn || _isCFX, \"CRCL: should call withdrawCrossChain\");\n\n        // Special handling to withdraw WCFX => CFX\n        if (request.burn) {\n            _withdrawCFX(request.userAddress, request.recipient, request.amount);\n        } else {\n            _withdraw(request.userAddress, request.recipient, request.amount);\n        }\n    }\n\n    /**\n     * Withdraw the amount of token from sender's CRCL to recipient's crosschain asset.\n     * Only WhitelistAdmin (DEX) have the access permission.\n     * The function will atomically perform the following operations:\n     *\n     *      1. Validate the user signature\n     *      2. Burn `request.amount` of CRCL token from `request.userAddress`\n     *      3. Burn equal amount of ERC777 token from the contract address\n     *\n     * Note that For the full-fledged crosschain withdraw, we are depending\n     * on Custodian counterparts to perform the actual crosschain operations\n     *\n     * The ERC777 token emits a {Burned} event indicating the amount withdrawn.\n     * The CRCL token emits a {Transfer} to null address event indicating the amount withdrawn.\n     *\n     * Requirements:\n     * - The request hash has to be unique.\n     */\n    function withdrawCrossChain(WithdrawCrossChainRequest memory request, bytes memory signature) public onlyWhitelistAdmin whenNotPaused {\n        // Validate the user signature\n        bytes32 requestHash = getWithdrawCrossChainRequestHash(request);\n        require(isValidSignature(requestHash,request.userAddress,signature), \"INVALID_WITHDRAW_SIGNATURE\");\n\n        // Validate timestamp\n        require(request.nonce >= _timestamp, \"CRCL: request expired\");\n        timestamps[requestHash] = request.nonce;\n\n        // Burn the `request.amount` of CRCL from the `request.userAddress`\n        _burn(request.userAddress, request.amount);\n\n        // Burn the `request.amount` of ERC777 from the current CRCL address\n        ITokenBase(_tokenAddr).burn(request.userAddress, request.amount, request.fee, request.recipient, request.defiRelayer);\n    }\n\n    /**\n     * Request for a force withdraw of all sender's CRCL token.\n     * The function acknowledges the request and records the request time.\n     *\n     * Emits a {ScheduleWithdraw} event indicating the withdraw has been scheduled.\n     */\n    function requestForceWithdraw() public {\n        setScheduleTime(_msgSender(), block.timestamp);\n    }\n\n    /**\n     * Force withdraw all msg.sender's CRCL token to recipient's ERC20 token.\n     * The function acknowledges the request and records the request time.\n     *\n     * Emits a {Withdraw} event indicating the amount withdrawn.\n     */\n    function forceWithdraw(address recipient) public withdrawRequested pastTimeLock {\n        if (_isCFX) {\n            _withdrawCFX(_msgSender(), recipient, _balances[_msgSender()]);\n        } else {\n            _withdraw(_msgSender(), recipient, _balances[_msgSender()]);\n        }\n\n        setScheduleTime(_msgSender(), 0);\n    }\n\n    /**\n     * Pause the majority of functionalities of CRCL.\n     * Only WhitelistAdmin (DEX) have the access permission.\n     *\n     * Note that `requestForceWithdraw` and `forceWithdraw` is not subject to pause\n     */\n    function Pause() public onlyWhitelistAdmin {\n        pause();\n    }\n\n    /**\n     * Resume all paused functionalities of Boomflow.\n     * Only WhitelistAdmin (DEX) have the access permission.\n     */\n    function Resume() public onlyWhitelistAdmin {\n        unpause();\n    }\n\n    //Helper Functions\n    function _transfer(address sender, address recipient, uint256 amount) internal {\n        _balances[sender] = _balances[sender].sub(amount, \"CRCL: transfer amount exceeds locked balance\");\n        _balances[recipient] = _balances[recipient].add(amount);\n        emit Transfer(sender, recipient, amount);\n    }\n\n    function _mint(address account, uint256 amount) internal {\n        require(account != address(0), \"CRCL: mint to the zero address\");\n        _totalSupply = _totalSupply.add(amount);\n        _balances[account] = _balances[account].add(amount);\n        emit Transfer(address(0), account, amount);\n    }\n\n    function _burn(address account, uint256 amount) internal {\n        require(account != address(0), \"CRCL: burn from the zero address\");\n\n        _balances[account] = _balances[account].sub(amount, \"CRCL: burn amount exceeds balance\");\n        _totalSupply = _totalSupply.sub(amount);\n        emit Transfer(account, address(0), amount);\n    }\n\n    function _deposit(address sender, address recipient, uint256 amount) internal {\n        require(recipient != address(0), \"CRCL: deposit to the zero address\");\n        require(sender != address(this), \"CRCL: deposit from the CRCL address\");\n\n        _mint(recipient, amount);\n\n        emit Deposit(sender, recipient, amount);\n    }\n\n    function _withdraw(address sender, address recipient, uint256 amount) internal {\n        _burn(sender, amount);\n        IERC20(_tokenAddr).transfer(recipient, amount);\n        emit Withdraw(sender, recipient, amount);\n    }\n\n    function _withdrawCFX(address sender, address recipient, uint256 amount) internal {\n        _burn(sender, amount);\n        IWrappedCfx(_tokenAddr).withdraw(amount);\n        address payable to = address(uint160(address(recipient)));\n        to.transfer(amount);\n        emit Withdraw(sender, recipient, amount);\n    }\n\n    function _min(uint256 value1, uint256 value2) internal pure returns (uint256) {\n        if (value1 > value2) {\n            return value2;\n        }\n        return value1;\n    }\n}\n",
  "sourcePath": "/Users/kang/work/nft-dex/boomflow-contract/contracts/crc-l/CRCL.sol",
  "compiler": {
    "name": "solc",
    "version": "0.5.16+commit.9c3226ce.Emscripten.clang"
  },
  "schemaVersion": "3.0.23",
  "updatedAt": "2023-07-24T08:41:35.917Z",
  "devdoc": {
    "methods": {
      "getRequestHash((address,uint256,address,bool,uint256))": {
        "details": "Calculates Keccak-256 hash of the withdraw request.",
        "params": {
          "request": "The request structure."
        },
        "return": "Keccak-256 EIP712 hash of the withdraw request."
      },
      "getTransferRequestHash((address,uint256[],address[],uint256))": {
        "details": "Calculates Keccak-256 hash of the transfer request.",
        "params": {
          "request": "The request structure."
        },
        "return": "Keccak-256 EIP712 hash of the transfer request."
      },
      "getWithdrawCrossChainRequestHash((address,uint256,string,address,uint256,uint256))": {
        "details": "Calculates Keccak-256 hash of the crosschain withdraw request.",
        "params": {
          "request": "The request structure."
        },
        "return": "Keccak-256 EIP712 hash of the crosschain withdraw request."
      },
      "pause()": {
        "details": "Called by a pauser to pause, triggers stopped state."
      },
      "paused()": {
        "details": "Returns true if the contract is paused, and false otherwise."
      },
      "unpause()": {
        "details": "Called by a pauser to unpause, returns to normal state."
      }
    }
  },
  "userdoc": {
    "methods": {
      "Pause()": {
        "notice": "Pause the majority of functionalities of CRCL. Only WhitelistAdmin (DEX) have the access permission.     * Note that `requestForceWithdraw` and `forceWithdraw` is not subject to pause"
      },
      "Resume()": {
        "notice": "Resume all paused functionalities of Boomflow. Only WhitelistAdmin (DEX) have the access permission."
      },
      "forceWithdraw(address)": {
        "notice": "Force withdraw all msg.sender's CRCL token to recipient's ERC20 token. The function acknowledges the request and records the request time.     * Emits a {Withdraw} event indicating the amount withdrawn."
      },
      "requestForceWithdraw()": {
        "notice": "Request for a force withdraw of all sender's CRCL token. The function acknowledges the request and records the request time.     * Emits a {ScheduleWithdraw} event indicating the withdraw has been scheduled."
      },
      "transferFor((address,uint256[],address[],uint256),bytes)": {
        "notice": "Transfer tokens from one sender to a list of recipients according to a list of amounts. Only WhitelistAdmin have the access permission. Emits an {Transfer} event indicating the amount transferred.     * Requirements: - `request.userAddress` cannot be zero address. - `request.amounts` and `request.recipients` must have the same length."
      },
      "transferFrom(address,address,uint256)": {
        "notice": "Transfer the amount of token from sender to recipient. Only `boomflow` contract have the access permission. Emits an {Transfer} event indicating the amount transferred.     * Requirements: - `msg.sender` must be the `boomflow` contract. - `sender` and `recipient` cannot be the zero address. - `sender` must have a balance of at least `amount`."
      },
      "withdraw((address,uint256,address,bool,uint256),bytes)": {
        "notice": "Withdraw the amount of token from sender's CRCL to recipient's ERC777 asset. Only WhitelistAdmin (DEX) have the access permission. The function will atomically perform the following operations:     *      1. Validate the user signature     2. Burn `request.amount` of CRCL token from `request.userAddress`     3. Transfer equal amount of ERC777 token from the contract address to `request.recipient`     * The ERC777 token emits a {Transfer} event indicating the amount transferred. The CRCL token emits a {Withdraw} event indicating the amount withdrawn.     * Requirements: - The request hash has to be unique."
      },
      "withdrawCrossChain((address,uint256,string,address,uint256,uint256),bytes)": {
        "notice": "Withdraw the amount of token from sender's CRCL to recipient's crosschain asset. Only WhitelistAdmin (DEX) have the access permission. The function will atomically perform the following operations:     *      1. Validate the user signature     2. Burn `request.amount` of CRCL token from `request.userAddress`     3. Burn equal amount of ERC777 token from the contract address     * Note that For the full-fledged crosschain withdraw, we are depending on Custodian counterparts to perform the actual crosschain operations     * The ERC777 token emits a {Burned} event indicating the amount withdrawn. The CRCL token emits a {Transfer} to null address event indicating the amount withdrawn.     * Requirements: - The request hash has to be unique."
      }
    }
  }
}