{
  "contractName": "CRCL",
  "abi": [
    {
      "inputs": [
        {
          "internalType": "string",
          "name": "name",
          "type": "string"
        },
        {
          "internalType": "string",
          "name": "symbol",
          "type": "string"
        },
        {
          "internalType": "uint8",
          "name": "decimals",
          "type": "uint8"
        },
        {
          "internalType": "address",
          "name": "tokenAddr",
          "type": "address"
        },
        {
          "internalType": "uint256",
          "name": "deferTime",
          "type": "uint256"
        },
        {
          "internalType": "bool",
          "name": "isCFX",
          "type": "bool"
        }
      ],
      "payable": false,
      "stateMutability": "nonpayable",
      "type": "constructor"
    },
    {
      "anonymous": false,
      "inputs": [
        {
          "indexed": true,
          "internalType": "address",
          "name": "sender",
          "type": "address"
        },
        {
          "indexed": true,
          "internalType": "address",
          "name": "recipient",
          "type": "address"
        },
        {
          "indexed": false,
          "internalType": "uint256",
          "name": "value",
          "type": "uint256"
        }
      ],
      "name": "Deposit",
      "type": "event"
    },
    {
      "anonymous": false,
      "inputs": [
        {
          "indexed": false,
          "internalType": "address",
          "name": "account",
          "type": "address"
        }
      ],
      "name": "Paused",
      "type": "event"
    },
    {
      "anonymous": false,
      "inputs": [
        {
          "indexed": true,
          "internalType": "address",
          "name": "account",
          "type": "address"
        }
      ],
      "name": "PauserAdded",
      "type": "event"
    },
    {
      "anonymous": false,
      "inputs": [
        {
          "indexed": true,
          "internalType": "address",
          "name": "account",
          "type": "address"
        }
      ],
      "name": "PauserRemoved",
      "type": "event"
    },
    {
      "anonymous": false,
      "inputs": [
        {
          "indexed": true,
          "internalType": "address",
          "name": "sender",
          "type": "address"
        },
        {
          "indexed": false,
          "internalType": "uint256",
          "name": "time",
          "type": "uint256"
        }
      ],
      "name": "ScheduleWithdraw",
      "type": "event"
    },
    {
      "anonymous": false,
      "inputs": [
        {
          "indexed": true,
          "internalType": "address",
          "name": "sender",
          "type": "address"
        },
        {
          "indexed": true,
          "internalType": "address",
          "name": "recipient",
          "type": "address"
        },
        {
          "indexed": false,
          "internalType": "uint256",
          "name": "value",
          "type": "uint256"
        }
      ],
      "name": "Transfer",
      "type": "event"
    },
    {
      "anonymous": false,
      "inputs": [
        {
          "indexed": false,
          "internalType": "address",
          "name": "account",
          "type": "address"
        }
      ],
      "name": "Unpaused",
      "type": "event"
    },
    {
      "anonymous": false,
      "inputs": [
        {
          "indexed": true,
          "internalType": "address",
          "name": "account",
          "type": "address"
        }
      ],
      "name": "WhitelistAdminAdded",
      "type": "event"
    },
    {
      "anonymous": false,
      "inputs": [
        {
          "indexed": true,
          "internalType": "address",
          "name": "account",
          "type": "address"
        }
      ],
      "name": "WhitelistAdminRemoved",
      "type": "event"
    },
    {
      "anonymous": false,
      "inputs": [
        {
          "indexed": true,
          "internalType": "address",
          "name": "account",
          "type": "address"
        }
      ],
      "name": "WhitelistedAdded",
      "type": "event"
    },
    {
      "anonymous": false,
      "inputs": [
        {
          "indexed": true,
          "internalType": "address",
          "name": "account",
          "type": "address"
        }
      ],
      "name": "WhitelistedRemoved",
      "type": "event"
    },
    {
      "anonymous": false,
      "inputs": [
        {
          "indexed": true,
          "internalType": "address",
          "name": "sender",
          "type": "address"
        },
        {
          "indexed": true,
          "internalType": "address",
          "name": "recipient",
          "type": "address"
        },
        {
          "indexed": false,
          "internalType": "uint256",
          "name": "value",
          "type": "uint256"
        }
      ],
      "name": "Withdraw",
      "type": "event"
    },
    {
      "anonymous": false,
      "inputs": [
        {
          "indexed": true,
          "internalType": "address",
          "name": "account",
          "type": "address"
        },
        {
          "indexed": false,
          "internalType": "uint256",
          "name": "balance",
          "type": "uint256"
        }
      ],
      "name": "Write",
      "type": "event"
    },
    {
      "constant": true,
      "inputs": [],
      "name": "EIP712_DOMAIN_HASH",
      "outputs": [
        {
          "internalType": "bytes32",
          "name": "",
          "type": "bytes32"
        }
      ],
      "payable": false,
      "stateMutability": "view",
      "type": "function"
    },
    {
      "constant": true,
      "inputs": [],
      "name": "_deferTime",
      "outputs": [
        {
          "internalType": "uint256",
          "name": "",
          "type": "uint256"
        }
      ],
      "payable": false,
      "stateMutability": "view",
      "type": "function"
    },
    {
      "constant": false,
      "inputs": [
        {
          "internalType": "address",
          "name": "account",
          "type": "address"
        }
      ],
      "name": "addPauser",
      "outputs": [],
      "payable": false,
      "stateMutability": "nonpayable",
      "type": "function"
    },
    {
      "constant": false,
      "inputs": [
        {
          "internalType": "address",
          "name": "account",
          "type": "address"
        }
      ],
      "name": "addWhitelistAdmin",
      "outputs": [],
      "payable": false,
      "stateMutability": "nonpayable",
      "type": "function"
    },
    {
      "constant": false,
      "inputs": [
        {
          "internalType": "address",
          "name": "account",
          "type": "address"
        }
      ],
      "name": "addWhitelisted",
      "outputs": [],
      "payable": false,
      "stateMutability": "nonpayable",
      "type": "function"
    },
    {
      "constant": true,
      "inputs": [],
      "name": "chainId",
      "outputs": [
        {
          "internalType": "uint256",
          "name": "",
          "type": "uint256"
        }
      ],
      "payable": false,
      "stateMutability": "view",
      "type": "function"
    },
    {
      "constant": true,
      "inputs": [],
      "name": "deferTime",
      "outputs": [
        {
          "internalType": "uint256",
          "name": "",
          "type": "uint256"
        }
      ],
      "payable": false,
      "stateMutability": "view",
      "type": "function"
    },
    {
      "constant": true,
      "inputs": [
        {
          "internalType": "address",
          "name": "account",
          "type": "address"
        }
      ],
      "name": "getDeferTime",
      "outputs": [
        {
          "internalType": "uint256",
          "name": "",
          "type": "uint256"
        }
      ],
      "payable": false,
      "stateMutability": "view",
      "type": "function"
    },
    {
      "constant": true,
      "inputs": [
        {
          "components": [
            {
              "internalType": "address",
              "name": "userAddress",
              "type": "address"
            },
            {
              "internalType": "uint256",
              "name": "amount",
              "type": "uint256"
            },
            {
              "internalType": "address",
              "name": "recipient",
              "type": "address"
            },
            {
              "internalType": "bool",
              "name": "burn",
              "type": "bool"
            },
            {
              "internalType": "uint256",
              "name": "nonce",
              "type": "uint256"
            }
          ],
          "internalType": "struct LibRequest.WithdrawRequest",
          "name": "request",
          "type": "tuple"
        }
      ],
      "name": "getRequestHash",
      "outputs": [
        {
          "internalType": "bytes32",
          "name": "requestHash",
          "type": "bytes32"
        }
      ],
      "payable": false,
      "stateMutability": "view",
      "type": "function"
    },
    {
      "constant": true,
      "inputs": [
        {
          "components": [
            {
              "internalType": "address",
              "name": "userAddress",
              "type": "address"
            },
            {
              "internalType": "uint256[]",
              "name": "amounts",
              "type": "uint256[]"
            },
            {
              "internalType": "address[]",
              "name": "recipients",
              "type": "address[]"
            },
            {
              "internalType": "uint256",
              "name": "nonce",
              "type": "uint256"
            }
          ],
          "internalType": "struct LibRequest.TransferRequest",
          "name": "request",
          "type": "tuple"
        }
      ],
      "name": "getTransferRequestHash",
      "outputs": [
        {
          "internalType": "bytes32",
          "name": "requestHash",
          "type": "bytes32"
        }
      ],
      "payable": false,
      "stateMutability": "view",
      "type": "function"
    },
    {
      "constant": true,
      "inputs": [
        {
          "components": [
            {
              "internalType": "address",
              "name": "userAddress",
              "type": "address"
            },
            {
              "internalType": "uint256",
              "name": "amount",
              "type": "uint256"
            },
            {
              "internalType": "string",
              "name": "recipient",
              "type": "string"
            },
            {
              "internalType": "address",
              "name": "defiRelayer",
              "type": "address"
            },
            {
              "internalType": "uint256",
              "name": "fee",
              "type": "uint256"
            },
            {
              "internalType": "uint256",
              "name": "nonce",
              "type": "uint256"
            }
          ],
          "internalType": "struct LibRequest.WithdrawCrossChainRequest",
          "name": "request",
          "type": "tuple"
        }
      ],
      "name": "getWithdrawCrossChainRequestHash",
      "outputs": [
        {
          "internalType": "bytes32",
          "name": "requestHash",
          "type": "bytes32"
        }
      ],
      "payable": false,
      "stateMutability": "view",
      "type": "function"
    },
    {
      "constant": true,
      "inputs": [
        {
          "internalType": "address",
          "name": "account",
          "type": "address"
        }
      ],
      "name": "isPauser",
      "outputs": [
        {
          "internalType": "bool",
          "name": "",
          "type": "bool"
        }
      ],
      "payable": false,
      "stateMutability": "view",
      "type": "function"
    },
    {
      "constant": true,
      "inputs": [
        {
          "internalType": "bytes32",
          "name": "hash",
          "type": "bytes32"
        },
        {
          "internalType": "address",
          "name": "signerAddress",
          "type": "address"
        },
        {
          "internalType": "bytes",
          "name": "signature",
          "type": "bytes"
        }
      ],
      "name": "isValidSignature",
      "outputs": [
        {
          "internalType": "bool",
          "name": "isValid",
          "type": "bool"
        }
      ],
      "payable": false,
      "stateMutability": "pure",
      "type": "function"
    },
    {
      "constant": true,
      "inputs": [
        {
          "internalType": "address",
          "name": "account",
          "type": "address"
        }
      ],
      "name": "isWhitelistAdmin",
      "outputs": [
        {
          "internalType": "bool",
          "name": "",
          "type": "bool"
        }
      ],
      "payable": false,
      "stateMutability": "view",
      "type": "function"
    },
    {
      "constant": true,
      "inputs": [
        {
          "internalType": "address",
          "name": "account",
          "type": "address"
        }
      ],
      "name": "isWhitelisted",
      "outputs": [
        {
          "internalType": "bool",
          "name": "",
          "type": "bool"
        }
      ],
      "payable": false,
      "stateMutability": "view",
      "type": "function"
    },
    {
      "constant": false,
      "inputs": [],
      "name": "pause",
      "outputs": [],
      "payable": false,
      "stateMutability": "nonpayable",
      "type": "function"
    },
    {
      "constant": true,
      "inputs": [],
      "name": "paused",
      "outputs": [
        {
          "internalType": "bool",
          "name": "",
          "type": "bool"
        }
      ],
      "payable": false,
      "stateMutability": "view",
      "type": "function"
    },
    {
      "constant": false,
      "inputs": [
        {
          "internalType": "address",
          "name": "account",
          "type": "address"
        }
      ],
      "name": "removeWhitelisted",
      "outputs": [],
      "payable": false,
      "stateMutability": "nonpayable",
      "type": "function"
    },
    {
      "constant": false,
      "inputs": [],
      "name": "renouncePauser",
      "outputs": [],
      "payable": false,
      "stateMutability": "nonpayable",
      "type": "function"
    },
    {
      "constant": false,
      "inputs": [],
      "name": "renounceWhitelistAdmin",
      "outputs": [],
      "payable": false,
      "stateMutability": "nonpayable",
      "type": "function"
    },
    {
      "constant": false,
      "inputs": [],
      "name": "renounceWhitelisted",
      "outputs": [],
      "payable": false,
      "stateMutability": "nonpayable",
      "type": "function"
    },
    {
      "constant": false,
      "inputs": [
        {
          "internalType": "uint256",
          "name": "time",
          "type": "uint256"
        }
      ],
      "name": "setDeferTime",
      "outputs": [
        {
          "internalType": "bool",
          "name": "",
          "type": "bool"
        }
      ],
      "payable": false,
      "stateMutability": "nonpayable",
      "type": "function"
    },
    {
      "constant": true,
      "inputs": [],
      "name": "timestamp",
      "outputs": [
        {
          "internalType": "uint256",
          "name": "",
          "type": "uint256"
        }
      ],
      "payable": false,
      "stateMutability": "view",
      "type": "function"
    },
    {
      "constant": true,
      "inputs": [
        {
          "internalType": "bytes32",
          "name": "",
          "type": "bytes32"
        }
      ],
      "name": "timestamps",
      "outputs": [
        {
          "internalType": "uint256",
          "name": "",
          "type": "uint256"
        }
      ],
      "payable": false,
      "stateMutability": "view",
      "type": "function"
    },
    {
      "constant": false,
      "inputs": [],
      "name": "unpause",
      "outputs": [],
      "payable": false,
      "stateMutability": "nonpayable",
      "type": "function"
    },
    {
      "constant": true,
      "inputs": [],
      "name": "name",
      "outputs": [
        {
          "internalType": "string",
          "name": "",
          "type": "string"
        }
      ],
      "payable": false,
      "stateMutability": "view",
      "type": "function"
    },
    {
      "constant": true,
      "inputs": [],
      "name": "symbol",
      "outputs": [
        {
          "internalType": "string",
          "name": "",
          "type": "string"
        }
      ],
      "payable": false,
      "stateMutability": "view",
      "type": "function"
    },
    {
      "constant": true,
      "inputs": [],
      "name": "decimals",
      "outputs": [
        {
          "internalType": "uint256",
          "name": "",
          "type": "uint256"
        }
      ],
      "payable": false,
      "stateMutability": "view",
      "type": "function"
    },
    {
      "constant": true,
      "inputs": [],
      "name": "totalSupply",
      "outputs": [
        {
          "internalType": "uint256",
          "name": "",
          "type": "uint256"
        }
      ],
      "payable": false,
      "stateMutability": "view",
      "type": "function"
    },
    {
      "constant": true,
      "inputs": [
        {
          "internalType": "address",
          "name": "account",
          "type": "address"
        }
      ],
      "name": "balanceOf",
      "outputs": [
        {
          "internalType": "uint256",
          "name": "",
          "type": "uint256"
        }
      ],
      "payable": false,
      "stateMutability": "view",
      "type": "function"
    },
    {
      "constant": true,
      "inputs": [],
      "name": "getTokenAddress",
      "outputs": [
        {
          "internalType": "address",
          "name": "",
          "type": "address"
        }
      ],
      "payable": false,
      "stateMutability": "view",
      "type": "function"
    },
    {
      "constant": false,
      "inputs": [
        {
          "internalType": "address",
          "name": "tokenAddr",
          "type": "address"
        }
      ],
      "name": "setTokenAddress",
      "outputs": [
        {
          "internalType": "bool",
          "name": "",
          "type": "bool"
        }
      ],
      "payable": false,
      "stateMutability": "nonpayable",
      "type": "function"
    },
    {
      "constant": true,
      "inputs": [],
      "name": "accountTotal",
      "outputs": [
        {
          "internalType": "uint256",
          "name": "",
          "type": "uint256"
        }
      ],
      "payable": false,
      "stateMutability": "view",
      "type": "function"
    },
    {
      "constant": true,
      "inputs": [
        {
          "internalType": "uint256",
          "name": "begin",
          "type": "uint256"
        }
      ],
      "name": "accountList",
      "outputs": [
        {
          "internalType": "address[100]",
          "name": "",
          "type": "address[100]"
        }
      ],
      "payable": false,
      "stateMutability": "view",
      "type": "function"
    },
    {
      "constant": true,
      "inputs": [],
      "name": "getTimestamp",
      "outputs": [
        {
          "internalType": "uint256",
          "name": "",
          "type": "uint256"
        }
      ],
      "payable": false,
      "stateMutability": "view",
      "type": "function"
    },
    {
      "constant": false,
      "inputs": [
        {
          "internalType": "uint256",
          "name": "newTimestamp",
          "type": "uint256"
        }
      ],
      "name": "setTimestamp",
      "outputs": [],
      "payable": false,
      "stateMutability": "nonpayable",
      "type": "function"
    },
    {
      "constant": false,
      "inputs": [
        {
          "internalType": "bytes32[]",
          "name": "hashes",
          "type": "bytes32[]"
        }
      ],
      "name": "removeObsoleteData",
      "outputs": [],
      "payable": false,
      "stateMutability": "nonpayable",
      "type": "function"
    },
    {
      "constant": false,
      "inputs": [
        {
          "internalType": "address",
          "name": "sender",
          "type": "address"
        },
        {
          "internalType": "address",
          "name": "recipient",
          "type": "address"
        },
        {
          "internalType": "uint256",
          "name": "amount",
          "type": "uint256"
        }
      ],
      "name": "transferFrom",
      "outputs": [
        {
          "internalType": "bool",
          "name": "",
          "type": "bool"
        }
      ],
      "payable": false,
      "stateMutability": "nonpayable",
      "type": "function"
    },
    {
      "constant": false,
      "inputs": [
        {
          "components": [
            {
              "internalType": "address",
              "name": "userAddress",
              "type": "address"
            },
            {
              "internalType": "uint256[]",
              "name": "amounts",
              "type": "uint256[]"
            },
            {
              "internalType": "address[]",
              "name": "recipients",
              "type": "address[]"
            },
            {
              "internalType": "uint256",
              "name": "nonce",
              "type": "uint256"
            }
          ],
          "internalType": "struct LibRequest.TransferRequest",
          "name": "request",
          "type": "tuple"
        },
        {
          "internalType": "bytes",
          "name": "signature",
          "type": "bytes"
        }
      ],
      "name": "transferFor",
      "outputs": [
        {
          "internalType": "bool",
          "name": "",
          "type": "bool"
        }
      ],
      "payable": false,
      "stateMutability": "nonpayable",
      "type": "function"
    },
    {
      "constant": false,
      "inputs": [
        {
          "internalType": "address",
          "name": "",
          "type": "address"
        },
        {
          "internalType": "address",
          "name": "from",
          "type": "address"
        },
        {
          "internalType": "address",
          "name": "to",
          "type": "address"
        },
        {
          "internalType": "uint256",
          "name": "amount",
          "type": "uint256"
        },
        {
          "internalType": "bytes",
          "name": "userData",
          "type": "bytes"
        },
        {
          "internalType": "bytes",
          "name": "",
          "type": "bytes"
        }
      ],
      "name": "tokensReceived",
      "outputs": [],
      "payable": false,
      "stateMutability": "nonpayable",
      "type": "function"
    },
    {
      "constant": false,
      "inputs": [
        {
          "components": [
            {
              "internalType": "address",
              "name": "userAddress",
              "type": "address"
            },
            {
              "internalType": "uint256",
              "name": "amount",
              "type": "uint256"
            },
            {
              "internalType": "address",
              "name": "recipient",
              "type": "address"
            },
            {
              "internalType": "bool",
              "name": "burn",
              "type": "bool"
            },
            {
              "internalType": "uint256",
              "name": "nonce",
              "type": "uint256"
            }
          ],
          "internalType": "struct LibRequest.WithdrawRequest",
          "name": "request",
          "type": "tuple"
        },
        {
          "internalType": "bytes",
          "name": "signature",
          "type": "bytes"
        }
      ],
      "name": "withdraw",
      "outputs": [
        {
          "internalType": "bool",
          "name": "",
          "type": "bool"
        }
      ],
      "payable": false,
      "stateMutability": "nonpayable",
      "type": "function"
    },
    {
      "constant": false,
      "inputs": [
        {
          "components": [
            {
              "internalType": "address",
              "name": "userAddress",
              "type": "address"
            },
            {
              "internalType": "uint256",
              "name": "amount",
              "type": "uint256"
            },
            {
              "internalType": "string",
              "name": "recipient",
              "type": "string"
            },
            {
              "internalType": "address",
              "name": "defiRelayer",
              "type": "address"
            },
            {
              "internalType": "uint256",
              "name": "fee",
              "type": "uint256"
            },
            {
              "internalType": "uint256",
              "name": "nonce",
              "type": "uint256"
            }
          ],
          "internalType": "struct LibRequest.WithdrawCrossChainRequest",
          "name": "request",
          "type": "tuple"
        },
        {
          "internalType": "bytes",
          "name": "signature",
          "type": "bytes"
        }
      ],
      "name": "withdrawCrossChain",
      "outputs": [
        {
          "internalType": "bool",
          "name": "",
          "type": "bool"
        }
      ],
      "payable": false,
      "stateMutability": "nonpayable",
      "type": "function"
    },
    {
      "constant": false,
      "inputs": [],
      "name": "requestForceWithdraw",
      "outputs": [
        {
          "internalType": "bool",
          "name": "",
          "type": "bool"
        }
      ],
      "payable": false,
      "stateMutability": "nonpayable",
      "type": "function"
    },
    {
      "constant": false,
      "inputs": [
        {
          "internalType": "address",
          "name": "recipient",
          "type": "address"
        }
      ],
      "name": "forceWithdraw",
      "outputs": [
        {
          "internalType": "bool",
          "name": "",
          "type": "bool"
        }
      ],
      "payable": false,
      "stateMutability": "nonpayable",
      "type": "function"
    },
    {
      "constant": false,
      "inputs": [],
      "name": "Pause",
      "outputs": [],
      "payable": false,
      "stateMutability": "nonpayable",
      "type": "function"
    },
    {
      "constant": false,
      "inputs": [],
      "name": "Resume",
      "outputs": [],
      "payable": false,
      "stateMutability": "nonpayable",
      "type": "function"
    }
  ],
  "bytecode": "0x6080604052600580546001600160a01b0319163017905560006011553480156200002857600080fd5b506040516200449a3803806200449a8339810160408190526200004b9162000504565b8162000072620000636001600160e01b036200027716565b6001600160e01b036200027c16565b6002554660048190556040516200008c90602001620007b6565b60408051601f198184030181528282528051602091820120838301835260048085526310d490d360e21b948301949094528251808401845260038152620312e360ec1b90830152925460055492516200013894937f92e0d4302bfe4f52763e6677c92016018a1b7dde3c9b2e015849e403a0f84d06937fe6bbd6277e1bf288eed5e8d1780f9a50b239e86b153736bceebccf4ea79d90b393926001600160a01b0390921691016200083a565b60408051601f198184030181529190528051602090910120600655506200017a6200016b6001600160e01b036200027716565b6001600160e01b03620002ce16565b6008805460ff19169055855162000199906009906020890190620003d2565b508451620001af90600b906020880190620003d2565b5060ff8416600c55600d80546001600160a01b0319166001600160a01b038516179055600a805460ff19168215151790556040517388887ed889e776bcbe2f0f9932ecfabcdfcd1820906329965a1d9030906200020c90620007a9565b6040519081900381206001600160e01b031960e085901b168252620002379291309060040162000804565b600060405180830381600087803b1580156200025257600080fd5b505af115801562000267573d6000803e3d6000fd5b50505050505050505050620009a3565b335b90565b620002978160006200032060201b62001fec1790919060201c565b6040516001600160a01b038216907f22380c05984257a1cb900161c713dd71d39e74820f1aea43bd3f1bdd2096129990600090a250565b620002e98160076200032060201b62001fec1790919060201c565b6040516001600160a01b038216907f6719d08c1888103bea251a4ed56406bd0c3e69723c8a1686e017e7bbe159b6f890600090a250565b6200033582826001600160e01b036200038316565b156200035e5760405162461bcd60e51b8152600401620003559062000890565b60405180910390fd5b6001600160a01b0316600090815260209190915260409020805460ff19166001179055565b60006001600160a01b038216620003ae5760405162461bcd60e51b81526004016200035590620008a2565b506001600160a01b03811660009081526020839052604090205460ff165b92915050565b828054600181600116156101000203166002900490600052602060002090601f016020900481019282601f106200041557805160ff191683800117855562000445565b8280016001018555821562000445579182015b828111156200044557825182559160200191906001019062000428565b506200045392915062000457565b5090565b6200027991905b808211156200045357600081556001016200045e565b8051620003cc8162000968565b8051620003cc8162000982565b600082601f830112620004a057600080fd5b8151620004b7620004b182620008db565b620008b4565b91508082526020830160208301858383011115620004d457600080fd5b620004e183828462000935565b50505092915050565b8051620003cc816200098d565b8051620003cc8162000998565b60008060008060008060c087890312156200051e57600080fd5b86516001600160401b038111156200053557600080fd5b6200054389828a016200048e565b96505060208701516001600160401b038111156200056057600080fd5b6200056e89828a016200048e565b95505060406200058189828a01620004f7565b94505060606200059489828a0162000474565b9350506080620005a789828a01620004ea565b92505060a0620005ba89828a0162000481565b9150509295509295509295565b620005d28162000911565b82525050565b620005d28162000279565b6000620005f2600c836200090c565b6b1cdd1c9a5b99c81b985b594b60a21b8152600c0192915050565b60006200061c601f8362000903565b7f526f6c65733a206163636f756e7420616c72656164792068617320726f6c6500815260200192915050565b6000620006576019836200090c565b7f6164647265737320766572696679696e67436f6e747261637400000000000000815260190192915050565b6000620006926010836200090c565b6f1d5a5b9d0c8d4d8818da185a5b92590b60821b815260100192915050565b6000620006c06001836200090c565b602960f81b815260010192915050565b6000620006df600f836200090c565b6e1cdd1c9a5b99c81d995c9cda5bdb8b608a1b8152600f0192915050565b60006200070c60228362000903565b7f526f6c65733a206163636f756e7420697320746865207a65726f206164647265815261737360f01b602082015260400192915050565b6000620007526015836200090c565b7f455243373737546f6b656e73526563697069656e740000000000000000000000815260150192915050565b60006200078d600d836200090c565b6c08a92a06e626488dedac2d2dc5609b1b8152600d0192915050565b6000620003cc8262000743565b6000620007c3826200077e565b9150620007d082620005e3565b9150620007dd82620006d0565b9150620007ea8262000683565b9150620007f78262000648565b9150620003cc82620006b1565b60608101620008148286620005c7565b620008236020830185620005d8565b620008326040830184620005c7565b949350505050565b60a081016200084a8288620005d8565b620008596020830187620005d8565b620008686040830186620005d8565b620008776060830185620005d8565b620008866080830184620005c7565b9695505050505050565b60208082528101620003cc816200060d565b60208082528101620003cc81620006fd565b6040518181016001600160401b0381118282101715620008d357600080fd5b604052919050565b60006001600160401b03821115620008f257600080fd5b506020601f91909101601f19160190565b90815260200190565b919050565b6000620003cc8262000923565b151590565b6001600160a01b031690565b60ff1690565b60005b838110156200095257818101518382015260200162000938565b8381111562000962576000848401525b50505050565b620009738162000911565b81146200097f57600080fd5b50565b62000973816200091e565b620009738162000279565b62000973816200092f565b613ae780620009b36000396000f3fe608060405234801561001057600080fd5b50600436106103095760003560e01c80637b1d29461161019c578063b5872958116100ee578063d6cd947311610097578063e306f77911610071578063e306f779146105ba578063f03c2554146105c2578063f8c4bbf2146105d557610309565b8063d6cd947314610597578063d94f5b391461059f578063da60d27e146105b257610309565b8063bb5f747b116100c8578063bb5f747b14610574578063c5de069a14610587578063c9ac73c81461058f57610309565b8063b587295814610546578063b80777ea14610559578063b98152891461056157610309565b806393634702116101505780639844713b1161012a5780639844713b146105185780639a8a05921461052b578063a0a2b5731461053357610309565b806393634702146104ea57806394f7cda2146104fd57806395d89b411461051057610309565b806382dc1ec41161018157806382dc1ec4146104bc5780638456cb59146104cf578063882f3e16146104d757610309565b80637b1d2946146104965780637c6ecf28146104a957610309565b8063313ce567116102605780634ea98d16116102095780636ef8d66d116101e35780636ef8d66d1461046857806370a08231146104705780637362d9c81461048357610309565b80634ea98d16146104385780635c975abb146104585780636985a0221461046057610309565b806346fbf68e1161023a57806346fbf68e14610415578063490d6d11146104285780634c5a628c1461043057610309565b8063313ce567146103f25780633af32abf146103fa5780633f4ba83a1461040d57610309565b8063188ec356116102c257806328acc9e71161029c57806328acc9e7146103b9578063291d9549146103cc5780632a8961bb146103df57610309565b8063188ec3561461037e57806323b872dd1461038657806326a4e8d2146103a657610309565b806310154bad116102f357806310154bad1461034157806310fe9ae81461035457806318160ddd1461036957610309565b806223de291461030e57806306fdde0314610323575b600080fd5b61032161031c3660046124de565b6105dd565b005b61032b610693565b6040516103389190613577565b60405180910390f35b61032161034f3660046124b8565b610729565b61035c61075c565b6040516103389190613380565b61037161076b565b6040516103389190613427565b610371610771565b610399610394366004612595565b610777565b6040516103389190613419565b6103996103b43660046124b8565b610827565b6103216103c73660046125e2565b610882565b6103216103da3660046124b8565b61096b565b6103996103ed366004612781565b61099b565b610371610b4c565b6103996104083660046124b8565b610b52565b610321610b65565b6103996104233660046124b8565b610bf8565b610321610c0b565b610321610c3c565b61044b610446366004612635565b610c4c565b604051610338919061340a565b610399610cfd565b610321610d06565b610321610d35565b61037161047e3660046124b8565b610d45565b6103216104913660046124b8565b610d60565b6103716104a43660046124b8565b610d90565b6103716104b73660046126ae565b610dd5565b6103216104ca3660046124b8565b610de8565b610321610e18565b6103996104e53660046124b8565b610e98565b6103996104f8366004612653565b610fa7565b61039961050b3660046127d5565b6110c4565b61032b6112b2565b610399610526366004612635565b611313565b610371611345565b610321610541366004612635565b61134b565b610371610554366004612635565b611398565b6103716113aa565b61039961056f3660046126e3565b6113b0565b6103996105823660046124b8565b611520565b610371611532565b610371611538565b61032161153e565b6103716105ad3660046127b7565b61154e565b61039961155c565b610371611575565b6103716105d036600461274c565b61157b565b610371611589565b60085460ff16156106095760405162461bcd60e51b815260040161060090613698565b60405180910390fd5b600d546001600160a01b031661061d61158f565b6001600160a01b0316146106435760405162461bcd60e51b815260040161060090613778565b6001600160a01b038416301461066b5760405162461bcd60e51b815260040161060090613728565b60148201516001600160a01b0381161561068a5761068a868286611593565b50505050505050565b60098054604080516020601f600260001961010060018816150201909516949094049384018190048102820181019092528281526060939092909183018282801561071f5780601f106106f45761010080835404028352916020019161071f565b820191906000526020600020905b81548152906001019060200180831161070257829003601f168201915b5050505050905090565b61073461058261158f565b6107505760405162461bcd60e51b815260040161060090613708565b6107598161163c565b50565b600d546001600160a01b031690565b600f5490565b60115490565b600061078461040861158f565b6107a05760405162461bcd60e51b815260040161060090613748565b60085460ff16156107c35760405162461bcd60e51b815260040161060090613698565b6001600160a01b0384166107e95760405162461bcd60e51b815260040161060090613688565b6001600160a01b03831661080f5760405162461bcd60e51b8152600401610600906136a8565b61081a848484611684565b50600190505b9392505050565b600061083461058261158f565b6108505760405162461bcd60e51b815260040161060090613708565b50600d80546001600160a01b03831673ffffffffffffffffffffffffffffffffffffffff199091161790556001919050565b61088d61058261158f565b6108a95760405162461bcd60e51b815260040161060090613708565b60005b815181101561096757601060008383815181106108c557fe5b6020026020010151815260200190815260200160002054600014156108fc5760405162461bcd60e51b815260040161060090613638565b6011546010600084848151811061090f57fe5b6020026020010151815260200190815260200160002054106109435760405162461bcd60e51b815260040161060090613658565b61095f82828151811061095257fe5b60200260200101516117f3565b6001016108ac565b5050565b61097661058261158f565b6109925760405162461bcd60e51b815260040161060090613708565b61075981611818565b60006109a861058261158f565b6109c45760405162461bcd60e51b815260040161060090613708565b60085460ff16156109e75760405162461bcd60e51b815260040161060090613698565b60006109f28461157b565b9050610a0381856000015185610fa7565b610a1f5760405162461bcd60e51b815260040161060090613668565b6011548460a001511015610a455760405162461bcd60e51b815260040161060090613718565b60a084015160008281526010602090815260409182902092909255600d5486519287015160808801518389015160608a015194517fcb55417e0000000000000000000000000000000000000000000000000000000081526001600160a01b039094169563cb55417e95610abf9591949392916004016133b7565b602060405180830381600087803b158015610ad957600080fd5b505af1158015610aed573d6000803e3d6000fd5b505050506040513d601f19601f82011682018060405250610b119190810190612617565b50610b2484600001518560200151611860565b610b405760405162461bcd60e51b8152600401610600906135e8565b60019150505b92915050565b600c5490565b6000610b4660018363ffffffff61194916565b610b7061042361158f565b610b8c5760405162461bcd60e51b8152600401610600906135d8565b60085460ff16610bae5760405162461bcd60e51b8152600401610600906135b8565b6008805460ff191690557f5db9ee0a495bf2e6ff9c91a7834c1ba4fdd244a5e8aa4e537bd38aeae4b073aa610be161158f565b604051610bee919061338e565b60405180910390a1565b6000610b4660078363ffffffff61194916565b610c1661058261158f565b610c325760405162461bcd60e51b815260040161060090613708565b610c3a610b65565b565b610c3a610c4761158f565b611991565b610c546120ee565b6013548210610c755760405162461bcd60e51b8152600401610600906135a8565b610c7d6120ee565b601354600090610c9d90610c9886606463ffffffff6119d916565b6119fe565b9050835b81811015610cf45760138181548110610cb657fe5b6000918252602090912001546001600160a01b03168386830360648110610cd957fe5b6001600160a01b039092166020929092020152600101610ca1565b50909392505050565b60085460ff1690565b610d1161058261158f565b610d2d5760405162461bcd60e51b815260040161060090613708565b610c3a610e18565b610c3a610d4061158f565b611a16565b6001600160a01b03166000908152600e602052604090205490565b610d6b61058261158f565b610d875760405162461bcd60e51b815260040161060090613708565b61075981611a5e565b6000610d9d61058261158f565b610db95760405162461bcd60e51b815260040161060090613708565b506001600160a01b031660009081526003602052604090205490565b6000610b46610de383611aa6565b611b78565b610df361042361158f565b610e0f5760405162461bcd60e51b8152600401610600906135d8565b61075981611bb8565b610e2361042361158f565b610e3f5760405162461bcd60e51b8152600401610600906135d8565b60085460ff1615610e625760405162461bcd60e51b815260040161060090613698565b6008805460ff191660011790557f62e78cea01bee320cd4e420270b5ea74000d11b0c9f74754ebdbfc544b05a258610be161158f565b600060036000610ea661158f565b6001600160a01b03168152602081019190915260400160002054610edc5760405162461bcd60e51b815260040161060090613758565b610f1460025460036000610eee61158f565b6001600160a01b031681526020810191909152604001600020549063ffffffff6119d916565b421015610f335760405162461bcd60e51b815260040161060090613788565b610f71610f3e61158f565b83600e6000610f4b61158f565b6001600160a01b03166001600160a01b0316815260200190815260200160002054611c00565b610f8d5760405162461bcd60e51b815260040161060090613618565b610f9f610f9861158f565b6000611d09565b506001919050565b60006001600160a01b038316610fcf5760405162461bcd60e51b8152600401610600906136b8565b8151604114610ff05760405162461bcd60e51b815260040161060090613598565b600082604081518110610fff57fe5b016020015160f81c9050601b81148061101b57508060ff16601c145b6110375760405162461bcd60e51b815260040161060090613738565b6000611044846000611d60565b90506000611053856020611d60565b9050600187848484604051600081526020016040526040516110789493929190613539565b6020604051602081039080840390855afa15801561109a573d6000803e3d6000fd5b505050602060405103516001600160a01b0316866001600160a01b03161493505050509392505050565b60006110d161058261158f565b6110ed5760405162461bcd60e51b815260040161060090613708565b60085460ff16156111105760405162461bcd60e51b815260040161060090613698565b600061111b8461154e565b905061112c81856000015185610fa7565b6111485760405162461bcd60e51b815260040161060090613668565b6011548460800151101561116e5760405162461bcd60e51b815260040161060090613718565b6080840151600082815260106020526040902055606084015115806111955750600a5460ff165b6111b15760405162461bcd60e51b8152600401610600906137b8565b83606001511561127f57600d5460208086015160408088015190516001600160a01b039094169363fe9d9303936111e9929101613347565b6040516020818303038152906040526040518363ffffffff1660e01b81526004016112159291906137c8565b600060405180830381600087803b15801561122f57600080fd5b505af1158015611243573d6000803e3d6000fd5b5050505061125984600001518560200151611860565b6112755760405162461bcd60e51b8152600401610600906135e8565b6001915050610b46565b611296846000015185604001518660200151611c00565b610b405760405162461bcd60e51b815260040161060090613798565b600b8054604080516020601f600260001961010060018816150201909516949094049384018190048102820181019092528281526060939092909183018282801561071f5780601f106106f45761010080835404028352916020019161071f565b600061132061058261158f565b61133c5760405162461bcd60e51b815260040161060090613708565b50600255600190565b60045481565b61135661058261158f565b6113725760405162461bcd60e51b815260040161060090613708565b60115481116113935760405162461bcd60e51b8152600401610600906135f8565b601155565b60106020526000908152604090205481565b60115481565b60006113bd61058261158f565b6113d95760405162461bcd60e51b815260040161060090613708565b60085460ff16156113fc5760405162461bcd60e51b815260040161060090613698565b82516001600160a01b03166114235760405162461bcd60e51b8152600401610600906137a8565b8260400151518360200151511461144c5760405162461bcd60e51b815260040161060090613678565b600061145784610dd5565b905061146881856000015185610fa7565b6114845760405162461bcd60e51b815260040161060090613608565b601154846060015110156114aa5760405162461bcd60e51b815260040161060090613718565b60608401516000828152601060205260408120919091555b8460400151518110156115155761150c8560000151866040015183815181106114e757fe5b6020026020010151876020015184815181106114ff57fe5b6020026020010151611684565b506001016114c2565b506001949350505050565b6000610b46818363ffffffff61194916565b60025481565b60025490565b610c3a61154961158f565b611818565b6000610b46610de383611d8f565b600061156f61156961158f565b42611d09565b50600190565b60065481565b6000610b46610de383611dfe565b60135490565b3390565b6001600160a01b0382166115b95760405162461bcd60e51b815260040161060090613588565b6001600160a01b0383163014156115e25760405162461bcd60e51b815260040161060090613648565b6115ec8282611e99565b816001600160a01b0316836001600160a01b03167f5548c837ab068cf56a2c2479df0882a4922fd203edb7517321831d95078c5f628360405161162f9190613427565b60405180910390a3505050565b61164d60018263ffffffff611fec16565b6040516001600160a01b038216907fee1504a83b6d4a361f4c1dc78ab59bfa30d6a3b6612c403e86bb01ef2984295f90600090a250565b6001600160a01b03821660009081526012602052604081205460ff16611717576001600160a01b0383166000818152601260205260408120805460ff191660019081179091556013805491820181559091527f66de8ffda797e3de9c05e8fc57b3bf0ec28a930d40b0d285d93c06501cf6a09001805473ffffffffffffffffffffffffffffffffffffffff191690911790555b61175a826040518060600160405280602c81526020016139aa602c91396001600160a01b0387166000908152600e6020526040902054919063ffffffff61203816565b6001600160a01b038086166000908152600e6020526040808220939093559085168152205461178f908363ffffffff6119d916565b6001600160a01b038085166000818152600e602052604090819020939093559151908616907fddf252ad1be2c89b69c2b068fc378daa952ba7f163c4a11628f55a4df523b3ef906117e1908690613427565b60405180910390a35060019392505050565b6000818152601060205260409020541561075957600090815260106020526040812055565b61182960018263ffffffff61206416565b6040516001600160a01b038216907f270d9b30cf5b0793bbfd54c9d5b94aeb49462b8148399000265144a8722da6b690600090a250565b60006001600160a01b0383166118885760405162461bcd60e51b8152600401610600906136d8565b6118cb82604051806060016040528060218152602001613989602191396001600160a01b0386166000908152600e6020526040902054919063ffffffff61203816565b6001600160a01b0384166000908152600e6020526040902055600f546118f7908363ffffffff6120ac16565b600f556040516000906001600160a01b038516907fddf252ad1be2c89b69c2b068fc378daa952ba7f163c4a11628f55a4df523b3ef90611938908690613427565b60405180910390a350600192915050565b60006001600160a01b0382166119715760405162461bcd60e51b8152600401610600906136f8565b506001600160a01b03166000908152602091909152604090205460ff1690565b6119a260008263ffffffff61206416565b6040516001600160a01b038216907f0a8eb35e5ca14b3d6f28e4abf2f128dbab231a58b56e89beb5d636115001e16590600090a250565b6000828201838110156108205760405162461bcd60e51b815260040161060090613628565b600081831115611a0f575080610b46565b5090919050565b611a2760078263ffffffff61206416565b6040516001600160a01b038216907fcd265ebaf09df2871cc7bd4133404a235ba12eff2041bb89d9c714a2621c7c7e90600090a250565b611a6f60008263ffffffff611fec16565b6040516001600160a01b038216907f22380c05984257a1cb900161c713dd71d39e74820f1aea43bd3f1bdd2096129990600090a250565b600060405180608001604052806059815260200161393060599139604051602001611ad19190613374565b6040516020818303038152906040528051906020012082600001518360200151604051602001611b019190613368565b604051602081830303815290604052805190602001208460400151604051602001611b2c919061335c565b604051602081830303815290604052805190602001208560600151604051602001611b5b959493929190613435565b604051602081830303815290604052805190602001209050919050565b6006546040517f19010000000000000000000000000000000000000000000000000000000000008152600281019190915260228101919091526042902090565b611bc960078263ffffffff611fec16565b6040516001600160a01b038216907f6719d08c1888103bea251a4ed56406bd0c3e69723c8a1686e017e7bbe159b6f890600090a250565b6000611c0c8483611860565b611c285760405162461bcd60e51b8152600401610600906135e8565b600d546040517fa9059cbb0000000000000000000000000000000000000000000000000000000081526001600160a01b039091169063a9059cbb90611c73908690869060040161339c565b602060405180830381600087803b158015611c8d57600080fd5b505af1158015611ca1573d6000803e3d6000fd5b505050506040513d601f19601f82011682018060405250611cc59190810190612617565b50826001600160a01b0316846001600160a01b03167f9b1bfa7fa9ee420a16e124f794c35ac9f90472acc99140eb2f6447c714cad8eb846040516117e19190613427565b6001600160a01b03821660008181526003602052604090819020839055517f0ebe7b96b8d0566030cee68cd5153d3af3eb238d56092c9493a18e6d0b56836990611d54908490613427565b60405180910390a25050565b60008160200183511015611d865760405162461bcd60e51b8152600401610600906136e8565b50016020015190565b60006040518060800160405280605d81526020016139d6605d9139604051602001611dba9190613374565b6040516020818303038152906040528051906020012082600001518360200151846040015185606001518660800151604051602001611b5b96959493929190613477565b60006040518060a0016040528060728152602001613a3360729139604051602001611e299190613374565b60405160208183030381529060405280519060200120826000015183602001518460400151604051602001611e5e9190613374565b60405160208183030381529060405280519060200120856060015186608001518760a00151604051602001611b5b97969594939291906134d1565b6001600160a01b038216611ebf5760405162461bcd60e51b815260040161060090613768565b6001600160a01b03821660009081526012602052604090205460ff16611f52576001600160a01b0382166000818152601260205260408120805460ff191660019081179091556013805491820181559091527f66de8ffda797e3de9c05e8fc57b3bf0ec28a930d40b0d285d93c06501cf6a09001805473ffffffffffffffffffffffffffffffffffffffff191690911790555b600f54611f65908263ffffffff6119d916565b600f556001600160a01b0382166000908152600e6020526040902054611f91908263ffffffff6119d916565b6001600160a01b0383166000818152600e60205260408082209390935591519091907fddf252ad1be2c89b69c2b068fc378daa952ba7f163c4a11628f55a4df523b3ef90611fe0908590613427565b60405180910390a35050565b611ff68282611949565b156120135760405162461bcd60e51b8152600401610600906135c8565b6001600160a01b0316600090815260209190915260409020805460ff19166001179055565b6000818484111561205c5760405162461bcd60e51b81526004016106009190613577565b505050900390565b61206e8282611949565b61208a5760405162461bcd60e51b8152600401610600906136c8565b6001600160a01b0316600090815260209190915260409020805460ff19169055565b600061082083836040518060400160405280601e81526020017f536166654d6174683a207375627472616374696f6e206f766572666c6f770000815250612038565b60405180610c8001604052806064906020820280388339509192915050565b8035610b4681613909565b600082601f83011261212957600080fd5b813561213c6121378261380f565b6137e8565b9150818183526020840193506020810190508385602084028201111561216157600080fd5b60005b8381101561218d5781612177888261210d565b8452506020928301929190910190600101612164565b5050505092915050565b600082601f8301126121a857600080fd5b81356121b66121378261380f565b915081818352602084019350602081019050838560208402820111156121db57600080fd5b60005b8381101561218d57816121f1888261228d565b84525060209283019291909101906001016121de565b600082601f83011261221857600080fd5b81356122266121378261380f565b9150818183526020840193506020810190508385602084028201111561224b57600080fd5b60005b8381101561218d5781612261888261228d565b845250602092830192919091019060010161224e565b8035610b468161391d565b8051610b468161391d565b8035610b4681613926565b600082601f8301126122a957600080fd5b81356122b761213782613830565b915080825260208301602083018583830111156122d357600080fd5b6122de8382846138ac565b50505092915050565b6000608082840312156122f957600080fd5b61230360806137e8565b90506000612311848461210d565b825250602082013567ffffffffffffffff81111561232e57600080fd5b61233a84828501612207565b602083015250604082013567ffffffffffffffff81111561235a57600080fd5b61236684828501612118565b604083015250606061237a8482850161228d565b60608301525092915050565b600060c0828403121561239857600080fd5b6123a260c06137e8565b905060006123b0848461210d565b82525060206123c18484830161228d565b602083015250604082013567ffffffffffffffff8111156123e157600080fd5b6123ed84828501612298565b60408301525060606124018482850161210d565b60608301525060806124158482850161228d565b60808301525060a06124298482850161228d565b60a08301525092915050565b600060a0828403121561244757600080fd5b61245160a06137e8565b9050600061245f848461210d565b82525060206124708484830161228d565b60208301525060406124848482850161210d565b604083015250606061249884828501612277565b60608301525060806124ac8482850161228d565b60808301525092915050565b6000602082840312156124ca57600080fd5b60006124d6848461210d565b949350505050565b60008060008060008060c087890312156124f757600080fd5b6000612503898961210d565b965050602061251489828a0161210d565b955050604061252589828a0161210d565b945050606061253689828a0161228d565b935050608087013567ffffffffffffffff81111561255357600080fd5b61255f89828a01612298565b92505060a087013567ffffffffffffffff81111561257c57600080fd5b61258889828a01612298565b9150509295509295509295565b6000806000606084860312156125aa57600080fd5b60006125b6868661210d565b93505060206125c78682870161210d565b92505060406125d88682870161228d565b9150509250925092565b6000602082840312156125f457600080fd5b813567ffffffffffffffff81111561260b57600080fd5b6124d684828501612197565b60006020828403121561262957600080fd5b60006124d68484612282565b60006020828403121561264757600080fd5b60006124d6848461228d565b60008060006060848603121561266857600080fd5b6000612674868661228d565b93505060206126858682870161210d565b925050604084013567ffffffffffffffff8111156126a257600080fd5b6125d886828701612298565b6000602082840312156126c057600080fd5b813567ffffffffffffffff8111156126d757600080fd5b6124d6848285016122e7565b600080604083850312156126f657600080fd5b823567ffffffffffffffff81111561270d57600080fd5b612719858286016122e7565b925050602083013567ffffffffffffffff81111561273657600080fd5b61274285828601612298565b9150509250929050565b60006020828403121561275e57600080fd5b813567ffffffffffffffff81111561277557600080fd5b6124d684828501612386565b6000806040838503121561279457600080fd5b823567ffffffffffffffff8111156127ab57600080fd5b61271985828601612386565b600060a082840312156127c957600080fd5b60006124d68484612435565b60008060c083850312156127e857600080fd5b60006127f48585612435565b92505060a083013567ffffffffffffffff81111561273657600080fd5b600061281d8383612840565b505060200190565b600061281d838361295e565b61283a8161389b565b82525050565b61283a81613879565b61283a61285582613879565b6138e8565b61286381613861565b61286d818461386b565b925061287882613858565b8060005b838110156128a65781516128908782612811565b965061289b8361385b565b92505060010161287c565b505050505050565b60006128b982613867565b6128c3818561386b565b93506128ce8361385b565b8060005b838110156128fc5781516128e68882612811565b97506128f18361385b565b9250506001016128d2565b509495945050505050565b600061291282613867565b61291c818561386b565b93506129278361385b565b8060005b838110156128fc57815161293f8882612825565b975061294a8361385b565b92505060010161292b565b61283a81613884565b61283a81613858565b600061297282613867565b61297c8185613870565b935061298c8185602086016138b8565b612995816138f9565b9093019392505050565b60006129aa82613867565b6129b4818561386b565b93506129c48185602086016138b8565b9290920192915050565b60006129db602183613870565b7f4352434c3a206465706f73697420746f20746865207a65726f2061646472657381527f7300000000000000000000000000000000000000000000000000000000000000602082015260400192915050565b6000612a3a601983613870565b7f57726f6e67206c656e677468206f66207369676e617475726500000000000000815260200192915050565b6000612a73601e83613870565b7f4352434c3a206163636f756e744c697374206f7574206f662072616e67650000815260200192915050565b6000612aac601483613870565b7f5061757361626c653a206e6f7420706175736564000000000000000000000000815260200192915050565b6000612ae5601f83613870565b7f526f6c65733a206163636f756e7420616c72656164792068617320726f6c6500815260200192915050565b6000612b1e603083613870565b7f506175736572526f6c653a2063616c6c657220646f6573206e6f74206861766581527f207468652050617573657220726f6c6500000000000000000000000000000000602082015260400192915050565b6000612b7d602a83613870565b7f4352434c3a20776974686472617720616d6f756e74206578636565647320435281527f434c2062616c616e636500000000000000000000000000000000000000000000602082015260400192915050565b6000612bdc601583613870565b7f494e56414c49445f4e45575f54494d455354414d500000000000000000000000815260200192915050565b6000612c15602083613870565b7f4352434c3a20494e56414c49445f5452414e534645525f5349474e4154555245815260200192915050565b6000612c4e601a83613870565b7f4352434c3a20666f726365207769746864726177206572726f72000000000000815260200192915050565b6000612c87601b83613870565b7f536166654d6174683a206164646974696f6e206f766572666c6f770000000000815260200192915050565b6000612cc0601783613870565b7f494e56414c49445f46494e49534845445f535441545553000000000000000000815260200192915050565b6000612cf9602383613870565b7f4352434c3a206465706f7369742066726f6d20746865204352434c206164647281527f6573730000000000000000000000000000000000000000000000000000000000602082015260400192915050565b6000612d58601183613870565b7f494e56414c49445f54494d455354414d50000000000000000000000000000000815260200192915050565b6000612d91601a83613870565b7f494e56414c49445f57495448445241575f5349474e4154555245000000000000815260200192915050565b6000612dca601c83613870565b7f4352434c3a20616d6f756e74206c656e677468206d69736d6174636800000000815260200192915050565b6000612e03602483613870565b7f4352434c3a207472616e736665722066726f6d20746865207a65726f2061646481527f7265737300000000000000000000000000000000000000000000000000000000602082015260400192915050565b6000612e62601083613870565b7f5061757361626c653a2070617573656400000000000000000000000000000000815260200192915050565b6000612e9b602283613870565b7f4352434c3a207472616e7366657220746f20746865207a65726f206164647265815261737360f01b602082015260400192915050565b6000612edf601483613870565b7f57726f6e67207369676e65722061646472657373000000000000000000000000815260200192915050565b6000612f18602183613870565b7f526f6c65733a206163636f756e7420646f6573206e6f74206861766520726f6c81527f6500000000000000000000000000000000000000000000000000000000000000602082015260400192915050565b6000612f77602083613870565b7f4352434c3a206275726e2066726f6d20746865207a65726f2061646472657373815260200192915050565b6000612fb0600c83613870565b7f57726f6e67206c656e6774680000000000000000000000000000000000000000815260200192915050565b6000612fe9602283613870565b7f526f6c65733a206163636f756e7420697320746865207a65726f206164647265815261737360f01b602082015260400192915050565b600061302d604083613870565b7f57686974656c69737441646d696e526f6c653a2063616c6c657220646f65732081527f6e6f742068617665207468652057686974656c69737441646d696e20726f6c65602082015260400192915050565b600061308c601583613870565b7f4352434c3a207265717565737420657870697265640000000000000000000000815260200192915050565b60006130c5601983613870565b7f4352434c3a206465706f736974206e6f7420746f204352434c00000000000000815260200192915050565b60006130fe600783613870565b7f57726f6e67205600000000000000000000000000000000000000000000000000815260200192915050565b6000613137603a83613870565b7f57686974656c6973746564526f6c653a2063616c6c657220646f6573206e6f7481527f2068617665207468652057686974656c697374656420726f6c65000000000000602082015260400192915050565b6000613196601c83613870565b7f464f5243455f57495448445241575f4e4f545f52455155455354454400000000815260200192915050565b60006131cf601e83613870565b7f4352434c3a206d696e7420746f20746865207a65726f20616464726573730000815260200192915050565b6000613208601c83613870565b7f4352434c3a206465706f736974206e6f7420617574686f72697a656400000000815260200192915050565b6000613241601483613870565b7f54494d455f4c4f434b5f494e434f4d504c455445000000000000000000000000815260200192915050565b600061327a601483613870565b7f4352434c3a207769746864726177206572726f72000000000000000000000000815260200192915050565b60006132b3601f83613870565b7f4352434c3a207472616e7366657220666f72207a65726f206164647265737300815260200192915050565b60006132ec602483613870565b7f4352434c3a2073686f756c642063616c6c20776974686472617743726f73734381527f6861696e00000000000000000000000000000000000000000000000000000000602082015260400192915050565b61283a81613895565b60006133538284612849565b50601401919050565b600061082082846128ae565b60006108208284612907565b6000610820828461299f565b60208101610b468284612840565b60208101610b468284612831565b604081016133aa8285612840565b610820602083018461295e565b60a081016133c58288612840565b6133d2602083018761295e565b6133df604083018661295e565b81810360608301526133f18185612967565b90506134006080830184612840565b9695505050505050565b610c808101610b46828461285a565b60208101610b468284612955565b60208101610b46828461295e565b60a08101613443828861295e565b6134506020830187612840565b61345d604083018661295e565b61346a606083018561295e565b613400608083018461295e565b60c08101613485828961295e565b6134926020830188612840565b61349f604083018761295e565b6134ac6060830186612840565b6134b96080830185612955565b6134c660a083018461295e565b979650505050505050565b60e081016134df828a61295e565b6134ec6020830189612840565b6134f9604083018861295e565b613506606083018761295e565b6135136080830186612840565b61352060a083018561295e565b61352d60c083018461295e565b98975050505050505050565b60808101613547828761295e565b613554602083018661333e565b613561604083018561295e565b61356e606083018461295e565b95945050505050565b602080825281016108208184612967565b60208082528101610b46816129ce565b60208082528101610b4681612a2d565b60208082528101610b4681612a66565b60208082528101610b4681612a9f565b60208082528101610b4681612ad8565b60208082528101610b4681612b11565b60208082528101610b4681612b70565b60208082528101610b4681612bcf565b60208082528101610b4681612c08565b60208082528101610b4681612c41565b60208082528101610b4681612c7a565b60208082528101610b4681612cb3565b60208082528101610b4681612cec565b60208082528101610b4681612d4b565b60208082528101610b4681612d84565b60208082528101610b4681612dbd565b60208082528101610b4681612df6565b60208082528101610b4681612e55565b60208082528101610b4681612e8e565b60208082528101610b4681612ed2565b60208082528101610b4681612f0b565b60208082528101610b4681612f6a565b60208082528101610b4681612fa3565b60208082528101610b4681612fdc565b60208082528101610b4681613020565b60208082528101610b468161307f565b60208082528101610b46816130b8565b60208082528101610b46816130f1565b60208082528101610b468161312a565b60208082528101610b4681613189565b60208082528101610b46816131c2565b60208082528101610b46816131fb565b60208082528101610b4681613234565b60208082528101610b468161326d565b60208082528101610b46816132a6565b60208082528101610b46816132df565b604081016137d6828561295e565b81810360208301526124d68184612967565b60405181810167ffffffffffffffff8111828210171561380757600080fd5b604052919050565b600067ffffffffffffffff82111561382657600080fd5b5060209081020190565b600067ffffffffffffffff82111561384757600080fd5b506020601f91909101601f19160190565b90565b60200190565b50606490565b5190565b919050565b90815260200190565b6000610b4682613889565b151590565b6001600160a01b031690565b60ff1690565b6000610b46826000610b4682613879565b82818337506000910152565b60005b838110156138d35781810151838201526020016138bb565b838111156138e2576000848401525b50505050565b6000610b46826000610b4682613903565b601f01601f191690565b60601b90565b61391281613879565b811461075957600080fd5b61391281613884565b6139128161385856fe5472616e736665725265717565737428616464726573732075736572416464726573732c75696e743235365b5d20616d6f756e74732c616464726573735b5d20726563697069656e74732c75696e74323536206e6f6e6365294352434c3a206275726e20616d6f756e7420657863656564732062616c616e63654352434c3a207472616e7366657220616d6f756e742065786365656473206c6f636b65642062616c616e636557697468647261775265717565737428616464726573732075736572416464726573732c75696e7432353620616d6f756e742c6164647265737320726563697069656e742c626f6f6c206275726e2c75696e74323536206e6f6e63652957697468647261775265717565737428616464726573732075736572416464726573732c75696e7432353620616d6f756e742c737472696e6720726563697069656e742c61646472657373206465666952656c617965722c75696e74323536206665652c75696e74323536206e6f6e636529a365627a7a7231582095f404c6058511deab337bcbe3354173151245489721d4f9183196778e355af36c6578706572696d656e74616cf564736f6c63430005100040",
  "source": "pragma solidity 0.5.16;\r\npragma experimental ABIEncoderV2;\r\n\r\nimport \"./ICRCL.sol\";\r\nimport \"./TimeLock.sol\";\r\nimport \"../ERC777/IWrappedCfx.sol\";\r\n\r\nimport \"@openzeppelin/contracts/access/roles/WhitelistAdminRole.sol\";\r\nimport \"@openzeppelin/contracts/access/roles/WhitelistedRole.sol\";\r\nimport \"@openzeppelin/contracts/token/ERC20/IERC20.sol\";\r\nimport \"@openzeppelin/contracts/token/ERC777/IERC777Recipient.sol\";\r\nimport \"@openzeppelin/contracts/introspection/IERC1820Registry.sol\";\r\nimport \"@openzeppelin/contracts/lifecycle/Pausable.sol\";\r\n\r\n/* Remix IDE\r\nimport \"github.com/OpenZeppelin/openzeppelin-contracts/blob/v2.5.0/contracts/access/roles/WhitelistAdminRole.sol\";\r\nimport \"github.com/OpenZeppelin/openzeppelin-contracts/blob/v2.5.0/contracts/access/roles/WhitelistedRole.sol\";\r\nimport \"github.com/OpenZeppelin/openzeppelin-contracts/blob/v2.5.0/contracts/token/ERC20/IERC20.sol\";\r\nimport \"github.com/OpenZeppelin/openzeppelin-contracts/blob/v2.5.0/contracts/token/ERC777/IERC777Recipient.sol\";\r\nimport \"github.com/OpenZeppelin/openzeppelin-contracts/blob/v2.5.0/contracts/introspection/IERC1820Registry.sol\";\r\nimport \"github.com/OpenZeppelin/openzeppelin-contracts/blob/v2.5.0/contracts/lifecycle/Pausable.sol\";\r\n*/\r\n\r\nimport \"../ERC777/ITokenBase.sol\";\r\n\r\nimport \"./libs/LibEIP712.sol\";\r\nimport \"./libs/LibRequest.sol\";\r\nimport \"../boomflow/libs/LibSignatureValidator.sol\";\r\n\r\ncontract CRCL is ICRCL, WhitelistAdminRole, WhitelistedRole, TimeLock, IERC777Recipient, LibSignatureValidator, LibRequest, Pausable {\r\n    using SafeMath for uint256;\r\n\r\n    string _name;\r\n    bool _isCFX;\r\n    string _symbol;\r\n    uint256 _decimals;\r\n\r\n    address _tokenAddr;\r\n\r\n    mapping (address => uint256) private _balances;\r\n\r\n    uint256 private _totalSupply;\r\n\r\n    // Mapping of requestHash => timestamp; request hash only shows\r\n    // up if it is completed\r\n    mapping (bytes32 => uint256) public timestamps;\r\n\r\n    // Current min timestamp for valid requests\r\n    uint256 public timestamp = 0;\r\n\r\n    //0x1820a4B7618BdE71Dce8cdc73aAB6C95905faD24\r\n    //0x88887eD889e776bCBe2f0f9932EcFaBcDfCd1820\r\n    IERC1820Registry constant private ERC1820_REGISTRY = IERC1820Registry(address(0x88887eD889e776bCBe2f0f9932EcFaBcDfCd1820));\r\n\r\n    mapping (address => bool) private _accountCheck;\r\n    address[] private _accountList;\r\n\r\n    constructor (string memory name, string memory symbol, uint8 decimals, address tokenAddr, uint256 deferTime, bool isCFX)\r\n        TimeLock(deferTime) public {\r\n        _name = name;\r\n        _symbol = symbol;\r\n        _decimals = decimals;\r\n        _tokenAddr = tokenAddr;\r\n        _isCFX = isCFX;\r\n\r\n        ERC1820_REGISTRY.setInterfaceImplementer(address(this), keccak256(\"ERC777TokensRecipient\"), address(this));\r\n    }\r\n\r\n    function name() public view returns (string memory) {\r\n        return _name;\r\n    }\r\n\r\n    function symbol() public view returns (string memory) {\r\n        return _symbol;\r\n    }\r\n\r\n    function decimals() public view returns (uint256) {\r\n        return _decimals;\r\n    }\r\n\r\n    function totalSupply() public view returns (uint256) {\r\n        return _totalSupply;\r\n    }\r\n\r\n    function balanceOf(address account) public view returns (uint256) {\r\n        return _balances[account];\r\n    }\r\n\r\n    function getTokenAddress() public view returns (address) {\r\n        return _tokenAddr;\r\n    }\r\n\r\n    function setTokenAddress(address tokenAddr) public onlyWhitelistAdmin returns (bool) {\r\n        _tokenAddr = tokenAddr;\r\n        return true;\r\n    }\r\n\r\n    function accountTotal() public view returns (uint256) {\r\n        return _accountList.length;\r\n    }\r\n\r\n    function accountList(uint256 begin) public view returns (address[100] memory) {\r\n        require(begin >= 0 && begin < _accountList.length, \"CRCL: accountList out of range\");\r\n        address[100] memory res;\r\n        uint256 range = _min(_accountList.length, begin.add(100));\r\n        for (uint256 i = begin; i < range; i++) {\r\n            res[i-begin] = _accountList[i];\r\n        }\r\n        return res;\r\n    }\r\n\r\n    //----------------- Storage Optimization ---------------\r\n    function getTimestamp() public view returns (uint256) {\r\n        return timestamp;\r\n    }\r\n\r\n    function setTimestamp(uint256 newTimestamp)\r\n        public\r\n        onlyWhitelistAdmin\r\n    {\r\n        require(newTimestamp > timestamp, \"INVALID_NEW_TIMESTAMP\");\r\n        timestamp = newTimestamp;\r\n    }\r\n\r\n    function removeObsoleteData(bytes32[] memory hashes)\r\n        public\r\n        onlyWhitelistAdmin\r\n    {\r\n        for (uint i = 0; i < hashes.length; i++) {\r\n            // Request hash is finished\r\n            require(timestamps[hashes[i]] != 0, \"INVALID_FINISHED_STATUS\");\r\n\r\n            // Request timestamp is lower than current timestamp\r\n            require(timestamps[hashes[i]] < timestamp, \"INVALID_TIMESTAMP\");\r\n\r\n            // Remove requst data\r\n            removeData(hashes[i]);\r\n        }\r\n    }\r\n\r\n    function removeData(bytes32 requestHash) internal {\r\n        if (timestamps[requestHash] != 0) delete timestamps[requestHash];\r\n    }\r\n    //----------------- End Storage Optimization -----------\r\n\r\n    /**\r\n     * Transfer the amount of token from sender to recipient.\r\n     * Only WhitelistedRoles (WhitelistAdmin, Boomflow) have the access permission.\r\n     * Emits an {Transfer} event indicating the amount transferred.\r\n     *\r\n     * Requirements:\r\n     * - `sender` and `recipient` cannot be the zero address.\r\n     * - `sender` must have a balance of at least `amount`.\r\n     */\r\n    function transferFrom(address sender, address recipient, uint256 amount) public onlyWhitelisted whenNotPaused returns (bool) {\r\n        require(sender != address(0), \"CRCL: transfer from the zero address\");\r\n        require(recipient != address(0), \"CRCL: transfer to the zero address\");\r\n\r\n        _transfer(sender, recipient, amount);\r\n\r\n        return true;\r\n    }\r\n\r\n    /**\r\n     * Transfer tokens from one sender to a list of recipients according to a list of amounts.\r\n     * Only WhitelistAdmin have the access permission.\r\n     * Emits an {Transfer} event indicating the amount transferred.\r\n     *\r\n     * Requirements:\r\n     * - `request.userAddress` cannot be zero address.\r\n     * - `request.amounts` and `request.recipients` must have the same length.\r\n     */\r\n    function transferFor(TransferRequest memory request, bytes memory signature) public onlyWhitelistAdmin whenNotPaused returns (bool) {\r\n        require(request.userAddress != address(0), \"CRCL: transfer for zero address\");\r\n        require(request.amounts.length == request.recipients.length, \"CRCL: amount length mismatch\");\r\n\r\n        bytes32 requestHash = getTransferRequestHash(request);\r\n        require(isValidSignature(requestHash,request.userAddress,signature), \"CRCL: INVALID_TRANSFER_SIGNATURE\");\r\n\r\n        // Validate timestamp\r\n        require(request.nonce >= timestamp, \"CRCL: request expired\");\r\n        timestamps[requestHash] = request.nonce;\r\n\r\n        for(uint i = 0; i < request.recipients.length; i++){\r\n            _transfer(request.userAddress, request.recipients[i], request.amounts[i]);\r\n        }\r\n\r\n        return true;\r\n    }\r\n\r\n    // Implement ERC777Recipient interface\r\n    function tokensReceived(\r\n        address,\r\n        address from,\r\n        address to,\r\n        uint256 amount,\r\n        bytes memory userData,\r\n        bytes memory\r\n    )\r\n        public\r\n        whenNotPaused\r\n    {\r\n        require(_msgSender() == _tokenAddr, \"CRCL: deposit not authorized\");\r\n        require(to == address(this), \"CRCL: deposit not to CRCL\");\r\n\r\n        // Recover the recipient address\r\n        address addr = address(0);\r\n        assembly {\r\n            addr := mload(add(userData,20))\r\n        }\r\n        if (addr != address(0)) {\r\n            _deposit(from, addr, amount);\r\n        }\r\n    }\r\n\r\n    /**\r\n     * Withdraw the amount of token from sender's CRCL to recipient's ERC777 asset.\r\n     * Only WhitelistAdmin (DEX) have the access permission.\r\n     * The function will atomically perform the following operations:\r\n     *\r\n     *      1. Validate the user signature\r\n     *      2. Burn `request.amount` of CRCL token from `request.userAddress`\r\n     *      3. Transfer equal amount of ERC777 token from the contract address to `request.recipient`\r\n     *\r\n     * The ERC777 token emits a {Transfer} event indicating the amount transferred.\r\n     * The CRCL token emits a {Withdraw} event indicating the amount withdrawn.\r\n     *\r\n     * Requirements:\r\n     * - The request hash has to be unique.\r\n     * - The `request.isCrosschain` is False.\r\n     */\r\n    function withdraw(WithdrawRequest memory request, bytes memory signature) public onlyWhitelistAdmin whenNotPaused returns (bool) {\r\n        // Validate the user signature\r\n        bytes32 requestHash = getRequestHash(request);\r\n        require(isValidSignature(requestHash,request.userAddress,signature), \"INVALID_WITHDRAW_SIGNATURE\");\r\n\r\n        // Validate timestamp\r\n        require(request.nonce >= timestamp, \"CRCL: request expired\");\r\n        timestamps[requestHash] = request.nonce;\r\n\r\n        // unless for DEX-CFX in which case isCrosschain == true will\r\n        // withdraw directly to CFX instead of WCFX.\r\n        require(!request.burn || _isCFX, \"CRCL: should call withdrawCrossChain\");\r\n\r\n        // Special handling to withdraw WCFX => CFX\r\n        if (request.burn) {\r\n            // Burn the `request.amount` of WCFX from the current CRCL address, and receive CFX\r\n            IWrappedCfx(_tokenAddr).burn(request.amount, abi.encodePacked(request.recipient));\r\n\r\n            // Burn the `request.amount` of CRCL from the `request.userAddress`\r\n            require(_burn(request.userAddress, request.amount), \"CRCL: withdraw amount exceeds CRCL balance\");\r\n            return true;\r\n        }\r\n\r\n        // Withdraw the `request.amount` of CRCL\r\n        require(_withdraw(request.userAddress, request.recipient, request.amount), \"CRCL: withdraw error\");\r\n        return true;\r\n    }\r\n\r\n    /**\r\n     * Withdraw the amount of token from sender's CRCL to recipient's crosschain asset.\r\n     * Only WhitelistAdmin (DEX) have the access permission.\r\n     * The function will atomically perform the following operations:\r\n     *\r\n     *      1. Validate the user signature\r\n     *      2. Burn `request.amount` of CRCL token from `request.userAddress`\r\n     *      3. Burn equal amount of ERC777 token from the contract address\r\n     *\r\n     * Note that For the full-fledged crosschain withdraw, we are depending\r\n     * on Custodian counterparts to perform the actual crosschain operations\r\n     *\r\n     * The ERC777 token emits a {Burned} event indicating the amount withdrawn.\r\n     * The CRCL token emits a {Transfer} to null address event indicating the amount withdrawn.\r\n     *\r\n     * Requirements:\r\n     * - The request hash has to be unique.\r\n     * - The `request.isCrosschain` is True.\r\n     */\r\n    function withdrawCrossChain(WithdrawCrossChainRequest memory request, bytes memory signature) public onlyWhitelistAdmin whenNotPaused returns (bool) {\r\n        // Validate the user signature\r\n        bytes32 requestHash = getWithdrawCrossChainRequestHash(request);\r\n        require(isValidSignature(requestHash,request.userAddress,signature), \"INVALID_WITHDRAW_SIGNATURE\");\r\n\r\n        // Validate timestamp\r\n        require(request.nonce >= timestamp, \"CRCL: request expired\");\r\n        timestamps[requestHash] = request.nonce;\r\n\r\n        // Burn the `request.amount` of ERC777 from the current CRCL address\r\n        ITokenBase(_tokenAddr).burn(request.userAddress, request.amount, request.fee, request.recipient, request.defiRelayer);\r\n\r\n        // Burn the `request.amount` of CRCL from the `request.userAddress`\r\n        require(_burn(request.userAddress, request.amount), \"CRCL: withdraw amount exceeds CRCL balance\");\r\n\r\n        return true;\r\n    }\r\n\r\n    /**\r\n     * Request for a force withdraw of all sender's CRCL token.\r\n     * The function acknowledges the request and records the request time.\r\n     *\r\n     * Emits a {ScheduleWithdraw} event indicating the withdraw has been scheduled.\r\n     */\r\n    function requestForceWithdraw() public returns (bool) {\r\n        setScheduleTime(_msgSender(), block.timestamp);\r\n        return true;\r\n    }\r\n\r\n    /**\r\n     * Force withdraw all msg.sender's CRCL token to recipient's ERC20 token.\r\n     * The function acknowledges the request and records the request time.\r\n     *\r\n     * Emits a {Withdraw} event indicating the amount withdrawn.\r\n     */\r\n    function forceWithdraw(address recipient) public withdrawRequested pastTimeLock returns (bool) {\r\n        require(_withdraw(_msgSender(), recipient, _balances[_msgSender()]), \"CRCL: force withdraw error\");\r\n\r\n        setScheduleTime(_msgSender(), 0);\r\n\r\n        return true;\r\n    }\r\n\r\n    /**\r\n     * Pause the majority of functionalities of CRCL.\r\n     * Only WhitelistAdmin (DEX) have the access permission.\r\n     *\r\n     * Note that `requestForceWithdraw` and `forceWithdraw` is not subject to pause\r\n     */\r\n    function Pause()\r\n        public\r\n        onlyWhitelistAdmin\r\n    {\r\n        pause();\r\n    }\r\n\r\n    /**\r\n     * Resume all paused functionalities of Boomflow.\r\n     * Only WhitelistAdmin (DEX) have the access permission.\r\n     */\r\n    function Resume()\r\n        public\r\n        onlyWhitelistAdmin\r\n    {\r\n        unpause();\r\n    }\r\n\r\n    //Helper Functions\r\n    function _transfer(address sender, address recipient, uint256 amount) internal returns (bool) {\r\n        if (!_accountCheck[recipient]) {\r\n            _accountCheck[recipient] = true;\r\n            _accountList.push(recipient);\r\n        }\r\n\r\n        _balances[sender] = _balances[sender].sub(amount, \"CRCL: transfer amount exceeds locked balance\");\r\n        _balances[recipient] = _balances[recipient].add(amount);\r\n        emit Transfer(sender, recipient, amount);\r\n\r\n        return true;\r\n    }\r\n\r\n    function _mint(address account, uint256 amount) internal {\r\n        require(account != address(0), \"CRCL: mint to the zero address\");\r\n\r\n        if (!_accountCheck[account]) {\r\n            _accountCheck[account] = true;\r\n            _accountList.push(account);\r\n        }\r\n\r\n        _totalSupply = _totalSupply.add(amount);\r\n        _balances[account] = _balances[account].add(amount);\r\n        emit Transfer(address(0), account, amount);\r\n    }\r\n\r\n    function _burn(address account, uint256 amount) internal returns (bool) {\r\n        require(account != address(0), \"CRCL: burn from the zero address\");\r\n\r\n        _balances[account] = _balances[account].sub(amount, \"CRCL: burn amount exceeds balance\");\r\n        _totalSupply = _totalSupply.sub(amount);\r\n        emit Transfer(account, address(0), amount);\r\n\r\n        return true;\r\n    }\r\n\r\n    function _deposit(address sender, address recipient, uint256 amount) internal {\r\n        require(recipient != address(0), \"CRCL: deposit to the zero address\");\r\n        require(sender != address(this), \"CRCL: deposit from the CRCL address\");\r\n\r\n        _mint(recipient, amount);\r\n\r\n        emit Deposit(sender, recipient, amount);\r\n    }\r\n\r\n    function _withdraw(address sender, address recipient, uint256 amount) internal returns (bool) {\r\n        require(_burn(sender, amount), \"CRCL: withdraw amount exceeds CRCL balance\");\r\n        IERC20(_tokenAddr).transfer(recipient, amount);\r\n        emit Withdraw(sender, recipient, amount);\r\n\r\n        return true;\r\n    }\r\n\r\n    function _min(uint256 value1, uint256 value2) internal pure returns (uint256) {\r\n        if (value1 > value2) {\r\n            return value2;\r\n        }\r\n        return value1;\r\n    }\r\n}\r\n",
  "sourcePath": "/Users/kang/work/boomflow-contract/contracts/crc-l/CRCL.sol",
  "compiler": {
    "name": "solc",
    "version": "0.5.16+commit.9c3226ce.Emscripten.clang"
  },
  "schemaVersion": "3.0.23",
  "updatedAt": "2021-03-05T10:46:58.734Z",
  "devdoc": {
    "methods": {
      "getRequestHash((address,uint256,address,bool,uint256))": {
        "details": "Calculates Keccak-256 hash of the withdraw request.",
        "params": {
          "request": "The request structure."
        },
        "return": "Keccak-256 EIP712 hash of the withdraw request."
      },
      "getTransferRequestHash((address,uint256[],address[],uint256))": {
        "details": "Calculates Keccak-256 hash of the transfer request.",
        "params": {
          "request": "The request structure."
        },
        "return": "Keccak-256 EIP712 hash of the transfer request."
      },
      "getWithdrawCrossChainRequestHash((address,uint256,string,address,uint256,uint256))": {
        "details": "Calculates Keccak-256 hash of the crosschain withdraw request.",
        "params": {
          "request": "The request structure."
        },
        "return": "Keccak-256 EIP712 hash of the crosschain withdraw request."
      },
      "pause()": {
        "details": "Called by a pauser to pause, triggers stopped state."
      },
      "paused()": {
        "details": "Returns true if the contract is paused, and false otherwise."
      },
      "unpause()": {
        "details": "Called by a pauser to unpause, returns to normal state."
      }
    }
  },
  "userdoc": {
    "methods": {
      "Pause()": {
        "notice": "Pause the majority of functionalities of CRCL. Only WhitelistAdmin (DEX) have the access permission.      * Note that `requestForceWithdraw` and `forceWithdraw` is not subject to pause"
      },
      "Resume()": {
        "notice": "Resume all paused functionalities of Boomflow. Only WhitelistAdmin (DEX) have the access permission."
      },
      "forceWithdraw(address)": {
        "notice": "Force withdraw all msg.sender's CRCL token to recipient's ERC20 token. The function acknowledges the request and records the request time.      * Emits a {Withdraw} event indicating the amount withdrawn."
      },
      "requestForceWithdraw()": {
        "notice": "Request for a force withdraw of all sender's CRCL token. The function acknowledges the request and records the request time.      * Emits a {ScheduleWithdraw} event indicating the withdraw has been scheduled."
      },
      "transferFor((address,uint256[],address[],uint256),bytes)": {
        "notice": "Transfer tokens from one sender to a list of recipients according to a list of amounts. Only WhitelistAdmin have the access permission. Emits an {Transfer} event indicating the amount transferred.      * Requirements: - `request.userAddress` cannot be zero address. - `request.amounts` and `request.recipients` must have the same length."
      },
      "transferFrom(address,address,uint256)": {
        "notice": "Transfer the amount of token from sender to recipient. Only WhitelistedRoles (WhitelistAdmin, Boomflow) have the access permission. Emits an {Transfer} event indicating the amount transferred.      * Requirements: - `sender` and `recipient` cannot be the zero address. - `sender` must have a balance of at least `amount`."
      },
      "withdraw((address,uint256,address,bool,uint256),bytes)": {
        "notice": "Withdraw the amount of token from sender's CRCL to recipient's ERC777 asset. Only WhitelistAdmin (DEX) have the access permission. The function will atomically perform the following operations:      *      1. Validate the user signature     2. Burn `request.amount` of CRCL token from `request.userAddress`     3. Transfer equal amount of ERC777 token from the contract address to `request.recipient`      * The ERC777 token emits a {Transfer} event indicating the amount transferred. The CRCL token emits a {Withdraw} event indicating the amount withdrawn.      * Requirements: - The request hash has to be unique. - The `request.isCrosschain` is False."
      },
      "withdrawCrossChain((address,uint256,string,address,uint256,uint256),bytes)": {
        "notice": "Withdraw the amount of token from sender's CRCL to recipient's crosschain asset. Only WhitelistAdmin (DEX) have the access permission. The function will atomically perform the following operations:      *      1. Validate the user signature     2. Burn `request.amount` of CRCL token from `request.userAddress`     3. Burn equal amount of ERC777 token from the contract address      * Note that For the full-fledged crosschain withdraw, we are depending on Custodian counterparts to perform the actual crosschain operations      * The ERC777 token emits a {Burned} event indicating the amount withdrawn. The CRCL token emits a {Transfer} to null address event indicating the amount withdrawn.      * Requirements: - The request hash has to be unique. - The `request.isCrosschain` is True."
      }
    }
  }
}