{
  "contractName": "CustodianProxy",
  "abi": [
    {
      "constant": true,
      "inputs": [
        {
          "internalType": "address",
          "name": "",
          "type": "address"
        }
      ],
      "name": "defi_name",
      "outputs": [
        {
          "internalType": "string",
          "name": "",
          "type": "string"
        }
      ],
      "payable": false,
      "stateMutability": "view",
      "type": "function"
    },
    {
      "constant": false,
      "inputs": [
        {
          "internalType": "address",
          "name": "account",
          "type": "address"
        }
      ],
      "name": "addWhitelisted",
      "outputs": [],
      "payable": false,
      "stateMutability": "nonpayable",
      "type": "function"
    },
    {
      "constant": true,
      "inputs": [
        {
          "internalType": "address",
          "name": "token",
          "type": "address"
        }
      ],
      "name": "isToken",
      "outputs": [
        {
          "internalType": "bool",
          "name": "",
          "type": "bool"
        }
      ],
      "payable": false,
      "stateMutability": "view",
      "type": "function"
    },
    {
      "constant": true,
      "inputs": [
        {
          "internalType": "address",
          "name": "",
          "type": "address"
        },
        {
          "internalType": "address",
          "name": "",
          "type": "address"
        }
      ],
      "name": "defi_tokens",
      "outputs": [
        {
          "internalType": "address",
          "name": "",
          "type": "address"
        }
      ],
      "payable": false,
      "stateMutability": "view",
      "type": "function"
    },
    {
      "constant": true,
      "inputs": [],
      "name": "SPONSOR",
      "outputs": [
        {
          "internalType": "contract SponsorWhitelistControl",
          "name": "",
          "type": "address"
        }
      ],
      "payable": false,
      "stateMutability": "view",
      "type": "function"
    },
    {
      "constant": true,
      "inputs": [],
      "name": "member_change_nonce",
      "outputs": [
        {
          "internalType": "uint256",
          "name": "",
          "type": "uint256"
        }
      ],
      "payable": false,
      "stateMutability": "view",
      "type": "function"
    },
    {
      "constant": true,
      "inputs": [
        {
          "internalType": "uint256",
          "name": "",
          "type": "uint256"
        }
      ],
      "name": "custodians",
      "outputs": [
        {
          "internalType": "address",
          "name": "",
          "type": "address"
        }
      ],
      "payable": false,
      "stateMutability": "view",
      "type": "function"
    },
    {
      "constant": true,
      "inputs": [],
      "name": "default_custodian_op_ratio",
      "outputs": [
        {
          "internalType": "uint256",
          "name": "",
          "type": "uint256"
        }
      ],
      "payable": false,
      "stateMutability": "view",
      "type": "function"
    },
    {
      "constant": false,
      "inputs": [
        {
          "internalType": "address",
          "name": "account",
          "type": "address"
        }
      ],
      "name": "removeWhitelisted",
      "outputs": [],
      "payable": false,
      "stateMutability": "nonpayable",
      "type": "function"
    },
    {
      "constant": true,
      "inputs": [
        {
          "internalType": "uint256",
          "name": "",
          "type": "uint256"
        }
      ],
      "name": "defi_list",
      "outputs": [
        {
          "internalType": "address",
          "name": "",
          "type": "address"
        }
      ],
      "payable": false,
      "stateMutability": "view",
      "type": "function"
    },
    {
      "constant": false,
      "inputs": [
        {
          "internalType": "uint256",
          "name": "nonce",
          "type": "uint256"
        }
      ],
      "name": "setHotToColdNonce",
      "outputs": [],
      "payable": false,
      "stateMutability": "nonpayable",
      "type": "function"
    },
    {
      "constant": true,
      "inputs": [
        {
          "internalType": "string",
          "name": "",
          "type": "string"
        }
      ],
      "name": "admin_token",
      "outputs": [
        {
          "internalType": "bool",
          "name": "",
          "type": "bool"
        }
      ],
      "payable": false,
      "stateMutability": "view",
      "type": "function"
    },
    {
      "constant": true,
      "inputs": [
        {
          "internalType": "address",
          "name": "addr",
          "type": "address"
        }
      ],
      "name": "isCustodian",
      "outputs": [
        {
          "internalType": "bool",
          "name": "",
          "type": "bool"
        }
      ],
      "payable": false,
      "stateMutability": "view",
      "type": "function"
    },
    {
      "constant": true,
      "inputs": [
        {
          "internalType": "address",
          "name": "",
          "type": "address"
        },
        {
          "internalType": "string",
          "name": "",
          "type": "string"
        }
      ],
      "name": "custodian_info",
      "outputs": [
        {
          "internalType": "string",
          "name": "",
          "type": "string"
        }
      ],
      "payable": false,
      "stateMutability": "view",
      "type": "function"
    },
    {
      "constant": true,
      "inputs": [
        {
          "internalType": "address",
          "name": "account",
          "type": "address"
        }
      ],
      "name": "isWhitelisted",
      "outputs": [
        {
          "internalType": "bool",
          "name": "",
          "type": "bool"
        }
      ],
      "payable": false,
      "stateMutability": "view",
      "type": "function"
    },
    {
      "constant": false,
      "inputs": [],
      "name": "unpause",
      "outputs": [],
      "payable": false,
      "stateMutability": "nonpayable",
      "type": "function"
    },
    {
      "constant": true,
      "inputs": [
        {
          "internalType": "address",
          "name": "account",
          "type": "address"
        }
      ],
      "name": "isPauser",
      "outputs": [
        {
          "internalType": "bool",
          "name": "",
          "type": "bool"
        }
      ],
      "payable": false,
      "stateMutability": "view",
      "type": "function"
    },
    {
      "constant": true,
      "inputs": [
        {
          "internalType": "string",
          "name": "",
          "type": "string"
        }
      ],
      "name": "token_cooldown",
      "outputs": [
        {
          "internalType": "uint256",
          "name": "",
          "type": "uint256"
        }
      ],
      "payable": false,
      "stateMutability": "view",
      "type": "function"
    },
    {
      "constant": true,
      "inputs": [],
      "name": "mintable",
      "outputs": [
        {
          "internalType": "bool",
          "name": "",
          "type": "bool"
        }
      ],
      "payable": false,
      "stateMutability": "view",
      "type": "function"
    },
    {
      "constant": false,
      "inputs": [],
      "name": "renounceWhitelistAdmin",
      "outputs": [],
      "payable": false,
      "stateMutability": "nonpayable",
      "type": "function"
    },
    {
      "constant": true,
      "inputs": [],
      "name": "hot_to_cold_nonce",
      "outputs": [
        {
          "internalType": "uint256",
          "name": "",
          "type": "uint256"
        }
      ],
      "payable": false,
      "stateMutability": "view",
      "type": "function"
    },
    {
      "constant": true,
      "inputs": [
        {
          "internalType": "uint256",
          "name": "",
          "type": "uint256"
        }
      ],
      "name": "token_list",
      "outputs": [
        {
          "internalType": "contract ITokenBase",
          "name": "",
          "type": "address"
        }
      ],
      "payable": false,
      "stateMutability": "view",
      "type": "function"
    },
    {
      "constant": true,
      "inputs": [],
      "name": "finishedCount",
      "outputs": [
        {
          "internalType": "uint256",
          "name": "",
          "type": "uint256"
        }
      ],
      "payable": false,
      "stateMutability": "view",
      "type": "function"
    },
    {
      "constant": true,
      "inputs": [],
      "name": "paused",
      "outputs": [
        {
          "internalType": "bool",
          "name": "",
          "type": "bool"
        }
      ],
      "payable": false,
      "stateMutability": "view",
      "type": "function"
    },
    {
      "constant": true,
      "inputs": [],
      "name": "btc_lower_bound",
      "outputs": [
        {
          "internalType": "uint256",
          "name": "",
          "type": "uint256"
        }
      ],
      "payable": false,
      "stateMutability": "view",
      "type": "function"
    },
    {
      "constant": true,
      "inputs": [],
      "name": "minimal_sponsor_amount",
      "outputs": [
        {
          "internalType": "uint256",
          "name": "",
          "type": "uint256"
        }
      ],
      "payable": false,
      "stateMutability": "view",
      "type": "function"
    },
    {
      "constant": true,
      "inputs": [],
      "name": "admin_nonce",
      "outputs": [
        {
          "internalType": "uint256",
          "name": "",
          "type": "uint256"
        }
      ],
      "payable": false,
      "stateMutability": "view",
      "type": "function"
    },
    {
      "constant": true,
      "inputs": [
        {
          "internalType": "string",
          "name": "",
          "type": "string"
        }
      ],
      "name": "custodian_op_ratio",
      "outputs": [
        {
          "internalType": "uint256",
          "name": "",
          "type": "uint256"
        }
      ],
      "payable": false,
      "stateMutability": "view",
      "type": "function"
    },
    {
      "constant": true,
      "inputs": [],
      "name": "default_cooldown",
      "outputs": [
        {
          "internalType": "uint256",
          "name": "",
          "type": "uint256"
        }
      ],
      "payable": false,
      "stateMutability": "view",
      "type": "function"
    },
    {
      "constant": false,
      "inputs": [
        {
          "internalType": "address",
          "name": "token",
          "type": "address"
        },
        {
          "internalType": "address",
          "name": "addr",
          "type": "address"
        }
      ],
      "name": "transferOwnership",
      "outputs": [],
      "payable": false,
      "stateMutability": "nonpayable",
      "type": "function"
    },
    {
      "constant": false,
      "inputs": [],
      "name": "renouncePauser",
      "outputs": [],
      "payable": false,
      "stateMutability": "nonpayable",
      "type": "function"
    },
    {
      "constant": true,
      "inputs": [],
      "name": "custodianCount",
      "outputs": [
        {
          "internalType": "uint256",
          "name": "",
          "type": "uint256"
        }
      ],
      "payable": false,
      "stateMutability": "view",
      "type": "function"
    },
    {
      "constant": true,
      "inputs": [
        {
          "internalType": "string",
          "name": "",
          "type": "string"
        }
      ],
      "name": "burn_fee",
      "outputs": [
        {
          "internalType": "uint256",
          "name": "",
          "type": "uint256"
        }
      ],
      "payable": false,
      "stateMutability": "view",
      "type": "function"
    },
    {
      "constant": false,
      "inputs": [
        {
          "internalType": "address",
          "name": "account",
          "type": "address"
        }
      ],
      "name": "addWhitelistAdmin",
      "outputs": [],
      "payable": false,
      "stateMutability": "nonpayable",
      "type": "function"
    },
    {
      "constant": true,
      "inputs": [
        {
          "internalType": "string",
          "name": "",
          "type": "string"
        }
      ],
      "name": "mint_fee",
      "outputs": [
        {
          "internalType": "uint256",
          "name": "",
          "type": "uint256"
        }
      ],
      "payable": false,
      "stateMutability": "view",
      "type": "function"
    },
    {
      "constant": true,
      "inputs": [],
      "name": "in_migration",
      "outputs": [
        {
          "internalType": "bool",
          "name": "",
          "type": "bool"
        }
      ],
      "payable": false,
      "stateMutability": "view",
      "type": "function"
    },
    {
      "constant": true,
      "inputs": [
        {
          "internalType": "uint256",
          "name": "",
          "type": "uint256"
        },
        {
          "internalType": "uint256",
          "name": "",
          "type": "uint256"
        }
      ],
      "name": "history_custodians_cold",
      "outputs": [
        {
          "internalType": "address",
          "name": "",
          "type": "address"
        }
      ],
      "payable": false,
      "stateMutability": "view",
      "type": "function"
    },
    {
      "constant": true,
      "inputs": [],
      "name": "getProfitWallet",
      "outputs": [
        {
          "internalType": "address",
          "name": "",
          "type": "address"
        }
      ],
      "payable": false,
      "stateMutability": "view",
      "type": "function"
    },
    {
      "constant": true,
      "inputs": [
        {
          "internalType": "string",
          "name": "ref",
          "type": "string"
        }
      ],
      "name": "getReferenceToken",
      "outputs": [
        {
          "internalType": "address",
          "name": "",
          "type": "address"
        }
      ],
      "payable": false,
      "stateMutability": "view",
      "type": "function"
    },
    {
      "constant": true,
      "inputs": [
        {
          "internalType": "address",
          "name": "",
          "type": "address"
        }
      ],
      "name": "token_decimals",
      "outputs": [
        {
          "internalType": "uint8",
          "name": "",
          "type": "uint8"
        }
      ],
      "payable": false,
      "stateMutability": "view",
      "type": "function"
    },
    {
      "constant": true,
      "inputs": [
        {
          "internalType": "address",
          "name": "",
          "type": "address"
        }
      ],
      "name": "token_reference",
      "outputs": [
        {
          "internalType": "string",
          "name": "",
          "type": "string"
        }
      ],
      "payable": false,
      "stateMutability": "view",
      "type": "function"
    },
    {
      "constant": false,
      "inputs": [
        {
          "internalType": "address",
          "name": "account",
          "type": "address"
        }
      ],
      "name": "addPauser",
      "outputs": [],
      "payable": false,
      "stateMutability": "nonpayable",
      "type": "function"
    },
    {
      "constant": false,
      "inputs": [],
      "name": "pause",
      "outputs": [],
      "payable": false,
      "stateMutability": "nonpayable",
      "type": "function"
    },
    {
      "constant": true,
      "inputs": [
        {
          "internalType": "uint256",
          "name": "x",
          "type": "uint256"
        }
      ],
      "name": "historyCustodianCount",
      "outputs": [
        {
          "internalType": "uint256",
          "name": "",
          "type": "uint256"
        }
      ],
      "payable": false,
      "stateMutability": "view",
      "type": "function"
    },
    {
      "constant": false,
      "inputs": [],
      "name": "finishMigration",
      "outputs": [],
      "payable": false,
      "stateMutability": "nonpayable",
      "type": "function"
    },
    {
      "constant": true,
      "inputs": [
        {
          "internalType": "string",
          "name": "",
          "type": "string"
        }
      ],
      "name": "finished_tx",
      "outputs": [
        {
          "internalType": "bool",
          "name": "",
          "type": "bool"
        }
      ],
      "payable": false,
      "stateMutability": "view",
      "type": "function"
    },
    {
      "constant": false,
      "inputs": [
        {
          "internalType": "string",
          "name": "tx_id",
          "type": "string"
        }
      ],
      "name": "addFinishedTx",
      "outputs": [],
      "payable": false,
      "stateMutability": "nonpayable",
      "type": "function"
    },
    {
      "constant": true,
      "inputs": [],
      "name": "defiCount",
      "outputs": [
        {
          "internalType": "uint256",
          "name": "",
          "type": "uint256"
        }
      ],
      "payable": false,
      "stateMutability": "view",
      "type": "function"
    },
    {
      "constant": true,
      "inputs": [],
      "name": "tokenCount",
      "outputs": [
        {
          "internalType": "uint256",
          "name": "",
          "type": "uint256"
        }
      ],
      "payable": false,
      "stateMutability": "view",
      "type": "function"
    },
    {
      "constant": true,
      "inputs": [
        {
          "internalType": "string",
          "name": "s1",
          "type": "string"
        },
        {
          "internalType": "string",
          "name": "s2",
          "type": "string"
        }
      ],
      "name": "stringEqual",
      "outputs": [
        {
          "internalType": "bool",
          "name": "",
          "type": "bool"
        }
      ],
      "payable": false,
      "stateMutability": "pure",
      "type": "function"
    },
    {
      "constant": true,
      "inputs": [
        {
          "internalType": "address",
          "name": "",
          "type": "address"
        }
      ],
      "name": "custodians_name",
      "outputs": [
        {
          "internalType": "string",
          "name": "",
          "type": "string"
        }
      ],
      "payable": false,
      "stateMutability": "view",
      "type": "function"
    },
    {
      "constant": true,
      "inputs": [
        {
          "internalType": "uint256",
          "name": "",
          "type": "uint256"
        },
        {
          "internalType": "uint256",
          "name": "",
          "type": "uint256"
        }
      ],
      "name": "history_custodians",
      "outputs": [
        {
          "internalType": "address",
          "name": "",
          "type": "address"
        }
      ],
      "payable": false,
      "stateMutability": "view",
      "type": "function"
    },
    {
      "constant": true,
      "inputs": [
        {
          "internalType": "string",
          "name": "",
          "type": "string"
        }
      ],
      "name": "minimal_burn_value",
      "outputs": [
        {
          "internalType": "uint256",
          "name": "",
          "type": "uint256"
        }
      ],
      "payable": false,
      "stateMutability": "view",
      "type": "function"
    },
    {
      "constant": true,
      "inputs": [
        {
          "internalType": "uint256",
          "name": "",
          "type": "uint256"
        }
      ],
      "name": "finished_tx_list",
      "outputs": [
        {
          "internalType": "string",
          "name": "",
          "type": "string"
        }
      ],
      "payable": false,
      "stateMutability": "view",
      "type": "function"
    },
    {
      "constant": true,
      "inputs": [],
      "name": "token_sponsor",
      "outputs": [
        {
          "internalType": "contract ITokenSponsor",
          "name": "",
          "type": "address"
        }
      ],
      "payable": false,
      "stateMutability": "view",
      "type": "function"
    },
    {
      "constant": true,
      "inputs": [
        {
          "internalType": "address",
          "name": "account",
          "type": "address"
        }
      ],
      "name": "isWhitelistAdmin",
      "outputs": [
        {
          "internalType": "bool",
          "name": "",
          "type": "bool"
        }
      ],
      "payable": false,
      "stateMutability": "view",
      "type": "function"
    },
    {
      "constant": true,
      "inputs": [],
      "name": "start_epoch",
      "outputs": [
        {
          "internalType": "uint256",
          "name": "",
          "type": "uint256"
        }
      ],
      "payable": false,
      "stateMutability": "view",
      "type": "function"
    },
    {
      "constant": true,
      "inputs": [],
      "name": "profit_wallet",
      "outputs": [
        {
          "internalType": "contract IProfitWallet",
          "name": "",
          "type": "address"
        }
      ],
      "payable": false,
      "stateMutability": "view",
      "type": "function"
    },
    {
      "constant": true,
      "inputs": [],
      "name": "impl_proposal",
      "outputs": [
        {
          "internalType": "address",
          "name": "",
          "type": "address"
        }
      ],
      "payable": false,
      "stateMutability": "view",
      "type": "function"
    },
    {
      "constant": false,
      "inputs": [],
      "name": "renounceWhitelisted",
      "outputs": [],
      "payable": false,
      "stateMutability": "nonpayable",
      "type": "function"
    },
    {
      "constant": true,
      "inputs": [],
      "name": "safe_sponsor_amount",
      "outputs": [
        {
          "internalType": "uint256",
          "name": "",
          "type": "uint256"
        }
      ],
      "payable": false,
      "stateMutability": "view",
      "type": "function"
    },
    {
      "constant": true,
      "inputs": [
        {
          "internalType": "string",
          "name": "",
          "type": "string"
        }
      ],
      "name": "wallet_fee",
      "outputs": [
        {
          "internalType": "uint256",
          "name": "",
          "type": "uint256"
        }
      ],
      "payable": false,
      "stateMutability": "view",
      "type": "function"
    },
    {
      "constant": true,
      "inputs": [],
      "name": "btc_upper_bound",
      "outputs": [
        {
          "internalType": "uint256",
          "name": "",
          "type": "uint256"
        }
      ],
      "payable": false,
      "stateMutability": "view",
      "type": "function"
    },
    {
      "constant": true,
      "inputs": [],
      "name": "btc_minimal_mint_value",
      "outputs": [
        {
          "internalType": "uint256",
          "name": "",
          "type": "uint256"
        }
      ],
      "payable": false,
      "stateMutability": "view",
      "type": "function"
    },
    {
      "constant": true,
      "inputs": [],
      "name": "btc_minimal_burn_value",
      "outputs": [
        {
          "internalType": "uint256",
          "name": "",
          "type": "uint256"
        }
      ],
      "payable": false,
      "stateMutability": "view",
      "type": "function"
    },
    {
      "constant": true,
      "inputs": [
        {
          "internalType": "string",
          "name": "",
          "type": "string"
        }
      ],
      "name": "minimal_mint_value",
      "outputs": [
        {
          "internalType": "uint256",
          "name": "",
          "type": "uint256"
        }
      ],
      "payable": false,
      "stateMutability": "view",
      "type": "function"
    },
    {
      "constant": true,
      "inputs": [
        {
          "internalType": "uint256",
          "name": "",
          "type": "uint256"
        }
      ],
      "name": "custodians_cold",
      "outputs": [
        {
          "internalType": "address",
          "name": "",
          "type": "address"
        }
      ],
      "payable": false,
      "stateMutability": "view",
      "type": "function"
    },
    {
      "inputs": [
        {
          "internalType": "address[]",
          "name": "_custodians",
          "type": "address[]"
        },
        {
          "internalType": "address[]",
          "name": "_custodians_cold",
          "type": "address[]"
        },
        {
          "internalType": "address",
          "name": "impl",
          "type": "address"
        }
      ],
      "payable": false,
      "stateMutability": "nonpayable",
      "type": "constructor"
    },
    {
      "payable": true,
      "stateMutability": "payable",
      "type": "fallback"
    },
    {
      "anonymous": false,
      "inputs": [
        {
          "indexed": true,
          "internalType": "uint256",
          "name": "nonce",
          "type": "uint256"
        }
      ],
      "name": "MemberChange",
      "type": "event"
    },
    {
      "anonymous": false,
      "inputs": [
        {
          "indexed": true,
          "internalType": "address",
          "name": "addr",
          "type": "address"
        }
      ],
      "name": "Constructed",
      "type": "event"
    },
    {
      "anonymous": false,
      "inputs": [
        {
          "indexed": true,
          "internalType": "uint256",
          "name": "amount",
          "type": "uint256"
        },
        {
          "indexed": true,
          "internalType": "uint256",
          "name": "btc_cold_balance",
          "type": "uint256"
        },
        {
          "indexed": true,
          "internalType": "uint256",
          "name": "nonce",
          "type": "uint256"
        }
      ],
      "name": "BtcHotToCold",
      "type": "event"
    },
    {
      "anonymous": false,
      "inputs": [
        {
          "indexed": true,
          "internalType": "address",
          "name": "token",
          "type": "address"
        },
        {
          "indexed": true,
          "internalType": "address",
          "name": "member",
          "type": "address"
        },
        {
          "indexed": false,
          "internalType": "uint256",
          "name": "amount",
          "type": "uint256"
        },
        {
          "indexed": false,
          "internalType": "uint256",
          "name": "op_fee",
          "type": "uint256"
        },
        {
          "indexed": false,
          "internalType": "string",
          "name": "tx_id",
          "type": "string"
        }
      ],
      "name": "Reimburse",
      "type": "event"
    },
    {
      "anonymous": false,
      "inputs": [
        {
          "indexed": true,
          "internalType": "address",
          "name": "implementation",
          "type": "address"
        }
      ],
      "name": "Upgraded",
      "type": "event"
    },
    {
      "anonymous": false,
      "inputs": [
        {
          "indexed": true,
          "internalType": "address",
          "name": "account",
          "type": "address"
        }
      ],
      "name": "WhitelistedAdded",
      "type": "event"
    },
    {
      "anonymous": false,
      "inputs": [
        {
          "indexed": true,
          "internalType": "address",
          "name": "account",
          "type": "address"
        }
      ],
      "name": "WhitelistedRemoved",
      "type": "event"
    },
    {
      "anonymous": false,
      "inputs": [
        {
          "indexed": true,
          "internalType": "address",
          "name": "account",
          "type": "address"
        }
      ],
      "name": "WhitelistAdminAdded",
      "type": "event"
    },
    {
      "anonymous": false,
      "inputs": [
        {
          "indexed": true,
          "internalType": "address",
          "name": "account",
          "type": "address"
        }
      ],
      "name": "WhitelistAdminRemoved",
      "type": "event"
    },
    {
      "anonymous": false,
      "inputs": [
        {
          "indexed": false,
          "internalType": "address",
          "name": "account",
          "type": "address"
        }
      ],
      "name": "Paused",
      "type": "event"
    },
    {
      "anonymous": false,
      "inputs": [
        {
          "indexed": false,
          "internalType": "address",
          "name": "account",
          "type": "address"
        }
      ],
      "name": "Unpaused",
      "type": "event"
    },
    {
      "anonymous": false,
      "inputs": [
        {
          "indexed": true,
          "internalType": "address",
          "name": "account",
          "type": "address"
        }
      ],
      "name": "PauserAdded",
      "type": "event"
    },
    {
      "anonymous": false,
      "inputs": [
        {
          "indexed": true,
          "internalType": "address",
          "name": "account",
          "type": "address"
        }
      ],
      "name": "PauserRemoved",
      "type": "event"
    },
    {
      "constant": true,
      "inputs": [],
      "name": "implementation",
      "outputs": [
        {
          "internalType": "address",
          "name": "impl",
          "type": "address"
        }
      ],
      "payable": false,
      "stateMutability": "view",
      "type": "function"
    }
  ],
  "bytecode": "0x60806040526001805461ff00191690553480156200001c57600080fd5b506040516200342838038062003428833981810160405260608110156200004257600080fd5b81019080805160405193929190846401000000008211156200006357600080fd5b9083019060208201858111156200007957600080fd5b82518660208202830111640100000000821117156200009757600080fd5b82525081516020918201928201910280838360005b83811015620000c6578181015183820152602001620000ac565b5050505090500160405260200180516040519392919084640100000000821115620000f057600080fd5b9083019060208201858111156200010657600080fd5b82518660208202830111640100000000821117156200012457600080fd5b82525081516020918201928201910280838360005b838110156200015357818101518382015260200162000139565b5050505091909101604052506020015191506200018d90506200017e6001600160e01b03620004ae16565b6001600160e01b03620004b316565b6001805460ff19169055620001bd620001ae6001600160e01b03620004ae16565b6001600160e01b036200050516565b81518351146200022e57604080517f08c379a000000000000000000000000000000000000000000000000000000000815260206004820152601060248201527f6c656e677468206e6f74206d6174636800000000000000000000000000000000604482015290519081900360640190fd5b82516200024390600490602086019062000926565b5081516200025990600590602085019062000926565b5060006021819055604080517f455243373737546f6b656e73526563697069656e740000000000000000000000815281519081900360150181207f29965a1d00000000000000000000000000000000000000000000000000000000825230600483018190526024830191909152604482015290517388887ed889e776bcbe2f0f9932ecfabcdfcd1820926329965a1d926064808201939182900301818387803b1580156200030657600080fd5b505af11580156200031b573d6000803e3d6000fd5b5050602a805461ff001960ff1990911660011716610100179055506200034b90506001600160e01b036200055716565b6200035f816001600160e01b03620006a416565b604080516001808252818301909252606091602080830190803883390190505090506000816000815181106200039157fe5b6001600160a01b039092166020928302919091018201526040517f10128d3e00000000000000000000000000000000000000000000000000000000815260048101828152835160248301528351730888000000000000000000000000000000000001936310128d3e938693928392604490920191858101910280838360005b838110156200042a57818101518382015260200162000410565b5050505090500192505050600060405180830381600087803b1580156200045057600080fd5b505af115801562000465573d6000803e3d6000fd5b505050506200047a336200074a60201b60201c565b60405133907e40d54d5e5b097202376b55bcbaaedd2ee468ce4496f1d30030c4e5308bf94d90600090a250505050620009b7565b335b90565b620004ce8160006200079c60201b6200273f1790919060201c565b6040516001600160a01b038216907f6719d08c1888103bea251a4ed56406bd0c3e69723c8a1686e017e7bbe159b6f890600090a250565b620005208160026200079c60201b6200273f1790919060201c565b6040516001600160a01b038216907f22380c05984257a1cb900161c713dd71d39e74820f1aea43bd3f1bdd2096129990600090a250565b6200057d6200056e6001600160e01b03620004ae16565b6001600160e01b036200084316565b620005d4576040517f08c379a0000000000000000000000000000000000000000000000000000000008152600401808060200182810382526030815260200180620033d66030913960400191505060405180910390fd5b60015460ff16156200064757604080517f08c379a000000000000000000000000000000000000000000000000000000000815260206004820152601060248201527f5061757361626c653a2070617573656400000000000000000000000000000000604482015290519081900360640190fd5b6001805460ff1916811790557f62e78cea01bee320cd4e420270b5ea74000d11b0c9f74754ebdbfc544b05a258620006876001600160e01b03620004ae16565b604080516001600160a01b039092168252519081900360200190a1565b620006ba816200086660201b620028bf1760201c565b6200072657604080517f08c379a000000000000000000000000000000000000000000000000000000000815260206004820152601460248201527f6e6f6e2d636f6e74726163742061646472657373000000000000000000000000604482015290519081900360640190fd5b7f360894a13ba1a3210667c828492db98dca3e2076cc3735a920a3ca505d382bbc55565b620007658160036200079c60201b6200273f1790919060201c565b6040516001600160a01b038216907fee1504a83b6d4a361f4c1dc78ab59bfa30d6a3b6612c403e86bb01ef2984295f90600090a250565b620007b182826001600160e01b03620008a316565b156200081e57604080517f08c379a000000000000000000000000000000000000000000000000000000000815260206004820152601f60248201527f526f6c65733a206163636f756e7420616c72656164792068617320726f6c6500604482015290519081900360640190fd5b6001600160a01b0316600090815260209190915260409020805460ff19166001179055565b600062000860826000620008a360201b620025171790919060201c565b92915050565b6000813f7fc5d2460186f7233c927e7db2dcc703c0e500b653ca82273b7bfad8045d85a47081158015906200089b5750808214155b949350505050565b60006001600160a01b03821662000906576040517f08c379a0000000000000000000000000000000000000000000000000000000008152600401808060200182810382526022815260200180620034066022913960400191505060405180910390fd5b506001600160a01b03166000908152602091909152604090205460ff1690565b8280548282559060005260206000209081019282156200097e579160200282015b828111156200097e57825182546001600160a01b0319166001600160a01b0390911617825560209092019160019091019062000947565b506200098c92915062000990565b5090565b620004b091905b808211156200098c5780546001600160a01b031916815560010162000997565b612a0f80620009c76000396000f3fe60806040526004361061042f5760003560e01c80637362d9c811610228578063a2727f7f11610128578063d0134296116100bb578063ea8f05c81161008a578063f9706e931161006f578063f9706e931461151f578063f97d45a014611534578063fc0a7f03146115e75761042f565b8063ea8f05c8146114f5578063eb3109a41461150a5761042f565b8063d013429614611403578063d6cd947314611418578063e0d57af01461142d578063e954d223146114425761042f565b8063b51a8e59116100f7578063b51a8e5914611391578063bb5f747b146113a6578063c91b9b7c146113d9578063cc45a099146113ee5761042f565b8063a2727f7f14611251578063aaa6756114611284578063ac16fd76146112b4578063aea4bca1146113675761042f565b806382dc1ec4116101bb5780638d390d461161018a578063943318ba1161016f578063943318ba146110ed5780639f181b5e14611102578063a1298368146111175761042f565b80638d390d4614610f875780638dae5cee1461103a5761042f565b806382dc1ec414610f005780638456cb5914610f33578063889e5b5914610f4857806388d761f214610f725761042f565b80637b0a0944116101f75780637b0a094414610dbc5780637c267fa414610dd15780637c34b8ee14610e845780637e14381414610ecd5761042f565b80637362d9c814610c9157806376fe8d8e14610cc4578063776b92aa14610d7757806377fcb0c614610d8c5761042f565b80634b3391ae116103335780635f38ddee116102c65780636b33b261116102955780636ef8d66d1161027a5780636ef8d66d14610bb45780636f7949f714610bc957806372b4bd8914610bde5761042f565b80636b33b26114610b645780636d43542114610b795761042f565b80635f38ddee14610a7257806360ee135014610a87578063638900e114610a9c57806368ea13ae14610ab15761042f565b8063538cad0011610302578063538cad0014610a0957806356165fc414610a335780635c60da1b14610a485780635c975abb14610a5d5761042f565b80634b3391ae146109175780634bf365df146109ca5780634c5a628c146109df57806351c28103146109f45761042f565b8063291d9549116103c657806335c80c8c116103955780633af32abf1161037a5780633af32abf1461089c5780633f4ba83a146108cf57806346fbf68e146108e45761042f565b806335c80c8c146107a65780633acbdbcb146107d95761042f565b8063291d95491461066c5780632f32ce401461069f578063305630cf146106c9578063348cfcbd146106f35761042f565b80631d073a7a116104025780631d073a7a146105f15780631f0498f9146106065780632299bda61461062d578063249c5797146106575761042f565b806303f37b061461047657806310154bad1461051e57806319f37361146105535780631bd31e2d1461059a575b6040517f360894a13ba1a3210667c828492db98dca3e2076cc3735a920a3ca505d382bbc5436600083376000803684845af43d806000853e818015610472578185f35b8185fd5b34801561048257600080fd5b506104a96004803603602081101561049957600080fd5b50356001600160a01b0316611611565b6040805160208082528351818301528351919283929083019185019080838360005b838110156104e35781810151838201526020016104cb565b50505050905090810190601f1680156105105780820380516001836020036101000a031916815260200191505b509250505060405180910390f35b34801561052a57600080fd5b506105516004803603602081101561054157600080fd5b50356001600160a01b03166116ac565b005b34801561055f57600080fd5b506105866004803603602081101561057657600080fd5b50356001600160a01b0316611703565b604080519115158252519081900360200190f35b3480156105a657600080fd5b506105d5600480360360408110156105bd57600080fd5b506001600160a01b0381358116916020013516611764565b604080516001600160a01b039092168252519081900360200190f35b3480156105fd57600080fd5b506105d561178a565b34801561061257600080fd5b5061061b6117a2565b60408051918252519081900360200190f35b34801561063957600080fd5b506105d56004803603602081101561065057600080fd5b50356117a8565b34801561066357600080fd5b5061061b6117cf565b34801561067857600080fd5b506105516004803603602081101561068f57600080fd5b50356001600160a01b03166117d5565b3480156106ab57600080fd5b506105d5600480360360208110156106c257600080fd5b5035611824565b3480156106d557600080fd5b50610551600480360360208110156106ec57600080fd5b5035611831565b3480156106ff57600080fd5b506105866004803603602081101561071657600080fd5b81019060208101813564010000000081111561073157600080fd5b82018360208201111561074357600080fd5b8035906020019184600183028401116401000000008311171561076557600080fd5b91908080601f0160208091040260200160405190810160405280939291908181526020018383808284376000920191909152509295506118ee945050505050565b3480156107b257600080fd5b50610586600480360360208110156107c957600080fd5b50356001600160a01b031661190e565b3480156107e557600080fd5b506104a9600480360360408110156107fc57600080fd5b6001600160a01b03823516919081019060408101602082013564010000000081111561082757600080fd5b82018360208201111561083957600080fd5b8035906020019184600183028401116401000000008311171561085b57600080fd5b91908080601f016020809104026020016040519081016040528093929190818152602001838380828437600092019190915250929550611969945050505050565b3480156108a857600080fd5b50610586600480360360208110156108bf57600080fd5b50356001600160a01b03166119e8565b3480156108db57600080fd5b50610551611a01565b3480156108f057600080fd5b506105866004803603602081101561090757600080fd5b50356001600160a01b0316611af3565b34801561092357600080fd5b5061061b6004803603602081101561093a57600080fd5b81019060208101813564010000000081111561095557600080fd5b82018360208201111561096757600080fd5b8035906020019184600183028401116401000000008311171561098957600080fd5b91908080601f016020809104026020016040519081016040528093929190818152602001838380828437600092019190915250929550611b05945050505050565b3480156109d657600080fd5b50610586611b22565b3480156109eb57600080fd5b50610551611b30565b348015610a0057600080fd5b5061061b611b42565b348015610a1557600080fd5b506105d560048036036020811015610a2c57600080fd5b5035611b48565b348015610a3f57600080fd5b5061061b611b55565b348015610a5457600080fd5b506105d5611b5c565b348015610a6957600080fd5b50610586611b81565b348015610a7e57600080fd5b5061061b611b8a565b348015610a9357600080fd5b5061061b611b90565b348015610aa857600080fd5b5061061b611b96565b348015610abd57600080fd5b5061061b60048036036020811015610ad457600080fd5b810190602081018135640100000000811115610aef57600080fd5b820183602082011115610b0157600080fd5b80359060200191846001830284011164010000000083111715610b2357600080fd5b91908080601f016020809104026020016040519081016040528093929190818152602001838380828437600092019190915250929550611b9c945050505050565b348015610b7057600080fd5b5061061b611bb9565b348015610b8557600080fd5b5061055160048036036040811015610b9c57600080fd5b506001600160a01b0381358116916020013516611bbf565b348015610bc057600080fd5b50610551611c69565b348015610bd557600080fd5b5061061b611c79565b348015610bea57600080fd5b5061061b60048036036020811015610c0157600080fd5b810190602081018135640100000000811115610c1c57600080fd5b820183602082011115610c2e57600080fd5b80359060200191846001830284011164010000000083111715610c5057600080fd5b91908080601f016020809104026020016040519081016040528093929190818152602001838380828437600092019190915250929550611c7f945050505050565b348015610c9d57600080fd5b5061055160048036036020811015610cb457600080fd5b50356001600160a01b0316611c9c565b348015610cd057600080fd5b5061061b60048036036020811015610ce757600080fd5b810190602081018135640100000000811115610d0257600080fd5b820183602082011115610d1457600080fd5b80359060200191846001830284011164010000000083111715610d3657600080fd5b91908080601f016020809104026020016040519081016040528093929190818152602001838380828437600092019190915250929550611ceb945050505050565b348015610d8357600080fd5b50610586611d08565b348015610d9857600080fd5b506105d560048036036040811015610daf57600080fd5b5080359060200135611d11565b348015610dc857600080fd5b506105d5611d46565b348015610ddd57600080fd5b506105d560048036036020811015610df457600080fd5b810190602081018135640100000000811115610e0f57600080fd5b820183602082011115610e2157600080fd5b80359060200191846001830284011164010000000083111715610e4357600080fd5b91908080601f016020809104026020016040519081016040528093929190818152602001838380828437600092019190915250929550611d55945050505050565b348015610e9057600080fd5b50610eb760048036036020811015610ea757600080fd5b50356001600160a01b0316611dc6565b6040805160ff9092168252519081900360200190f35b348015610ed957600080fd5b506104a960048036036020811015610ef057600080fd5b50356001600160a01b0316611ddb565b348015610f0c57600080fd5b5061055160048036036020811015610f2357600080fd5b50356001600160a01b0316611e43565b348015610f3f57600080fd5b50610551611e92565b348015610f5457600080fd5b5061061b60048036036020811015610f6b57600080fd5b5035611f65565b348015610f7e57600080fd5b50610551611f77565b348015610f9357600080fd5b5061058660048036036020811015610faa57600080fd5b810190602081018135640100000000811115610fc557600080fd5b820183602082011115610fd757600080fd5b80359060200191846001830284011164010000000083111715610ff957600080fd5b91908080601f016020809104026020016040519081016040528093929190818152602001838380828437600092019190915250929550611f8b945050505050565b34801561104657600080fd5b506105516004803603602081101561105d57600080fd5b81019060208101813564010000000081111561107857600080fd5b82018360208201111561108a57600080fd5b803590602001918460018302840111640100000000831117156110ac57600080fd5b91908080601f016020809104026020016040519081016040528093929190818152602001838380828437600092019190915250929550611fab945050505050565b3480156110f957600080fd5b5061061b612186565b34801561110e57600080fd5b5061061b61218c565b34801561112357600080fd5b506105866004803603604081101561113a57600080fd5b81019060208101813564010000000081111561115557600080fd5b82018360208201111561116757600080fd5b8035906020019184600183028401116401000000008311171561118957600080fd5b91908080601f01602080910402602001604051908101604052809392919081815260200183838082843760009201919091525092959493602081019350359150506401000000008111156111dc57600080fd5b8201836020820111156111ee57600080fd5b8035906020019184600183028401116401000000008311171561121057600080fd5b91908080601f016020809104026020016040519081016040528093929190818152602001838380828437600092019190915250929550612192945050505050565b34801561125d57600080fd5b506104a96004803603602081101561127457600080fd5b50356001600160a01b0316612279565b34801561129057600080fd5b506105d5600480360360408110156112a757600080fd5b50803590602001356122e1565b3480156112c057600080fd5b5061061b600480360360208110156112d757600080fd5b8101906020810181356401000000008111156112f257600080fd5b82018360208201111561130457600080fd5b8035906020019184600183028401116401000000008311171561132657600080fd5b91908080601f0160208091040260200160405190810160405280939291908181526020018383808284376000920191909152509295506122fa945050505050565b34801561137357600080fd5b506104a96004803603602081101561138a57600080fd5b5035612317565b34801561139d57600080fd5b506105d561238a565b3480156113b257600080fd5b50610586600480360360208110156113c957600080fd5b50356001600160a01b0316612399565b3480156113e557600080fd5b5061061b6123ac565b3480156113fa57600080fd5b506105d56123b2565b34801561140f57600080fd5b506105d56123c1565b34801561142457600080fd5b506105516123d0565b34801561143957600080fd5b5061061b6123e0565b34801561144e57600080fd5b5061061b6004803603602081101561146557600080fd5b81019060208101813564010000000081111561148057600080fd5b82018360208201111561149257600080fd5b803590602001918460018302840111640100000000831117156114b457600080fd5b91908080601f0160208091040260200160405190810160405280939291908181526020018383808284376000920191909152509295506123e6945050505050565b34801561150157600080fd5b5061061b612403565b34801561151657600080fd5b5061061b612409565b34801561152b57600080fd5b5061061b61240f565b34801561154057600080fd5b5061061b6004803603602081101561155757600080fd5b81019060208101813564010000000081111561157257600080fd5b82018360208201111561158457600080fd5b803590602001918460018302840111640100000000831117156115a657600080fd5b91908080601f016020809104026020016040519081016040528093929190818152602001838380828437600092019190915250929550612415945050505050565b3480156115f357600080fd5b506105d56004803603602081101561160a57600080fd5b5035612432565b60166020908152600091825260409182902080548351601f6002600019610100600186161502019093169290920491820184900484028101840190945280845290918301828280156116a45780601f10611679576101008083540402835291602001916116a4565b820191906000526020600020905b81548152906001019060200180831161168757829003601f168201915b505050505081565b6116bc6116b761243f565b612399565b6116f75760405162461bcd60e51b815260040180806020018281038252604081526020018061296f6040913960400191505060405180910390fd5b61170081612443565b50565b600a54600090815b8181101561175857836001600160a01b0316600a828154811061172a57fe5b6000918252602090912001546001600160a01b031614156117505760019250505061175f565b60010161170b565b5060009150505b919050565b60156020908152600092835260408084209091529082529020546001600160a01b031681565b73088800000000000000000000000000000000000181565b60215481565b600481815481106117b557fe5b6000918252602090912001546001600160a01b0316905081565b601a5481565b6117e06116b761243f565b61181b5760405162461bcd60e51b815260040180806020018281038252604081526020018061296f6040913960400191505060405180910390fd5b6117008161248b565b601781815481106117b557fe5b602a5460ff16611888576040805162461bcd60e51b815260206004820152600e60248201527f6d6967726174696f6e20646f6e65000000000000000000000000000000000000604482015290519081900360640190fd5b611890611b81565b6118e1576040805162461bcd60e51b815260206004820152601760248201527f6e6f742070617573656420696e206d6967726174696f6e000000000000000000604482015290519081900360640190fd5b6118e96124d3565b602255565b8051602081830181018051600d8252928201919093012091525460ff1681565b6000805b60045481101561196057826001600160a01b03166004828154811061193357fe5b6000918252602090912001546001600160a01b0316141561195857600191505061175f565b600101611912565b50600092915050565b60076020908152600092835260409283902082518084018301805192815290830193830193909320925281548351601f60026000196101006001861615020190931692909204918201839004830281018301909452808452908301828280156116a45780601f10611679576101008083540402835291602001916116a4565b60006119fb60038363ffffffff61251716565b92915050565b611a11611a0c61243f565b611af3565b611a4c5760405162461bcd60e51b81526004018080602001828103825260308152602001806128fc6030913960400191505060405180910390fd5b60015460ff16611aa3576040805162461bcd60e51b815260206004820152601460248201527f5061757361626c653a206e6f7420706175736564000000000000000000000000604482015290519081900360640190fd5b6001805460ff191690557f5db9ee0a495bf2e6ff9c91a7834c1ba4fdd244a5e8aa4e537bd38aeae4b073aa611ad661243f565b604080516001600160a01b039092168252519081900360200190a1565b60006119fb818363ffffffff61251716565b805160208183018101805160148252928201919093012091525481565b602a54610100900460ff1681565b611b40611b3b61243f565b61257e565b565b60225481565b600a81815481106117b557fe5b6020545b90565b7f360894a13ba1a3210667c828492db98dca3e2076cc3735a920a3ca505d382bbc5490565b60015460ff1690565b60235481565b60185481565b60295481565b8051602081830181018051601c8252928201919093012091525481565b601b5481565b611bc76124d3565b6000600a611bd4846125c6565b81548110611bde57fe5b6000918252602082200154604080517ff2fde38b0000000000000000000000000000000000000000000000000000000081526001600160a01b0386811660048301529151919092169350839263f2fde38b926024808201939182900301818387803b158015611c4c57600080fd5b505af1158015611c60573d6000803e3d6000fd5b50505050505050565b611b40611c7461243f565b612667565b60045490565b8051602081830181018051600f8252928201919093012091525481565b611ca76116b761243f565b611ce25760405162461bcd60e51b815260040180806020018281038252604081526020018061296f6040913960400191505060405180910390fd5b611700816126af565b805160208183018101805160108252928201919093012091525481565b602a5460ff1681565b60096020528160005260406000208181548110611d2a57fe5b6000918252602090912001546001600160a01b03169150829050565b601e546001600160a01b031690565b6000600e826040518082805190602001908083835b60208310611d895780518252601f199092019160209182019101611d6a565b51815160209384036101000a60001901801990921691161790529201948552506040519384900301909220546001600160a01b0316949350505050565b600c6020526000908152604090205460ff1681565b600b6020908152600091825260409182902080548351601f6002600019610100600186161502019093169290920491820184900484028101840190945280845290918301828280156116a45780601f10611679576101008083540402835291602001916116a4565b611e4e611a0c61243f565b611e895760405162461bcd60e51b81526004018080602001828103825260308152602001806128fc6030913960400191505060405180910390fd5b611700816126f7565b611e9d611a0c61243f565b611ed85760405162461bcd60e51b81526004018080602001828103825260308152602001806128fc6030913960400191505060405180910390fd5b60015460ff1615611f30576040805162461bcd60e51b815260206004820152601060248201527f5061757361626c653a2070617573656400000000000000000000000000000000604482015290519081900360640190fd5b6001805460ff1916811790557f62e78cea01bee320cd4e420270b5ea74000d11b0c9f74754ebdbfc544b05a258611ad661243f565b60009081526008602052604090205490565b611f7f6124d3565b602a805460ff19169055565b8051602081830181018051601f8252928201919093012091525460ff1681565b602a5460ff16612002576040805162461bcd60e51b815260206004820152600e60248201527f6d6967726174696f6e20646f6e65000000000000000000000000000000000000604482015290519081900360640190fd5b61200a611b81565b61205b576040805162461bcd60e51b815260206004820152601760248201527f6e6f742070617573656420696e206d6967726174696f6e000000000000000000604482015290519081900360640190fd5b6120636124d3565b601f816040518082805190602001908083835b602083106120955780518252601f199092019160209182019101612076565b51815160209384036101000a600019018019909216911617905292019485525060405193849003019092205460ff1691506117009050576001601f826040518082805190602001908083835b602083106121005780518252601f1990920191602091820191016120e1565b51815160209384036101000a6000190180199092169116179052920194855250604051938490038101909320805460ff1916941515949094179093555080546001810180835560008390528451909350612181927fc97bfaf2f8ee708c303a06d134f5ecd8389ae0432af62dc132a24118292866bb90920191850190612827565b505050565b60175490565b600a5490565b6000816040516020018082805190602001908083835b602083106121c75780518252601f1990920191602091820191016121a8565b6001836020036101000a03801982511681845116808217855250505050505090500191505060405160208183030381529060405280519060200120836040516020018082805190602001908083835b602083106122355780518252601f199092019160209182019101612216565b6001836020036101000a0380198251168184511680821785525050505050509050019150506040516020818303038152906040528051906020012014905092915050565b60066020908152600091825260409182902080548351601f6002600019610100600186161502019093169290920491820184900484028101840190945280845290918301828280156116a45780601f10611679576101008083540402835291602001916116a4565b60086020528160005260406000208181548110611d2a57fe5b805160208183018101805160138252928201919093012091525481565b6020818154811061232457fe5b600091825260209182902001805460408051601f60026000196101006001871615020190941693909304928301859004850281018501909152818152935090918301828280156116a45780601f10611679576101008083540402835291602001916116a4565b601d546001600160a01b031681565b60006119fb60028363ffffffff61251716565b60275481565b601e546001600160a01b031681565b6028546001600160a01b031681565b611b406123db61243f565b61248b565b60195481565b805160208183018101805160118252928201919093012091525481565b60245481565b60255481565b60265481565b805160208183018101805160128252928201919093012091525481565b600581815481106117b557fe5b3390565b61245460038263ffffffff61273f16565b6040516001600160a01b038216907fee1504a83b6d4a361f4c1dc78ab59bfa30d6a3b6612c403e86bb01ef2984295f90600090a250565b61249c60038263ffffffff6127c016565b6040516001600160a01b038216907f270d9b30cf5b0793bbfd54c9d5b94aeb49462b8148399000265144a8722da6b690600090a250565b6124dc33612399565b611b405760405162461bcd60e51b815260040180806020018281038252602c8152602001806129af602c913960400191505060405180910390fd5b60006001600160a01b03821661255e5760405162461bcd60e51b815260040180806020018281038252602281526020018061294d6022913960400191505060405180910390fd5b506001600160a01b03166000908152602091909152604090205460ff1690565b61258f60028263ffffffff6127c016565b6040516001600160a01b038216907f0a8eb35e5ca14b3d6f28e4abf2f128dbab231a58b56e89beb5d636115001e16590600090a250565b600a54600090815b8181101561261957836001600160a01b0316600a82815481106125ed57fe5b6000918252602090912001546001600160a01b0316141561261157915061175f9050565b6001016125ce565b506040805162461bcd60e51b815260206004820152601160248201527f746f6b656e20756e737570706f72746564000000000000000000000000000000604482015290519081900360640190fd5b61267860008263ffffffff6127c016565b6040516001600160a01b038216907fcd265ebaf09df2871cc7bd4133404a235ba12eff2041bb89d9c714a2621c7c7e90600090a250565b6126c060028263ffffffff61273f16565b6040516001600160a01b038216907f22380c05984257a1cb900161c713dd71d39e74820f1aea43bd3f1bdd2096129990600090a250565b61270860008263ffffffff61273f16565b6040516001600160a01b038216907f6719d08c1888103bea251a4ed56406bd0c3e69723c8a1686e017e7bbe159b6f890600090a250565b6127498282612517565b1561279b576040805162461bcd60e51b815260206004820152601f60248201527f526f6c65733a206163636f756e7420616c72656164792068617320726f6c6500604482015290519081900360640190fd5b6001600160a01b0316600090815260209190915260409020805460ff19166001179055565b6127ca8282612517565b6128055760405162461bcd60e51b815260040180806020018281038252602181526020018061292c6021913960400191505060405180910390fd5b6001600160a01b0316600090815260209190915260409020805460ff19169055565b828054600181600116156101000203166002900490600052602060002090601f016020900481019282601f1061286857805160ff1916838001178555612895565b82800160010185558215612895579182015b8281111561289557825182559160200191906001019061287a565b506128a19291506128a5565b5090565b611b5991905b808211156128a157600081556001016128ab565b6000813f7fc5d2460186f7233c927e7db2dcc703c0e500b653ca82273b7bfad8045d85a47081158015906128f35750808214155b94935050505056fe506175736572526f6c653a2063616c6c657220646f6573206e6f742068617665207468652050617573657220726f6c65526f6c65733a206163636f756e7420646f6573206e6f74206861766520726f6c65526f6c65733a206163636f756e7420697320746865207a65726f206164647265737357686974656c69737441646d696e526f6c653a2063616c6c657220646f6573206e6f742068617665207468652057686974656c69737441646d696e20726f6c6563616c6c657220646f6573206e6f742068617665207468652057686974656c69737441646d696e20726f6c65a265627a7a72315820a980561d7e1af7f61d5c0aee89f27e9522e761219b69ddcfa03c44329133fa8664736f6c634300050b0032506175736572526f6c653a2063616c6c657220646f6573206e6f742068617665207468652050617573657220726f6c65526f6c65733a206163636f756e7420697320746865207a65726f2061646472657373",
  "source": "pragma solidity 0.5.11;\n\nimport \"./CustodianData.sol\";\nimport \"@openzeppelin/contracts/utils/Address.sol\";\n\ncontract CustodianProxy is CustodianData {\n    constructor(\n        address[] memory _custodians,\n        address[] memory _custodians_cold,\n        address impl\n    ) public {\n        require(\n            _custodians.length == _custodians_cold.length,\n            \"length not match\"\n        );\n        // custodian key\n        custodians = _custodians;\n        custodians_cold = _custodians_cold;\n        // member change nonce\n        member_change_nonce = 0;\n        // register 1820\n        ERC1820_REGISTRY.setInterfaceImplementer(\n            address(this),\n            keccak256(\"ERC777TokensRecipient\"),\n            address(this)\n        );\n        // migration\n        in_migration = true;\n        // mintable\n        mintable = true;\n        // pause & set implementation\n        pause();\n        setImplementation(impl);\n        // cfx sponsor\n        address[] memory users = new address[](1);\n        users[0] = address(0);\n        SPONSOR.addPrivilege(users);\n        // add whitelist\n        _addWhitelisted(msg.sender);\n        emit Constructed(msg.sender);\n    }\n\n    // get current implementation contract address\n    function implementation() external view returns (address impl) {\n        bytes32 slot = IMPLEMENTATION_SLOT;\n        assembly {\n            impl := sload(slot)\n        }\n    }\n\n    function() external payable {\n        assembly {\n            let ptr := mload(0x40)\n            let impl := sload(IMPLEMENTATION_SLOT)\n            // (1) copy incoming call data\n            calldatacopy(ptr, 0, calldatasize)\n\n            // (2) forward call to logic contract\n            let result := delegatecall(gas, impl, ptr, calldatasize, 0, 0)\n            let size := returndatasize\n\n            // (3) retrieve return data\n            returndatacopy(ptr, 0, size)\n\n            // (4) forward return data back to caller\n            switch result\n                case 0 {\n                    revert(ptr, size)\n                }\n                default {\n                    return(ptr, size)\n                }\n        }\n    }\n}\n",
  "sourcePath": "/Users/wangfan/Project/custodian/contracts/core/CustodianProxy.sol",
  "compiler": {
    "name": "solc",
    "version": "0.5.11+commit.c082d0b4.Emscripten.clang"
  },
  "schemaVersion": "3.0.23",
  "updatedAt": "2020-10-24T19:06:36.788Z",
  "devdoc": {
    "methods": {
      "pause()": {
        "details": "Called by a pauser to pause, triggers stopped state."
      },
      "paused()": {
        "details": "Returns true if the contract is paused, and false otherwise."
      },
      "unpause()": {
        "details": "Called by a pauser to unpause, returns to normal state."
      }
    }
  },
  "userdoc": {
    "methods": {}
  }
}