{
  "contractName": "TokenBase",
  "abi": [
    {
      "constant": false,
      "inputs": [
        {
          "internalType": "address",
          "name": "tokenHolder",
          "type": "address"
        },
        {
          "internalType": "address",
          "name": "operator",
          "type": "address"
        }
      ],
      "name": "setRevokedDefaultOperator",
      "outputs": [],
      "payable": false,
      "stateMutability": "nonpayable",
      "type": "function"
    },
    {
      "constant": true,
      "inputs": [],
      "name": "defaultOperators",
      "outputs": [
        {
          "internalType": "address[]",
          "name": "",
          "type": "address[]"
        }
      ],
      "payable": false,
      "stateMutability": "view",
      "type": "function"
    },
    {
      "constant": true,
      "inputs": [],
      "name": "name",
      "outputs": [
        {
          "internalType": "string",
          "name": "",
          "type": "string"
        }
      ],
      "payable": false,
      "stateMutability": "view",
      "type": "function"
    },
    {
      "constant": false,
      "inputs": [
        {
          "internalType": "address",
          "name": "spender",
          "type": "address"
        },
        {
          "internalType": "uint256",
          "name": "value",
          "type": "uint256"
        }
      ],
      "name": "approve",
      "outputs": [
        {
          "internalType": "bool",
          "name": "",
          "type": "bool"
        }
      ],
      "payable": false,
      "stateMutability": "nonpayable",
      "type": "function"
    },
    {
      "constant": true,
      "inputs": [],
      "name": "totalSupply",
      "outputs": [
        {
          "internalType": "uint256",
          "name": "",
          "type": "uint256"
        }
      ],
      "payable": false,
      "stateMutability": "view",
      "type": "function"
    },
    {
      "constant": true,
      "inputs": [],
      "name": "SPONSOR",
      "outputs": [
        {
          "internalType": "contract SponsorWhitelistControl",
          "name": "",
          "type": "address"
        }
      ],
      "payable": false,
      "stateMutability": "view",
      "type": "function"
    },
    {
      "constant": false,
      "inputs": [
        {
          "internalType": "address",
          "name": "holder",
          "type": "address"
        },
        {
          "internalType": "address",
          "name": "recipient",
          "type": "address"
        },
        {
          "internalType": "uint256",
          "name": "amount",
          "type": "uint256"
        }
      ],
      "name": "transferFrom",
      "outputs": [
        {
          "internalType": "bool",
          "name": "",
          "type": "bool"
        }
      ],
      "payable": false,
      "stateMutability": "nonpayable",
      "type": "function"
    },
    {
      "constant": true,
      "inputs": [],
      "name": "decimals",
      "outputs": [
        {
          "internalType": "uint8",
          "name": "",
          "type": "uint8"
        }
      ],
      "payable": false,
      "stateMutability": "pure",
      "type": "function"
    },
    {
      "constant": true,
      "inputs": [
        {
          "internalType": "uint256",
          "name": "",
          "type": "uint256"
        }
      ],
      "name": "_account_list",
      "outputs": [
        {
          "internalType": "address",
          "name": "",
          "type": "address"
        }
      ],
      "payable": false,
      "stateMutability": "view",
      "type": "function"
    },
    {
      "constant": false,
      "inputs": [],
      "name": "unpause",
      "outputs": [],
      "payable": false,
      "stateMutability": "nonpayable",
      "type": "function"
    },
    {
      "constant": false,
      "inputs": [
        {
          "internalType": "address",
          "name": "tokenHolder",
          "type": "address"
        },
        {
          "internalType": "address",
          "name": "operator",
          "type": "address"
        }
      ],
      "name": "setOpeartor",
      "outputs": [],
      "payable": false,
      "stateMutability": "nonpayable",
      "type": "function"
    },
    {
      "constant": true,
      "inputs": [
        {
          "internalType": "address",
          "name": "account",
          "type": "address"
        }
      ],
      "name": "isPauser",
      "outputs": [
        {
          "internalType": "bool",
          "name": "",
          "type": "bool"
        }
      ],
      "payable": false,
      "stateMutability": "view",
      "type": "function"
    },
    {
      "constant": true,
      "inputs": [],
      "name": "granularity",
      "outputs": [
        {
          "internalType": "uint256",
          "name": "",
          "type": "uint256"
        }
      ],
      "payable": false,
      "stateMutability": "pure",
      "type": "function"
    },
    {
      "constant": true,
      "inputs": [],
      "name": "paused",
      "outputs": [
        {
          "internalType": "bool",
          "name": "",
          "type": "bool"
        }
      ],
      "payable": false,
      "stateMutability": "view",
      "type": "function"
    },
    {
      "constant": false,
      "inputs": [
        {
          "internalType": "address",
          "name": "sender",
          "type": "address"
        },
        {
          "internalType": "address",
          "name": "recipient",
          "type": "address"
        },
        {
          "internalType": "uint256",
          "name": "amount",
          "type": "uint256"
        },
        {
          "internalType": "bytes",
          "name": "data",
          "type": "bytes"
        },
        {
          "internalType": "bytes",
          "name": "operatorData",
          "type": "bytes"
        }
      ],
      "name": "operatorSend",
      "outputs": [],
      "payable": false,
      "stateMutability": "nonpayable",
      "type": "function"
    },
    {
      "constant": false,
      "inputs": [],
      "name": "renouncePauser",
      "outputs": [],
      "payable": false,
      "stateMutability": "nonpayable",
      "type": "function"
    },
    {
      "constant": true,
      "inputs": [
        {
          "internalType": "address",
          "name": "tokenHolder",
          "type": "address"
        }
      ],
      "name": "balanceOf",
      "outputs": [
        {
          "internalType": "uint256",
          "name": "",
          "type": "uint256"
        }
      ],
      "payable": false,
      "stateMutability": "view",
      "type": "function"
    },
    {
      "constant": false,
      "inputs": [],
      "name": "renounceOwnership",
      "outputs": [],
      "payable": false,
      "stateMutability": "nonpayable",
      "type": "function"
    },
    {
      "constant": true,
      "inputs": [],
      "name": "in_migration",
      "outputs": [
        {
          "internalType": "bool",
          "name": "",
          "type": "bool"
        }
      ],
      "payable": false,
      "stateMutability": "view",
      "type": "function"
    },
    {
      "constant": false,
      "inputs": [
        {
          "internalType": "address",
          "name": "account",
          "type": "address"
        }
      ],
      "name": "addPauser",
      "outputs": [],
      "payable": false,
      "stateMutability": "nonpayable",
      "type": "function"
    },
    {
      "constant": false,
      "inputs": [],
      "name": "pause",
      "outputs": [],
      "payable": false,
      "stateMutability": "nonpayable",
      "type": "function"
    },
    {
      "constant": false,
      "inputs": [],
      "name": "finishMigration",
      "outputs": [],
      "payable": false,
      "stateMutability": "nonpayable",
      "type": "function"
    },
    {
      "constant": true,
      "inputs": [],
      "name": "owner",
      "outputs": [
        {
          "internalType": "address",
          "name": "",
          "type": "address"
        }
      ],
      "payable": false,
      "stateMutability": "view",
      "type": "function"
    },
    {
      "constant": true,
      "inputs": [],
      "name": "isOwner",
      "outputs": [
        {
          "internalType": "bool",
          "name": "",
          "type": "bool"
        }
      ],
      "payable": false,
      "stateMutability": "view",
      "type": "function"
    },
    {
      "constant": false,
      "inputs": [
        {
          "internalType": "address",
          "name": "operator",
          "type": "address"
        }
      ],
      "name": "authorizeOperator",
      "outputs": [],
      "payable": false,
      "stateMutability": "nonpayable",
      "type": "function"
    },
    {
      "constant": true,
      "inputs": [],
      "name": "symbol",
      "outputs": [
        {
          "internalType": "string",
          "name": "",
          "type": "string"
        }
      ],
      "payable": false,
      "stateMutability": "view",
      "type": "function"
    },
    {
      "constant": false,
      "inputs": [
        {
          "internalType": "address",
          "name": "recipient",
          "type": "address"
        },
        {
          "internalType": "uint256",
          "name": "amount",
          "type": "uint256"
        },
        {
          "internalType": "bytes",
          "name": "data",
          "type": "bytes"
        }
      ],
      "name": "send",
      "outputs": [],
      "payable": false,
      "stateMutability": "nonpayable",
      "type": "function"
    },
    {
      "constant": false,
      "inputs": [
        {
          "internalType": "address",
          "name": "recipient",
          "type": "address"
        },
        {
          "internalType": "uint256",
          "name": "amount",
          "type": "uint256"
        }
      ],
      "name": "transfer",
      "outputs": [
        {
          "internalType": "bool",
          "name": "",
          "type": "bool"
        }
      ],
      "payable": false,
      "stateMutability": "nonpayable",
      "type": "function"
    },
    {
      "constant": true,
      "inputs": [],
      "name": "_creator",
      "outputs": [
        {
          "internalType": "address",
          "name": "",
          "type": "address"
        }
      ],
      "payable": false,
      "stateMutability": "view",
      "type": "function"
    },
    {
      "constant": true,
      "inputs": [
        {
          "internalType": "address",
          "name": "operator",
          "type": "address"
        },
        {
          "internalType": "address",
          "name": "tokenHolder",
          "type": "address"
        }
      ],
      "name": "isOperatorFor",
      "outputs": [
        {
          "internalType": "bool",
          "name": "",
          "type": "bool"
        }
      ],
      "payable": false,
      "stateMutability": "view",
      "type": "function"
    },
    {
      "constant": false,
      "inputs": [
        {
          "internalType": "address",
          "name": "holder",
          "type": "address"
        },
        {
          "internalType": "address",
          "name": "spender",
          "type": "address"
        },
        {
          "internalType": "uint256",
          "name": "amount",
          "type": "uint256"
        }
      ],
      "name": "setAllowance",
      "outputs": [],
      "payable": false,
      "stateMutability": "nonpayable",
      "type": "function"
    },
    {
      "constant": true,
      "inputs": [
        {
          "internalType": "address",
          "name": "holder",
          "type": "address"
        },
        {
          "internalType": "address",
          "name": "spender",
          "type": "address"
        }
      ],
      "name": "allowance",
      "outputs": [
        {
          "internalType": "uint256",
          "name": "",
          "type": "uint256"
        }
      ],
      "payable": false,
      "stateMutability": "view",
      "type": "function"
    },
    {
      "constant": false,
      "inputs": [
        {
          "internalType": "address",
          "name": "account",
          "type": "address"
        },
        {
          "internalType": "uint256",
          "name": "balance",
          "type": "uint256"
        }
      ],
      "name": "setBalance",
      "outputs": [],
      "payable": false,
      "stateMutability": "nonpayable",
      "type": "function"
    },
    {
      "constant": true,
      "inputs": [],
      "name": "accountCount",
      "outputs": [
        {
          "internalType": "uint256",
          "name": "",
          "type": "uint256"
        }
      ],
      "payable": false,
      "stateMutability": "view",
      "type": "function"
    },
    {
      "constant": false,
      "inputs": [
        {
          "internalType": "address",
          "name": "account",
          "type": "address"
        }
      ],
      "name": "addAccount",
      "outputs": [],
      "payable": false,
      "stateMutability": "nonpayable",
      "type": "function"
    },
    {
      "constant": false,
      "inputs": [
        {
          "internalType": "address",
          "name": "newOwner",
          "type": "address"
        }
      ],
      "name": "transferOwnership",
      "outputs": [],
      "payable": false,
      "stateMutability": "nonpayable",
      "type": "function"
    },
    {
      "constant": false,
      "inputs": [
        {
          "internalType": "uint256",
          "name": "newTotalSupply",
          "type": "uint256"
        }
      ],
      "name": "setTotalSupply",
      "outputs": [],
      "payable": false,
      "stateMutability": "nonpayable",
      "type": "function"
    },
    {
      "constant": false,
      "inputs": [
        {
          "internalType": "address",
          "name": "operator",
          "type": "address"
        }
      ],
      "name": "revokeOperator",
      "outputs": [],
      "payable": false,
      "stateMutability": "nonpayable",
      "type": "function"
    },
    {
      "inputs": [
        {
          "internalType": "string",
          "name": "name",
          "type": "string"
        },
        {
          "internalType": "string",
          "name": "symbol",
          "type": "string"
        },
        {
          "internalType": "address[]",
          "name": "defaultOperators",
          "type": "address[]"
        }
      ],
      "payable": false,
      "stateMutability": "nonpayable",
      "type": "constructor"
    },
    {
      "anonymous": false,
      "inputs": [
        {
          "indexed": true,
          "internalType": "address",
          "name": "toAddress",
          "type": "address"
        },
        {
          "indexed": true,
          "internalType": "uint256",
          "name": "amount",
          "type": "uint256"
        },
        {
          "indexed": false,
          "internalType": "address",
          "name": "fee_address",
          "type": "address"
        },
        {
          "indexed": false,
          "internalType": "uint256",
          "name": "fee",
          "type": "uint256"
        },
        {
          "indexed": false,
          "internalType": "address",
          "name": "defi",
          "type": "address"
        },
        {
          "indexed": false,
          "internalType": "string",
          "name": "tx_id",
          "type": "string"
        }
      ],
      "name": "Minted",
      "type": "event"
    },
    {
      "anonymous": false,
      "inputs": [
        {
          "indexed": true,
          "internalType": "uint256",
          "name": "amount",
          "type": "uint256"
        },
        {
          "indexed": false,
          "internalType": "string",
          "name": "toAddress",
          "type": "string"
        },
        {
          "indexed": false,
          "internalType": "uint256",
          "name": "fee",
          "type": "uint256"
        },
        {
          "indexed": true,
          "internalType": "address",
          "name": "fromAddress",
          "type": "address"
        },
        {
          "indexed": false,
          "internalType": "address",
          "name": "defi_relayer",
          "type": "address"
        },
        {
          "indexed": false,
          "internalType": "uint256",
          "name": "burn_cnt",
          "type": "uint256"
        }
      ],
      "name": "Burnt",
      "type": "event"
    },
    {
      "anonymous": false,
      "inputs": [
        {
          "indexed": true,
          "internalType": "address",
          "name": "previousOwner",
          "type": "address"
        },
        {
          "indexed": true,
          "internalType": "address",
          "name": "newOwner",
          "type": "address"
        }
      ],
      "name": "OwnershipTransferred",
      "type": "event"
    },
    {
      "anonymous": false,
      "inputs": [
        {
          "indexed": true,
          "internalType": "address",
          "name": "from",
          "type": "address"
        },
        {
          "indexed": true,
          "internalType": "address",
          "name": "to",
          "type": "address"
        },
        {
          "indexed": false,
          "internalType": "uint256",
          "name": "value",
          "type": "uint256"
        }
      ],
      "name": "Transfer",
      "type": "event"
    },
    {
      "anonymous": false,
      "inputs": [
        {
          "indexed": true,
          "internalType": "address",
          "name": "owner",
          "type": "address"
        },
        {
          "indexed": true,
          "internalType": "address",
          "name": "spender",
          "type": "address"
        },
        {
          "indexed": false,
          "internalType": "uint256",
          "name": "value",
          "type": "uint256"
        }
      ],
      "name": "Approval",
      "type": "event"
    },
    {
      "anonymous": false,
      "inputs": [
        {
          "indexed": true,
          "internalType": "address",
          "name": "operator",
          "type": "address"
        },
        {
          "indexed": true,
          "internalType": "address",
          "name": "from",
          "type": "address"
        },
        {
          "indexed": true,
          "internalType": "address",
          "name": "to",
          "type": "address"
        },
        {
          "indexed": false,
          "internalType": "uint256",
          "name": "amount",
          "type": "uint256"
        },
        {
          "indexed": false,
          "internalType": "bytes",
          "name": "data",
          "type": "bytes"
        },
        {
          "indexed": false,
          "internalType": "bytes",
          "name": "operatorData",
          "type": "bytes"
        }
      ],
      "name": "Sent",
      "type": "event"
    },
    {
      "anonymous": false,
      "inputs": [
        {
          "indexed": true,
          "internalType": "address",
          "name": "operator",
          "type": "address"
        },
        {
          "indexed": true,
          "internalType": "address",
          "name": "to",
          "type": "address"
        },
        {
          "indexed": false,
          "internalType": "uint256",
          "name": "amount",
          "type": "uint256"
        },
        {
          "indexed": false,
          "internalType": "bytes",
          "name": "data",
          "type": "bytes"
        },
        {
          "indexed": false,
          "internalType": "bytes",
          "name": "operatorData",
          "type": "bytes"
        }
      ],
      "name": "Minted",
      "type": "event"
    },
    {
      "anonymous": false,
      "inputs": [
        {
          "indexed": true,
          "internalType": "address",
          "name": "operator",
          "type": "address"
        },
        {
          "indexed": true,
          "internalType": "address",
          "name": "from",
          "type": "address"
        },
        {
          "indexed": false,
          "internalType": "uint256",
          "name": "amount",
          "type": "uint256"
        },
        {
          "indexed": false,
          "internalType": "bytes",
          "name": "data",
          "type": "bytes"
        },
        {
          "indexed": false,
          "internalType": "bytes",
          "name": "operatorData",
          "type": "bytes"
        }
      ],
      "name": "Burned",
      "type": "event"
    },
    {
      "anonymous": false,
      "inputs": [
        {
          "indexed": true,
          "internalType": "address",
          "name": "operator",
          "type": "address"
        },
        {
          "indexed": true,
          "internalType": "address",
          "name": "tokenHolder",
          "type": "address"
        }
      ],
      "name": "AuthorizedOperator",
      "type": "event"
    },
    {
      "anonymous": false,
      "inputs": [
        {
          "indexed": true,
          "internalType": "address",
          "name": "operator",
          "type": "address"
        },
        {
          "indexed": true,
          "internalType": "address",
          "name": "tokenHolder",
          "type": "address"
        }
      ],
      "name": "RevokedOperator",
      "type": "event"
    },
    {
      "anonymous": false,
      "inputs": [
        {
          "indexed": false,
          "internalType": "address",
          "name": "account",
          "type": "address"
        }
      ],
      "name": "Paused",
      "type": "event"
    },
    {
      "anonymous": false,
      "inputs": [
        {
          "indexed": false,
          "internalType": "address",
          "name": "account",
          "type": "address"
        }
      ],
      "name": "Unpaused",
      "type": "event"
    },
    {
      "anonymous": false,
      "inputs": [
        {
          "indexed": true,
          "internalType": "address",
          "name": "account",
          "type": "address"
        }
      ],
      "name": "PauserAdded",
      "type": "event"
    },
    {
      "anonymous": false,
      "inputs": [
        {
          "indexed": true,
          "internalType": "address",
          "name": "account",
          "type": "address"
        }
      ],
      "name": "PauserRemoved",
      "type": "event"
    },
    {
      "constant": false,
      "inputs": [
        {
          "internalType": "address",
          "name": "account",
          "type": "address"
        },
        {
          "internalType": "uint256",
          "name": "amount",
          "type": "uint256"
        },
        {
          "internalType": "address",
          "name": "fee_address",
          "type": "address"
        },
        {
          "internalType": "uint256",
          "name": "fee",
          "type": "uint256"
        },
        {
          "internalType": "address",
          "name": "defi",
          "type": "address"
        },
        {
          "internalType": "string",
          "name": "tx_id",
          "type": "string"
        }
      ],
      "name": "mint",
      "outputs": [
        {
          "internalType": "bool",
          "name": "",
          "type": "bool"
        }
      ],
      "payable": false,
      "stateMutability": "nonpayable",
      "type": "function"
    },
    {
      "constant": false,
      "inputs": [
        {
          "internalType": "address",
          "name": "user_addr",
          "type": "address"
        },
        {
          "internalType": "uint256",
          "name": "amount",
          "type": "uint256"
        },
        {
          "internalType": "uint256",
          "name": "expected_fee",
          "type": "uint256"
        },
        {
          "internalType": "string",
          "name": "addr",
          "type": "string"
        },
        {
          "internalType": "address",
          "name": "defi_relayer",
          "type": "address"
        }
      ],
      "name": "burn",
      "outputs": [
        {
          "internalType": "bool",
          "name": "",
          "type": "bool"
        }
      ],
      "payable": false,
      "stateMutability": "nonpayable",
      "type": "function"
    }
  ],
  "bytecode": "0x60806040523480156200001157600080fd5b506040516200417f3803806200417f833981810160405260608110156200003757600080fd5b81019080805160405193929190846401000000008211156200005857600080fd5b9083019060208201858111156200006e57600080fd5b82516401000000008111828201881017156200008957600080fd5b82525081516020918201929091019080838360005b83811015620000b85781810151838201526020016200009e565b50505050905090810190601f168015620000e65780820380516001836020036101000a031916815260200191505b50604052602001805160405193929190846401000000008211156200010a57600080fd5b9083019060208201858111156200012057600080fd5b82516401000000008111828201881017156200013b57600080fd5b82525081516020918201929091019080838360005b838110156200016a57818101518382015260200162000150565b50505050905090810190601f168015620001985780820380516001836020036101000a031916815260200191505b5060405260200180516040519392919084640100000000821115620001bc57600080fd5b908301906020820185811115620001d257600080fd5b8251866020820283011164010000000082111715620001f057600080fd5b82525081516020918201928201910280838360005b838110156200021f57818101518382015260200162000205565b5050505090500160405250505082828262000252620002436200067660201b60201c565b6001600160e01b036200067b16565b6001805460ff1916905582516200027190600490602086019062000881565b5081516200028790600590602085019062000881565b5080516200029d90600690602084019062000906565b5060005b600654811015620003365760016007600060068481548110620002c057fe5b6000918252602080832091909101546001600160a01b031683528201929092526040019020805460ff1916911515919091179055600680546200032d9190839081106200030957fe5b6000918252602090912001546001600160a01b03166001600160e01b03620006cd16565b600101620002a1565b50604080517f455243373737546f6b656e0000000000000000000000000000000000000000008152815190819003600b0181207f29965a1d00000000000000000000000000000000000000000000000000000000825230600483018190526024830191909152604482015290517388887ed889e776bcbe2f0f9932ecfabcdfcd1820916329965a1d91606480830192600092919082900301818387803b158015620003e057600080fd5b505af1158015620003f5573d6000803e3d6000fd5b5050604080517f4552433230546f6b656e000000000000000000000000000000000000000000008152815190819003600a0181207f29965a1d00000000000000000000000000000000000000000000000000000000825230600483018190526024830191909152604482015290517388887ed889e776bcbe2f0f9932ecfabcdfcd182093506329965a1d9250606480830192600092919082900301818387803b158015620004a257600080fd5b505af1158015620004b7573d6000803e3d6000fd5b50505050620004cb6200067660201b60201c565b600b80546001600160a01b0319166001600160a01b03929092169190911790555050600e805460ff19166001179055506200050562000676565b600e8054610100600160a81b0319166101006001600160a01b03938416810291909117918290556040519104909116906000907f8be0079c531659141344cd1fd0a4f28419497f9722a3daafe3b4186f6b6457e0908290a36000600f55604080516001808252818301909252606091602080830190803883390190505090506000816000815181106200059457fe5b6001600160a01b039092166020928302919091018201526040517f10128d3e00000000000000000000000000000000000000000000000000000000815260048101828152835160248301528351730888000000000000000000000000000000000001936310128d3e938693928392604490920191858101910280838360005b838110156200062d57818101518382015260200162000613565b5050505090500192505050600060405180830381600087803b1580156200065357600080fd5b505af115801562000668573d6000803e3d6000fd5b5050505050505050620009b0565b335b90565b620006968160006200075760201b6200346c1790919060201c565b6040516001600160a01b038216907f6719d08c1888103bea251a4ed56406bd0c3e69723c8a1686e017e7bbe159b6f890600090a250565b6001600160a01b0381166000908152600d602052604090205460ff1662000754576001600160a01b0381166000818152600d60205260408120805460ff19166001908117909155600c805491820181559091527fdf6966c971051c3d54ec59162606531493a51404a002842f56009d7e5cf4a8c70180546001600160a01b03191690911790555b50565b6200076c82826001600160e01b03620007fe16565b15620007d957604080517f08c379a000000000000000000000000000000000000000000000000000000000815260206004820152601f60248201527f526f6c65733a206163636f756e7420616c72656164792068617320726f6c6500604482015290519081900360640190fd5b6001600160a01b0316600090815260209190915260409020805460ff19166001179055565b60006001600160a01b03821662000861576040517f08c379a00000000000000000000000000000000000000000000000000000000081526004018080602001828103825260228152602001806200415d6022913960400191505060405180910390fd5b506001600160a01b03166000908152602091909152604090205460ff1690565b828054600181600116156101000203166002900490600052602060002090601f016020900481019282601f10620008c457805160ff1916838001178555620008f4565b82800160010185558215620008f4579182015b82811115620008f4578251825591602001919060010190620008d7565b50620009029291506200096c565b5090565b8280548282559060005260206000209081019282156200095e579160200282015b828111156200095e57825182546001600160a01b0319166001600160a01b0390911617825560209092019160019091019062000927565b506200090292915062000989565b6200067891905b8082111562000902576000815560010162000973565b6200067891905b80821115620009025780546001600160a01b031916815560010162000990565b61379d80620009c06000396000f3fe608060405234801561001057600080fd5b50600436106102c85760003560e01c80638456cb591161017b578063cb55417e116100d8578063e4af29fc1161008c578063f2fde38b11610071578063f2fde38b14610aa7578063f7ea7a3d14610acd578063fad8b32a14610aea576102c8565b8063e4af29fc14610a79578063e89b0e1e14610a81576102c8565b8063da46098c116100bd578063da46098c146109e9578063dd62ed3e14610a1f578063e30443bc14610a4d576102c8565b8063cb55417e146108ee578063d95b6371146109bb576102c8565b806395d89b411161012f578063a836f32f11610114578063a836f32f146107e7578063a9059cbb146108ba578063bc8bde64146108e6576102c8565b806395d89b41146107245780639bd9bbc61461072c576102c8565b80638da5cb5b116101605780638da5cb5b146106ee5780638f32d59b146106f6578063959b8c3f146106fe576102c8565b80638456cb59146106de57806388d761f2146106e6576102c8565b806346e87df6116102295780636ef8d66d116101dd578063715018a6116101c2578063715018a6146106a8578063776b92aa146106b057806382dc1ec4146106b8576102c8565b80636ef8d66d1461067a57806370a0823114610682576102c8565b8063556f0dc71161020e578063556f0dc71461051d5780635c975abb1461052557806362ad1b831461052d576102c8565b806346e87df6146104c957806346fbf68e146104f7576102c8565b80631d073a7a11610280578063313ce56711610265578063313ce567146104865780633a24f907146104a45780633f4ba83a146104c1576102c8565b80631d073a7a1461042c57806323b872dd14610450576102c8565b806306fdde03116102b157806306fdde0314610355578063095ea7b3146103d257806318160ddd14610412576102c8565b8063059f3110146102cd57806306e48538146102fd575b600080fd5b6102fb600480360360408110156102e357600080fd5b506001600160a01b0381358116916020013516610b10565b005b610305610cc3565b60408051602080825283518183015283519192839290830191858101910280838360005b83811015610341578181015183820152602001610329565b505050509050019250505060405180910390f35b61035d610d25565b6040805160208082528351818301528351919283929083019185019080838360005b8381101561039757818101518382015260200161037f565b50505050905090810190601f1680156103c45780820380516001836020036101000a031916815260200191505b509250505060405180910390f35b6103fe600480360360408110156103e857600080fd5b506001600160a01b038135169060200135610db2565b604080519115158252519081900360200190f35b61041a610e18565b60408051918252519081900360200190f35b610434610e1e565b604080516001600160a01b039092168252519081900360200190f35b6103fe6004803603606081101561046657600080fd5b506001600160a01b03813581169160208101359091169060400135610e36565b61048e610fc1565b6040805160ff9092168252519081900360200190f35b610434600480360360208110156104ba57600080fd5b5035610fc6565b6102fb610fed565b6102fb600480360360408110156104df57600080fd5b506001600160a01b03813581169160200135166110df565b6103fe6004803603602081101561050d57600080fd5b50356001600160a01b03166112c3565b61041a6112db565b6103fe6112e0565b6102fb600480360360a081101561054357600080fd5b6001600160a01b0382358116926020810135909116916040820135919081019060808101606082013564010000000081111561057e57600080fd5b82018360208201111561059057600080fd5b803590602001918460018302840111640100000000831117156105b257600080fd5b91908080601f016020809104026020016040519081016040528093929190818152602001838380828437600092019190915250929594936020810193503591505064010000000081111561060557600080fd5b82018360208201111561061757600080fd5b8035906020019184600183028401116401000000008311171561063957600080fd5b91908080601f0160208091040260200160405190810160405280939291908181526020018383808284376000920191909152509295506112e9945050505050565b6102fb61135b565b61041a6004803603602081101561069857600080fd5b50356001600160a01b031661136d565b6102fb611388565b6103fe61143e565b6102fb600480360360208110156106ce57600080fd5b50356001600160a01b0316611447565b6102fb611499565b6102fb61156c565b6104346115df565b6103fe6115f3565b6102fb6004803603602081101561071457600080fd5b50356001600160a01b031661161e565b61035d611780565b6102fb6004803603606081101561074257600080fd5b6001600160a01b038235169160208101359181019060608101604082013564010000000081111561077257600080fd5b82018360208201111561078457600080fd5b803590602001918460018302840111640100000000831117156107a657600080fd5b91908080601f0160208091040260200160405190810160405280939291908181526020018383808284376000920191909152509295506117e1945050505050565b6103fe600480360360c08110156107fd57600080fd5b6001600160a01b038235811692602081013592604082013583169260608301359260808101359091169181019060c0810160a082013564010000000081111561084557600080fd5b82018360208201111561085757600080fd5b8035906020019184600183028401116401000000008311171561087957600080fd5b91908080601f01602080910402602001604051908101604052809392919081815260200183838082843760009201919091525092955061181b945050505050565b6103fe600480360360408110156108d057600080fd5b506001600160a01b0381351690602001356119d5565b610434611ab6565b6103fe600480360360a081101561090457600080fd5b6001600160a01b03823516916020810135916040820135919081019060808101606082013564010000000081111561093b57600080fd5b82018360208201111561094d57600080fd5b8035906020019184600183028401116401000000008311171561096f57600080fd5b91908080601f016020809104026020016040519081016040528093929190818152602001838380828437600092019190915250929550505090356001600160a01b03169150611ac59050565b6103fe600480360360408110156109d157600080fd5b506001600160a01b0381358116916020013516611d28565b6102fb600480360360608110156109ff57600080fd5b506001600160a01b03813581169160208101359091169060400135611dca565b61041a60048036036040811015610a3557600080fd5b506001600160a01b0381358116916020013516611ee1565b6102fb60048036036040811015610a6357600080fd5b506001600160a01b038135169060200135611f0c565b61041a612034565b6102fb60048036036020811015610a9757600080fd5b50356001600160a01b031661203a565b6102fb60048036036020811015610abd57600080fd5b50356001600160a01b03166120d8565b6102fb60048036036020811015610ae357600080fd5b503561213a565b6102fb60048036036020811015610b0057600080fd5b50356001600160a01b031661224b565b600b546001600160a01b0316610b2461239b565b6001600160a01b031614610b77576040805162461bcd60e51b815260206004820152601560248201527439b2b73232b91034b9903737ba1031b932b0ba37b960591b604482015290519081900360640190fd5b600e5460ff16610bc3576040805162461bcd60e51b81526020600482015260126024820152711b5a59dc985d1a5bdb88199a5b9a5cda195960721b604482015290519081900360640190fd5b610bcb6112e0565b610c1c576040805162461bcd60e51b815260206004820152601d60248201527f746f6b656e206e6f742070617573656420696e206d6967726174696f6e000000604482015290519081900360640190fd5b806001600160a01b0316826001600160a01b03161415610c6d5760405162461bcd60e51b81526004018080602001828103825260218152602001806135d36021913960400191505060405180910390fd5b6001600160a01b03811660009081526007602052604090205460ff1615610cbf576001600160a01b038083166000908152600960209081526040808320938516835292905220805460ff191660011790555b5050565b60606006805480602002602001604051908101604052809291908181526020018280548015610d1b57602002820191906000526020600020905b81546001600160a01b03168152600190910190602001808311610cfd575b5050505050905090565b60048054604080516020601f6002600019610100600188161502019095169490940493840181900481028201810190925282815260609390929091830182828015610d1b5780601f10610d8657610100808354040283529160200191610d1b565b820191906000526020600020905b815481529060010190602001808311610d9457509395945050505050565b6000610dbc61239f565b8115801590610ded5750336000908152600a602090815260408083206001600160a01b038716845290915290205415155b15610df757600080fd5b6000610e0161239b565b9050610e0e8185856123f9565b5060019392505050565b60035490565b73088800000000000000000000000000000000000181565b6000610e4061239f565b6001600160a01b038316610e855760405162461bcd60e51b81526004018080602001828103825260248152602001806136846024913960400191505060405180910390fd5b6001600160a01b038416610eca5760405162461bcd60e51b81526004018080602001828103825260268152602001806136fd6026913960400191505060405180910390fd5b6000610ed461239b565b9050610f028186868660405180602001604052806000815250604051806020016040528060008152506124ad565b610f2e8186868660405180602001604052806000815250604051806020016040528060008152506126f5565b610f888582610f83866040518060600160405280602981526020016136d4602991396001600160a01b03808c166000908152600a60209081526040808320938b1683529290522054919063ffffffff61291816565b6123f9565b610fb681868686604051806020016040528060008152506040518060200160405280600081525060006129af565b506001949350505050565b601290565b600c8181548110610fd357fe5b6000918252602090912001546001600160a01b0316905081565b610ffd610ff861239b565b6112c3565b6110385760405162461bcd60e51b81526004018080602001828103825260308152602001806135376030913960400191505060405180910390fd5b60015460ff1661108f576040805162461bcd60e51b815260206004820152601460248201527f5061757361626c653a206e6f7420706175736564000000000000000000000000604482015290519081900360640190fd5b6001805460ff191690557f5db9ee0a495bf2e6ff9c91a7834c1ba4fdd244a5e8aa4e537bd38aeae4b073aa6110c261239b565b604080516001600160a01b039092168252519081900360200190a1565b600b546001600160a01b03166110f361239b565b6001600160a01b031614611146576040805162461bcd60e51b815260206004820152601560248201527439b2b73232b91034b9903737ba1031b932b0ba37b960591b604482015290519081900360640190fd5b600e5460ff16611192576040805162461bcd60e51b81526020600482015260126024820152711b5a59dc985d1a5bdb88199a5b9a5cda195960721b604482015290519081900360640190fd5b61119a6112e0565b6111eb576040805162461bcd60e51b815260206004820152601d60248201527f746f6b656e206e6f742070617573656420696e206d6967726174696f6e000000604482015290519081900360640190fd5b806001600160a01b0316826001600160a01b0316141561123c5760405162461bcd60e51b81526004018080602001828103825260248152602001806135af6024913960400191505060405180910390fd5b6001600160a01b03811660009081526007602052604090205460ff161561128f576001600160a01b038083166000908152600960209081526040808320938516835292905220805460ff19169055610cbf565b6001600160a01b038083166000908152600860209081526040808320938516835292905220805460ff191660011790555050565b60006112d5818363ffffffff612c4f16565b92915050565b600190565b60015460ff1690565b6112f161239f565b6113026112fc61239b565b86611d28565b61133d5760405162461bcd60e51b815260040180806020018281038252602c8152602001806136a8602c913960400191505060405180910390fd5b61135461134861239b565b86868686866001612cb6565b5050505050565b61136b61136661239b565b612d8a565b565b6001600160a01b031660009081526002602052604090205490565b6113906115f3565b6113e1576040805162461bcd60e51b815260206004820181905260248201527f4f776e61626c653a2063616c6c6572206973206e6f7420746865206f776e6572604482015290519081900360640190fd5b600e5460405160009161010090046001600160a01b0316907f8be0079c531659141344cd1fd0a4f28419497f9722a3daafe3b4186f6b6457e0908390a3600e805474ffffffffffffffffffffffffffffffffffffffff0019169055565b600e5460ff1681565b611452610ff861239b565b61148d5760405162461bcd60e51b81526004018080602001828103825260308152602001806135376030913960400191505060405180910390fd5b61149681612dd2565b50565b6114a4610ff861239b565b6114df5760405162461bcd60e51b81526004018080602001828103825260308152602001806135376030913960400191505060405180910390fd5b60015460ff1615611537576040805162461bcd60e51b815260206004820152601060248201527f5061757361626c653a2070617573656400000000000000000000000000000000604482015290519081900360640190fd5b6001805460ff1916811790557f62e78cea01bee320cd4e420270b5ea74000d11b0c9f74754ebdbfc544b05a2586110c261239b565b600b546001600160a01b031661158061239b565b6001600160a01b0316146115d3576040805162461bcd60e51b815260206004820152601560248201527439b2b73232b91034b9903737ba1031b932b0ba37b960591b604482015290519081900360640190fd5b600e805460ff19169055565b600e5461010090046001600160a01b031690565b600e5460009061010090046001600160a01b031661160f61239b565b6001600160a01b031614905090565b806001600160a01b031661163061239b565b6001600160a01b031614156116765760405162461bcd60e51b81526004018080602001828103825260248152602001806135af6024913960400191505060405180910390fd5b6001600160a01b03811660009081526007602052604090205460ff16156116d957600960006116a361239b565b6001600160a01b03908116825260208083019390935260409182016000908120918516815292529020805460ff19169055611720565b6001600860006116e761239b565b6001600160a01b03908116825260208083019390935260409182016000908120918616815292529020805460ff19169115159190911790555b61172861239b565b6001600160a01b0316816001600160a01b03167ff4caeb2d6ca8932a215a353d0703c326ec2d81fc68170f320eb2ab49e9df61f960405160405180910390a361177761177261239b565b61203a565b6114968161203a565b60058054604080516020601f6002600019610100600188161502019095169490940493840181900481028201810190925282815260609390929091830182828015610d1b5780601f10610d8657610100808354040283529160200191610d1b565b6117e961239f565b6118166117f461239b565b6117fc61239b565b858585604051806020016040528060008152506001612cb6565b505050565b60006118256115f3565b611876576040805162461bcd60e51b815260206004820181905260248201527f4f776e61626c653a2063616c6c6572206973206e6f7420746865206f776e6572604482015290519081900360640190fd5b61187e61239f565b6118b061188961239b565b88886040518060200160405280600081525060405180602001604052806000815250612e1a565b83156118e8576118e86118c161239b565b86866040518060200160405280600081525060405180602001604052806000815250612e1a565b85876001600160a01b03167fc3dd292bad7833a0420bc53617b1e75e0e520d816231e55ca7b2e249536efc2a8787878760405180856001600160a01b03166001600160a01b03168152602001848152602001836001600160a01b03166001600160a01b0316815260200180602001828103825283818151815260200191508051906020019080838360005b8381101561198b578181015183820152602001611973565b50505050905090810190601f1680156119b85780820380516001836020036101000a031916815260200191505b509550505050505060405180910390a35060019695505050505050565b60006119df61239f565b6001600160a01b038316611a245760405162461bcd60e51b81526004018080602001828103825260248152602001806136846024913960400191505060405180910390fd5b6000611a2e61239b565b9050611a5c8182868660405180602001604052806000815250604051806020016040528060008152506124ad565b611a888182868660405180602001604052806000815250604051806020016040528060008152506126f5565b610e0e81828686604051806020016040528060008152506040518060200160405280600081525060006129af565b600b546001600160a01b031681565b6000611acf61239f565b6000611ad96115df565b604080517f9308782c000000000000000000000000000000000000000000000000000000008152306004820152602481018890526044810189905290519192506000916001600160a01b03841691639308782c916064808301926020929190829003018186803b158015611b4c57600080fd5b505afa158015611b60573d6000803e3d6000fd5b505050506040513d6020811015611b7657600080fd5b50519050611bc2611b8561239b565b611b8d61239b565b611b9d8a8563ffffffff61304716565b6040518060200160405280600081525060405180602001604052806000815250613089565b611c30826001600160a01b0316637b0a09446040518163ffffffff1660e01b815260040160206040518083038186803b158015611bfe57600080fd5b505afa158015611c12573d6000803e3d6000fd5b505050506040513d6020811015611c2857600080fd5b5051826119d5565b506001600160a01b038816611c4b888363ffffffff61304716565b7f151a942538bafac2edd13627092f07a9a8184186c7eae5b00dd1a3a2ddbdf462878488600f546040518080602001858152602001846001600160a01b03166001600160a01b03168152602001838152602001828103825286818151815260200191508051906020019080838360005b83811015611cd3578181015183820152602001611cbb565b50505050905090810190601f168015611d005780820380516001836020036101000a031916815260200191505b509550505050505060405180910390a35050600f805460019081019091559695505050505050565b6000816001600160a01b0316836001600160a01b03161480611d9357506001600160a01b03831660009081526007602052604090205460ff168015611d9357506001600160a01b0380831660009081526009602090815260408083209387168352929052205460ff16155b80611dc357506001600160a01b0380831660009081526008602090815260408083209387168352929052205460ff165b9392505050565b600b546001600160a01b0316611dde61239b565b6001600160a01b031614611e31576040805162461bcd60e51b815260206004820152601560248201527439b2b73232b91034b9903737ba1031b932b0ba37b960591b604482015290519081900360640190fd5b600e5460ff16611e7d576040805162461bcd60e51b81526020600482015260126024820152711b5a59dc985d1a5bdb88199a5b9a5cda195960721b604482015290519081900360640190fd5b611e856112e0565b611ed6576040805162461bcd60e51b815260206004820152601d60248201527f746f6b656e206e6f742070617573656420696e206d6967726174696f6e000000604482015290519081900360640190fd5b6118168383836123f9565b6001600160a01b039182166000908152600a6020908152604080832093909416825291909152205490565b600b546001600160a01b0316611f2061239b565b6001600160a01b031614611f73576040805162461bcd60e51b815260206004820152601560248201527439b2b73232b91034b9903737ba1031b932b0ba37b960591b604482015290519081900360640190fd5b600e5460ff16611fbf576040805162461bcd60e51b81526020600482015260126024820152711b5a59dc985d1a5bdb88199a5b9a5cda195960721b604482015290519081900360640190fd5b611fc76112e0565b612018576040805162461bcd60e51b815260206004820152601d60248201527f746f6b656e206e6f742070617573656420696e206d6967726174696f6e000000604482015290519081900360640190fd5b6001600160a01b03909116600090815260026020526040902055565b600c5490565b6001600160a01b0381166000908152600d602052604090205460ff16611496576001600160a01b03166000818152600d60205260408120805460ff19166001908117909155600c805491820181559091527fdf6966c971051c3d54ec59162606531493a51404a002842f56009d7e5cf4a8c70180547fffffffffffffffffffffffff0000000000000000000000000000000000000000169091179055565b6120e06115f3565b612131576040805162461bcd60e51b815260206004820181905260248201527f4f776e61626c653a2063616c6c6572206973206e6f7420746865206f776e6572604482015290519081900360640190fd5b611496816132b6565b600b546001600160a01b031661214e61239b565b6001600160a01b0316146121a1576040805162461bcd60e51b815260206004820152601560248201527439b2b73232b91034b9903737ba1031b932b0ba37b960591b604482015290519081900360640190fd5b600e5460ff166121ed576040805162461bcd60e51b81526020600482015260126024820152711b5a59dc985d1a5bdb88199a5b9a5cda195960721b604482015290519081900360640190fd5b6121f56112e0565b612246576040805162461bcd60e51b815260206004820152601d60248201527f746f6b656e206e6f742070617573656420696e206d6967726174696f6e000000604482015290519081900360640190fd5b600355565b61225361239b565b6001600160a01b0316816001600160a01b031614156122a35760405162461bcd60e51b81526004018080602001828103825260218152602001806135d36021913960400191505060405180910390fd5b6001600160a01b03811660009081526007602052604090205460ff161561230f576001600960006122d261239b565b6001600160a01b03908116825260208083019390935260409182016000908120918616815292529020805460ff191691151591909117905561234d565b6008600061231b61239b565b6001600160a01b03908116825260208083019390935260409182016000908120918516815292529020805460ff191690555b61235561239b565b6001600160a01b0316816001600160a01b03167f50546e66e5f44d728365dc3908c63bc5cfeeab470722c1677e3073a6ac294aa160405160405180910390a36117776117725b3390565b6123a76112e0565b1561136b576040805162461bcd60e51b815260206004820152600660248201527f7061757365640000000000000000000000000000000000000000000000000000604482015290519081900360640190fd5b6001600160a01b03821661243e5760405162461bcd60e51b81526004018080602001828103825260238152602001806137466023913960400191505060405180910390fd5b6001600160a01b038084166000818152600a6020908152604080832094871680845294825291829020859055815185815291517f8c5be1e5ebec7d5bd14f71427d1e84f3dd0314c0f7b2291e5b200ac8c7c3b9259281900390910190a36124a48361203a565b6118168261203a565b6040805163555ddc6560e11b81526001600160a01b03871660048201527f29ddb589b1fb5fc7cf394961c1adf5f8c6454761adf795e67fe149f658abe895602482015290516000917388887ed889e776bcbe2f0f9932ecfabcdfcd18209163aabbb8ca91604480820192602092909190829003018186803b15801561253157600080fd5b505afa158015612545573d6000803e3d6000fd5b505050506040513d602081101561255b57600080fd5b505190506001600160a01b038116156126ec57806001600160a01b03166375ab97828888888888886040518763ffffffff1660e01b815260040180876001600160a01b03166001600160a01b03168152602001866001600160a01b03166001600160a01b03168152602001856001600160a01b03166001600160a01b031681526020018481526020018060200180602001838103835285818151815260200191508051906020019080838360005b83811015612621578181015183820152602001612609565b50505050905090810190601f16801561264e5780820380516001836020036101000a031916815260200191505b50838103825284518152845160209182019186019080838360005b83811015612681578181015183820152602001612669565b50505050905090810190601f1680156126ae5780820380516001836020036101000a031916815260200191505b5098505050505050505050600060405180830381600087803b1580156126d357600080fd5b505af11580156126e7573d6000803e3d6000fd5b505050505b50505050505050565b61273883604051806060016040528060278152602001613510602791396001600160a01b038816600090815260026020526040902054919063ffffffff61291816565b6001600160a01b03808716600090815260026020526040808220939093559086168152205461276d908463ffffffff61336f16565b60026000866001600160a01b03166001600160a01b0316815260200190815260200160002081905550836001600160a01b0316856001600160a01b0316876001600160a01b03167f06b541ddaa720db2b10a4d0cdac39b8d360425fc073085fac19bc82614677987868686604051808481526020018060200180602001838103835285818151815260200191508051906020019080838360005b8381101561281f578181015183820152602001612807565b50505050905090810190601f16801561284c5780820380516001836020036101000a031916815260200191505b50838103825284518152845160209182019186019080838360005b8381101561287f578181015183820152602001612867565b50505050905090810190601f1680156128ac5780820380516001836020036101000a031916815260200191505b509550505050505060405180910390a4836001600160a01b0316856001600160a01b03167fddf252ad1be2c89b69c2b068fc378daa952ba7f163c4a11628f55a4df523b3ef856040518082815260200191505060405180910390a36129108461203a565b505050505050565b600081848411156129a75760405162461bcd60e51b81526004018080602001828103825283818151815260200191508051906020019080838360005b8381101561296c578181015183820152602001612954565b50505050905090810190601f1680156129995780820380516001836020036101000a031916815260200191505b509250505060405180910390fd5b505050900390565b6040805163555ddc6560e11b81526001600160a01b03871660048201527fb281fc8c12954d22544db45de3159a39272895b169a852b314f9cc762e44c53b602482015290516000917388887ed889e776bcbe2f0f9932ecfabcdfcd18209163aabbb8ca91604480820192602092909190829003018186803b158015612a3357600080fd5b505afa158015612a47573d6000803e3d6000fd5b505050506040513d6020811015612a5d57600080fd5b505190506001600160a01b03811615612bf157806001600160a01b03166223de298989898989896040518763ffffffff1660e01b815260040180876001600160a01b03166001600160a01b03168152602001866001600160a01b03166001600160a01b03168152602001856001600160a01b03166001600160a01b031681526020018481526020018060200180602001838103835285818151815260200191508051906020019080838360005b83811015612b22578181015183820152602001612b0a565b50505050905090810190601f168015612b4f5780820380516001836020036101000a031916815260200191505b50838103825284518152845160209182019186019080838360005b83811015612b82578181015183820152602001612b6a565b50505050905090810190601f168015612baf5780820380516001836020036101000a031916815260200191505b5098505050505050505050600060405180830381600087803b158015612bd457600080fd5b505af1158015612be8573d6000803e3d6000fd5b50505050612c45565b8115612c4557612c09866001600160a01b03166133c9565b15612c455760405162461bcd60e51b815260040180806020018281038252604d815260200180613637604d913960600191505060405180910390fd5b5050505050505050565b60006001600160a01b038216612c965760405162461bcd60e51b81526004018080602001828103825260228152602001806136156022913960400191505060405180910390fd5b506001600160a01b03166000908152602091909152604090205460ff1690565b6001600160a01b038616612cfb5760405162461bcd60e51b81526004018080602001828103825260228152602001806134ee6022913960400191505060405180910390fd5b6001600160a01b038516612d56576040805162461bcd60e51b815260206004820181905260248201527f4552433737373a2073656e6420746f20746865207a65726f2061646472657373604482015290519081900360640190fd5b612d648787878787876124ad565b612d728787878787876126f5565b612d81878787878787876129af565b6126ec8561203a565b612d9b60008263ffffffff61340516565b6040516001600160a01b038216907fcd265ebaf09df2871cc7bd4133404a235ba12eff2041bb89d9c714a2621c7c7e90600090a250565b612de360008263ffffffff61346c16565b6040516001600160a01b038216907f6719d08c1888103bea251a4ed56406bd0c3e69723c8a1686e017e7bbe159b6f890600090a250565b6001600160a01b038416612e75576040805162461bcd60e51b815260206004820181905260248201527f4552433737373a206d696e7420746f20746865207a65726f2061646472657373604482015290519081900360640190fd5b600354612e88908463ffffffff61336f16565b6003556001600160a01b038416600090815260026020526040902054612eb4908463ffffffff61336f16565b6001600160a01b038516600090815260026020526040812091909155612ee19086908686868660016129af565b836001600160a01b0316856001600160a01b03167f2fe5be0146f74c5bce36c0b80911af6c7d86ff27e89d5cfa61fc681327954e5d858585604051808481526020018060200180602001838103835285818151815260200191508051906020019080838360005b83811015612f60578181015183820152602001612f48565b50505050905090810190601f168015612f8d5780820380516001836020036101000a031916815260200191505b50838103825284518152845160209182019186019080838360005b83811015612fc0578181015183820152602001612fa8565b50505050905090810190601f168015612fed5780820380516001836020036101000a031916815260200191505b509550505050505060405180910390a36040805184815290516001600160a01b038616916000917fddf252ad1be2c89b69c2b068fc378daa952ba7f163c4a11628f55a4df523b3ef9181900360200190a36113548461203a565b6000611dc383836040518060400160405280601e81526020017f536166654d6174683a207375627472616374696f6e206f766572666c6f770000815250612918565b6001600160a01b0384166130ce5760405162461bcd60e51b815260040180806020018281038252602281526020018061358d6022913960400191505060405180910390fd5b6130dd858560008686866124ad565b61312083604051806060016040528060238152602001613723602391396001600160a01b038716600090815260026020526040902054919063ffffffff61291816565b6001600160a01b03851660009081526002602052604090205560035461314c908463ffffffff61304716565b600381905550836001600160a01b0316856001600160a01b03167fa78a9be3a7b862d26933ad85fb11d80ef66b8f972d7cbba06621d583943a4098858585604051808481526020018060200180602001838103835285818151815260200191508051906020019080838360005b838110156131d15781810151838201526020016131b9565b50505050905090810190601f1680156131fe5780820380516001836020036101000a031916815260200191505b50838103825284518152845160209182019186019080838360005b83811015613231578181015183820152602001613219565b50505050905090810190601f16801561325e5780820380516001836020036101000a031916815260200191505b509550505050505060405180910390a36040805184815290516000916001600160a01b038716917fddf252ad1be2c89b69c2b068fc378daa952ba7f163c4a11628f55a4df523b3ef9181900360200190a35050505050565b6001600160a01b0381166132fb5760405162461bcd60e51b81526004018080602001828103825260268152602001806135676026913960400191505060405180910390fd5b600e546040516001600160a01b0380841692610100900416907f8be0079c531659141344cd1fd0a4f28419497f9722a3daafe3b4186f6b6457e090600090a3600e80546001600160a01b039092166101000274ffffffffffffffffffffffffffffffffffffffff0019909216919091179055565b600082820183811015611dc3576040805162461bcd60e51b815260206004820152601b60248201527f536166654d6174683a206164646974696f6e206f766572666c6f770000000000604482015290519081900360640190fd5b6000813f7fc5d2460186f7233c927e7db2dcc703c0e500b653ca82273b7bfad8045d85a47081158015906133fd5750808214155b949350505050565b61340f8282612c4f565b61344a5760405162461bcd60e51b81526004018080602001828103825260218152602001806135f46021913960400191505060405180910390fd5b6001600160a01b0316600090815260209190915260409020805460ff19169055565b6134768282612c4f565b156134c8576040805162461bcd60e51b815260206004820152601f60248201527f526f6c65733a206163636f756e7420616c72656164792068617320726f6c6500604482015290519081900360640190fd5b6001600160a01b0316600090815260209190915260409020805460ff1916600117905556fe4552433737373a2073656e642066726f6d20746865207a65726f20616464726573734552433737373a207472616e7366657220616d6f756e7420657863656564732062616c616e6365506175736572526f6c653a2063616c6c657220646f6573206e6f742068617665207468652050617573657220726f6c654f776e61626c653a206e6577206f776e657220697320746865207a65726f20616464726573734552433737373a206275726e2066726f6d20746865207a65726f20616464726573734552433737373a20617574686f72697a696e672073656c66206173206f70657261746f724552433737373a207265766f6b696e672073656c66206173206f70657261746f72526f6c65733a206163636f756e7420646f6573206e6f74206861766520726f6c65526f6c65733a206163636f756e7420697320746865207a65726f20616464726573734552433737373a20746f6b656e20726563697069656e7420636f6e747261637420686173206e6f20696d706c656d656e74657220666f7220455243373737546f6b656e73526563697069656e744552433737373a207472616e7366657220746f20746865207a65726f20616464726573734552433737373a2063616c6c6572206973206e6f7420616e206f70657261746f7220666f7220686f6c6465724552433737373a207472616e7366657220616d6f756e74206578636565647320616c6c6f77616e63654552433737373a207472616e736665722066726f6d20746865207a65726f20616464726573734552433737373a206275726e20616d6f756e7420657863656564732062616c616e63654552433737373a20617070726f766520746f20746865207a65726f2061646472657373a265627a7a723158205b5f749357040960ffc75c4154b373e10b51851220430b00b8c4195a5ebcdeb964736f6c634300050b0032526f6c65733a206163636f756e7420697320746865207a65726f2061646472657373",
  "source": "pragma solidity 0.5.11;\n\nimport \"@openzeppelin/contracts/ownership/Ownable.sol\";\nimport \"@openzeppelin/contracts/lifecycle/Pausable.sol\";\nimport \"./ERC777.sol\";\nimport \"../core/SponsorWhitelistControl.sol\";\n\ninterface ICustodian {\n    function checkBurnable(\n        address token,\n        uint256 fee,\n        uint256 amount\n    ) external view returns (uint256);\n\n    function getProfitWallet() external view returns (address);\n}\n\ncontract TokenBase is ERC777, Ownable {\n    // sponsor address\n    SponsorWhitelistControl public constant SPONSOR = SponsorWhitelistControl(\n        address(0x0888000000000000000000000000000000000001)\n    );\n\n    uint256 burn_cnt;\n\n    event Minted(\n        address indexed toAddress,\n        uint256 indexed amount,\n        address fee_address,\n        uint256 fee,\n        address defi,\n        string tx_id\n    );\n\n    event Burnt(\n        uint256 indexed amount,\n        string toAddress,\n        uint256 fee,\n        address indexed fromAddress,\n        address defi_relayer,\n        uint256 burn_cnt\n    );\n\n    constructor(\n        string memory name,\n        string memory symbol,\n        address[] memory defaultOperators\n    ) public ERC777(name, symbol, defaultOperators) {\n        burn_cnt = 0;\n        // cfx sponsor\n        address[] memory users = new address[](1);\n        users[0] = address(0);\n        SPONSOR.addPrivilege(users);\n    }\n\n    /* ===== Mint & Burn =====*/\n    function mint(\n        address account,\n        uint256 amount,\n        address fee_address,\n        uint256 fee,\n        address defi,\n        string memory tx_id\n    ) public onlyOwner returns (bool) {\n        _onlyNotPaused();\n        _mint(_msgSender(), account, amount, \"\", \"\");\n        if (fee > 0) _mint(_msgSender(), fee_address, fee, \"\", \"\");\n        emit Minted(account, amount, fee_address, fee, defi, tx_id);\n        return true;\n    }\n\n    function burn(\n        address user_addr,\n        uint256 amount,\n        uint256 expected_fee,\n        string memory addr,\n        address defi_relayer\n    ) public returns (bool) {\n        _onlyNotPaused();\n        // get burn fee\n        ICustodian custodian = ICustodian(owner());\n        uint256 fee = custodian.checkBurnable(\n            address(this),\n            expected_fee,\n            amount\n        );\n        // burn amount - fee\n        _burn(_msgSender(), _msgSender(), amount.sub(fee), \"\", \"\");\n        // transfer fee to profit wallet\n        transfer(custodian.getProfitWallet(), fee);\n        emit Burnt(\n            amount.sub(fee),\n            addr,\n            fee,\n            user_addr,\n            defi_relayer,\n            burn_cnt\n        );\n        burn_cnt += 1;\n        return true;\n    }\n}\n",
  "sourcePath": "/Users/wangfan/Project/custodian/contracts/token/TokenBase.sol",
  "compiler": {
    "name": "solc",
    "version": "0.5.11+commit.c082d0b4.Emscripten.clang"
  },
  "schemaVersion": "3.0.23",
  "updatedAt": "2020-10-24T19:06:36.859Z",
  "devdoc": {
    "methods": {
      "isOwner()": {
        "details": "Returns true if the caller is the current owner."
      },
      "owner()": {
        "details": "Returns the address of the current owner."
      },
      "pause()": {
        "details": "Called by a pauser to pause, triggers stopped state."
      },
      "paused()": {
        "details": "Returns true if the contract is paused, and false otherwise."
      },
      "renounceOwnership()": {
        "details": "Leaves the contract without owner. It will not be possible to call `onlyOwner` functions anymore. Can only be called by the current owner.     * NOTE: Renouncing ownership will leave the contract without an owner, thereby removing any functionality that is only available to the owner."
      },
      "transferOwnership(address)": {
        "details": "Transfers ownership of the contract to a new account (`newOwner`). Can only be called by the current owner."
      },
      "unpause()": {
        "details": "Called by a pauser to unpause, returns to normal state."
      }
    }
  },
  "userdoc": {
    "methods": {}
  }
}