{
  "contractName": "FC",
  "abi": [
    {
      "inputs": [],
      "stateMutability": "nonpayable",
      "type": "constructor"
    },
    {
      "anonymous": false,
      "inputs": [
        {
          "indexed": true,
          "internalType": "address",
          "name": "owner",
          "type": "address"
        },
        {
          "indexed": true,
          "internalType": "address",
          "name": "spender",
          "type": "address"
        },
        {
          "indexed": false,
          "internalType": "uint256",
          "name": "value",
          "type": "uint256"
        }
      ],
      "name": "Approval",
      "type": "event"
    },
    {
      "anonymous": false,
      "inputs": [
        {
          "indexed": true,
          "internalType": "address",
          "name": "operator",
          "type": "address"
        },
        {
          "indexed": true,
          "internalType": "address",
          "name": "tokenHolder",
          "type": "address"
        }
      ],
      "name": "AuthorizedOperator",
      "type": "event"
    },
    {
      "anonymous": false,
      "inputs": [
        {
          "indexed": true,
          "internalType": "address",
          "name": "operator",
          "type": "address"
        },
        {
          "indexed": true,
          "internalType": "address",
          "name": "from",
          "type": "address"
        },
        {
          "indexed": false,
          "internalType": "uint256",
          "name": "amount",
          "type": "uint256"
        },
        {
          "indexed": false,
          "internalType": "bytes",
          "name": "data",
          "type": "bytes"
        },
        {
          "indexed": false,
          "internalType": "bytes",
          "name": "operatorData",
          "type": "bytes"
        }
      ],
      "name": "Burned",
      "type": "event"
    },
    {
      "anonymous": false,
      "inputs": [
        {
          "indexed": true,
          "internalType": "address",
          "name": "operator",
          "type": "address"
        },
        {
          "indexed": true,
          "internalType": "address",
          "name": "to",
          "type": "address"
        },
        {
          "indexed": false,
          "internalType": "uint256",
          "name": "amount",
          "type": "uint256"
        },
        {
          "indexed": false,
          "internalType": "bytes",
          "name": "data",
          "type": "bytes"
        },
        {
          "indexed": false,
          "internalType": "bytes",
          "name": "operatorData",
          "type": "bytes"
        }
      ],
      "name": "Minted",
      "type": "event"
    },
    {
      "anonymous": false,
      "inputs": [
        {
          "indexed": false,
          "internalType": "address",
          "name": "account",
          "type": "address"
        }
      ],
      "name": "Paused",
      "type": "event"
    },
    {
      "anonymous": false,
      "inputs": [
        {
          "indexed": true,
          "internalType": "address",
          "name": "operator",
          "type": "address"
        },
        {
          "indexed": true,
          "internalType": "address",
          "name": "tokenHolder",
          "type": "address"
        }
      ],
      "name": "RevokedOperator",
      "type": "event"
    },
    {
      "anonymous": false,
      "inputs": [
        {
          "indexed": true,
          "internalType": "bytes32",
          "name": "role",
          "type": "bytes32"
        },
        {
          "indexed": true,
          "internalType": "bytes32",
          "name": "previousAdminRole",
          "type": "bytes32"
        },
        {
          "indexed": true,
          "internalType": "bytes32",
          "name": "newAdminRole",
          "type": "bytes32"
        }
      ],
      "name": "RoleAdminChanged",
      "type": "event"
    },
    {
      "anonymous": false,
      "inputs": [
        {
          "indexed": true,
          "internalType": "bytes32",
          "name": "role",
          "type": "bytes32"
        },
        {
          "indexed": true,
          "internalType": "address",
          "name": "account",
          "type": "address"
        },
        {
          "indexed": true,
          "internalType": "address",
          "name": "sender",
          "type": "address"
        }
      ],
      "name": "RoleGranted",
      "type": "event"
    },
    {
      "anonymous": false,
      "inputs": [
        {
          "indexed": true,
          "internalType": "bytes32",
          "name": "role",
          "type": "bytes32"
        },
        {
          "indexed": true,
          "internalType": "address",
          "name": "account",
          "type": "address"
        },
        {
          "indexed": true,
          "internalType": "address",
          "name": "sender",
          "type": "address"
        }
      ],
      "name": "RoleRevoked",
      "type": "event"
    },
    {
      "anonymous": false,
      "inputs": [
        {
          "indexed": true,
          "internalType": "address",
          "name": "operator",
          "type": "address"
        },
        {
          "indexed": true,
          "internalType": "address",
          "name": "from",
          "type": "address"
        },
        {
          "indexed": true,
          "internalType": "address",
          "name": "to",
          "type": "address"
        },
        {
          "indexed": false,
          "internalType": "uint256",
          "name": "amount",
          "type": "uint256"
        },
        {
          "indexed": false,
          "internalType": "bytes",
          "name": "data",
          "type": "bytes"
        },
        {
          "indexed": false,
          "internalType": "bytes",
          "name": "operatorData",
          "type": "bytes"
        }
      ],
      "name": "Sent",
      "type": "event"
    },
    {
      "anonymous": false,
      "inputs": [
        {
          "indexed": false,
          "internalType": "uint256",
          "name": "id",
          "type": "uint256"
        }
      ],
      "name": "Snapshot",
      "type": "event"
    },
    {
      "anonymous": false,
      "inputs": [
        {
          "indexed": true,
          "internalType": "address",
          "name": "from",
          "type": "address"
        },
        {
          "indexed": true,
          "internalType": "address",
          "name": "to",
          "type": "address"
        },
        {
          "indexed": false,
          "internalType": "uint256",
          "name": "value",
          "type": "uint256"
        }
      ],
      "name": "Transfer",
      "type": "event"
    },
    {
      "anonymous": false,
      "inputs": [
        {
          "indexed": false,
          "internalType": "address",
          "name": "account",
          "type": "address"
        }
      ],
      "name": "Unpaused",
      "type": "event"
    },
    {
      "anonymous": false,
      "inputs": [
        {
          "indexed": true,
          "internalType": "address",
          "name": "account",
          "type": "address"
        },
        {
          "indexed": false,
          "internalType": "uint256",
          "name": "CPool",
          "type": "uint256"
        },
        {
          "indexed": false,
          "internalType": "uint256",
          "name": "PPool",
          "type": "uint256"
        },
        {
          "indexed": false,
          "internalType": "uint256",
          "name": "PPoolLocked",
          "type": "uint256"
        }
      ],
      "name": "Write",
      "type": "event"
    },
    {
      "inputs": [],
      "name": "CAP",
      "outputs": [
        {
          "internalType": "uint256",
          "name": "",
          "type": "uint256"
        }
      ],
      "stateMutability": "view",
      "type": "function"
    },
    {
      "inputs": [],
      "name": "DEFAULT_ADMIN_ROLE",
      "outputs": [
        {
          "internalType": "bytes32",
          "name": "",
          "type": "bytes32"
        }
      ],
      "stateMutability": "view",
      "type": "function"
    },
    {
      "inputs": [],
      "name": "MINTER_ROLE",
      "outputs": [
        {
          "internalType": "bytes32",
          "name": "",
          "type": "bytes32"
        }
      ],
      "stateMutability": "view",
      "type": "function"
    },
    {
      "inputs": [],
      "name": "PAUSER_ROLE",
      "outputs": [
        {
          "internalType": "bytes32",
          "name": "",
          "type": "bytes32"
        }
      ],
      "stateMutability": "view",
      "type": "function"
    },
    {
      "inputs": [],
      "name": "RECORDER_ROLE",
      "outputs": [
        {
          "internalType": "bytes32",
          "name": "",
          "type": "bytes32"
        }
      ],
      "stateMutability": "view",
      "type": "function"
    },
    {
      "inputs": [],
      "name": "SPONSOR",
      "outputs": [
        {
          "internalType": "contract SponsorWhitelistControl",
          "name": "",
          "type": "address"
        }
      ],
      "stateMutability": "view",
      "type": "function"
    },
    {
      "inputs": [
        {
          "internalType": "address",
          "name": "",
          "type": "address"
        }
      ],
      "name": "_balances",
      "outputs": [
        {
          "internalType": "uint256",
          "name": "",
          "type": "uint256"
        }
      ],
      "stateMutability": "view",
      "type": "function"
    },
    {
      "inputs": [],
      "name": "_totalSupply",
      "outputs": [
        {
          "internalType": "uint256",
          "name": "",
          "type": "uint256"
        }
      ],
      "stateMutability": "view",
      "type": "function"
    },
    {
      "inputs": [
        {
          "internalType": "address",
          "name": "account",
          "type": "address"
        }
      ],
      "name": "addAdmin",
      "outputs": [],
      "stateMutability": "nonpayable",
      "type": "function"
    },
    {
      "inputs": [
        {
          "internalType": "address",
          "name": "account",
          "type": "address"
        }
      ],
      "name": "addMinter",
      "outputs": [],
      "stateMutability": "nonpayable",
      "type": "function"
    },
    {
      "inputs": [
        {
          "internalType": "address",
          "name": "account",
          "type": "address"
        }
      ],
      "name": "addPauser",
      "outputs": [],
      "stateMutability": "nonpayable",
      "type": "function"
    },
    {
      "inputs": [
        {
          "internalType": "address",
          "name": "account",
          "type": "address"
        }
      ],
      "name": "addRecorder",
      "outputs": [],
      "stateMutability": "nonpayable",
      "type": "function"
    },
    {
      "inputs": [
        {
          "internalType": "address",
          "name": "holder",
          "type": "address"
        },
        {
          "internalType": "address",
          "name": "spender",
          "type": "address"
        }
      ],
      "name": "allowance",
      "outputs": [
        {
          "internalType": "uint256",
          "name": "",
          "type": "uint256"
        }
      ],
      "stateMutability": "view",
      "type": "function"
    },
    {
      "inputs": [
        {
          "internalType": "address",
          "name": "spender",
          "type": "address"
        },
        {
          "internalType": "uint256",
          "name": "value",
          "type": "uint256"
        }
      ],
      "name": "approve",
      "outputs": [
        {
          "internalType": "bool",
          "name": "",
          "type": "bool"
        }
      ],
      "stateMutability": "nonpayable",
      "type": "function"
    },
    {
      "inputs": [
        {
          "internalType": "address",
          "name": "operator",
          "type": "address"
        }
      ],
      "name": "authorizeOperator",
      "outputs": [],
      "stateMutability": "nonpayable",
      "type": "function"
    },
    {
      "inputs": [
        {
          "internalType": "address",
          "name": "tokenHolder",
          "type": "address"
        }
      ],
      "name": "balanceOf",
      "outputs": [
        {
          "internalType": "uint256",
          "name": "",
          "type": "uint256"
        }
      ],
      "stateMutability": "view",
      "type": "function"
    },
    {
      "inputs": [
        {
          "internalType": "address",
          "name": "account",
          "type": "address"
        },
        {
          "internalType": "uint256",
          "name": "snapshotId",
          "type": "uint256"
        }
      ],
      "name": "balanceOfAt",
      "outputs": [
        {
          "internalType": "uint256",
          "name": "",
          "type": "uint256"
        }
      ],
      "stateMutability": "view",
      "type": "function"
    },
    {
      "inputs": [
        {
          "internalType": "uint256",
          "name": "amount",
          "type": "uint256"
        },
        {
          "internalType": "bytes",
          "name": "data",
          "type": "bytes"
        }
      ],
      "name": "burn",
      "outputs": [],
      "stateMutability": "nonpayable",
      "type": "function"
    },
    {
      "inputs": [],
      "name": "decimals",
      "outputs": [
        {
          "internalType": "uint8",
          "name": "",
          "type": "uint8"
        }
      ],
      "stateMutability": "pure",
      "type": "function"
    },
    {
      "inputs": [],
      "name": "defaultOperators",
      "outputs": [
        {
          "internalType": "address[]",
          "name": "",
          "type": "address[]"
        }
      ],
      "stateMutability": "view",
      "type": "function"
    },
    {
      "inputs": [
        {
          "internalType": "bytes32",
          "name": "role",
          "type": "bytes32"
        }
      ],
      "name": "getRoleAdmin",
      "outputs": [
        {
          "internalType": "bytes32",
          "name": "",
          "type": "bytes32"
        }
      ],
      "stateMutability": "view",
      "type": "function"
    },
    {
      "inputs": [
        {
          "internalType": "bytes32",
          "name": "role",
          "type": "bytes32"
        },
        {
          "internalType": "uint256",
          "name": "index",
          "type": "uint256"
        }
      ],
      "name": "getRoleMember",
      "outputs": [
        {
          "internalType": "address",
          "name": "",
          "type": "address"
        }
      ],
      "stateMutability": "view",
      "type": "function"
    },
    {
      "inputs": [
        {
          "internalType": "bytes32",
          "name": "role",
          "type": "bytes32"
        }
      ],
      "name": "getRoleMemberCount",
      "outputs": [
        {
          "internalType": "uint256",
          "name": "",
          "type": "uint256"
        }
      ],
      "stateMutability": "view",
      "type": "function"
    },
    {
      "inputs": [
        {
          "internalType": "bytes32",
          "name": "role",
          "type": "bytes32"
        },
        {
          "internalType": "address",
          "name": "account",
          "type": "address"
        }
      ],
      "name": "grantRole",
      "outputs": [],
      "stateMutability": "nonpayable",
      "type": "function"
    },
    {
      "inputs": [],
      "name": "granularity",
      "outputs": [
        {
          "internalType": "uint256",
          "name": "",
          "type": "uint256"
        }
      ],
      "stateMutability": "view",
      "type": "function"
    },
    {
      "inputs": [
        {
          "internalType": "bytes32",
          "name": "role",
          "type": "bytes32"
        },
        {
          "internalType": "address",
          "name": "account",
          "type": "address"
        }
      ],
      "name": "hasRole",
      "outputs": [
        {
          "internalType": "bool",
          "name": "",
          "type": "bool"
        }
      ],
      "stateMutability": "view",
      "type": "function"
    },
    {
      "inputs": [
        {
          "internalType": "address",
          "name": "account",
          "type": "address"
        }
      ],
      "name": "isAdmin",
      "outputs": [
        {
          "internalType": "bool",
          "name": "",
          "type": "bool"
        }
      ],
      "stateMutability": "view",
      "type": "function"
    },
    {
      "inputs": [
        {
          "internalType": "address",
          "name": "account",
          "type": "address"
        }
      ],
      "name": "isMinter",
      "outputs": [
        {
          "internalType": "bool",
          "name": "",
          "type": "bool"
        }
      ],
      "stateMutability": "view",
      "type": "function"
    },
    {
      "inputs": [
        {
          "internalType": "address",
          "name": "operator",
          "type": "address"
        },
        {
          "internalType": "address",
          "name": "tokenHolder",
          "type": "address"
        }
      ],
      "name": "isOperatorFor",
      "outputs": [
        {
          "internalType": "bool",
          "name": "",
          "type": "bool"
        }
      ],
      "stateMutability": "view",
      "type": "function"
    },
    {
      "inputs": [
        {
          "internalType": "address",
          "name": "account",
          "type": "address"
        }
      ],
      "name": "isPauser",
      "outputs": [
        {
          "internalType": "bool",
          "name": "",
          "type": "bool"
        }
      ],
      "stateMutability": "view",
      "type": "function"
    },
    {
      "inputs": [
        {
          "internalType": "address",
          "name": "account",
          "type": "address"
        }
      ],
      "name": "isRecorder",
      "outputs": [
        {
          "internalType": "bool",
          "name": "",
          "type": "bool"
        }
      ],
      "stateMutability": "view",
      "type": "function"
    },
    {
      "inputs": [],
      "name": "name",
      "outputs": [
        {
          "internalType": "string",
          "name": "",
          "type": "string"
        }
      ],
      "stateMutability": "view",
      "type": "function"
    },
    {
      "inputs": [],
      "name": "onlyAdminMock",
      "outputs": [],
      "stateMutability": "view",
      "type": "function"
    },
    {
      "inputs": [],
      "name": "onlyMinterMock",
      "outputs": [],
      "stateMutability": "view",
      "type": "function"
    },
    {
      "inputs": [],
      "name": "onlyPauserMock",
      "outputs": [],
      "stateMutability": "view",
      "type": "function"
    },
    {
      "inputs": [],
      "name": "onlyRecorderMock",
      "outputs": [],
      "stateMutability": "view",
      "type": "function"
    },
    {
      "inputs": [
        {
          "internalType": "address",
          "name": "account",
          "type": "address"
        },
        {
          "internalType": "uint256",
          "name": "amount",
          "type": "uint256"
        },
        {
          "internalType": "bytes",
          "name": "data",
          "type": "bytes"
        },
        {
          "internalType": "bytes",
          "name": "operatorData",
          "type": "bytes"
        }
      ],
      "name": "operatorBurn",
      "outputs": [],
      "stateMutability": "nonpayable",
      "type": "function"
    },
    {
      "inputs": [
        {
          "internalType": "address",
          "name": "sender",
          "type": "address"
        },
        {
          "internalType": "address",
          "name": "recipient",
          "type": "address"
        },
        {
          "internalType": "uint256",
          "name": "amount",
          "type": "uint256"
        },
        {
          "internalType": "bytes",
          "name": "data",
          "type": "bytes"
        },
        {
          "internalType": "bytes",
          "name": "operatorData",
          "type": "bytes"
        }
      ],
      "name": "operatorSend",
      "outputs": [],
      "stateMutability": "nonpayable",
      "type": "function"
    },
    {
      "inputs": [],
      "name": "paused",
      "outputs": [
        {
          "internalType": "bool",
          "name": "",
          "type": "bool"
        }
      ],
      "stateMutability": "view",
      "type": "function"
    },
    {
      "inputs": [
        {
          "internalType": "address",
          "name": "account",
          "type": "address"
        }
      ],
      "name": "removeMinter",
      "outputs": [],
      "stateMutability": "nonpayable",
      "type": "function"
    },
    {
      "inputs": [
        {
          "internalType": "address",
          "name": "account",
          "type": "address"
        }
      ],
      "name": "removePauser",
      "outputs": [],
      "stateMutability": "nonpayable",
      "type": "function"
    },
    {
      "inputs": [
        {
          "internalType": "address",
          "name": "account",
          "type": "address"
        }
      ],
      "name": "removeRecorder",
      "outputs": [],
      "stateMutability": "nonpayable",
      "type": "function"
    },
    {
      "inputs": [],
      "name": "renounceAdmin",
      "outputs": [],
      "stateMutability": "nonpayable",
      "type": "function"
    },
    {
      "inputs": [],
      "name": "renounceMinter",
      "outputs": [],
      "stateMutability": "nonpayable",
      "type": "function"
    },
    {
      "inputs": [],
      "name": "renouncePauser",
      "outputs": [],
      "stateMutability": "nonpayable",
      "type": "function"
    },
    {
      "inputs": [],
      "name": "renounceRecorder",
      "outputs": [],
      "stateMutability": "nonpayable",
      "type": "function"
    },
    {
      "inputs": [
        {
          "internalType": "bytes32",
          "name": "role",
          "type": "bytes32"
        },
        {
          "internalType": "address",
          "name": "account",
          "type": "address"
        }
      ],
      "name": "renounceRole",
      "outputs": [],
      "stateMutability": "nonpayable",
      "type": "function"
    },
    {
      "inputs": [
        {
          "internalType": "address",
          "name": "operator",
          "type": "address"
        }
      ],
      "name": "revokeOperator",
      "outputs": [],
      "stateMutability": "nonpayable",
      "type": "function"
    },
    {
      "inputs": [
        {
          "internalType": "bytes32",
          "name": "role",
          "type": "bytes32"
        },
        {
          "internalType": "address",
          "name": "account",
          "type": "address"
        }
      ],
      "name": "revokeRole",
      "outputs": [],
      "stateMutability": "nonpayable",
      "type": "function"
    },
    {
      "inputs": [
        {
          "internalType": "address",
          "name": "recipient",
          "type": "address"
        },
        {
          "internalType": "uint256",
          "name": "amount",
          "type": "uint256"
        },
        {
          "internalType": "bytes",
          "name": "data",
          "type": "bytes"
        }
      ],
      "name": "send",
      "outputs": [],
      "stateMutability": "nonpayable",
      "type": "function"
    },
    {
      "inputs": [],
      "name": "setupExpiryTime",
      "outputs": [
        {
          "internalType": "uint256",
          "name": "",
          "type": "uint256"
        }
      ],
      "stateMutability": "view",
      "type": "function"
    },
    {
      "inputs": [],
      "name": "symbol",
      "outputs": [
        {
          "internalType": "string",
          "name": "",
          "type": "string"
        }
      ],
      "stateMutability": "view",
      "type": "function"
    },
    {
      "inputs": [],
      "name": "totalSupply",
      "outputs": [
        {
          "internalType": "uint256",
          "name": "",
          "type": "uint256"
        }
      ],
      "stateMutability": "view",
      "type": "function"
    },
    {
      "inputs": [
        {
          "internalType": "uint256",
          "name": "snapshotId",
          "type": "uint256"
        }
      ],
      "name": "totalSupplyAt",
      "outputs": [
        {
          "internalType": "uint256",
          "name": "",
          "type": "uint256"
        }
      ],
      "stateMutability": "view",
      "type": "function"
    },
    {
      "inputs": [
        {
          "internalType": "address",
          "name": "recipient",
          "type": "address"
        },
        {
          "internalType": "uint256",
          "name": "amount",
          "type": "uint256"
        }
      ],
      "name": "transfer",
      "outputs": [
        {
          "internalType": "bool",
          "name": "",
          "type": "bool"
        }
      ],
      "stateMutability": "nonpayable",
      "type": "function"
    },
    {
      "inputs": [
        {
          "internalType": "address",
          "name": "holder",
          "type": "address"
        },
        {
          "internalType": "address",
          "name": "recipient",
          "type": "address"
        },
        {
          "internalType": "uint256",
          "name": "amount",
          "type": "uint256"
        }
      ],
      "name": "transferFrom",
      "outputs": [
        {
          "internalType": "bool",
          "name": "",
          "type": "bool"
        }
      ],
      "stateMutability": "nonpayable",
      "type": "function"
    },
    {
      "inputs": [],
      "name": "cap",
      "outputs": [
        {
          "internalType": "uint256",
          "name": "",
          "type": "uint256"
        }
      ],
      "stateMutability": "pure",
      "type": "function"
    },
    {
      "inputs": [
        {
          "internalType": "address[]",
          "name": "accounts",
          "type": "address[]"
        },
        {
          "internalType": "uint256[]",
          "name": "ConfluxPools",
          "type": "uint256[]"
        },
        {
          "internalType": "uint256[]",
          "name": "Personals",
          "type": "uint256[]"
        },
        {
          "internalType": "uint256[]",
          "name": "Lockeds",
          "type": "uint256[]"
        }
      ],
      "name": "batchSetStateOf",
      "outputs": [],
      "stateMutability": "nonpayable",
      "type": "function"
    },
    {
      "inputs": [
        {
          "internalType": "address",
          "name": "account",
          "type": "address"
        },
        {
          "internalType": "uint256",
          "name": "ConfluxPool",
          "type": "uint256"
        },
        {
          "internalType": "uint256",
          "name": "Personal",
          "type": "uint256"
        },
        {
          "internalType": "uint256",
          "name": "Locked",
          "type": "uint256"
        }
      ],
      "name": "setStateOf",
      "outputs": [],
      "stateMutability": "nonpayable",
      "type": "function"
    },
    {
      "inputs": [
        {
          "internalType": "uint256",
          "name": "total",
          "type": "uint256"
        }
      ],
      "name": "setTotalSupply",
      "outputs": [],
      "stateMutability": "nonpayable",
      "type": "function"
    },
    {
      "inputs": [
        {
          "internalType": "address",
          "name": "account",
          "type": "address"
        },
        {
          "internalType": "uint256",
          "name": "value",
          "type": "uint256"
        }
      ],
      "name": "mint",
      "outputs": [
        {
          "internalType": "bool",
          "name": "",
          "type": "bool"
        }
      ],
      "stateMutability": "nonpayable",
      "type": "function"
    },
    {
      "inputs": [],
      "name": "pause",
      "outputs": [],
      "stateMutability": "nonpayable",
      "type": "function"
    },
    {
      "inputs": [],
      "name": "unpause",
      "outputs": [],
      "stateMutability": "nonpayable",
      "type": "function"
    },
    {
      "inputs": [],
      "name": "snapshot",
      "outputs": [
        {
          "internalType": "uint256",
          "name": "",
          "type": "uint256"
        }
      ],
      "stateMutability": "nonpayable",
      "type": "function"
    }
  ],
  "bytecode": "0x60806040523480156200001157600080fd5b5060408051808201825260088152672330b739a1b7b4b760c11b602080830191825283518085018552600280825261464360f01b82840152855160008152928301909552835162093a809591936200006a929162000538565b5081516200008090600390602085019062000538565b50805162000096906004906020840190620005bd565b5060005b600454811015620000f65760016005600060048481548110620000b957fe5b6000918252602080832091909101546001600160a01b031683528201929092526040019020805460ff19169115159190911790556001016200009a565b50604080516a22a9219b9b9baa37b5b2b760a91b8152815190819003600b0181206329965a1d60e01b825230600483018190526024830191909152604482015290517388887ed889e776bcbe2f0f9932ecfabcdfcd1820916329965a1d91606480830192600092919082900301818387803b1580156200017557600080fd5b505af11580156200018a573d6000803e3d6000fd5b5050604080516922a92199182a37b5b2b760b11b8152815190819003600a0181206329965a1d60e01b825230600483018190526024830191909152604482015290517388887ed889e776bcbe2f0f9932ecfabcdfcd182093506329965a1d9250606480830192600092919082900301818387803b1580156200020b57600080fd5b505af115801562000220573d6000803e3d6000fd5b505050505050506200023c6000801b336200035360201b60201c565b600e805460ff191690554201600f55604080516001808252818301909252606091602080830190803683370190505090506000816000815181106200027d57fe5b6001600160a01b03909216602092830291909101820152604051630809469f60e11b815260048101828152835160248301528351730888000000000000000000000000000000000001936310128d3e938693928392604490920191858101910280838360005b83811015620002fd578181015183820152602001620002e3565b5050505090500192505050600060405180830381600087803b1580156200032357600080fd5b505af115801562000338573d6000803e3d6000fd5b505050506200034c6200036c60201b60201c565b5062000667565b6200036882826001600160e01b036200041616565b5050565b600e5460ff1615620003b8576040805162461bcd60e51b815260206004820152601060248201526f14185d5cd8589b194e881c185d5cd95960821b604482015290519081900360640190fd5b600e805460ff191660011790557f62e78cea01bee320cd4e420270b5ea74000d11b0c9f74754ebdbfc544b05a258620003f96001600160e01b036200049a16565b604080516001600160a01b039092168252519081900360200190a1565b6000828152600d602090815260409091206200043d918390620024866200049f821b17901c565b156200036857620004566001600160e01b036200049a16565b6001600160a01b0316816001600160a01b0316837f2f8788117e7eff1d82e926ec794901d17c78024a50270940304540a733656f0d60405160405180910390a45050565b335b90565b6000620004bf836001600160a01b0384166001600160e01b03620004c816565b90505b92915050565b6000620004df83836001600160e01b036200052016565b6200051757508154600181810184556000848152602080822090930184905584548482528286019093526040902091909155620004c2565b506000620004c2565b60009081526001919091016020526040902054151590565b828054600181600116156101000203166002900490600052602060002090601f016020900481019282601f106200057b57805160ff1916838001178555620005ab565b82800160010185558215620005ab579182015b82811115620005ab5782518255916020019190600101906200058e565b50620005b992915062000623565b5090565b82805482825590600052602060002090810192821562000615579160200282015b828111156200061557825182546001600160a01b0319166001600160a01b03909116178255602090920191600190910190620005de565b50620005b992915062000640565b6200049c91905b80821115620005b957600081556001016200062a565b6200049c91905b80821115620005b95780546001600160a01b031916815560010162000647565b613e9c80620006776000396000f3fe608060405234801561001057600080fd5b50600436106103d05760003560e01c806382dc1ec4116101ff578063aa271e1a1161011a578063db456afb116100ad578063f7ea7a3d1161007c578063f7ea7a3d14610ead578063fad8b32a14610eca578063fc673c4f14610ef0578063fe9d93031461102e576103d0565b8063db456afb14610e67578063dd62ed3e14610e6f578063e63ab1e914610e9d578063ec81b48314610ea5576103d0565b8063d5391393116100e9578063d539139314610bde578063d547741f14610be6578063d854be3114610c12578063d95b637114610e39576103d0565b8063aa271e1a14610b8b578063b5dba35b14610bb1578063bea8658114610bb9578063ca15c87314610bc1576103d0565b806395d89b411161019257806398650275116101615780639865027514610a965780639bd9bbc614610a9e578063a217fddf14610b57578063a9059cbb14610b5f576103d0565b806395d89b4114610a435780639711715a14610a4b578063981b24d014610a53578063983b2d5614610a70576103d0565b80638f9771a6116101ce5780638f9771a6146109a85780639010d07c146109ce57806391d14854146109f1578063959b8c3f14610a1d576103d0565b806382dc1ec41461096a5780638456cb59146109905780638bad0c0a146109985780638e49c16e146109a0576103d0565b80633eaaf86b116102ef57806362ad1b83116102825780636ebcf607116102515780636ebcf607146108f05780636ef8d66d14610916578063704802751461091e57806370a0823114610944576103d0565b806362ad1b8314610735578063646ce0491461087e5780636b2c0f55146108a45780636e35017c146108ca576103d0565b806346fbf68e116102be57806346fbf68e146106d35780634ee2cd7e146106f9578063556f0dc7146107255780635c975abb1461072d576103d0565b80633eaaf86b1461068f5780633f4ba83a1461069757806340c10f191461069f57806346ba2d90146106cb576103d0565b806324d7806c11610367578063329daf9011610336578063329daf901461064b578063355274ea1461065357806336568abe1461065b5780633a01d53314610687576103d0565b806324d7806c146105b55780632f2ff15d146105db5780633092afd514610607578063313ce5671461062d576103d0565b806318160ddd116103a357806318160ddd146105245780631d073a7a1461053e57806323b872dd14610562578063248a9ca314610598576103d0565b806306e48538146103d557806306fdde031461042d578063095ea7b3146104aa5780630fc26b4b146104ea575b600080fd5b6103dd6110d9565b60408051602080825283518183015283519192839290830191858101910280838360005b83811015610419578181015183820152602001610401565b505050509050019250505060405180910390f35b61043561113b565b6040805160208082528351818301528351919283929083019185019080838360005b8381101561046f578181015183820152602001610457565b50505050905090810190601f16801561049c5780820380516001836020036101000a031916815260200191505b509250505060405180910390f35b6104d6600480360360408110156104c057600080fd5b506001600160a01b0381351690602001356111c5565b604080519115158252519081900360200190f35b6105226004803603608081101561050057600080fd5b506001600160a01b0381351690602081013590604081013590606001356111e9565b005b61052c61135a565b60408051918252519081900360200190f35b610546611360565b604080516001600160a01b039092168252519081900360200190f35b6104d66004803603606081101561057857600080fd5b506001600160a01b03813581169160208101359091169060400135611378565b61052c600480360360208110156105ae57600080fd5b50356114fb565b6104d6600480360360208110156105cb57600080fd5b50356001600160a01b0316611513565b610522600480360360408110156105f157600080fd5b50803590602001356001600160a01b031661151f565b6105226004803603602081101561061d57600080fd5b50356001600160a01b031661158b565b6106356115b4565b6040805160ff9092168252519081900360200190f35b6105226115b9565b61052c61160e565b6105226004803603604081101561067157600080fd5b50803590602001356001600160a01b031661161d565b61052261167e565b61052c6116d1565b6105226116d7565b6104d6600480360360408110156106b557600080fd5b506001600160a01b038135169060200135611732565b61052c61181c565b6104d6600480360360208110156106e957600080fd5b50356001600160a01b0316611822565b61052c6004803603604081101561070f57600080fd5b506001600160a01b03813516906020013561184b565b61052c611894565b6104d6611899565b610522600480360360a081101561074b57600080fd5b6001600160a01b03823581169260208101359091169160408201359190810190608081016060820135600160201b81111561078557600080fd5b82018360208201111561079757600080fd5b803590602001918460018302840111600160201b831117156107b857600080fd5b91908080601f0160208091040260200160405190810160405280939291908181526020018383808284376000920191909152509295949360208101935035915050600160201b81111561080a57600080fd5b82018360208201111561081c57600080fd5b803590602001918460018302840111600160201b8311171561083d57600080fd5b91908080601f0160208091040260200160405190810160405280939291908181526020018383808284376000920191909152509295506118a2945050505050565b6104d66004803603602081101561089457600080fd5b50356001600160a01b0316611904565b610522600480360360208110156108ba57600080fd5b50356001600160a01b031661192f565b610522600480360360208110156108e057600080fd5b50356001600160a01b0316611955565b61052c6004803603602081101561090657600080fd5b50356001600160a01b031661197d565b61052261198f565b6105226004803603602081101561093457600080fd5b50356001600160a01b03166119b5565b61052c6004803603602081101561095a57600080fd5b50356001600160a01b03166119c0565b6105226004803603602081101561098057600080fd5b50356001600160a01b03166119db565b610522611a01565b610522611a5c565b610522611a67565b610522600480360360208110156109be57600080fd5b50356001600160a01b0316611aab565b610546600480360360408110156109e457600080fd5b5080359060200135611ad3565b6104d660048036036040811015610a0757600080fd5b50803590602001356001600160a01b0316611af8565b61052260048036036020811015610a3357600080fd5b50356001600160a01b0316611b16565b610435611c62565b61052c611cc3565b61052c60048036036020811015610a6957600080fd5b5035611d25565b61052260048036036020811015610a8657600080fd5b50356001600160a01b0316611d55565b610522611d7b565b61052260048036036060811015610ab457600080fd5b6001600160a01b0382351691602081013591810190606081016040820135600160201b811115610ae357600080fd5b820183602082011115610af557600080fd5b803590602001918460018302840111600160201b83111715610b1657600080fd5b91908080601f016020809104026020016040519081016040528093929190818152602001838380828437600092019190915250929550611da1945050505050565b61052c611dcb565b6104d660048036036040811015610b7557600080fd5b506001600160a01b038135169060200135611dd0565b6104d660048036036020811015610ba157600080fd5b50356001600160a01b0316611ea9565b610522611ed2565b61052c611f25565b61052c60048036036020811015610bd757600080fd5b5035611f46565b61052c611f5d565b61052260048036036040811015610bfc57600080fd5b50803590602001356001600160a01b0316611f7c565b61052260048036036080811015610c2857600080fd5b810190602081018135600160201b811115610c4257600080fd5b820183602082011115610c5457600080fd5b803590602001918460208302840111600160201b83111715610c7557600080fd5b9190808060200260200160405190810160405280939291908181526020018383602002808284376000920191909152509295949360208101935035915050600160201b811115610cc457600080fd5b820183602082011115610cd657600080fd5b803590602001918460208302840111600160201b83111715610cf757600080fd5b9190808060200260200160405190810160405280939291908181526020018383602002808284376000920191909152509295949360208101935035915050600160201b811115610d4657600080fd5b820183602082011115610d5857600080fd5b803590602001918460208302840111600160201b83111715610d7957600080fd5b9190808060200260200160405190810160405280939291908181526020018383602002808284376000920191909152509295949360208101935035915050600160201b811115610dc857600080fd5b820183602082011115610dda57600080fd5b803590602001918460208302840111600160201b83111715610dfb57600080fd5b919080806020026020016040519081016040528093929190818152602001838360200280828437600092019190915250929550611fd5945050505050565b6104d660048036036040811015610e4f57600080fd5b506001600160a01b03813581169160200135166120ea565b61052261218b565b61052c60048036036040811015610e8557600080fd5b506001600160a01b03813581169160200135166121b3565b61052c6121de565b61052c6121fd565b61052260048036036020811015610ec357600080fd5b503561220c565b61052260048036036020811015610ee057600080fd5b50356001600160a01b03166122ba565b61052260048036036080811015610f0657600080fd5b6001600160a01b0382351691602081013591810190606081016040820135600160201b811115610f3557600080fd5b820183602082011115610f4757600080fd5b803590602001918460018302840111600160201b83111715610f6857600080fd5b91908080601f0160208091040260200160405190810160405280939291908181526020018383808284376000920191909152509295949360208101935035915050600160201b811115610fba57600080fd5b820183602082011115610fcc57600080fd5b803590602001918460018302840111600160201b83111715610fed57600080fd5b91908080601f016020809104026020016040519081016040528093929190818152602001838380828437600092019190915250929550612406945050505050565b6105226004803603604081101561104457600080fd5b81359190810190604081016020820135600160201b81111561106557600080fd5b82018360208201111561107757600080fd5b803590602001918460018302840111600160201b8311171561109857600080fd5b91908080601f016020809104026020016040519081016040528093929190818152602001838380828437600092019190915250929550612464945050505050565b6060600480548060200260200160405190810160405280929190818152602001828054801561113157602002820191906000526020600020905b81546001600160a01b03168152600190910190602001808311611113575b5050505050905090565b60028054604080516020601f60001961010060018716150201909416859004938401819004810282018101909252828152606093909290918301828280156111315780601f1061119957610100808354040283529160200191611131565b820191906000526020600020905b8154815290600101906020018083116111a757509395945050505050565b6000806111d061249b565b90506111dd81858561249f565b60019150505b92915050565b6111f233611822565b80611201575061120133611513565b61123c5760405162461bcd60e51b8152600401808060200182810382526039815260200180613bff6039913960400191505060405180910390fd5b600f544210611292576040805162461bcd60e51b815260206004820152601f60248201527f4f7065726174696f6e20666f7262696464656420616674657220736574757000604482015290519081900360640190fd5b6001600160a01b0384166112d75760405162461bcd60e51b8152600401808060200182810382526021815260200180613b206021913960400191505060405180910390fd5b6112f7816112eb858563ffffffff61258b16565b9063ffffffff61258b16565b6001600160a01b038516600081815260208181526040918290209390935580518681529283018590528281018490525190917fcd7ab9401a877813449135f2f003eb0f79344bd8ebdd3a144149989fe8f4a24c919081900360600190a250505050565b60015490565b73088800000000000000000000000000000000000181565b60006001600160a01b0383166113bf5760405162461bcd60e51b8152600401808060200182810382526024815260200180613c856024913960400191505060405180910390fd5b6001600160a01b0384166114045760405162461bcd60e51b8152600401808060200182810382526026815260200180613da26026913960400191505060405180910390fd5b600061140e61249b565b905061143c8186868660405180602001604052806000815250604051806020016040528060008152506125e5565b61146881868686604051806020016040528060008152506040518060200160405280600081525061282d565b6114c285826114bd86604051806060016040528060298152602001613d79602991396001600160a01b03808c166000908152600860209081526040808320938b1683529290522054919063ffffffff612a5216565b61249f565b6114f08186868660405180602001604052806000815250604051806020016040528060008152506000612ae9565b506001949350505050565b6000818152600d60205260409020600201545b919050565b60006111e38183611af8565b6000828152600d60205260409020600201546115429061153d61249b565b611af8565b61157d5760405162461bcd60e51b815260040180806020018281038252602f815260200180613aaa602f913960400191505060405180910390fd5b6115878282612d89565b5050565b60408051666d696e7465727360c81b815290519081900360070190206115b19082611f7c565b50565b601290565b6115c233611822565b806115d157506115d133611513565b61160c5760405162461bcd60e51b8152600401808060200182810382526039815260200180613bff6039913960400191505060405180910390fd5b565b6a115eec47f6cf7e3500000090565b61162561249b565b6001600160a01b0316816001600160a01b0316146116745760405162461bcd60e51b815260040180806020018281038252602f815260200180613e0e602f913960400191505060405180910390fd5b6115878282612df8565b61168733611904565b80611696575061169633611513565b61160c5760405162461bcd60e51b815260040180806020018281038252603d815260200180613cd7603d913960400191505060405180910390fd5b60015481565b6116e033611822565b806116ef57506116ef33611513565b61172a5760405162461bcd60e51b8152600401808060200182810382526039815260200180613bff6039913960400191505060405180910390fd5b61160c612e67565b600061173d33611ea9565b8061174c575061174c33611513565b6117875760405162461bcd60e51b8152600401808060200182810382526039815260200180613d146039913960400191505060405180910390fd5b6a115eec47f6cf7e3500000061179f836112eb61135a565b11156117f2576040805162461bcd60e51b815260206004820152601960248201527f45524332304361707065643a2063617020657863656564656400000000000000604482015290519081900360640190fd5b6111e383836040518060200160405280600081525060405180602001604052806000815250612f05565b600f5481565b60408051667061757365727360c81b815290519081900360070190206000906111e39083611af8565b6001600160a01b038216600090815260096020526040812081908190611872908590613149565b915091508161188957611884856119c0565b61188b565b805b95945050505050565b600190565b600e5460ff1690565b6118b36118ad61249b565b866120ea565b6118ee5760405162461bcd60e51b815260040180806020018281038252602c815260200180613d4d602c913960400191505060405180910390fd5b6118fd8585858585600161324c565b5050505050565b60408051687265636f726465727360b81b815290519081900360090190206000906111e39083611af8565b60408051667061757365727360c81b815290519081900360070190206115b19082611f7c565b60408051687265636f726465727360b81b815290519081900360090190206115b1908261151f565b60006020819052908152604090205481565b60408051667061757365727360c81b8152905190819003600701902061160c903361161d565b6115b160008261151f565b6001600160a01b031660009081526020819052604090205490565b60408051667061757365727360c81b815290519081900360070190206115b1908261151f565b611a0a33611822565b80611a195750611a1933611513565b611a545760405162461bcd60e51b8152600401808060200182810382526039815260200180613bff6039913960400191505060405180910390fd5b61160c613323565b61160c60003361161d565b611a7033611513565b61160c5760405162461bcd60e51b815260040180806020018281038252602e815260200180613ca9602e913960400191505060405180910390fd5b60408051687265636f726465727360b81b815290519081900360090190206115b19082611f7c565b6000828152600d60205260408120611af1908363ffffffff6133a416565b9392505050565b6000828152600d60205260408120611af1908363ffffffff6133b016565b806001600160a01b0316611b2861249b565b6001600160a01b03161415611b6e5760405162461bcd60e51b8152600401808060200182810382526024815260200180613b8a6024913960400191505060405180910390fd5b6001600160a01b03811660009081526005602052604090205460ff1615611bd15760076000611b9b61249b565b6001600160a01b03908116825260208083019390935260409182016000908120918516815292529020805460ff19169055611c18565b600160066000611bdf61249b565b6001600160a01b03908116825260208083019390935260409182016000908120918616815292529020805460ff19169115159190911790555b611c2061249b565b6001600160a01b0316816001600160a01b03167ff4caeb2d6ca8932a215a353d0703c326ec2d81fc68170f320eb2ab49e9df61f960405160405180910390a350565b60038054604080516020601f60026000196101006001881615020190951694909404938401819004810282018101909252828152606093909290918301828280156111315780601f1061119957610100808354040283529160200191611131565b6000611cce33611904565b80611cdd5750611cdd33611513565b611d185760405162461bcd60e51b815260040180806020018281038252603d815260200180613cd7603d913960400191505060405180910390fd5b611d206133c5565b905090565b6000806000611d3584600a613149565b9150915081611d4b57611d4661135a565b611d4d565b805b949350505050565b60408051666d696e7465727360c81b815290519081900360070190206115b1908261151f565b60408051666d696e7465727360c81b8152905190819003600701902061160c903361161d565b611dc6611dac61249b565b84848460405180602001604052806000815250600161324c565b505050565b600081565b60006001600160a01b038316611e175760405162461bcd60e51b8152600401808060200182810382526024815260200180613c856024913960400191505060405180910390fd5b6000611e2161249b565b9050611e4f8182868660405180602001604052806000815250604051806020016040528060008152506125e5565b611e7b81828686604051806020016040528060008152506040518060200160405280600081525061282d565b6111dd8182868660405180602001604052806000815250604051806020016040528060008152506000612ae9565b60408051666d696e7465727360c81b815290519081900360070190206000906111e39083611af8565b611edb33611ea9565b80611eea5750611eea33611513565b61160c5760405162461bcd60e51b8152600401808060200182810382526039815260200180613d146039913960400191505060405180910390fd5b60408051687265636f726465727360b81b8152905190819003600901902081565b6000818152600d602052604081206111e390613419565b60408051666d696e7465727360c81b8152905190819003600701902081565b6000828152600d6020526040902060020154611f9a9061153d61249b565b6116745760405162461bcd60e51b8152600401808060200182810382526030815260200180613bae6030913960400191505060405180910390fd5b611fde33611822565b80611fed5750611fed33611513565b6120285760405162461bcd60e51b8152600401808060200182810382526039815260200180613bff6039913960400191505060405180910390fd5b600f54421061207e576040805162461bcd60e51b815260206004820152601f60248201527f4f7065726174696f6e20666f7262696464656420616674657220736574757000604482015290519081900360640190fd5b60005b84518110156118fd576120e285828151811061209957fe5b60200260200101518583815181106120ad57fe5b60200260200101518584815181106120c157fe5b60200260200101518585815181106120d557fe5b60200260200101516111e9565b600101612081565b6000816001600160a01b0316836001600160a01b0316148061215557506001600160a01b03831660009081526005602052604090205460ff16801561215557506001600160a01b0380831660009081526007602090815260408083209387168352929052205460ff16155b80611af15750506001600160a01b0390811660009081526006602090815260408083209490931682529290925290205460ff1690565b60408051687265636f726465727360b81b8152905190819003600901902061160c903361161d565b6001600160a01b03918216600090815260086020908152604080832093909416825291909152205490565b60408051667061757365727360c81b8152905190819003600701902081565b6a115eec47f6cf7e3500000081565b61221533611822565b80612224575061222433611513565b61225f5760405162461bcd60e51b8152600401808060200182810382526039815260200180613bff6039913960400191505060405180910390fd5b600f5442106122b5576040805162461bcd60e51b815260206004820152601f60248201527f4f7065726174696f6e20666f7262696464656420616674657220736574757000604482015290519081900360640190fd5b600155565b6122c261249b565b6001600160a01b0316816001600160a01b031614156123125760405162461bcd60e51b8152600401808060200182810382526021815260200180613bde6021913960400191505060405180910390fd5b6001600160a01b03811660009081526005602052604090205460ff161561237e5760016007600061234161249b565b6001600160a01b03908116825260208083019390935260409182016000908120918616815292529020805460ff19169115159190911790556123bc565b6006600061238a61249b565b6001600160a01b03908116825260208083019390935260409182016000908120918516815292529020805460ff191690555b6123c461249b565b6001600160a01b0316816001600160a01b03167f50546e66e5f44d728365dc3908c63bc5cfeeab470722c1677e3073a6ac294aa160405160405180910390a350565b61241761241161249b565b856120ea565b6124525760405162461bcd60e51b815260040180806020018281038252602c815260200180613d4d602c913960400191505060405180910390fd5b61245e84848484613424565b50505050565b61158761246f61249b565b838360405180602001604052806000815250613424565b6000611af1836001600160a01b03841661366a565b3390565b6001600160a01b0383166124e45760405162461bcd60e51b8152600401808060200182810382526025815260200180613ad96025913960400191505060405180910390fd5b6001600160a01b0382166125295760405162461bcd60e51b8152600401808060200182810382526023815260200180613deb6023913960400191505060405180910390fd5b6001600160a01b03808416600081815260086020908152604080832094871680845294825291829020859055815185815291517f8c5be1e5ebec7d5bd14f71427d1e84f3dd0314c0f7b2291e5b200ac8c7c3b9259281900390910190a3505050565b600082820183811015611af1576040805162461bcd60e51b815260206004820152601b60248201527f536166654d6174683a206164646974696f6e206f766572666c6f770000000000604482015290519081900360640190fd5b6040805163555ddc6560e11b81526001600160a01b03871660048201527f29ddb589b1fb5fc7cf394961c1adf5f8c6454761adf795e67fe149f658abe895602482015290516000917388887ed889e776bcbe2f0f9932ecfabcdfcd18209163aabbb8ca91604480820192602092909190829003018186803b15801561266957600080fd5b505afa15801561267d573d6000803e3d6000fd5b505050506040513d602081101561269357600080fd5b505190506001600160a01b0381161561282457806001600160a01b03166375ab97828888888888886040518763ffffffff1660e01b815260040180876001600160a01b03166001600160a01b03168152602001866001600160a01b03166001600160a01b03168152602001856001600160a01b03166001600160a01b031681526020018481526020018060200180602001838103835285818151815260200191508051906020019080838360005b83811015612759578181015183820152602001612741565b50505050905090810190601f1680156127865780820380516001836020036101000a031916815260200191505b50838103825284518152845160209182019186019080838360005b838110156127b95781810151838201526020016127a1565b50505050905090810190601f1680156127e65780820380516001836020036101000a031916815260200191505b5098505050505050505050600060405180830381600087803b15801561280b57600080fd5b505af115801561281f573d6000803e3d6000fd5b505050505b50505050505050565b612839868686866136b4565b61287c83604051806060016040528060278152602001613b41602791396001600160a01b038816600090815260208190526040902054919063ffffffff612a5216565b6001600160a01b0380871660009081526020819052604080822093909355908616815220546128b1908463ffffffff61258b16565b600080866001600160a01b03166001600160a01b0316815260200190815260200160002081905550836001600160a01b0316856001600160a01b0316876001600160a01b03167f06b541ddaa720db2b10a4d0cdac39b8d360425fc073085fac19bc82614677987868686604051808481526020018060200180602001838103835285818151815260200191508051906020019080838360005b8381101561296257818101518382015260200161294a565b50505050905090810190601f16801561298f5780820380516001836020036101000a031916815260200191505b50838103825284518152845160209182019186019080838360005b838110156129c25781810151838201526020016129aa565b50505050905090810190601f1680156129ef5780820380516001836020036101000a031916815260200191505b509550505050505060405180910390a4836001600160a01b0316856001600160a01b03167fddf252ad1be2c89b69c2b068fc378daa952ba7f163c4a11628f55a4df523b3ef856040518082815260200191505060405180910390a3505050505050565b60008184841115612ae15760405162461bcd60e51b81526004018080602001828103825283818151815260200191508051906020019080838360005b83811015612aa6578181015183820152602001612a8e565b50505050905090810190601f168015612ad35780820380516001836020036101000a031916815260200191505b509250505060405180910390fd5b505050900390565b6040805163555ddc6560e11b81526001600160a01b03871660048201527fb281fc8c12954d22544db45de3159a39272895b169a852b314f9cc762e44c53b602482015290516000917388887ed889e776bcbe2f0f9932ecfabcdfcd18209163aabbb8ca91604480820192602092909190829003018186803b158015612b6d57600080fd5b505afa158015612b81573d6000803e3d6000fd5b505050506040513d6020811015612b9757600080fd5b505190506001600160a01b03811615612d2b57806001600160a01b03166223de298989898989896040518763ffffffff1660e01b815260040180876001600160a01b03166001600160a01b03168152602001866001600160a01b03166001600160a01b03168152602001856001600160a01b03166001600160a01b031681526020018481526020018060200180602001838103835285818151815260200191508051906020019080838360005b83811015612c5c578181015183820152602001612c44565b50505050905090810190601f168015612c895780820380516001836020036101000a031916815260200191505b50838103825284518152845160209182019186019080838360005b83811015612cbc578181015183820152602001612ca4565b50505050905090810190601f168015612ce95780820380516001836020036101000a031916815260200191505b5098505050505050505050600060405180830381600087803b158015612d0e57600080fd5b505af1158015612d22573d6000803e3d6000fd5b50505050612d7f565b8115612d7f57612d43866001600160a01b0316613704565b15612d7f5760405162461bcd60e51b815260040180806020018281038252604d815260200180613c38604d913960600191505060405180910390fd5b5050505050505050565b6000828152600d60205260409020612da7908263ffffffff61248616565b1561158757612db461249b565b6001600160a01b0316816001600160a01b0316837f2f8788117e7eff1d82e926ec794901d17c78024a50270940304540a733656f0d60405160405180910390a45050565b6000828152600d60205260409020612e16908263ffffffff61370a16565b1561158757612e2361249b565b6001600160a01b0316816001600160a01b0316837ff6391f5c32d9c69d2a47ea670b442974b53935d1edc7fd64eb21e047a839171b60405160405180910390a45050565b600e5460ff16612eb5576040805162461bcd60e51b815260206004820152601460248201527314185d5cd8589b194e881b9bdd081c185d5cd95960621b604482015290519081900360640190fd5b600e805460ff191690557f5db9ee0a495bf2e6ff9c91a7834c1ba4fdd244a5e8aa4e537bd38aeae4b073aa612ee861249b565b604080516001600160a01b039092168252519081900360200190a1565b6001600160a01b038416612f60576040805162461bcd60e51b815260206004820181905260248201527f4552433737373a206d696e7420746f20746865207a65726f2061646472657373604482015290519081900360640190fd5b6000612f6a61249b565b9050612f7981600087876136b4565b600154612f8c908563ffffffff61258b16565b6001556001600160a01b038516600090815260208190526040902054612fb8908563ffffffff61258b16565b6001600160a01b038616600090815260208190526040812091909155612fe5908290878787876001612ae9565b846001600160a01b0316816001600160a01b03167f2fe5be0146f74c5bce36c0b80911af6c7d86ff27e89d5cfa61fc681327954e5d868686604051808481526020018060200180602001838103835285818151815260200191508051906020019080838360005b8381101561306457818101518382015260200161304c565b50505050905090810190601f1680156130915780820380516001836020036101000a031916815260200191505b50838103825284518152845160209182019186019080838360005b838110156130c45781810151838201526020016130ac565b50505050905090810190601f1680156130f15780820380516001836020036101000a031916815260200191505b509550505050505060405180910390a36040805185815290516001600160a01b038716916000917fddf252ad1be2c89b69c2b068fc378daa952ba7f163c4a11628f55a4df523b3ef9181900360200190a35050505050565b6000806000841161319a576040805162461bcd60e51b815260206004820152601660248201527504552433230536e617073686f743a20696420697320360541b604482015290519081900360640190fd5b6131a4600c61371f565b8411156131f8576040805162461bcd60e51b815260206004820152601d60248201527f4552433230536e617073686f743a206e6f6e6578697374656e74206964000000604482015290519081900360640190fd5b600061320a848663ffffffff61372316565b8454909150811415613223575060009150819050613245565b600184600101828154811061323457fe5b906000526020600020015492509250505b9250929050565b6001600160a01b0386166132915760405162461bcd60e51b8152600401808060200182810382526022815260200180613afe6022913960400191505060405180910390fd5b6001600160a01b0385166132ec576040805162461bcd60e51b815260206004820181905260248201527f4552433737373a2073656e6420746f20746865207a65726f2061646472657373604482015290519081900360640190fd5b60006132f661249b565b90506133068188888888886125e5565b61331481888888888861282d565b61282481888888888888612ae9565b600e5460ff161561336e576040805162461bcd60e51b815260206004820152601060248201526f14185d5cd8589b194e881c185d5cd95960821b604482015290519081900360640190fd5b600e805460ff191660011790557f62e78cea01bee320cd4e420270b5ea74000d11b0c9f74754ebdbfc544b05a258612ee861249b565b6000611af183836137c4565b6000611af1836001600160a01b038416613828565b60006133d1600c613840565b60006133dd600c61371f565b6040805182815290519192507f8030e83b04d87bef53480e26263266d6ca66863aa8506aca6f2559d18aa1cb67919081900360200190a1905090565b60006111e38261371f565b6001600160a01b0384166134695760405162461bcd60e51b8152600401808060200182810382526022815260200180613b686022913960400191505060405180910390fd5b600061347361249b565b905061348281866000876136b4565b613491818660008787876125e5565b6134d484604051806060016040528060238152602001613dc8602391396001600160a01b038816600090815260208190526040902054919063ffffffff612a5216565b6001600160a01b038616600090815260208190526040902055600154613500908563ffffffff61384916565b600181905550846001600160a01b0316816001600160a01b03167fa78a9be3a7b862d26933ad85fb11d80ef66b8f972d7cbba06621d583943a4098868686604051808481526020018060200180602001838103835285818151815260200191508051906020019080838360005b8381101561358557818101518382015260200161356d565b50505050905090810190601f1680156135b25780820380516001836020036101000a031916815260200191505b50838103825284518152845160209182019186019080838360005b838110156135e55781810151838201526020016135cd565b50505050905090810190601f1680156136125780820380516001836020036101000a031916815260200191505b509550505050505060405180910390a36040805185815290516000916001600160a01b038816917fddf252ad1be2c89b69c2b068fc378daa952ba7f163c4a11628f55a4df523b3ef9181900360200190a35050505050565b60006136768383613828565b6136ac575081546001818101845560008481526020808220909301849055845484825282860190935260409020919091556111e3565b5060006111e3565b6136bc611899565b156136f85760405162461bcd60e51b815260040180806020018281038252602a815260200180613e3d602a913960400191505060405180910390fd5b61245e8484848461388b565b3b151590565b6000611af1836001600160a01b0384166138e4565b5490565b8154600090613734575060006111e3565b82546000905b8082101561378357600061374e83836139aa565b90508486828154811061375d57fe5b906000526020600020015411156137765780915061377d565b8060010192505b5061373a565b6000821180156137ab57508385600184038154811061379e57fe5b9060005260206000200154145b156137bc57506000190190506111e3565b5090506111e3565b815460009082106138065760405162461bcd60e51b8152600401808060200182810382526022815260200180613a886022913960400191505060405180910390fd5b82600001828154811061381557fe5b9060005260206000200154905092915050565b60009081526001919091016020526040902054151590565b80546001019055565b6000611af183836040518060400160405280601e81526020017f536166654d6174683a207375627472616374696f6e206f766572666c6f770000815250612a52565b6138978484848461245e565b6001600160a01b0383166138bb576138ae826139cf565b6138b66139f9565b61245e565b6001600160a01b0382166138d2576138ae836139cf565b6138db836139cf565b61245e826139cf565b600081815260018301602052604081205480156139a0578354600019808301919081019060009087908390811061391757fe5b906000526020600020015490508087600001848154811061393457fe5b60009182526020808320909101929092558281526001898101909252604090209084019055865487908061396457fe5b600190038181906000526020600020016000905590558660010160008781526020019081526020016000206000905560019450505050506111e3565b60009150506111e3565b600060028083066002850601816139bd57fe5b04600283046002850401019392505050565b6001600160a01b03811660009081526009602052604090206115b1906139f4836119c0565b613a06565b61160c600a6139f461135a565b6000613a12600c61371f565b905080613a1e84613a52565b1015611dc6578254600180820185556000858152602080822090930193909355938401805494850181558252902090910155565b8054600090613a635750600061150e565b815482906000198101908110613a7557fe5b9060005260206000200154905061150e56fe456e756d657261626c655365743a20696e646578206f7574206f6620626f756e6473416363657373436f6e74726f6c3a2073656e646572206d75737420626520616e2061646d696e20746f206772616e744552433737373a20617070726f76652066726f6d20746865207a65726f20616464726573734552433737373a2073656e642066726f6d20746865207a65726f206164647265737346433a204d6967726174696f6e20746f20746865207a65726f20616464726573734552433737373a207472616e7366657220616d6f756e7420657863656564732062616c616e63654552433737373a206275726e2066726f6d20746865207a65726f20616464726573734552433737373a20617574686f72697a696e672073656c66206173206f70657261746f72416363657373436f6e74726f6c3a2073656e646572206d75737420626520616e2061646d696e20746f207265766f6b654552433737373a207265766f6b696e672073656c66206173206f70657261746f72506175736572526f6c653a2063616c6c657220646f6573206e6f742068617665207468652050617573657220726f6c65206f722061626f76654552433737373a20746f6b656e20726563697069656e7420636f6e747261637420686173206e6f20696d706c656d656e74657220666f7220455243373737546f6b656e73526563697069656e744552433737373a207472616e7366657220746f20746865207a65726f206164647265737341646d696e526f6c653a2063616c6c657220646f6573206e6f742068617665207468652041646d696e20726f6c655265636f72646572526f6c653a2063616c6c657220646f6573206e6f74206861766520746865205265636f7264657220726f6c65206f722061626f76654d696e746572526f6c653a2063616c6c657220646f6573206e6f74206861766520746865204d696e74657220726f6c65206f722061626f76654552433737373a2063616c6c6572206973206e6f7420616e206f70657261746f7220666f7220686f6c6465724552433737373a207472616e7366657220616d6f756e74206578636565647320616c6c6f77616e63654552433737373a207472616e736665722066726f6d20746865207a65726f20616464726573734552433737373a206275726e20616d6f756e7420657863656564732062616c616e63654552433737373a20617070726f766520746f20746865207a65726f2061646472657373416363657373436f6e74726f6c3a2063616e206f6e6c792072656e6f756e636520726f6c657320666f722073656c6645524332305061757361626c653a20746f6b656e207472616e73666572207768696c6520706175736564a2646970667358221220ff086e536a3b780d19102e23fe9fc4e277ea8f4d4bfb44cc84b8db9e38daebb364736f6c63430006090033",
  "source": "// SPDX-License-Identifier: MIT\r\n\r\npragma solidity ^0.6.0;\r\n\r\nimport \"@openzeppelin/contracts/utils/Pausable.sol\";\r\n\r\nimport \"./ERC777Snapshot.sol\";\r\nimport \"./FCRoles.sol\";\r\nimport \"./SponsorWhitelistControl.sol\";\r\n\r\nimport \"./utils/LimitedSetup.sol\";\r\n\r\ncontract FC is ERC777Snapshot, FCRoles, Pausable, LimitedSetup\r\n{\r\n    using SafeMath for uint256;\r\n\r\n    uint256 constant public CAP = 21000000 ether;\r\n\r\n    SponsorWhitelistControl constant public SPONSOR = SponsorWhitelistControl(address(0x0888000000000000000000000000000000000001));\r\n\r\n    constructor()\r\n        ERC777(\"FansCoin\", \"FC\", new address[](0))\r\n        ERC777Snapshot()\r\n        LimitedSetup(1 weeks)\r\n        public\r\n    {\r\n        // register all users as sponsees\r\n        address[] memory users = new address[](1);\r\n        users[0] = address(0);\r\n        SPONSOR.addPrivilege(users);\r\n\r\n        _pause();\r\n    }\r\n\r\n    function cap() public pure returns (uint256) {\r\n        return CAP;\r\n    }\r\n\r\n    //---------------- Data Migration ----------------------\r\n    function batchSetStateOf(address[] memory accounts, uint256[] memory ConfluxPools, uint256[] memory Personals, uint256[] memory Lockeds) public onlyPauser onlyDuringSetup {\r\n        for (uint256 i = 0; i < accounts.length; i++) {\r\n            setStateOf(accounts[i], ConfluxPools[i], Personals[i], Lockeds[i]);\r\n        }\r\n    }\r\n\r\n    function setStateOf(address account, uint256 ConfluxPool, uint256 Personal, uint256 Locked) public onlyPauser onlyDuringSetup {\r\n        require(account != address(0), \"FC: Migration to the zero address\");\r\n        _balances[account] = ConfluxPool.add(Personal).add(Locked);\r\n        emit Write(account, ConfluxPool, Personal, Locked);\r\n    }\r\n\r\n    function setTotalSupply(uint256 total) public onlyPauser onlyDuringSetup {\r\n        _totalSupply = total;\r\n    }\r\n    //---------------- End Data Migration ----------------------\r\n\r\n    function mint(address account, uint256 value) public onlyMinter returns (bool) {\r\n        require(totalSupply().add(value) <= CAP, \"ERC20Capped: cap exceeded\");\r\n        _mint(account, value, \"\", \"\");\r\n    }\r\n\r\n    function pause() public onlyPauser {\r\n        _pause();\r\n    }\r\n\r\n    function unpause() public onlyPauser {\r\n        _unpause();\r\n    }\r\n\r\n    function snapshot() public onlyRecorder returns (uint256) {\r\n        return _snapshot();\r\n    }\r\n\r\n    function _beforeTokenTransfer(address operator, address from, address to, uint256 amount) internal override {\r\n        require(!paused(), \"ERC20Pausable: token transfer while paused\");\r\n        super._beforeTokenTransfer(operator, from, to, amount);\r\n    }\r\n\r\n    event Write(address indexed account, uint256 CPool, uint256 PPool, uint256 PPoolLocked);\r\n}\r\n",
  "sourcePath": "/Users/wangfan/Project/conflux-fc/contracts/FC.sol",
  "compiler": {
    "name": "solc",
    "version": "0.6.9+commit.3e3065ac.Emscripten.clang"
  },
  "schemaVersion": "3.0.23",
  "updatedAt": "2020-10-25T10:19:56.404Z",
  "devdoc": {
    "methods": {
      "allowance(address,address)": {
        "details": "See {IERC20-allowance}. Note that operator and allowance concepts are orthogonal: operators may not have allowance, and accounts with allowance may not be operators themselves."
      },
      "approve(address,uint256)": {
        "details": "See {IERC20-approve}. Note that accounts cannot have allowance issued by their operators."
      },
      "authorizeOperator(address)": {
        "details": "See {IERC777-authorizeOperator}."
      },
      "balanceOf(address)": {
        "details": "Returns the amount of tokens owned by an account (`tokenHolder`)."
      },
      "balanceOfAt(address,uint256)": {
        "details": "Retrieves the balance of `account` at the time `snapshotId` was created."
      },
      "burn(uint256,bytes)": {
        "details": "See {IERC777-burn}. Also emits a {IERC20-Transfer} event for ERC20 compatibility."
      },
      "decimals()": {
        "details": "See {ERC20-decimals}. Always returns 18, as per the [ERC777 EIP](https://eips.ethereum.org/EIPS/eip-777#backward-compatibility)."
      },
      "defaultOperators()": {
        "details": "See {IERC777-defaultOperators}."
      },
      "getRoleAdmin(bytes32)": {
        "details": "Returns the admin role that controls `role`. See {grantRole} and {revokeRole}. To change a role's admin, use {_setRoleAdmin}."
      },
      "getRoleMember(bytes32,uint256)": {
        "details": "Returns one of the accounts that have `role`. `index` must be a value between 0 and {getRoleMemberCount}, non-inclusive. Role bearers are not sorted in any particular way, and their ordering may change at any point. WARNING: When using {getRoleMember} and {getRoleMemberCount}, make sure you perform all queries on the same block. See the following https://forum.openzeppelin.com/t/iterating-over-elements-on-enumerableset-in-openzeppelin-contracts/2296[forum post] for more information."
      },
      "getRoleMemberCount(bytes32)": {
        "details": "Returns the number of accounts that have `role`. Can be used together with {getRoleMember} to enumerate all bearers of a role."
      },
      "grantRole(bytes32,address)": {
        "details": "Grants `role` to `account`. If `account` had not been already granted `role`, emits a {RoleGranted} event. Requirements: - the caller must have ``role``'s admin role."
      },
      "granularity()": {
        "details": "See {IERC777-granularity}. This implementation always returns `1`."
      },
      "hasRole(bytes32,address)": {
        "details": "Returns `true` if `account` has been granted `role`."
      },
      "isOperatorFor(address,address)": {
        "details": "See {IERC777-isOperatorFor}."
      },
      "name()": {
        "details": "See {IERC777-name}."
      },
      "operatorBurn(address,uint256,bytes,bytes)": {
        "details": "See {IERC777-operatorBurn}. Emits {Burned} and {IERC20-Transfer} events."
      },
      "operatorSend(address,address,uint256,bytes,bytes)": {
        "details": "See {IERC777-operatorSend}. Emits {Sent} and {IERC20-Transfer} events."
      },
      "paused()": {
        "details": "Returns true if the contract is paused, and false otherwise."
      },
      "renounceRole(bytes32,address)": {
        "details": "Revokes `role` from the calling account. Roles are often managed via {grantRole} and {revokeRole}: this function's purpose is to provide a mechanism for accounts to lose their privileges if they are compromised (such as when a trusted device is misplaced). If the calling account had been granted `role`, emits a {RoleRevoked} event. Requirements: - the caller must be `account`."
      },
      "revokeOperator(address)": {
        "details": "See {IERC777-revokeOperator}."
      },
      "revokeRole(bytes32,address)": {
        "details": "Revokes `role` from `account`. If `account` had been granted `role`, emits a {RoleRevoked} event. Requirements: - the caller must have ``role``'s admin role."
      },
      "send(address,uint256,bytes)": {
        "details": "See {IERC777-send}. Also emits a {IERC20-Transfer} event for ERC20 compatibility."
      },
      "symbol()": {
        "details": "See {IERC777-symbol}."
      },
      "totalSupply()": {
        "details": "See {IERC777-totalSupply}."
      },
      "totalSupplyAt(uint256)": {
        "details": "Retrieves the total supply at the time `snapshotId` was created."
      },
      "transfer(address,uint256)": {
        "details": "See {IERC20-transfer}. Unlike `send`, `recipient` is _not_ required to implement the {IERC777Recipient} interface if it is a contract. Also emits a {Sent} event."
      },
      "transferFrom(address,address,uint256)": {
        "details": "See {IERC20-transferFrom}. Note that operator and allowance concepts are orthogonal: operators cannot call `transferFrom` (unless they have allowance), and accounts with allowance cannot call `operatorSend` (unless they are operators). Emits {Sent}, {IERC20-Transfer} and {IERC20-Approval} events."
      }
    }
  },
  "userdoc": {
    "methods": {}
  }
}