{
  "contractName": "TokenBase",
  "abi": [
    {
      "inputs": [
        {
          "internalType": "string",
          "name": "name",
          "type": "string"
        },
        {
          "internalType": "string",
          "name": "symbol",
          "type": "string"
        },
        {
          "internalType": "address[]",
          "name": "defaultOperators",
          "type": "address[]"
        }
      ],
      "payable": false,
      "stateMutability": "nonpayable",
      "type": "constructor"
    },
    {
      "anonymous": false,
      "inputs": [
        {
          "indexed": true,
          "internalType": "address",
          "name": "owner",
          "type": "address"
        },
        {
          "indexed": true,
          "internalType": "address",
          "name": "spender",
          "type": "address"
        },
        {
          "indexed": false,
          "internalType": "uint256",
          "name": "value",
          "type": "uint256"
        }
      ],
      "name": "Approval",
      "type": "event"
    },
    {
      "anonymous": false,
      "inputs": [
        {
          "indexed": true,
          "internalType": "address",
          "name": "operator",
          "type": "address"
        },
        {
          "indexed": true,
          "internalType": "address",
          "name": "tokenHolder",
          "type": "address"
        }
      ],
      "name": "AuthorizedOperator",
      "type": "event"
    },
    {
      "anonymous": false,
      "inputs": [
        {
          "indexed": true,
          "internalType": "address",
          "name": "operator",
          "type": "address"
        },
        {
          "indexed": true,
          "internalType": "address",
          "name": "from",
          "type": "address"
        },
        {
          "indexed": false,
          "internalType": "uint256",
          "name": "amount",
          "type": "uint256"
        },
        {
          "indexed": false,
          "internalType": "bytes",
          "name": "data",
          "type": "bytes"
        },
        {
          "indexed": false,
          "internalType": "bytes",
          "name": "operatorData",
          "type": "bytes"
        }
      ],
      "name": "Burned",
      "type": "event"
    },
    {
      "anonymous": false,
      "inputs": [
        {
          "indexed": true,
          "internalType": "uint256",
          "name": "amount",
          "type": "uint256"
        },
        {
          "indexed": false,
          "internalType": "string",
          "name": "toAddress",
          "type": "string"
        },
        {
          "indexed": true,
          "internalType": "address",
          "name": "fromAddress",
          "type": "address"
        },
        {
          "indexed": false,
          "internalType": "address",
          "name": "defi_relayer",
          "type": "address"
        }
      ],
      "name": "Burnt",
      "type": "event"
    },
    {
      "anonymous": false,
      "inputs": [
        {
          "indexed": true,
          "internalType": "address",
          "name": "toAddress",
          "type": "address"
        },
        {
          "indexed": true,
          "internalType": "uint256",
          "name": "amount",
          "type": "uint256"
        },
        {
          "indexed": false,
          "internalType": "string",
          "name": "defi",
          "type": "string"
        },
        {
          "indexed": false,
          "internalType": "string",
          "name": "tx_id",
          "type": "string"
        }
      ],
      "name": "Minted",
      "type": "event"
    },
    {
      "anonymous": false,
      "inputs": [
        {
          "indexed": true,
          "internalType": "address",
          "name": "operator",
          "type": "address"
        },
        {
          "indexed": true,
          "internalType": "address",
          "name": "to",
          "type": "address"
        },
        {
          "indexed": false,
          "internalType": "uint256",
          "name": "amount",
          "type": "uint256"
        },
        {
          "indexed": false,
          "internalType": "bytes",
          "name": "data",
          "type": "bytes"
        },
        {
          "indexed": false,
          "internalType": "bytes",
          "name": "operatorData",
          "type": "bytes"
        }
      ],
      "name": "Minted",
      "type": "event"
    },
    {
      "anonymous": false,
      "inputs": [
        {
          "indexed": true,
          "internalType": "address",
          "name": "previousOwner",
          "type": "address"
        },
        {
          "indexed": true,
          "internalType": "address",
          "name": "newOwner",
          "type": "address"
        }
      ],
      "name": "OwnershipTransferred",
      "type": "event"
    },
    {
      "anonymous": false,
      "inputs": [
        {
          "indexed": false,
          "internalType": "address",
          "name": "account",
          "type": "address"
        }
      ],
      "name": "Paused",
      "type": "event"
    },
    {
      "anonymous": false,
      "inputs": [
        {
          "indexed": true,
          "internalType": "address",
          "name": "account",
          "type": "address"
        }
      ],
      "name": "PauserAdded",
      "type": "event"
    },
    {
      "anonymous": false,
      "inputs": [
        {
          "indexed": true,
          "internalType": "address",
          "name": "account",
          "type": "address"
        }
      ],
      "name": "PauserRemoved",
      "type": "event"
    },
    {
      "anonymous": false,
      "inputs": [
        {
          "indexed": true,
          "internalType": "address",
          "name": "operator",
          "type": "address"
        },
        {
          "indexed": true,
          "internalType": "address",
          "name": "tokenHolder",
          "type": "address"
        }
      ],
      "name": "RevokedOperator",
      "type": "event"
    },
    {
      "anonymous": false,
      "inputs": [
        {
          "indexed": true,
          "internalType": "address",
          "name": "operator",
          "type": "address"
        },
        {
          "indexed": true,
          "internalType": "address",
          "name": "from",
          "type": "address"
        },
        {
          "indexed": true,
          "internalType": "address",
          "name": "to",
          "type": "address"
        },
        {
          "indexed": false,
          "internalType": "uint256",
          "name": "amount",
          "type": "uint256"
        },
        {
          "indexed": false,
          "internalType": "bytes",
          "name": "data",
          "type": "bytes"
        },
        {
          "indexed": false,
          "internalType": "bytes",
          "name": "operatorData",
          "type": "bytes"
        }
      ],
      "name": "Sent",
      "type": "event"
    },
    {
      "anonymous": false,
      "inputs": [
        {
          "indexed": true,
          "internalType": "address",
          "name": "from",
          "type": "address"
        },
        {
          "indexed": true,
          "internalType": "address",
          "name": "to",
          "type": "address"
        },
        {
          "indexed": false,
          "internalType": "uint256",
          "name": "value",
          "type": "uint256"
        }
      ],
      "name": "Transfer",
      "type": "event"
    },
    {
      "anonymous": false,
      "inputs": [
        {
          "indexed": false,
          "internalType": "address",
          "name": "account",
          "type": "address"
        }
      ],
      "name": "Unpaused",
      "type": "event"
    },
    {
      "constant": false,
      "inputs": [
        {
          "internalType": "address",
          "name": "account",
          "type": "address"
        }
      ],
      "name": "addPauser",
      "outputs": [],
      "payable": false,
      "stateMutability": "nonpayable",
      "type": "function"
    },
    {
      "constant": true,
      "inputs": [
        {
          "internalType": "address",
          "name": "holder",
          "type": "address"
        },
        {
          "internalType": "address",
          "name": "spender",
          "type": "address"
        }
      ],
      "name": "allowance",
      "outputs": [
        {
          "internalType": "uint256",
          "name": "",
          "type": "uint256"
        }
      ],
      "payable": false,
      "stateMutability": "view",
      "type": "function"
    },
    {
      "constant": false,
      "inputs": [
        {
          "internalType": "address",
          "name": "spender",
          "type": "address"
        },
        {
          "internalType": "uint256",
          "name": "value",
          "type": "uint256"
        }
      ],
      "name": "approve",
      "outputs": [
        {
          "internalType": "bool",
          "name": "",
          "type": "bool"
        }
      ],
      "payable": false,
      "stateMutability": "nonpayable",
      "type": "function"
    },
    {
      "constant": false,
      "inputs": [
        {
          "internalType": "address",
          "name": "operator",
          "type": "address"
        }
      ],
      "name": "authorizeOperator",
      "outputs": [],
      "payable": false,
      "stateMutability": "nonpayable",
      "type": "function"
    },
    {
      "constant": true,
      "inputs": [
        {
          "internalType": "address",
          "name": "tokenHolder",
          "type": "address"
        }
      ],
      "name": "balanceOf",
      "outputs": [
        {
          "internalType": "uint256",
          "name": "",
          "type": "uint256"
        }
      ],
      "payable": false,
      "stateMutability": "view",
      "type": "function"
    },
    {
      "constant": true,
      "inputs": [],
      "name": "decimals",
      "outputs": [
        {
          "internalType": "uint8",
          "name": "",
          "type": "uint8"
        }
      ],
      "payable": false,
      "stateMutability": "pure",
      "type": "function"
    },
    {
      "constant": true,
      "inputs": [],
      "name": "defaultOperators",
      "outputs": [
        {
          "internalType": "address[]",
          "name": "",
          "type": "address[]"
        }
      ],
      "payable": false,
      "stateMutability": "view",
      "type": "function"
    },
    {
      "constant": true,
      "inputs": [],
      "name": "granularity",
      "outputs": [
        {
          "internalType": "uint256",
          "name": "",
          "type": "uint256"
        }
      ],
      "payable": false,
      "stateMutability": "view",
      "type": "function"
    },
    {
      "constant": true,
      "inputs": [
        {
          "internalType": "address",
          "name": "operator",
          "type": "address"
        },
        {
          "internalType": "address",
          "name": "tokenHolder",
          "type": "address"
        }
      ],
      "name": "isOperatorFor",
      "outputs": [
        {
          "internalType": "bool",
          "name": "",
          "type": "bool"
        }
      ],
      "payable": false,
      "stateMutability": "view",
      "type": "function"
    },
    {
      "constant": true,
      "inputs": [],
      "name": "isOwner",
      "outputs": [
        {
          "internalType": "bool",
          "name": "",
          "type": "bool"
        }
      ],
      "payable": false,
      "stateMutability": "view",
      "type": "function"
    },
    {
      "constant": true,
      "inputs": [
        {
          "internalType": "address",
          "name": "account",
          "type": "address"
        }
      ],
      "name": "isPauser",
      "outputs": [
        {
          "internalType": "bool",
          "name": "",
          "type": "bool"
        }
      ],
      "payable": false,
      "stateMutability": "view",
      "type": "function"
    },
    {
      "constant": true,
      "inputs": [],
      "name": "name",
      "outputs": [
        {
          "internalType": "string",
          "name": "",
          "type": "string"
        }
      ],
      "payable": false,
      "stateMutability": "view",
      "type": "function"
    },
    {
      "constant": false,
      "inputs": [
        {
          "internalType": "address",
          "name": "account",
          "type": "address"
        },
        {
          "internalType": "uint256",
          "name": "amount",
          "type": "uint256"
        },
        {
          "internalType": "bytes",
          "name": "data",
          "type": "bytes"
        },
        {
          "internalType": "bytes",
          "name": "operatorData",
          "type": "bytes"
        }
      ],
      "name": "operatorBurn",
      "outputs": [],
      "payable": false,
      "stateMutability": "nonpayable",
      "type": "function"
    },
    {
      "constant": false,
      "inputs": [
        {
          "internalType": "address",
          "name": "sender",
          "type": "address"
        },
        {
          "internalType": "address",
          "name": "recipient",
          "type": "address"
        },
        {
          "internalType": "uint256",
          "name": "amount",
          "type": "uint256"
        },
        {
          "internalType": "bytes",
          "name": "data",
          "type": "bytes"
        },
        {
          "internalType": "bytes",
          "name": "operatorData",
          "type": "bytes"
        }
      ],
      "name": "operatorSend",
      "outputs": [],
      "payable": false,
      "stateMutability": "nonpayable",
      "type": "function"
    },
    {
      "constant": true,
      "inputs": [],
      "name": "owner",
      "outputs": [
        {
          "internalType": "address",
          "name": "",
          "type": "address"
        }
      ],
      "payable": false,
      "stateMutability": "view",
      "type": "function"
    },
    {
      "constant": false,
      "inputs": [],
      "name": "pause",
      "outputs": [],
      "payable": false,
      "stateMutability": "nonpayable",
      "type": "function"
    },
    {
      "constant": true,
      "inputs": [],
      "name": "paused",
      "outputs": [
        {
          "internalType": "bool",
          "name": "",
          "type": "bool"
        }
      ],
      "payable": false,
      "stateMutability": "view",
      "type": "function"
    },
    {
      "constant": false,
      "inputs": [],
      "name": "renounceOwnership",
      "outputs": [],
      "payable": false,
      "stateMutability": "nonpayable",
      "type": "function"
    },
    {
      "constant": false,
      "inputs": [],
      "name": "renouncePauser",
      "outputs": [],
      "payable": false,
      "stateMutability": "nonpayable",
      "type": "function"
    },
    {
      "constant": false,
      "inputs": [
        {
          "internalType": "address",
          "name": "operator",
          "type": "address"
        }
      ],
      "name": "revokeOperator",
      "outputs": [],
      "payable": false,
      "stateMutability": "nonpayable",
      "type": "function"
    },
    {
      "constant": false,
      "inputs": [
        {
          "internalType": "address",
          "name": "recipient",
          "type": "address"
        },
        {
          "internalType": "uint256",
          "name": "amount",
          "type": "uint256"
        },
        {
          "internalType": "bytes",
          "name": "data",
          "type": "bytes"
        }
      ],
      "name": "send",
      "outputs": [],
      "payable": false,
      "stateMutability": "nonpayable",
      "type": "function"
    },
    {
      "constant": true,
      "inputs": [],
      "name": "symbol",
      "outputs": [
        {
          "internalType": "string",
          "name": "",
          "type": "string"
        }
      ],
      "payable": false,
      "stateMutability": "view",
      "type": "function"
    },
    {
      "constant": true,
      "inputs": [],
      "name": "totalSupply",
      "outputs": [
        {
          "internalType": "uint256",
          "name": "",
          "type": "uint256"
        }
      ],
      "payable": false,
      "stateMutability": "view",
      "type": "function"
    },
    {
      "constant": false,
      "inputs": [
        {
          "internalType": "address",
          "name": "recipient",
          "type": "address"
        },
        {
          "internalType": "uint256",
          "name": "amount",
          "type": "uint256"
        }
      ],
      "name": "transfer",
      "outputs": [
        {
          "internalType": "bool",
          "name": "",
          "type": "bool"
        }
      ],
      "payable": false,
      "stateMutability": "nonpayable",
      "type": "function"
    },
    {
      "constant": false,
      "inputs": [
        {
          "internalType": "address",
          "name": "holder",
          "type": "address"
        },
        {
          "internalType": "address",
          "name": "recipient",
          "type": "address"
        },
        {
          "internalType": "uint256",
          "name": "amount",
          "type": "uint256"
        }
      ],
      "name": "transferFrom",
      "outputs": [
        {
          "internalType": "bool",
          "name": "",
          "type": "bool"
        }
      ],
      "payable": false,
      "stateMutability": "nonpayable",
      "type": "function"
    },
    {
      "constant": false,
      "inputs": [
        {
          "internalType": "address",
          "name": "newOwner",
          "type": "address"
        }
      ],
      "name": "transferOwnership",
      "outputs": [],
      "payable": false,
      "stateMutability": "nonpayable",
      "type": "function"
    },
    {
      "constant": false,
      "inputs": [],
      "name": "unpause",
      "outputs": [],
      "payable": false,
      "stateMutability": "nonpayable",
      "type": "function"
    },
    {
      "constant": false,
      "inputs": [
        {
          "internalType": "address",
          "name": "account",
          "type": "address"
        },
        {
          "internalType": "uint256",
          "name": "amount",
          "type": "uint256"
        },
        {
          "internalType": "string",
          "name": "defi",
          "type": "string"
        },
        {
          "internalType": "string",
          "name": "tx_id",
          "type": "string"
        }
      ],
      "name": "mint",
      "outputs": [
        {
          "internalType": "bool",
          "name": "",
          "type": "bool"
        }
      ],
      "payable": false,
      "stateMutability": "nonpayable",
      "type": "function"
    },
    {
      "constant": false,
      "inputs": [
        {
          "internalType": "address",
          "name": "useraddr",
          "type": "address"
        },
        {
          "internalType": "uint256",
          "name": "amount",
          "type": "uint256"
        },
        {
          "internalType": "string",
          "name": "addr",
          "type": "string"
        },
        {
          "internalType": "address",
          "name": "defi_relayer",
          "type": "address"
        }
      ],
      "name": "burn",
      "outputs": [
        {
          "internalType": "bool",
          "name": "",
          "type": "bool"
        }
      ],
      "payable": false,
      "stateMutability": "nonpayable",
      "type": "function"
    },
    {
      "constant": false,
      "inputs": [
        {
          "internalType": "uint256",
          "name": "amount",
          "type": "uint256"
        },
        {
          "internalType": "bytes",
          "name": "data",
          "type": "bytes"
        }
      ],
      "name": "burn",
      "outputs": [],
      "payable": false,
      "stateMutability": "nonpayable",
      "type": "function"
    }
  ],
  "bytecode": "0x60806040523480156200001157600080fd5b506040516200395738038062003957833981810160405260608110156200003757600080fd5b81019080805160405193929190846401000000008211156200005857600080fd5b9083019060208201858111156200006e57600080fd5b82516401000000008111828201881017156200008957600080fd5b82525081516020918201929091019080838360005b83811015620000b85781810151838201526020016200009e565b50505050905090810190601f168015620000e65780820380516001836020036101000a031916815260200191505b50604052602001805160405193929190846401000000008211156200010a57600080fd5b9083019060208201858111156200012057600080fd5b82516401000000008111828201881017156200013b57600080fd5b82525081516020918201929091019080838360005b838110156200016a57818101518382015260200162000150565b50505050905090810190601f168015620001985780820380516001836020036101000a031916815260200191505b5060405260200180516040519392919084640100000000821115620001bc57600080fd5b908301906020820185811115620001d257600080fd5b8251866020820283011164010000000082111715620001f057600080fd5b82525081516020918201928201910280838360005b838110156200021f57818101518382015260200162000205565b5050505090500160405250505082828262000252620002436200059d60201b60201c565b6001600160e01b03620005a216565b6001805460ff1916905562000287731820a4b7618bde71dce8cdc73aab6c95905fad24620005f4602090811b62002cb917901c565b15620002bb5760018054610100600160a81b031916741820a4b7618bde71dce8cdc73aab6c95905fad240017905562000360565b620002e57388887ed889e776bcbe2f0f9932ecfabcdfcd1820620005f460201b62002cb91760201c565b62000337576040805162461bcd60e51b815260206004820181905260248201527f4552433737373a2045524331383230206e6f74206465706c6f79656420796574604482015290519081900360640190fd5b60018054610100600160a81b0319167488887ed889e776bcbe2f0f9932ecfabcdfcd1820001790555b82516200037590600490602086019062000727565b5081516200038b90600590602085019062000727565b508051620003a1906006906020840190620007ac565b5060005b600654811015620004015760016007600060068481548110620003c457fe5b6000918252602080832091909101546001600160a01b031683528201929092526040019020805460ff1916911515919091179055600101620003a5565b50600154604080516a22a9219b9b9baa37b5b2b760a91b8152815190819003600b0181206329965a1d60e01b825230600483018190526024830191909152604482015290516001600160a01b0361010090930492909216916329965a1d9160648082019260009290919082900301818387803b1580156200048157600080fd5b505af115801562000496573d6000803e3d6000fd5b5050600154604080516922a92199182a37b5b2b760b11b8152815190819003600a0181206329965a1d60e01b825230600483018190526024830191909152604482015290516001600160a01b036101009093049290921693506329965a1d925060648082019260009290919082900301818387803b1580156200051857600080fd5b505af11580156200052d573d6000803e3d6000fd5b505050505050506000620005466200059d60201b60201c565b600b80546001600160a01b0319166001600160a01b038316908117909155604051919250906000907f8be0079c531659141344cd1fd0a4f28419497f9722a3daafe3b4186f6b6457e0908290a35050505062000856565b335b90565b620005bd8160006200063160201b62002d5c1790919060201c565b6040516001600160a01b038216907f6719d08c1888103bea251a4ed56406bd0c3e69723c8a1686e017e7bbe159b6f890600090a250565b6000813f7fc5d2460186f7233c927e7db2dcc703c0e500b653ca82273b7bfad8045d85a4708181148015906200062957508115155b949350505050565b6200064682826001600160e01b03620006be16565b1562000699576040805162461bcd60e51b815260206004820152601f60248201527f526f6c65733a206163636f756e7420616c72656164792068617320726f6c6500604482015290519081900360640190fd5b6001600160a01b0316600090815260209190915260409020805460ff19166001179055565b60006001600160a01b038216620007075760405162461bcd60e51b8152600401808060200182810382526022815260200180620039356022913960400191505060405180910390fd5b506001600160a01b03166000908152602091909152604090205460ff1690565b828054600181600116156101000203166002900490600052602060002090601f016020900481019282601f106200076a57805160ff19168380011785556200079a565b828001600101855582156200079a579182015b828111156200079a5782518255916020019190600101906200077d565b50620007a892915062000812565b5090565b82805482825590600052602060002090810192821562000804579160200282015b828111156200080457825182546001600160a01b0319166001600160a01b03909116178255602090920191600190910190620007cd565b50620007a89291506200082f565b6200059f91905b80821115620007a8576000815560010162000819565b6200059f91905b80821115620007a85780546001600160a01b031916815560010162000836565b6130cf80620008666000396000f3fe608060405234801561001057600080fd5b50600436106101da5760003560e01c806382dc1ec411610104578063a9059cbb116100a2578063f2fde38b11610071578063f2fde38b146108f8578063fad8b32a1461091e578063fc673c4f14610944578063fe9d930314610a86576101da565b8063a9059cbb146107aa578063d68ffc2f146107d6578063d95b63711461089c578063dd62ed3e146108ca576101da565b80638f32d59b116100de5780638f32d59b146106b9578063959b8c3f146106c157806395d89b41146106e75780639bd9bbc6146106ef576101da565b806382dc1ec4146106675780638456cb591461068d5780638da5cb5b14610695576101da565b80633f4ba83a1161017c57806362ad1b831161014b57806362ad1b83146104e45780636ef8d66d1461063157806370a0823114610639578063715018a61461065f576101da565b80633f4ba83a146104a457806346fbf68e146104ae578063556f0dc7146104d45780635c975abb146104dc576101da565b806318160ddd116101b857806318160ddd146102f457806323b872dd1461030e5780632fb102cf14610344578063313ce56714610486576101da565b806306e48538146101df57806306fdde0314610237578063095ea7b3146102b4575b600080fd5b6101e7610b33565b60408051602080825283518183015283519192839290830191858101910280838360005b8381101561022357818101518382015260200161020b565b505050509050019250505060405180910390f35b61023f610b95565b6040805160208082528351818301528351919283929083019185019080838360005b83811015610279578181015183820152602001610261565b50505050905090810190601f1680156102a65780820380516001836020036101000a031916815260200191505b509250505060405180910390f35b6102e0600480360360408110156102ca57600080fd5b506001600160a01b038135169060200135610c22565b604080519115158252519081900360200190f35b6102fc610ccc565b60408051918252519081900360200190f35b6102e06004803603606081101561032457600080fd5b506001600160a01b03813581169160208101359091169060400135610cd2565b6102e06004803603608081101561035a57600080fd5b6001600160a01b038235169160208101359181019060608101604082013564010000000081111561038a57600080fd5b82018360208201111561039c57600080fd5b803590602001918460018302840111640100000000831117156103be57600080fd5b91908080601f016020809104026020016040519081016040528093929190818152602001838380828437600092019190915250929594936020810193503591505064010000000081111561041157600080fd5b82018360208201111561042357600080fd5b8035906020019184600183028401116401000000008311171561044557600080fd5b91908080601f016020809104026020016040519081016040528093929190818152602001838380828437600092019190915250929550610ea1945050505050565b61048e61108f565b6040805160ff9092168252519081900360200190f35b6104ac611094565b005b6102e0600480360360208110156104c457600080fd5b50356001600160a01b0316611186565b6102fc61119e565b6102e06111a3565b6104ac600480360360a08110156104fa57600080fd5b6001600160a01b0382358116926020810135909116916040820135919081019060808101606082013564010000000081111561053557600080fd5b82018360208201111561054757600080fd5b8035906020019184600183028401116401000000008311171561056957600080fd5b91908080601f01602080910402602001604051908101604052809392919081815260200183838082843760009201919091525092959493602081019350359150506401000000008111156105bc57600080fd5b8201836020820111156105ce57600080fd5b803590602001918460018302840111640100000000831117156105f057600080fd5b91908080601f0160208091040260200160405190810160405280939291908181526020018383808284376000920191909152509295506111ac945050505050565b6104ac611261565b6102fc6004803603602081101561064f57600080fd5b50356001600160a01b0316611273565b6104ac61128e565b6104ac6004803603602081101561067d57600080fd5b50356001600160a01b031661133e565b6104ac611390565b61069d611456565b604080516001600160a01b039092168252519081900360200190f35b6102e0611465565b6104ac600480360360208110156106d757600080fd5b50356001600160a01b031661148b565b61023f611622565b6104ac6004803603606081101561070557600080fd5b6001600160a01b038235169160208101359181019060608101604082013564010000000081111561073557600080fd5b82018360208201111561074757600080fd5b8035906020019184600183028401116401000000008311171561076957600080fd5b91908080601f016020809104026020016040519081016040528093929190818152602001838380828437600092019190915250929550611683945050505050565b6102e0600480360360408110156107c057600080fd5b506001600160a01b038135169060200135611700565b6102e0600480360360808110156107ec57600080fd5b6001600160a01b038235169160208101359181019060608101604082013564010000000081111561081c57600080fd5b82018360208201111561082e57600080fd5b8035906020019184600183028401116401000000008311171561085057600080fd5b91908080601f016020809104026020016040519081016040528093929190818152602001838380828437600092019190915250929550505090356001600160a01b031691506118259050565b6102e0600480360360408110156108b257600080fd5b506001600160a01b0381358116916020013516611975565b6102fc600480360360408110156108e057600080fd5b506001600160a01b0381358116916020013516611a17565b6104ac6004803603602081101561090e57600080fd5b50356001600160a01b0316611a42565b6104ac6004803603602081101561093457600080fd5b50356001600160a01b0316611aa4565b6104ac6004803603608081101561095a57600080fd5b6001600160a01b038235169160208101359181019060608101604082013564010000000081111561098a57600080fd5b82018360208201111561099c57600080fd5b803590602001918460018302840111640100000000831117156109be57600080fd5b91908080601f0160208091040260200160405190810160405280939291908181526020018383808284376000920191909152509295949360208101935035915050640100000000811115610a1157600080fd5b820183602082011115610a2357600080fd5b80359060200191846001830284011164010000000083111715610a4557600080fd5b91908080601f016020809104026020016040519081016040528093929190818152602001838380828437600092019190915250929550611c3b945050505050565b6104ac60048036036040811015610a9c57600080fd5b81359190810190604081016020820135640100000000811115610abe57600080fd5b820183602082011115610ad057600080fd5b80359060200191846001830284011164010000000083111715610af257600080fd5b91908080601f016020809104026020016040519081016040528093929190818152602001838380828437600092019190915250929550611cec945050505050565b60606006805480602002602001604051908101604052809291908181526020018280548015610b8b57602002820191906000526020600020905b81546001600160a01b03168152600190910190602001808311610b6d575b5050505050905090565b60048054604080516020601f6002600019610100600188161502019095169490940493840181900481028201810190925282815260609390929091830182828015610b8b5780601f10610bf657610100808354040283529160200191610b8b565b820191906000526020600020905b815481529060010190602001808311610c0457509395945050505050565b60015460009060ff1615610c70576040805162461bcd60e51b815260206004820152601060248201526f14185d5cd8589b194e881c185d5cd95960821b604482015290519081900360640190fd5b8115801590610ca15750336000908152600a602090815260408083206001600160a01b038716845290915290205415155b15610cab57600080fd5b6000610cb5611d65565b9050610cc2818585611d69565b5060019392505050565b60035490565b60015460009060ff1615610d20576040805162461bcd60e51b815260206004820152601060248201526f14185d5cd8589b194e881c185d5cd95960821b604482015290519081900360640190fd5b6001600160a01b038316610d655760405162461bcd60e51b8152600401808060200182810382526024815260200180612fb66024913960400191505060405180910390fd5b6001600160a01b038416610daa5760405162461bcd60e51b815260040180806020018281038252602681526020018061302f6026913960400191505060405180910390fd5b6000610db4611d65565b9050610de2818686866040518060200160405280600081525060405180602001604052806000815250611e10565b610e0e81868686604051806020016040528060008152506040518060200160405280600081525061204f565b610e688582610e6386604051806060016040528060298152602001613006602991396001600160a01b03808c166000908152600a60209081526040808320938b1683529290522054919063ffffffff61226916565b611d69565b610e968186868660405180602001604052806000815250604051806020016040528060008152506000612300565b506001949350505050565b6000610eab611465565b610efc576040805162461bcd60e51b815260206004820181905260248201527f4f776e61626c653a2063616c6c6572206973206e6f7420746865206f776e6572604482015290519081900360640190fd5b60015460ff1615610f47576040805162461bcd60e51b815260206004820152601060248201526f14185d5cd8589b194e881c185d5cd95960821b604482015290519081900360640190fd5b610f79610f52611d65565b86866040518060200160405280600081525060405180602001604052806000815250612597565b83856001600160a01b03167fe2406cfd356cfbe4e42d452bde96d27f48c423e5f02b5d78695893308399519d8585604051808060200180602001838103835285818151815260200191508051906020019080838360005b83811015610fe8578181015183820152602001610fd0565b50505050905090810190601f1680156110155780820380516001836020036101000a031916815260200191505b50838103825284518152845160209182019186019080838360005b83811015611048578181015183820152602001611030565b50505050905090810190601f1680156110755780820380516001836020036101000a031916815260200191505b5094505050505060405180910390a3506001949350505050565b601290565b6110a461109f611d65565b611186565b6110df5760405162461bcd60e51b8152600401808060200182810382526030815260200180612e696030913960400191505060405180910390fd5b60015460ff16611136576040805162461bcd60e51b815260206004820152601460248201527f5061757361626c653a206e6f7420706175736564000000000000000000000000604482015290519081900360640190fd5b6001805460ff191690557f5db9ee0a495bf2e6ff9c91a7834c1ba4fdd244a5e8aa4e537bd38aeae4b073aa611169611d65565b604080516001600160a01b039092168252519081900360200190a1565b6000611198818363ffffffff6127c216565b92915050565b600190565b60015460ff1690565b60015460ff16156111f7576040805162461bcd60e51b815260206004820152601060248201526f14185d5cd8589b194e881c185d5cd95960821b604482015290519081900360640190fd5b611208611202611d65565b86611975565b6112435760405162461bcd60e51b815260040180806020018281038252602c815260200180612fda602c913960400191505060405180910390fd5b61125a61124e611d65565b86868686866001612829565b5050505050565b61127161126c611d65565b6128f4565b565b6001600160a01b031660009081526002602052604090205490565b611296611465565b6112e7576040805162461bcd60e51b815260206004820181905260248201527f4f776e61626c653a2063616c6c6572206973206e6f7420746865206f776e6572604482015290519081900360640190fd5b600b546040516000916001600160a01b0316907f8be0079c531659141344cd1fd0a4f28419497f9722a3daafe3b4186f6b6457e0908390a3600b805473ffffffffffffffffffffffffffffffffffffffff19169055565b61134961109f611d65565b6113845760405162461bcd60e51b8152600401808060200182810382526030815260200180612e696030913960400191505060405180910390fd5b61138d8161293c565b50565b61139b61109f611d65565b6113d65760405162461bcd60e51b8152600401808060200182810382526030815260200180612e696030913960400191505060405180910390fd5b60015460ff1615611421576040805162461bcd60e51b815260206004820152601060248201526f14185d5cd8589b194e881c185d5cd95960821b604482015290519081900360640190fd5b6001805460ff1916811790557f62e78cea01bee320cd4e420270b5ea74000d11b0c9f74754ebdbfc544b05a258611169611d65565b600b546001600160a01b031690565b600b546000906001600160a01b031661147c611d65565b6001600160a01b031614905090565b60015460ff16156114d6576040805162461bcd60e51b815260206004820152601060248201526f14185d5cd8589b194e881c185d5cd95960821b604482015290519081900360640190fd5b806001600160a01b03166114e8611d65565b6001600160a01b0316141561152e5760405162461bcd60e51b8152600401808060200182810382526024815260200180612ee16024913960400191505060405180910390fd5b6001600160a01b03811660009081526007602052604090205460ff1615611591576009600061155b611d65565b6001600160a01b03908116825260208083019390935260409182016000908120918516815292529020805460ff191690556115d8565b60016008600061159f611d65565b6001600160a01b03908116825260208083019390935260409182016000908120918616815292529020805460ff19169115159190911790555b6115e0611d65565b6001600160a01b0316816001600160a01b03167ff4caeb2d6ca8932a215a353d0703c326ec2d81fc68170f320eb2ab49e9df61f960405160405180910390a350565b60058054604080516020601f6002600019610100600188161502019095169490940493840181900481028201810190925282815260609390929091830182828015610b8b5780601f10610bf657610100808354040283529160200191610b8b565b60015460ff16156116ce576040805162461bcd60e51b815260206004820152601060248201526f14185d5cd8589b194e881c185d5cd95960821b604482015290519081900360640190fd5b6116fb6116d9611d65565b6116e1611d65565b858585604051806020016040528060008152506001612829565b505050565b60015460009060ff161561174e576040805162461bcd60e51b815260206004820152601060248201526f14185d5cd8589b194e881c185d5cd95960821b604482015290519081900360640190fd5b6001600160a01b0383166117935760405162461bcd60e51b8152600401808060200182810382526024815260200180612fb66024913960400191505060405180910390fd5b600061179d611d65565b90506117cb818286866040518060200160405280600081525060405180602001604052806000815250611e10565b6117f781828686604051806020016040528060008152506040518060200160405280600081525061204f565b610cc28182868660405180602001604052806000815250604051806020016040528060008152506000612300565b60015460009060ff1615611873576040805162461bcd60e51b815260206004820152601060248201526f14185d5cd8589b194e881c185d5cd95960821b604482015290519081900360640190fd5b6118ac61187e611d65565b611886611d65565b866040518060200160405280600081525060405180602001604052806000815250612984565b846001600160a01b0316847fd13f822d1c33fa32df0d6caea488b8c2b084e117a466bfac36a31c4908bf253485856040518080602001836001600160a01b03166001600160a01b03168152602001828103825284818151815260200191508051906020019080838360005b8381101561192f578181015183820152602001611917565b50505050905090810190601f16801561195c5780820380516001836020036101000a031916815260200191505b50935050505060405180910390a3506001949350505050565b6000816001600160a01b0316836001600160a01b031614806119e057506001600160a01b03831660009081526007602052604090205460ff1680156119e057506001600160a01b0380831660009081526009602090815260408083209387168352929052205460ff16155b80611a1057506001600160a01b0380831660009081526008602090815260408083209387168352929052205460ff165b9392505050565b6001600160a01b039182166000908152600a6020908152604080832093909416825291909152205490565b611a4a611465565b611a9b576040805162461bcd60e51b815260206004820181905260248201527f4f776e61626c653a2063616c6c6572206973206e6f7420746865206f776e6572604482015290519081900360640190fd5b61138d81612bb1565b60015460ff1615611aef576040805162461bcd60e51b815260206004820152601060248201526f14185d5cd8589b194e881c185d5cd95960821b604482015290519081900360640190fd5b611af7611d65565b6001600160a01b0316816001600160a01b03161415611b475760405162461bcd60e51b8152600401808060200182810382526021815260200180612f056021913960400191505060405180910390fd5b6001600160a01b03811660009081526007602052604090205460ff1615611bb357600160096000611b76611d65565b6001600160a01b03908116825260208083019390935260409182016000908120918616815292529020805460ff1916911515919091179055611bf1565b60086000611bbf611d65565b6001600160a01b03908116825260208083019390935260409182016000908120918516815292529020805460ff191690555b611bf9611d65565b6001600160a01b0316816001600160a01b03167f50546e66e5f44d728365dc3908c63bc5cfeeab470722c1677e3073a6ac294aa160405160405180910390a350565b60015460ff1615611c86576040805162461bcd60e51b815260206004820152601060248201526f14185d5cd8589b194e881c185d5cd95960821b604482015290519081900360640190fd5b611c97611c91611d65565b85611975565b611cd25760405162461bcd60e51b815260040180806020018281038252602c815260200180612fda602c913960400191505060405180910390fd5b611ce6611cdd611d65565b85858585612984565b50505050565b60015460ff1615611d37576040805162461bcd60e51b815260206004820152601060248201526f14185d5cd8589b194e881c185d5cd95960821b604482015290519081900360640190fd5b611d61611d42611d65565b611d4a611d65565b848460405180602001604052806000815250612984565b5050565b3390565b6001600160a01b038216611dae5760405162461bcd60e51b81526004018080602001828103825260238152602001806130786023913960400191505060405180910390fd5b6001600160a01b038084166000818152600a6020908152604080832094871680845294825291829020859055815185815291517f8c5be1e5ebec7d5bd14f71427d1e84f3dd0314c0f7b2291e5b200ac8c7c3b9259281900390910190a3505050565b6001546040805163555ddc6560e11b81526001600160a01b0388811660048301527f29ddb589b1fb5fc7cf394961c1adf5f8c6454761adf795e67fe149f658abe8956024830152915160009361010090049092169163aabbb8ca91604480820192602092909190829003018186803b158015611e8b57600080fd5b505afa158015611e9f573d6000803e3d6000fd5b505050506040513d6020811015611eb557600080fd5b505190506001600160a01b0381161561204657806001600160a01b03166375ab97828888888888886040518763ffffffff1660e01b815260040180876001600160a01b03166001600160a01b03168152602001866001600160a01b03166001600160a01b03168152602001856001600160a01b03166001600160a01b031681526020018481526020018060200180602001838103835285818151815260200191508051906020019080838360005b83811015611f7b578181015183820152602001611f63565b50505050905090810190601f168015611fa85780820380516001836020036101000a031916815260200191505b50838103825284518152845160209182019186019080838360005b83811015611fdb578181015183820152602001611fc3565b50505050905090810190601f1680156120085780820380516001836020036101000a031916815260200191505b5098505050505050505050600060405180830381600087803b15801561202d57600080fd5b505af1158015612041573d6000803e3d6000fd5b505050505b50505050505050565b61209283604051806060016040528060278152602001612e42602791396001600160a01b038816600090815260026020526040902054919063ffffffff61226916565b6001600160a01b0380871660009081526002602052604080822093909355908616815220546120c7908463ffffffff612c5f16565b60026000866001600160a01b03166001600160a01b0316815260200190815260200160002081905550836001600160a01b0316856001600160a01b0316876001600160a01b03167f06b541ddaa720db2b10a4d0cdac39b8d360425fc073085fac19bc82614677987868686604051808481526020018060200180602001838103835285818151815260200191508051906020019080838360005b83811015612179578181015183820152602001612161565b50505050905090810190601f1680156121a65780820380516001836020036101000a031916815260200191505b50838103825284518152845160209182019186019080838360005b838110156121d95781810151838201526020016121c1565b50505050905090810190601f1680156122065780820380516001836020036101000a031916815260200191505b509550505050505060405180910390a4836001600160a01b0316856001600160a01b03167fddf252ad1be2c89b69c2b068fc378daa952ba7f163c4a11628f55a4df523b3ef856040518082815260200191505060405180910390a3505050505050565b600081848411156122f85760405162461bcd60e51b81526004018080602001828103825283818151815260200191508051906020019080838360005b838110156122bd5781810151838201526020016122a5565b50505050905090810190601f1680156122ea5780820380516001836020036101000a031916815260200191505b509250505060405180910390fd5b505050900390565b6001546040805163555ddc6560e11b81526001600160a01b0388811660048301527fb281fc8c12954d22544db45de3159a39272895b169a852b314f9cc762e44c53b6024830152915160009361010090049092169163aabbb8ca91604480820192602092909190829003018186803b15801561237b57600080fd5b505afa15801561238f573d6000803e3d6000fd5b505050506040513d60208110156123a557600080fd5b505190506001600160a01b0381161561253957806001600160a01b03166223de298989898989896040518763ffffffff1660e01b815260040180876001600160a01b03166001600160a01b03168152602001866001600160a01b03166001600160a01b03168152602001856001600160a01b03166001600160a01b031681526020018481526020018060200180602001838103835285818151815260200191508051906020019080838360005b8381101561246a578181015183820152602001612452565b50505050905090810190601f1680156124975780820380516001836020036101000a031916815260200191505b50838103825284518152845160209182019186019080838360005b838110156124ca5781810151838201526020016124b2565b50505050905090810190601f1680156124f75780820380516001836020036101000a031916815260200191505b5098505050505050505050600060405180830381600087803b15801561251c57600080fd5b505af1158015612530573d6000803e3d6000fd5b5050505061258d565b811561258d57612551866001600160a01b0316612cb9565b1561258d5760405162461bcd60e51b815260040180806020018281038252604d815260200180612f69604d913960600191505060405180910390fd5b5050505050505050565b6001600160a01b0384166125f2576040805162461bcd60e51b815260206004820181905260248201527f4552433737373a206d696e7420746f20746865207a65726f2061646472657373604482015290519081900360640190fd5b600354612605908463ffffffff612c5f16565b6003556001600160a01b038416600090815260026020526040902054612631908463ffffffff612c5f16565b6001600160a01b03851660009081526002602052604081209190915561265e908690868686866001612300565b836001600160a01b0316856001600160a01b03167f2fe5be0146f74c5bce36c0b80911af6c7d86ff27e89d5cfa61fc681327954e5d858585604051808481526020018060200180602001838103835285818151815260200191508051906020019080838360005b838110156126dd5781810151838201526020016126c5565b50505050905090810190601f16801561270a5780820380516001836020036101000a031916815260200191505b50838103825284518152845160209182019186019080838360005b8381101561273d578181015183820152602001612725565b50505050905090810190601f16801561276a5780820380516001836020036101000a031916815260200191505b509550505050505060405180910390a36040805184815290516001600160a01b038616916000917fddf252ad1be2c89b69c2b068fc378daa952ba7f163c4a11628f55a4df523b3ef9181900360200190a35050505050565b60006001600160a01b0382166128095760405162461bcd60e51b8152600401808060200182810382526022815260200180612f476022913960400191505060405180910390fd5b506001600160a01b03166000908152602091909152604090205460ff1690565b6001600160a01b03861661286e5760405162461bcd60e51b8152600401808060200182810382526022815260200180612e206022913960400191505060405180910390fd5b6001600160a01b0385166128c9576040805162461bcd60e51b815260206004820181905260248201527f4552433737373a2073656e6420746f20746865207a65726f2061646472657373604482015290519081900360640190fd5b6128d7878787878787611e10565b6128e587878787878761204f565b61204687878787878787612300565b61290560008263ffffffff612cf516565b6040516001600160a01b038216907fcd265ebaf09df2871cc7bd4133404a235ba12eff2041bb89d9c714a2621c7c7e90600090a250565b61294d60008263ffffffff612d5c16565b6040516001600160a01b038216907f6719d08c1888103bea251a4ed56406bd0c3e69723c8a1686e017e7bbe159b6f890600090a250565b6001600160a01b0384166129c95760405162461bcd60e51b8152600401808060200182810382526022815260200180612ebf6022913960400191505060405180910390fd5b6129d885856000868686611e10565b612a1b83604051806060016040528060238152602001613055602391396001600160a01b038716600090815260026020526040902054919063ffffffff61226916565b6001600160a01b038516600090815260026020526040902055600354612a47908463ffffffff612ddd16565b600381905550836001600160a01b0316856001600160a01b03167fa78a9be3a7b862d26933ad85fb11d80ef66b8f972d7cbba06621d583943a4098858585604051808481526020018060200180602001838103835285818151815260200191508051906020019080838360005b83811015612acc578181015183820152602001612ab4565b50505050905090810190601f168015612af95780820380516001836020036101000a031916815260200191505b50838103825284518152845160209182019186019080838360005b83811015612b2c578181015183820152602001612b14565b50505050905090810190601f168015612b595780820380516001836020036101000a031916815260200191505b509550505050505060405180910390a36040805184815290516000916001600160a01b038716917fddf252ad1be2c89b69c2b068fc378daa952ba7f163c4a11628f55a4df523b3ef9181900360200190a35050505050565b6001600160a01b038116612bf65760405162461bcd60e51b8152600401808060200182810382526026815260200180612e996026913960400191505060405180910390fd5b600b546040516001600160a01b038084169216907f8be0079c531659141344cd1fd0a4f28419497f9722a3daafe3b4186f6b6457e090600090a3600b805473ffffffffffffffffffffffffffffffffffffffff19166001600160a01b0392909216919091179055565b600082820183811015611a10576040805162461bcd60e51b815260206004820152601b60248201527f536166654d6174683a206164646974696f6e206f766572666c6f770000000000604482015290519081900360640190fd5b6000813f7fc5d2460186f7233c927e7db2dcc703c0e500b653ca82273b7bfad8045d85a470818114801590612ced57508115155b949350505050565b612cff82826127c2565b612d3a5760405162461bcd60e51b8152600401808060200182810382526021815260200180612f266021913960400191505060405180910390fd5b6001600160a01b0316600090815260209190915260409020805460ff19169055565b612d6682826127c2565b15612db8576040805162461bcd60e51b815260206004820152601f60248201527f526f6c65733a206163636f756e7420616c72656164792068617320726f6c6500604482015290519081900360640190fd5b6001600160a01b0316600090815260209190915260409020805460ff19166001179055565b6000611a1083836040518060400160405280601e81526020017f536166654d6174683a207375627472616374696f6e206f766572666c6f77000081525061226956fe4552433737373a2073656e642066726f6d20746865207a65726f20616464726573734552433737373a207472616e7366657220616d6f756e7420657863656564732062616c616e6365506175736572526f6c653a2063616c6c657220646f6573206e6f742068617665207468652050617573657220726f6c654f776e61626c653a206e6577206f776e657220697320746865207a65726f20616464726573734552433737373a206275726e2066726f6d20746865207a65726f20616464726573734552433737373a20617574686f72697a696e672073656c66206173206f70657261746f724552433737373a207265766f6b696e672073656c66206173206f70657261746f72526f6c65733a206163636f756e7420646f6573206e6f74206861766520726f6c65526f6c65733a206163636f756e7420697320746865207a65726f20616464726573734552433737373a20746f6b656e20726563697069656e7420636f6e747261637420686173206e6f20696d706c656d656e74657220666f7220455243373737546f6b656e73526563697069656e744552433737373a207472616e7366657220746f20746865207a65726f20616464726573734552433737373a2063616c6c6572206973206e6f7420616e206f70657261746f7220666f7220686f6c6465724552433737373a207472616e7366657220616d6f756e74206578636565647320616c6c6f77616e63654552433737373a207472616e736665722066726f6d20746865207a65726f20616464726573734552433737373a206275726e20616d6f756e7420657863656564732062616c616e63654552433737373a20617070726f766520746f20746865207a65726f2061646472657373a265627a7a72315820f19fc9b9580b23c77d9192e3dcd6bc69c9f8137bda7834a04a7aae481d42f52364736f6c63430005100032526f6c65733a206163636f756e7420697320746865207a65726f2061646472657373",
  "source": "pragma solidity 0.5.16;\n\nimport \"./ERC777.sol\";\nimport \"@openzeppelin/contracts/ownership/Ownable.sol\";\nimport \"@openzeppelin/contracts/lifecycle/Pausable.sol\";\n\ncontract TokenBase is ERC777, Ownable {\n    event Minted(\n        address indexed toAddress,\n        uint256 indexed amount,\n        string defi,\n        string tx_id\n    );\n    event Burnt(\n        uint256 indexed amount,\n        string toAddress,\n        address indexed fromAddress,\n        address defi_relayer\n    );\n\n    constructor(\n        string memory name,\n        string memory symbol,\n        address[] memory defaultOperators\n    ) public ERC777(name, symbol, defaultOperators) {}\n\n    /* ===== Mint & Burn =====*/\n    function mint(\n        address account,\n        uint256 amount,\n        string memory defi,\n        string memory tx_id\n    ) public onlyOwner whenNotPaused returns (bool) {\n        _mint(_msgSender(), account, amount, \"\", \"\");\n        emit Minted(account, amount, defi, tx_id);\n        return true;\n    }\n\n    /*\n        dex burn cToken from its banker address to withdraw token to user.\n        Here useraddr is user conflux address, addr is user btc/eth address.\n    */\n    function burn(\n        address useraddr,\n        uint256 amount,\n        string memory addr,\n        address defi_relayer\n    ) public whenNotPaused returns (bool) {\n        _burn(_msgSender(), _msgSender(), amount, \"\", \"\");\n        emit Burnt(amount, addr, useraddr, defi_relayer);\n        return true;\n    }\n}\n",
  "sourcePath": "/Users/kang/work/nft-dex/boomflow-contract/contracts/ERC777/TokenBase.sol",
  "compiler": {
    "name": "solc",
    "version": "0.5.16+commit.9c3226ce.Emscripten.clang"
  },
  "schemaVersion": "3.0.23",
  "updatedAt": "2023-07-24T08:41:35.845Z",
  "devdoc": {
    "methods": {
      "allowance(address,address)": {
        "details": "See {IERC20-allowance}.     * Note that operator and allowance concepts are orthogonal: operators may not have allowance, and accounts with allowance may not be operators themselves."
      },
      "approve(address,uint256)": {
        "details": "See {IERC20-approve}.     * Note that accounts cannot have allowance issued by their operators."
      },
      "authorizeOperator(address)": {
        "details": "See {IERC777-authorizeOperator}."
      },
      "balanceOf(address)": {
        "details": "Returns the amount of tokens owned by an account (`tokenHolder`)."
      },
      "burn(uint256,bytes)": {
        "details": "See {IERC777-burn}.     * Also emits a {IERC20-Transfer} event for ERC20 compatibility."
      },
      "decimals()": {
        "details": "See {ERC20Detailed-decimals}.     * Always returns 18, as per the [ERC777 EIP](https://eips.ethereum.org/EIPS/eip-777#backward-compatibility)."
      },
      "defaultOperators()": {
        "details": "See {IERC777-defaultOperators}."
      },
      "granularity()": {
        "details": "See {IERC777-granularity}.     * This implementation always returns `1`."
      },
      "isOperatorFor(address,address)": {
        "details": "See {IERC777-isOperatorFor}."
      },
      "isOwner()": {
        "details": "Returns true if the caller is the current owner."
      },
      "name()": {
        "details": "See {IERC777-name}."
      },
      "operatorBurn(address,uint256,bytes,bytes)": {
        "details": "See {IERC777-operatorBurn}.     * Emits {Burned} and {IERC20-Transfer} events."
      },
      "operatorSend(address,address,uint256,bytes,bytes)": {
        "details": "See {IERC777-operatorSend}.     * Emits {Sent} and {IERC20-Transfer} events."
      },
      "owner()": {
        "details": "Returns the address of the current owner."
      },
      "pause()": {
        "details": "Called by a pauser to pause, triggers stopped state."
      },
      "paused()": {
        "details": "Returns true if the contract is paused, and false otherwise."
      },
      "renounceOwnership()": {
        "details": "Leaves the contract without owner. It will not be possible to call `onlyOwner` functions anymore. Can only be called by the current owner.     * NOTE: Renouncing ownership will leave the contract without an owner, thereby removing any functionality that is only available to the owner."
      },
      "revokeOperator(address)": {
        "details": "See {IERC777-revokeOperator}."
      },
      "send(address,uint256,bytes)": {
        "details": "See {IERC777-send}.     * Also emits a {IERC20-Transfer} event for ERC20 compatibility."
      },
      "symbol()": {
        "details": "See {IERC777-symbol}."
      },
      "totalSupply()": {
        "details": "See {IERC777-totalSupply}."
      },
      "transfer(address,uint256)": {
        "details": "See {IERC20-transfer}.     * Unlike `send`, `recipient` is _not_ required to implement the {IERC777Recipient} interface if it is a contract.     * Also emits a {Sent} event."
      },
      "transferFrom(address,address,uint256)": {
        "details": "See {IERC20-transferFrom}.    * Note that operator and allowance concepts are orthogonal: operators cannot call `transferFrom` (unless they have allowance), and accounts with allowance cannot call `operatorSend` (unless they are operators).    * Emits {Sent}, {IERC20-Transfer} and {IERC20-Approval} events."
      },
      "transferOwnership(address)": {
        "details": "Transfers ownership of the contract to a new account (`newOwner`). Can only be called by the current owner."
      },
      "unpause()": {
        "details": "Called by a pauser to unpause, returns to normal state."
      }
    }
  },
  "userdoc": {
    "methods": {}
  }
}